:100000006F80005D1300000013000000130000006B
:100010001300000013000000130000001300000094
:100020001300000013000000130000001300000084
:08003000130000007300100032
:1000380000000000000000005E8400006E840000E4
:10004800000000001685000000000000000000000D
:10005800188500001A85000000000000000000005C
:100068001C850000000000001E8500000000000044
:1000780020850000228500002485000026850000D8
:10008800288500002A85000026770000DA7700001E
:100098008E78000042790000F6790000368500006D
:1000A800388500003A8500003C8500003E85000048
:1000B8004085000042850000448500004685000018
:1000C800488500004A8500004C850000AA7A000097
:1000D80050850000F47C000054850000568500001F
:1000E800B47D00006E7E00002E7F00005E8500005B
:1000F8006085000062850000648500006685000058
:100108006885000032700000F6700000BA710000C7
:10011800C27B0000728500007485000076850000AF
:10012800268200007A8500007C8500007E8500001C
:100138008085000082850000EE7F00008685000033
:100148008272000046730000AE80000066810000E5
:100158009085000092850000948500009685000037
:10016800988500009A8500009C8500009E85000007
:10017800A0850000A2850000A48500007EA30000E1
:10018800A8850000AA8500005676000008740000C3
:10019800CC74000096750000B4850000E68200006B
:1001A800B8850000BA850000BC850000A683000061
:1001B800C0850000C2850000C4850000C685000017
:1001C800C8850000CA850000CC850000CE850000E7
:1001D8000000000000000000000000000000000017
:1001E8000000000000000000000000000000000007
:0801F8000000000000000000FF
:100200003D432A876373C3029377F700BDEFADE5E3
:10021000937606FF3D8ABA960CC34CC30CC74CC7F5
:100220004107E36BD7FE11E28280B306C3408A0622
:100230009702000096966780A6002307B700A306E2
:10024000B7002306B700A305B7002305B700A30432
:10025000B7002304B700A303B7002303B700A3022A
:10026000B7002302B700A301B7002301B700A30022
:10027000B7002300B700828093F5F50F93968500B1
:10028000D58D93960501D58D61B79396270097027A
:10029000000096968682E78086FA9680C1171D8FA9
:1002A0003E96E374C3F8A5B7011122CE00102326B1
:1002B000A4FE37F500E08328450037F500E093F809
:1002C000E8FF2322150183A841820965130505F47F
:1002D00033D5A802AA8601470325C4FEAA87014890
:1002E00037F500E03303F702B308D8029A98338356
:1002F000F60233B6F6029A85B387C8003E860CC96B
:1003000050C9B7F700E09843B7F700E0136707015B
:1003100098C3B7F700E09843B7F700E013671702F8
:1003200098C30100B7F700E0DC4313F717008547D7
:10033000E31AF7FEB7F700E09843B7F700E0799BC0
:1003400098C30100724405618280011106CE22CC5F
:100350000010AA8E2E8E32833685BA853E86C286DE
:100360004687F687A307F4FEF2872307F4FE9A87F1
:10037000A306F4FEAA872306F4FEAE87A305F4FEC7
:10038000B2872305F4FEB687A304F4FEBA872304DC
:10039000F4FE8347F4FE93068004014681453E85C2
:1003A000CD2A8347E4FE93068004014681453E85BD
:1003B000CD228347D4FE93068004014681453E85C5
:1003C000C92A8347C4FE93068004014681453E85C1
:1003D000C9228347B4FE93068004014681453E85C9
:1003E0004D2A8347A4FE93068004014681453E853D
:1003F0004D22834794FE93068004014681453E8545
:10040000492A834784FE93068004014681453E8540
:1004100049228347440093068004014681453E8576
:100420008D2A8347040093068004014681453E855A
:100430008D228347840093068004014681453E85D2
:10044000892A0100F240624405618280011106CED2
:1004500022CC00102326A4FE2324B4FEB2873687C4
:100460002313F4FEBA872312F4FE85450965EF8055
:100470003015B70705500D472380E700B707055033
:100480000547A380E700B7070550035744FE2392B2
:10049000E700B7070550035764FE2393E700B7074B
:1004A00005500327C4FE98C7B7070550032784FEED
:1004B000D8C7B707055011472381E70081451305C9
:1004C0006005EF60102D13056005EF60D028010076
:1004D000F240624405618280011122CE0010232681
:1004E000A4FEAE87A305F4FE8347B4FE85CB832725
:1004F000C4FEBD8B0547B317F70093960701C18271
:100500008327C4FE13D75700B70700200A07938735
:100510000704BA979C43368798CB3DA08327C4FE37
:10052000BD8B0547B317F70093960701C182832758
:10053000C4FE13D75700B70700200A0793870704A4
:10054000BA979C433687D8CB0100724405618280FC
:10055000011122CE00102326A4FE8327C4FE95831A
:1005600013F77700B70700200A0793870704BA97A5
:100570009C439C470327C4FE7D8B85463397E6004A
:10058000F98FB337F00093F7F70F3E85724405619A
:100590008280797106D622D40018232EA4FC232C45
:1005A000B4FCB2872328D4FCA30BF4FC232004FE64
:1005B000232204FE232404FE8327C4FD958393F79E
:1005C000F70F9D8BA307F4FE8327C4FD93F7F70F66
:1005D000FD8B2307F4FE8347F4FE91E78545114523
:1005E000EF80700291A80347F4FE85476317F70078
:1005F00085452145EF80300181A00347F4FE8947FE
:100600006317F70085454145EF80E07F35A003473C
:10061000F4FE8D476318F700854513050002EF804F
:10062000807E19A80347F4FE91476317F7008545BC
:1006300013050004EF80207D8347E4FE0547B317D0
:10064000F700C207C1832310F4FE032784FD85470A
:100650006317F702832704FDC207C183A183C20782
:10066000C18389E78D472322F4FE11A8832704FD67
:10067000C207C183A183C207C1832322F4FE83275B
:1006800004FDC207C18393F7F70F2324F4FE034749
:10069000F4FEB70700200A0793870704BA979C4324
:1006A000130704FEBA853E85EF808002032784FD90
:1006B00085476319F7020347F4FEB70700200A07CE
:1006C00093870704BA9794438347E4FE0547B3171B
:1006D000F700C207C183034774FD3A86BE8536859D
:1006E000EF80A0210100B2502254456182807971CF
:1006F00006D622D40018232EA4FC232CB4FC0327F6
:1007000084FD896793871771B337F70093F7F70F65
:100710003E8713065003E1679385C78B3A85EF4008
:10072000F03DB7370140938707C02326F4FE8327A7
:10073000C4FDC183BD8B2547636EF7061397270061
:10074000E1679387C71EBA979C438287B7370140FA
:10075000938707C02326F4FEB1A8B70700402326DD
:10076000F4FE89A8B7070040938707402326F4FECC
:1007700091A0B7170040938707802326F4FE1DA899
:10078000B7170040938707C02326F4FE25A0B7378C
:100790000140938707402326F4FE29A8B75701405C
:1007A000938707C02326F4FE31A0B75701402326C4
:1007B000F4FE01008327C4FE83D7C7022315F4FE8D
:1007C0000357A4FE832784FD3307F70289679387C5
:1007D0000771B357F7022314F4FE8327C4FDA183E6
:1007E0008D8B81EB8327C4FE035784FE239AE70297
:1007F000A9A88327C4FDA18313F737008547631990
:10080000F7008327C4FE035784FE239CE70235A824
:100810008327C4FDA18313F7370089476319F700C5
:100820008327C4FE035784FE239EE70239A883274B
:10083000C4FDA18313F737008D476318F7008327A2
:10084000C4FE035784FE2390E7040100B2502254F3
:10085000456182805D7186C6A2C48008232EA4FAF9
:10086000232CB4FA232AC4FA8327C4FBC1838D4501
:100870003E85EF102026AA873E871306D00AE1673F
:100880009385C78B3A85EF407027032744FB896720
:1008900093871771B337F70093F7F70F3E87130667
:1008A000F00AE1679385C78B3A85EF403025232E08
:1008B00004FC232004FE231204FE232604FC232828
:1008C00004FC232A04FC232C04FC231504FE8327A8
:1008D000C4FBC183BD8B3E85EF1020268327C4FB5C
:1008E00093F7F70F93068031014685453E855531D4
:1008F00085450545EF802051B7370140938707C0F4
:100900002326F4FE8327C4FBC183BD8B2547636E7A
:10091000F70613972700E16793874721BA979C430F
:100920008287B7370140938707C02326F4FEB1A81A
:10093000B70700402326F4FE89A8B7070040938735
:1009400007402326F4FE91A0B71700409387078045
:100950002326F4FE1DA8B7170040938707C023265F
:10096000F4FE25A0B7370140938707402326F4FE05
:1009700029A8B7570140938707C02326F4FE31A06A
:10098000B75701402326F4FE01008327C4FB13D789
:10099000C7008D47631AF7008545B7071600138512
:1009A000070CEF70107915AA8327C4FB13D7C70073
:1009B000C547631AF7008545B70718001385071068
:1009C000EF70307719AA8327C4FB13D7C700C94734
:1009D000631AF7008545B707180013850720EF70E5
:1009E0005075E5A88327C4FB13D7C700CD47631A0A
:1009F000F7008545B707180013850730EF7070734F
:100A0000E9A88327C4FB13D7C70093072002631A02
:100A1000F7008545B7171A0013850780EF707071CE
:100A20006DA88327C4FB13D7C70093073002631A4E
:100A3000F7008545B7171A00138507C0EF70706F70
:100A400069A88327C4FB13D7C70093071003631754
:100A5000F70085450565EF70D06D41A08327C4FB85
:100A600013D7C70093071007631AF7008545B70728
:100A7000008013854700EF70D06B85A08327C4FBEF
:100A800013D7C70093073008631AF7008545B707E7
:100A9000138013850701EF70D06981A08327C4FB01
:100AA00013D7C70093071009631AF7008545B707E6
:100AB000158013850702EF70D06705A08327C4FB5C
:100AC00013D7C700930730096319F7008545B707A7
:100AD000158013850704EF70D06503A74182832733
:100AE00084FBB357F702C1832315F4FE03A74182A9
:100AF0008357A4FE8507BE86832784FBB387F6024F
:100B0000B357F7022314F4FE035784FE832744FBF4
:100B10003307F702896793870771B357F7022313E7
:100B2000F4FE835784FEFD17C207C1832310F4FE31
:100B30008357A4FE231EF4FC231104FE231F04FC90
:100B4000230204FE9307C4FDBE850325C4FEEF8087
:100B50008059930700072316F4FC85472317F4FCFC
:100B6000231804FC835764FE2319F4FC8947231AD5
:100B7000F4FC8947231BF4FC231C04FC231D04FC08
:100B80008327C4FBA1838D8B9DE39307C4FCBE85A3
:100B90000325C4FEEF80006DA1450325C4FEEF8050
:100BA000F06491450325C4FEEF80107945A08327AA
:100BB000C4FBA18313F7370085476315F70293073A
:100BC000C4FCBE850325C4FEEF809003A145032528
:100BD000C4FEEF807066930500400325C4FEEF80DD
:100BE000707AADA08327C4FBA18313F73700894730
:100BF0006314F7029307C4FCBE850325C4FEEF808F
:100C0000501EA1450325C4FEEF80B0689145032521
:100C1000C4FEEF80907C1DA88327C4FBA18313F73B
:100C200037008D476314F7029307C4FCBE85032584
:100C3000C4FEEF80D038A1450325C4FEEF80306AA2
:100C4000930500400325C4FEEF80F07D8545032514
:100C5000C4FEEF80B05385450325C4FEEF80904D60
:100C60000100B640264461618280797106D622D4A3
:100C70000018232EA4FC8327C4FDB337F00093F79C
:100C8000F70F3E8713061004E1679385C7943A85F2
:100C9000EF40C0668327C4FD9C43BD8B0547B31757
:100CA000F70093960701C1828327C4FD9C4313D7A5
:100CB0005700B70700200A0793870704BA979C4399
:100CC000368798CB8327C4FDDC43BD8B0547B3171C
:100CD000F70093960701C1828327C4FDDC4313D735
:100CE0005700B70700200A0793870704BA979C4369
:100CF000368798CB8327C4FDDC472326F4FE01000A
:100D00008327C4FE1387F7FF2326E4FEF5FB832722
:100D1000C4FDDC43BD8B0547B317F700939607016D
:100D2000C1828327C4FDDC4313D75700B7070020D7
:100D30000A0793870704BA979C433687D8CB832743
:100D4000C4FDDC472324F4FE0100832784FE1387BF
:100D5000F7FF2324E4FEF5FB8327C4FD9C43BD8BF2
:100D60000547B317F70093960701C1828327C4FD97
:100D70009C4313D75700B70700200A07938707043F
:100D8000BA979C433687D8CB0100B25022544561B4
:100D90008280797106D622D40018232EA4FC8327E2
:100DA000C4FDB337F00093F7F70F3E8713064005F5
:100DB000E1679385C7943A85EF4040548327C4FD8B
:100DC000DC43BD8B0547B317F70093960701C1823B
:100DD0008327C4FDDC4313D75700B70700200A0759
:100DE00093870704BA979C433687D8CB8327C4FDE3
:100DF0009C43BD8B0547B317F70093960701C1824B
:100E00008327C4FD9C4313D75700B70700200A0768
:100E100093870704BA979C433687D8CB8327C4FDB2
:100E2000DC472326F4FE01008327C4FE1387F7FF67
:100E30002326E4FEF5FB8327C4FD9C43BD8B0547B9
:100E4000B317F70093960701C1828327C4FD9C4323
:100E500013D75700B70700200A0793870704BA97EC
:100E60009C43368798CB8327C4FDDC472324F4FEBC
:100E70000100832784FE1387F7FF2324E4FEF5FB9C
:100E80008327C4FDDC43BD8B0547B317F70093965A
:100E90000701C1828327C4FDDC4313D75700B7077E
:100EA00000200A0793870704BA979C43368798CB9C
:100EB0008327C4FDDC472322F4FE0100832744FE80
:100EC0001387F7FF2322E4FEF5FB0100B250225402
:100ED00045618280797106D622D40018232EA4FCA5
:100EE000AE87A30DF4FC8327C4FDB337F00093F75E
:100EF000F70F3E8713069006E1679385C7943A85FE
:100F0000EF40C03F8327C4FD9C43BD8B0547B3170B
:100F1000F70093960701C1828327C4FD9C4313D732
:100F20005700B70700200A0793870704BA979C4326
:100F30003687D8CB8347B4FD95CB8327C4FDDC43EC
:100F4000BD8B0547B317F70093960701C18283272E
:100F5000C4FDDC4313D75700B70700200A07938767
:100F60000704BA979C43368798CB0DA88327C4FD06
:100F7000DC43BD8B0547B317F70093960701C18289
:100F80008327C4FDDC4313D75700B70700200A07A7
:100F900093870704BA979C433687D8CB8327C4FD31
:100FA000DC472326F4FE01008327C4FE1387F7FFE6
:100FB0002326E4FEF5FB8327C4FD9C43BD8B054738
:100FC000B317F70093960701C1828327C4FD9C43A2
:100FD00013D75700B70700200A0793870704BA976B
:100FE0009C43368798CB8327C4FDDC472324F4FE3B
:100FF0000100832784FE1387F7FF2324E4FEF5FB1B
:101000008327C4FD9C43BD8B0547B317F700939618
:101010000701C1828327C4FD9C4313D75700B7073C
:1010200000200A0793870704BA979C433687D8CBDA
:101030008327C4FDDC43BD8B0547B317F7009396A8
:101040000701C1828327C4FDDC4313D75700B707CC
:1010500000200A0793870704BA979C43368798CBEA
:101060000100B250225445618280797106D622D4A3
:101070000018232EA4FC8327C4FDB337F00093F798
:10108000F70F3E8713065008E1679385C7943A85AA
:10109000EF40C026A30704FE8327C4FD9C43BD8BFD
:1010A0000547B317F70093960701C1828327C4FD54
:1010B0009C4313D75700B70700200A0793870704FC
:1010C000BA979C433687D8CB8327C4FDDC43BD8BBE
:1010D0000547B317F70093960701C1828327C4FD24
:1010E000DC4313D75700B70700200A07938707048C
:1010F000BA979C43368798CB8327C4FDDC472324CB
:10110000F4FE0100832784FE1387F7FF2324E4FE07
:10111000F5FB8327C4FD9C43BD8B0547B317F70040
:1011200093960701C1828327C4FD9C4313D75700C0
:10113000B70700200A0793870704BA979C433687AE
:1011400098CB8327C4FDDC472322F4FE01008327CC
:1011500044FE1387F7FF2322E4FEF5FB8327C4FD3B
:10116000DC433E85EFF0CFBEAA8781C78547A30742
:10117000F4FE8327C4FD9C43BD8B0547B317F700DE
:1011800093960701C1828327C4FD9C4313D7570060
:10119000B70700200A0793870704BA979C4336874E
:1011A000D8CB8327C4FDDC472320F4FE010083272E
:1011B00004FE1387F7FF2320E4FEF5FB8347F4FECC
:1011C0003E85B250225445618280797106D622D480
:1011D0000018232EA4FCAE87A30DF4FC8327C4FDC6
:1011E000B337F00093F7F70F3E871306700AE167F5
:1011F0009385C7943A85EF406010930700F8A307E2
:10120000F4FE09AA0347B4FD8347F4FEF98F93F770
:10121000F70F95CB8327C4FDDC43BD8B0547B31780
:10122000F70093960701C1828327C4FDDC4313D7DF
:101230005700B70700200A0793870704BA979C4313
:10124000368798CB0DA88327C4FDDC43BD8B0547AB
:10125000B317F70093960701C1828327C4FDDC43CF
:1012600013D75700B70700200A0793870704BA97D8
:101270009C433687D8CB8347F4FE8583A307F4FECF
:101280008327C4FDDC472324F4FE0100832784FE6A
:101290001387F7FF2324E4FEF5FB8327C4FD9C435B
:1012A000BD8B0547B317F70093960701C1828327CB
:1012B000C4FD9C4313D75700B70700200A07938744
:1012C0000704BA979C43368798CB8327C4FDDC4735
:1012D0002322F4FE0100832744FE1387F7FF232215
:1012E000E4FEF5FB8327C4FD9C43BD8B0547B31784
:1012F000F70093960701C1828327C4FD9C4313D74F
:101300005700B70700200A0793870704BA979C4342
:101310003687D8CB8347F4FEE39607EE0325C4FD5A
:10132000A933AA87FD17B337F00093F7F70F3E856F
:10133000B250225445618280397106DE22DC26DA01
:1013400080002326A4FCAE87A305F4FC8327C4FCFD
:10135000B337F00093F7F70F3E871306000CE167F1
:101360009385C7943A85EF307079A30704FEA147AF
:101370002307F4FE8327C4FC9C43BD8B0547B317AA
:10138000F70093960701C1828327C4FC9C4313D7BF
:101390005700B70700200A0793870704BA979C43B2
:1013A0003687D8CB8327C4FCDC472324F4FE010016
:1013B000832784FE1387F7FF2324E4FEF5FB8327AE
:1013C000C4FCDC43BD8B0547B317F70093960701B8
:1013D000C1828327C4FCDC4313D75700B707002022
:1013E0000A0793870704BA979C43368798CB7DA852
:1013F0008327C4FC9C43BD8B0547B317F700939626
:101400000701C1828327C4FC9C4313D75700B70749
:1014100000200A0793870704BA979C433687D8CBE6
:101420008327C4FCDC472322F4FE0100832744FE0B
:101430001387F7FF2322E4FEF5FB8327C4FC9C43BC
:10144000BD8B0547B317F70093960701C182832729
:10145000C4FC9C4313D75700B70700200A079387A3
:101460000704BA979C43368798CB8327C4FCDC4794
:101470002320F4FE0100832704FE1387F7FF2320B7
:10148000E4FEF5FB8347F4FE860793948701E1842D
:101490008327C4FCDC433E85EFF08F8BAA87E207ED
:1014A000E187C58FE207E187A307F4FE8347E4FEE7
:1014B0001387F7FF2307E4FE85FF8327C4FC9C43C3
:1014C000BD8B0547B317F70093960701C1828327A9
:1014D000C4FC9C4313D75700B70700200A07938723
:1014E0000704BA979C433687D8CB8327C4FCDC47D4
:1014F000232EF4FC01008327C4FD1387F7FF232E5E
:10150000E4FCF5FB8347B4FCBE850325C4FCD9325B
:101510008347F4FE3E85F2506254D25421618280AA
:10152000011106CE22CC00102326A4FEAE873287FE
:10153000A305F4FEBA872305F4FE8327C4FEB33760
:10154000F00093F7F70F3E8713062029E167938594
:10155000C7943A85EF30905A0325C4FEEFF0EFF0C0
:101560008327C4FE83C78700860793F7F70FBE85DE
:101570000325C4FE99398347B4FEBE850325C4FE06
:10158000A9318347A4FEBE850325C4FE3D3903254A
:10159000C4FEEFF01F800100F240624405618280CA
:1015A000797106D622D40018232EA4FCAE87A30D91
:1015B000F4FC8327C4FDB337F00093F7F70F3E87A1
:1015C0001306402AE1679385C7943A85EF3010539C
:1015D000A30704FE0325C4FDEFF02FE98327C4FD14
:1015E00083C78700860793F7F70FBE850325C4FDE1
:1015F000E93E8347B4FDBE850325C4FDF9360325C6
:10160000C4FDEFF00FF90325C4FDEFF00FE68327CB
:10161000C4FD83C787008607E207E18793E71700C9
:10162000E207E18793F7F70FBE850325C4FD713EFE
:1016300085450325C4FD0933AA87A307F4FE0325C6
:10164000C4FDEFF00FF58347F4FE3E85B2502254FF
:1016500045618280797106D622D400182326A4FE23
:10166000AE872322C4FE2320D4FE232EE4FCA30550
:10167000F4FE8327C4FEB337F00093F7F70F3E87DD
:101680001306F02BE1679385C7943A85EF30104736
:10169000032704FE8327C4FDB307F740B337F000E8
:1016A00093F7F70F3E871306002CE1679385C794E5
:1016B0003A85EF30B0448327C4FE032704FE98C365
:1016C0008327C4FE0327C4FDD8C38327C4FE034772
:1016D000B4FE2384E7008327C4FE032744FED8C753
:1016E000C14605468545032504FEEFE09FEAD14645
:1016F000054685450325C4FDEFE0BFE90100B25072
:10170000225445618280011122CE00102326A4FEBE
:10171000AE87A305F4FEE1670327C4FE0A0793879B
:10172000C723BA979C433E878347B4FEC207C18351
:101730002316F7000100E1670327C4FE0A07938719
:10174000C723BA979C4383D78700C207C18393F707
:101750000708F5F30100724405618280011122CE71
:1017600000102326A4FEAE872315F4FE8357A4FEA3
:10177000A183C207C18393F6F70FE1670327C4FE75
:101780000A079387C723BA979C433E87939706011E
:10179000C1832316F7000100E1670327C4FE0A078F
:1017A0009387C723BA979C4383D78700C207C18317
:1017B000898BFDD38357A4FE93F6F70FE1670327C8
:1017C000C4FE0A079387C723BA979C433E87939723
:1017D0000601C1832316F7000100E1670327C4FE59
:1017E0000A079387C723BA979C4383D78700C2070A
:1017F000C18393F70708F5F3010072440561828005
:101800005D7186C6A2C480082326A4FC2324B4FCF0
:101810002322C4FC2320D4FC232EE4FA232CF4FA44
:10182000232A04FBE1670327C4FC0A079387C72325
:10183000BA979C433E85EF70806E85450545EF70F5
:10184000805C032704FC93073012631DF700032715
:10185000C4FB930750126317F70085450545EF70E9
:10186000400D25A0032704FC89679387A714631EF6
:10187000F7000327C4FB89679387C7146317F70032
:10188000854537152000EF70C00A8327C4FC91E717
:1018900085450565EF70205725A00327C4FC8547C3
:1018A0006317F70085451165EF70405A11A80327AB
:1018B000C4FC89476316F70085452165EF70005920
:1018C000832704FC93F7F70F93068031054685457F
:1018D0003E85EFE01FCC8327C4FB93F7F70F9306F9
:1018E0008031054685453E85EFE0BFCA032784FB6E
:1018F000C167F917630DF700832784FB93F7F70F90
:1019000093068034054681453E85EFE09FC8032756
:1019100044FB9307F00F630DF700832744FB93F715
:10192000F70F93060031014685453E85EFE07FC6FF
:10193000232E04FC232004FE232204FE232404FE81
:10194000231604FE231E04FC93074010231FF4FCFF
:10195000231004FE032784FC85476305F7028327D1
:1019600084FC81CF032784FC89476303F7020327A4
:1019700084FC8D476304F7020DA8231104FE231293
:1019800004FE25A0231104FE85472312F4FE31A88E
:1019900089472311F4FE231204FE01A8894723116D
:1019A000F4FE85472312F4FE0100231704FE03A76B
:1019B0004182832744FCB357F7022317F4FE03A7A1
:1019C0004182832744FCB377F70291E78357E4FE13
:1019D000FD172317F4FE0357E4FE9307F00763F7A0
:1019E000E700930780032317F4FE49A80357E4FE9A
:1019F0009307F00363F7E700930700032317F4FE50
:101A0000B5A80357E4FEFD4763F7E700930780029C
:101A10002317F4FEA5A00357E4FEBD4763F7E700D4
:101A2000930700022317F4FE91A80357E4FE9D4795
:101A300063F6E700E1472317F4FE89A00357E4FEAD
:101A40008D4763F6E700C1472317F4FE05A8035747
:101A5000E4FE854763F6E700A1472317F4FE39A8A3
:101A60008357E4FE81C7231704FE09A813068022CA
:101A7000E1679385079E0145EF3050088357E4FEE8
:101A80002314F4FE930700202313F4FE231504FE11
:101A9000231604FEE1670327C4FC0A079387C723C4
:101AA000BA979C433E879307C4FDBE853A85EF7085
:101AB000604EE1670327C4FC0A079387C723BA97E0
:101AC0009C4385453E85EF70605C0100B64026442E
:101AD00061618280797122D60018232EA4FC232C08
:101AE000B4FC8547A307F4FE0327C4FD0A079387C8
:101AF0004197BA979C4399EB0327C4FD0A07938744
:101B00004197BA97032784FD98C315A00327C4FD06
:101B10000A0793874197BA979C43032784FD63166E
:101B2000F7008547A307F4FE19A0A30704FE834727
:101B3000F4FE3E85325445618280011106CE22CCEE
:101B400000102326A4FE8327C4FE81EB854585670C
:101B500013850780EF70202B6DA80327C4FE8547EF
:101B60006317F70085450545EF70402E5DA00327FC
:101B7000C4FE89476317F70085450945EF70002DBE
:101B800049A80327C4FE8D476317F7008545114513
:101B9000EF70C02BBDA80327C4FE91476317F70061
:101BA00085452145EF70802AADA00327C4FE9547E7
:101BB0006317F70085454145EF70402999A8032731
:101BC000C4FE99476318F700854513050002EF70BE
:101BD000E02781A00327C4FE9D476317F7008545D2
:101BE0000965EF70402235A00327C4FEA1476318A2
:101BF000F700854537050800EF70E02019A8032796
:101C0000C4FEA5476317F700854537051000EF7040
:101C1000801F0100F240624405618280797106D61E
:101C200022D40018232EA4FCB7370140938707C0A5
:101C30002326F4FE0327C4FDA54763ECE7088327AA
:101C4000C4FD13972700E16793878724BA979C43C5
:101C50008287B7370140938707C02326F4FE95A8F3
:101C6000B70700402326F4FEADA0B70700409387D6
:101C700007402326F4FEB1A8B717004093870780DA
:101C80002326F4FEB9A0B7170040938707C0232688
:101C9000F4FE81A0B71700402326F4FE1DA8B71755
:101CA0000040938707402326F4FE25A0B737014064
:101CB000938707402326F4FE29A8B757014093874E
:101CC00007C02326F4FE31A0B75701402326F4FEB7
:101CD000010085450325C4FEEF70D0450100B250D8
:101CE000225445618280797122D60018232EA4FCEB
:101CF000B7370140938707C02326F4FE231504FE5F
:101D00000327C4FDA54763ECE7088327C4FD1397A9
:101D10002700E16793870727BA979C438287B737E5
:101D20000140938707C02326F4FE95A8B70700401B
:101D30002326F4FEADA0B707004093870740232673
:101D4000F4FEB1A8B7170040938707802326F4FE5E
:101D5000B9A0B7170040938707C02326F4FE81A0DF
:101D6000B71700402326F4FE1DA8B717004093873D
:101D700007402326F4FE25A0B7370140938707408C
:101D80002326F4FE29A8B7570140938707C02326CE
:101D9000F4FE31A0B75701402326F4FE01000327CB
:101DA000C4FD0A079387C199BA9798438947631F6F
:101DB000F7008327C4FE83D74702139707014183A7
:101DC0008D47B357F7022315F4FE39A08327C4FECD
:101DD00083D747022315F4FE8357A4FE3E85325471
:101DE00045618280797122D60018232EA4FCB73772
:101DF0000140938707C02326F4FE0327C4FDA547AF
:101E000063ECE7088327C4FD13972700E1679387F6
:101E10008729BA979C438287B7370140938707C0C9
:101E20002326F4FE95A8B70700402326F4FEADA0B4
:101E3000B7070040938707402326F4FEB1A8B717E1
:101E40000040938707802326F4FEB9A0B71700400F
:101E5000938707C02326F4FE81A0B71700402326EE
:101E6000F4FE1DA8B7170040938707402326F4FE11
:101E700025A0B7370140938707402326F4FE29A801
:101E8000B7570140938707C02326F4FE31A0B75708
:101E900001402326F4FE01008327C4FE239207029B
:101EA0000100325445618280797106D622D400182F
:101EB000232EA4FC232CB4FC85450325C4FD19392D
:101EC000AA873E871306200FE167938507A73A8507
:101ED000EF30C0420327C4FD0A0793874197BA97A2
:101EE000054798C3B7370140938707C02326F4FE00
:101EF0000327C4FDA54763ECE7088327C4FD1397B8
:101F00002700E1679387072CBA979C438287B737EE
:101F10000140938707C02326F4FE95A8B707004029
:101F20002326F4FEADA0B707004093870740232681
:101F3000F4FEB1A8B7170040938707802326F4FE6C
:101F4000B9A0B7170040938707C02326F4FE81A0ED
:101F5000B71700402326F4FE1DA8B717004093874B
:101F600007402326F4FE25A0B7370140938707409A
:101F70002326F4FE29A8B7570140938707C02326DC
:101F8000F4FE31A0B75701402326F4FE01000325DB
:101F9000C4FD65360327C4FD0A079387C199BA9724
:101FA000032784FD98C3232004FE232204FE231468
:101FB00004FE032784FD85476315F702FD572312AE
:101FC000F4FE03A74182B7470F0093870724B35756
:101FD000F702C207C183FD17C207C1832310F4FEB5
:101FE0002DA8032784FD89476314F702FD572312A8
:101FF000F4FE03A741828567938787BBB357F70237
:10200000C207C183FD17C207C1832310F4FE31A0AC
:10201000FD572312F4FE231004FE231304FE2311A4
:1020200004FE230404FE930704FEBE850325C4FEBC
:10203000EF70600B85450325C4FEEF70B00F010003
:10204000B250225445618280011122CE0010232615
:10205000A4FEAE87A305F4FE0100E1670327C4FEDA
:102060000A079387872EBA979C4383D70700C20736
:10207000C18393F70708F5D3E1670327C4FE0A0776
:102080009387872EBA979C433E878347B4FEC20747
:10209000C1832312F700010072440561828001119F
:1020A00006CE22CC00102326A4FE2324B4FE232235
:1020B000C4FE832784FEB337F00093F7F70F3E8703
:1020C00013061004E167938547B03A85EF3000238B
:1020D00029A8832784FE138717002324E4FE83C7DF
:1020E0000700BE850325C4FE8537832744FE13877A
:1020F000F7FF2322E4FEF1FF0100F2406244056194
:102100008280011106CE22CC00102326A4FE2324B7
:10211000B4FE832784FEB337F00093F7F70F3E87B2
:1021200013060005E167938547B03A85EF30001D3F
:1021300039A8832784FE138717002324E4FE8387AE
:10214000070093F7F70FBE850325C4FEF53D8327EF
:1021500084FE83870700F1FF0100F24062440561BD
:102160008280011106CE22CC00102326A4FEAE8769
:10217000A305F4FEE1670327C4FE0A079387872EB1
:10218000BA979C433E878347B4FE3E8693055052E0
:102190003A85EF70D0611387C1848327C4FEBA9754
:1021A00083C7070081453E85EF40B05E8347B4FE9C
:1021B00081CF1387C1848327C4FEBA9783C70700E2
:1021C0003E85EF40505919A81387C1848327C4FE68
:1021D000BA9783C707003E85EF40D0590100F2400F
:1021E000624405618280011122CE00102326A4FEE4
:1021F0002324B4FEE1670327C4FE0A079387872ED2
:10220000BA979C4383D70700C207C18393F707029D
:102210008DC7E1670327C4FE0A079387872EBA9705
:102220009C4383D74700C207C18313F7F70F832767
:1022300084FE2380E700854711A081473E857244D4
:1022400005618280797106D622D40018232EA4FC61
:10225000232CB4FC232AC4FC2328D4FC032744FDEC
:10226000832704FD3D8F8327C4FDB207F98F93B701
:10227000170093F7F70F3E871306A00AE1679385CF
:1022800047B03A85EF308007832744FD13D7870096
:10229000832704FDA183B307F74093B7170093F793
:1022A000F70F3E871306B00AE167938547B03A857A
:1022B000EF30C004832744FD93F7F70FE146014652
:1022C00085453E85EFE0EFAC832704FD93F7F70FDC
:1022D00093068004014681453E85EFE08FAB85453E
:1022E0000545EF605032032744FDC167FD17F98FA4
:1022F0000D67130707386387E7200D671307073853
:102300006369F7040567130757166381E7160567C6
:1023100013075716636FF7001307F022638AE70C61
:10232000130760306381E710130760126388E708C2
:1023300065A6096713078736638BE7160D671307D2
:1023400007126387E71809671307A7146380E71468
:1023500061A615671307A738638EE726156713076D
:10236000A7386362F7021167130787386380E72095
:102370001567130787126385E72211671307471252
:10238000638CE71A91AE19671307C7386388E72A89
:1023900019671307C7386368F700196713076710D1
:1023A0006384E72615AE1D671307E7106382E72CE9
:1023B0001D671307E7386387E72E39AEB70701407B
:1023C000D44FB7070140370700FC7D17758FD8CF72
:1023D000B7070140D843B70701406D9BD8C3B70783
:1023E0000140D843B707014013674700D8C3EDA4A5
:1023F000B7070140D44FB7070140370700FC7D17EE
:10240000758FD8CFB7070140D44FB70701403707C2
:102410000004558FD8CFB7070140D843B707014014
:102420006D9BD8C355ACB7070140D44FB7070140E7
:10243000370700FC7D17758FD8CFB7070140D44F01
:10244000B707014037070004558FD8CFB7070140C1
:10245000D843B70701406D9BD8C3B7070140D843A5
:10246000B707014013674700D8C3BDA4B7070140B1
:10247000D843B70701405D9BD8C3B7070140D84395
:10248000B707014013678700D8C3B9A4B707014055
:10249000D843B70701401377F7FCD8C3B70701400B
:1024A000D843B707014013670701D8C335A4B7075E
:1024B0000140D843B70701401377F7FCD8C3B707EB
:1024C0000140D843B707014013670703D8C329A4C5
:1024D000B7070140D44FB70701403707FDFF7D170D
:1024E000758FD8CFB7070140D44F832744FDA18310
:1024F00013970701B70703007D8FB7070140558F7A
:10250000D8CFD9AAB7070140D44FB7070140370742
:10251000FDFF7D17758FD8CFB7070140D44F8327B4
:1025200044FDA18313970701B70703007D8FB70709
:102530000140558FD8CF4DA2B7070140D44FB70700
:1025400001403707F4FF7D17758FD8CFB7070140DB
:10255000D44F832744FDA18313972701B7070C00AD
:102560007D8FB7070140558FD8CFBDA2B707014077
:10257000D44FB70701403707F4FF7D17758FD8CFC9
:10258000B7070140D44F832744FDA1831397270148
:10259000B7070C007D8FB7070140558FD8CF2DAA04
:1025A000B7070140D44FB70701403707D0FF7D1769
:1025B000758FD8CFB7070140D44F832744FDA1833F
:1025C00013974701B70730007D8FB7070140558F3C
:1025D000D8CF19A2B7070140D44FB707014037073A
:1025E000D0FF7D17758FD8CFB7070140D44F832711
:1025F00044FDA18313974701B70730007D8FB707CC
:102600000140558FD8CFC9A8B7070140D44FB707AD
:102610000140370740FF7D17758FD8CFB7070140BE
:10262000D44F832744FDA18313976701B707C000E8
:102630007D8FB7070140558FD8CF79A8B7070140E4
:10264000D44FB7070140370740FF7D17758FD8CFAC
:10265000B7070140D44F832744FDA1831397670137
:10266000B707C0007D8FB7070140558FD8CFADA009
:10267000B7070140D44FB7070140370700FD7D176A
:10268000758FD8CFB7070140D44F832744FDA1836E
:1026900013978701B70700037D8FB7070140558F58
:1026A000D8CF1DA8B7070140D44FB707014037075F
:1026B00000FD7D17758FD8CFB7070140D44F832712
:1026C00044FDA18313978701B70700037D8FB707E8
:1026D0000140558FD8CF01008327C4FD91E7854580
:1026E0001165EF60407269A80327C4FD8547631830
:1026F000F700854537050200EF60407551A00327BC
:10270000C4FD89476318F700854537050400EF606D
:10271000E073BDA00327C4FD8D476318F70085450E
:1027200037050800EF608072A1A80327C4FD914718
:102730006318F700854537051000EF60207189A008
:102740000327C4FD95476318F7008545130500046A
:10275000EF60C06F35A00327C4FD99476318F700E9
:10276000854513050008EF60606E19A80327C4FDB6
:102770009D476317F700854513050010EF60006D56
:10278000232004FE232204FE232404FE232604FE29
:10279000832784FD2320F4FE231204FE231304FE6A
:1027A000231404FE231604FEB1472315F4FEE1674B
:1027B0000327C4FD0A079387872EBA979C433E8759
:1027C000930704FEBE853A85EF702055E167032725
:1027D000C4FD0A079387872EBA979C4385453E859B
:1027E000EF70E0760100B2502254456182804111C1
:1027F00006C622C4000883A741860547638BE7000D
:102800006388070C0947638DE7000D47638FE70274
:10281000E9A083A701861387170023A0E18675A886
:1028200083A701861387170023A0E18603A70186EB
:10283000A54763F1E70AB7070020938707049C4B7D
:102840001167D8CB23A0018671A003A78186854795
:102850006314F7081305F008EFD09FCFAA87ADC324
:102860001945EFF04FC8AA873E8783A701861D8FC1
:102870009307600963F2E7061945EFF0AFD683A727
:102880000186D3F717D05385F720EF10510CE1677D
:1028900003A687B983A6C7B9EF00C150AA872E88BF
:1028A0003E85C285EF106173AA87139707014183A4
:1028B000B70700202398E72E094723A4E18629A81B
:1028C0001945EFF04FC2AA873E8723A0E18629A0D1
:1028D000010021A0010011A001000100B24022442A
:1028E00041018280411106C622C4000883A74186A7
:1028F0000947637CF7000D47639AE7001945EFF03D
:102900006FCE054723A4E18611A001000100B2406B
:10291000224441018280011106CE22CC00102322E4
:1029200004FE83C7D1866381071409A8930734FE88
:102930000546BE851385419CEF304041930734FE28
:10294000BE851D45EFF03F8AAA87EDF3034734FEAD
:10295000A947631BF71099472322F4FE130744FE8F
:10296000930784FE85463A86BE851385419CEF30E9
:10297000901C930784FE138737000D46E16793850B
:1029800007BA3A85EF206163AA879DEB03A74187C9
:1029900089476304F70C054723AAE1861385419C08
:1029A000EF30200DAA872322F4FE930744FE8146D0
:1029B0003E86938501A61385419CEF30D01771A800
:1029C000930784FE138737000D46E167938547BA66
:1029D0003A85EF20815EAA879DEB03A7018789478F
:1029E000630DF706054723A8E1861385419CEF3068
:1029F0004008AA872322F4FE930744FE81463E86C0
:102A00009385019E1385419CEF30F012B9A0930786
:102A100084FE138737000D46E167938587BA3A85B0
:102A2000EF20A159AA8795EB03A781878947630601
:102A3000F702054723ACE1861385419CEF30600324
:102A4000AA872322F4FE930744FE81463E8693859F
:102A500001AE1385419CEF30100E1385419CEF2091
:102A6000B05C05472386E1860100F24062440561BF
:102A70008280397106DE22DC80002326A4FC854793
:102A8000A307F4FE231304FE231604FE232404FEEE
:102A9000232E04FC83D741883E87930700236316C7
:102AA000F700A5472324F4FE29A0A1472324F4FE20
:102AB00001008DA8930750FA2300F4FE832784FEBB
:102AC0008A070327C4FCBA978397070093F7F70F89
:102AD000A300F4FE832784FE8A070327C4FCBA9769
:102AE000839727002313F4FE835764FEA183C20754
:102AF000C18393F7F70F2301F4FE835764FE93F726
:102B0000F70FA301F4FE930704FE1146BE8511459D
:102B1000EFF0EFD80945EFD02FF9832784FEFD179A
:102B20002324F4FE032784FE9307E00FE3F4E7F881
:102B300083A701883E85EF20D0732A87894763FFEA
:102B4000E7028D47232EF4FC83A701881306C4FDFA
:102B5000130704FE8146BA853E85EF30C07D0347EA
:102B600014FE9307F00F6308F700034724FE930752
:102B7000F00F6315F700A30704FE31A80545EFD059
:102B8000AFF28357C4FE138717002316E4FE130722
:102B9000700CE37FF7F88347F4FE3E85F2506254F1
:102BA00021618280797106D622D40018232EA4FCDC
:102BB000A30704FE230704FE231504FE231604FEC8
:102BC000232004FE83D741883E87930700236316A2
:102BD000F700A547A307F4FE29A0A147A307F4FE29
:102BE00001008347F4FEFD1793F7F70FA307F4FEE8
:102BF00011AA03D741889307F02263EDE70083070A
:102C0000F4FE8A070327C4FDBA9703970700A54778
:102C10006300F70E930750FA2302F4FEC557A30290
:102C2000F4FE8307F4FE8A070327C4FDBA9783974F
:102C300007002315F4FE8357A4FEA183C207C183B6
:102C400093F7F70F2303F4FE8357A4FE93F7F70FD0
:102C5000A303F4FE930744FE1146BE851145EFF031
:102C60000FC4231604FE83A701883E85EF20706001
:102C70002A87894763F7E7048D472320F4FE83A75B
:102C80000188130604FE130744FE8146BA853E857B
:102C9000EF30606A834754FEA20793960701C1860E
:102CA000834764FE1397070141878307F4FE8A0771
:102CB0000326C4FDB297558F420741872391E70051
:102CC00031A80545EFD04FDE8357C4FE13871700A8
:102CD0002316E4FE1307700CE377F7F80357C4FEDE
:102CE0009307800C63F7E70085472307F4FE39A8B4
:102CF00001008307F4FE93F7F70FFD1793F7F70F23
:102D0000A307F4FE8307F4FEE3D507EE8347E4FE52
:102D10003E85B250225445618280011106CE22CCFC
:102D20000010232404FE8547A307F4FE231604FEA7
:102D3000232204FE83A701883E85EF209053AA87B3
:102D400091C783A701883E85EF20102E9305F00FD1
:102D50001145EFF06FAF930750FA2304F4FEBD570F
:102D6000A304F4FE230504FEA30504FE930784FEDA
:102D70001146BE851145EFF08FB2231604FE83A7DE
:102D800001883E85EF20F04E2A87894763F0E704EB
:102D90008D472322F4FE83A70188130644FE130700
:102DA00084FE8146BA853E85EF30E0580347A4FE95
:102DB00085476309F7000347A4FE89476304F700CA
:102DC000854711A08147A307F4FE31A80545EFD040
:102DD000AFCD8357C4FE138717002316E4FE1307F5
:102DE000700CE37EF7F88347F4FE3E85F2406244C0
:102DF00005618280011106CE22CC0010A30704FEDB
:102E00009307F4FEBE851145EFF0EFBD83A701885F
:102E100085C70347F4FE9307500A6317F70083A79B
:102E200001883E85EF20502083A701880347F4FEE8
:102E3000BA853E85EF20904B0100F2406244056167
:102E40008280411122C600080547238EE1860100D9
:102E5000324441018280011106CE22CC001023179A
:102E600004FE231604FE232204FE930750FA2304D3
:102E7000F4FEC557A304F4FE230504FEC957A305B9
:102E8000F4FE930784FE1146BE851145EFF02FA195
:102E900083A701883E85EF20D03D2A87894763F0CC
:102EA000E7048D472322F4FE83A70188130644FE1E
:102EB000130784FE8146BA853E85EF30C0478347BD
:102EC00094FEA2071397070141878347A4FEC20718
:102ED000C187D98FC207C1872316F4FE31A80545E3
:102EE000EFD08FBC8357E4FE138717002317E4FE4F
:102EF0001307700CE37EF7F88357C4FE3E85F2405B
:102F00006244056182805D7186C6A2C480088547DF
:102F1000A307F4FEB7070020054723AAE72E93076F
:102F2000C4FD1307C004930620061306401F814505
:102F30003E85EFE02FF29307C4FD3E85EFE0C046EB
:102F4000AA87B5EFE16703AE87D5138787D503233B
:102F50004700138787D583288700138787D50328E1
:102F6000C700138787D5084B138787D54C4B13872A
:102F700087D5104F138787D5544F138787D518539C
:102F8000938787D5DC53232AC4FB232C64FA232E92
:102F900014FB232004FD2322A4FC2324B4FC2326B9
:102FA000C4FC2328D4FC232AE4FC232CF4FC930740
:102FB00044FB3E85EFE02045AA87A307F4FE834744
:102FC000F4FE3E85B640264461618280597186D602
:102FD000A2D480188547A307F4FE230704FE232408
:102FE00004FEB707002023AA072E13050004EF10E4
:102FF000E12BAA872324F4FE832784FE85E393062E
:103000007020E167138607C9E167938587D2014580
:10301000EF2040358947A307F4FE35AC6545EF1036
:10302000E128AA873E8723A0E18883A7018885E756
:103030009306E020E167138607C9E167938547D4CB
:103040000145EF202032032584FEEF10C126894779
:10305000A307F4FE09A483A70188930600040326AE
:1030600084FE81453E85EF305007916793862706A1
:1030700091671386C7048967938507581145EFF058
:103080006F9C85451145EFF0CF8DF133AA873E87C0
:103090002392E18883D7418881CF4131AA8789CBA8
:1030A00081451145EFF0EF8B8D47A307F4FE65A234
:1030B000E16703AE87D5138787D5032347001387BE
:1030C00087D583288700138787D50328C7001387F0
:1030D00087D5084B138787D54C4B138787D5104F5F
:1030E000138787D5544F138787D51853938787D570
:1030F000DC532320C4FD232264FC232414FD232657
:1031000004FD2328A4FC232AB4FC232CC4FC232E76
:10311000D4FC2320E4FE2322F4FEE16703A387DB33
:10312000138787DB83284700138787DB0328870003
:10313000138787DB4847138787DB0C4B138787DBB5
:10314000504B138787DB144F138787DB584F9387C8
:1031500087DB9C53232E64F8232014FB232204FBDB
:103160002324A4FA2326B4FA2328C4FA232AD4FA5F
:10317000232CE4FA232EF4FA930704FC3E85EFF0A7
:103180005F8FAA8785C79306B024E167138607C9B6
:10319000E167938507D80145EF20C01C81451145A3
:1031A000EFE03FFC8547A307F4FE75A09307C4F941
:1031B0003E85EFF03F9FAA8785C793067025E1679C
:1031C000138607C9E1679385C7D90145EF208019A8
:1031D00081451145EFE0FFF88547A307F4FEA5A858
:1031E000230704FEA1A88347E4FE85078A07130787
:1031F00004FFBA97039707FD8347E4FE8A07930607
:1032000004FFB6978397C7FA631FF7028347E4FE6C
:1032100085078A07130704FFBA97039727FD83479B
:10322000E4FE8A07930604FFB6978397E7FA631CC8
:10323000F7008347E4FE85072307F4FE0347E4FE17
:10324000A147E3F2E7FA8347E4FE93B7870093F7D9
:10325000F70FA307F4FE032584FEEF10C10583A733
:1032600001883E85EF10210523A001888347F4FEE5
:103270003E85B650265465618280797106D622D487
:103280000018A30704FEB7370000138627E4814522
:103290000D45EF10A06EEFF01FC7AA8785C3B737A3
:1032A0000000138627E4B7370000938547DF0D45FC
:1032B000EF10C06C213BAA87A307F4FE8347F4FEFE
:1032C000B9E791473EC495473EC299473EC093082F
:1032D000900213088002930760021307B00493065C
:1032E000900413068004A9452545EFD00F86930668
:1032F0008007996713860782B707002093850765C3
:10330000B707002013850765EFD04F9431A0014621
:1033100081450145EF1080668347F4FE3E85B2503B
:10332000225445618280011106CE22CC0010AA876A
:10333000A307F4FEB707002093870704DC471307B1
:103340000008D8CB8347F4FEBE850545EFE0AFBB50
:10335000B707002093870704DC471307000898CBC2
:103360000100F240624405618280011106CE22CC48
:103370000010AA8736872317F4FEAE872316F4FEC3
:10338000B2872315F4FEBA872314F4FE83C70181A4
:10339000C207C1830357E4FEB337F70093F7F70F73
:1033A0003E871306A008E167938507DE3A85EF1094
:1033B000F07483C71181C207C1830357C4FEB337BA
:1033C000F70093F7F70F3E871306B008E167938580
:1033D00007DE3A85EF10907283C70181C207C1836F
:1033E0000357A4FEB337F70093F7F70F3E87130692
:1033F000C008E167938507DE3A85EF10307083C718
:103400001181C207C183035784FEB337F70093F7D6
:10341000F70F3E871306D008E167938507DE3A85EC
:10342000EF10D06D83A7818805476376F7000D47BD
:103430006369F71061A01305A002F53581450545C4
:10344000EFE06FAC8357E4FE93F7F70F890793F72C
:10345000F70FBE850545EFE00FAB81450545EFE071
:103460008FAA8357A4FE93F7F70F890793F7F70FF7
:10347000BE850545EFE02FA91305B0026D358145E6
:103480000545EFE04FA88357C4FE93F7F70F850774
:1034900093F7F70FBE850545EFE0EFA6814505459B
:1034A000EFE06FA6835784FE93F7F70F850793F736
:1034B000F70FBE850545EFE00FA561A01305A0023B
:1034C0009D3581450545EFE00FA48357E4FE93F752
:1034D000F70F850793F7F70FBE850545EFE0AFA21D
:1034E00081450545EFE02FA28357A4FE93F7F70F20
:1034F000850793F7F70FBE850545EFE0CFA01305CD
:10350000B002153581450545EFE0EF9F8357C4FEB6
:1035100093F7F70F890793F7F70FBE850545EFE09F
:103520008F9E81450545EFE00F9E835784FE93F7FC
:10353000F70F890793F7F70FBE850545EFE0AF9CBE
:1035400001001305C002C5330100F2406244056169
:103550008280797106D622D400189307C4FD3E8577
:10356000EF1030658547231EF4FC83C70181C20735
:10357000C183231FF4FC83C71181C207C1832310B9
:10358000F4FE83A7C1800547638AE70099EF994756
:103590002301F4FEA147A301F4FE09A8A1472301DA
:1035A000F4FEC147A301F4FE11A00100B7470000DB
:1035B0009387C7C82324F4FEB73700009387875D3D
:1035C0002326F4FE9307C4FD3E85EF10306401000E
:1035D000B250225445618280011106CE22CC0010E7
:1035E00083C701813E8783C71181B307F702232672
:1035F000F4FEB707002093870704DC474147D8CB88
:1036000083C70181C207C183FD1713970701418357
:1036100083C71181C207C183FD17C207C183BE865C
:103620003A8681450145EFF05FD421A883D7A18078
:10363000BE850545EFE08F928327C4FEFD17232644
:10364000F4FE8327C4FEFDF3B70700209387070429
:10365000DC47414798CB0100F2406244056182801B
:10366000011122CE00102326A4FE0327C4FE23A4AA
:10367000E18883A7818805476376F7000D47636576
:10368000F70211A8130700F82388E180130700FA56
:10369000A388E18011A8130700FA2388E1801307AB
:1036A00000F8A388E1800100010072440561828076
:1036B000011122CE0010AA872E872317F4FEBA87A5
:1036C0002316F4FE0357E4FE2394E1800357C4FE5F
:1036D0002395E1800100724405618280011106CECC
:1036E00022CC0010AA87AE8632872317F4FEB68755
:1036F0002316F4FEBA872315F4FE83C70181C2079F
:10370000C1830357E4FEB337F70093F7F70F3E8703
:1037100013064014E167938507DE3A85EF10103EEB
:1037200083C71181C207C1830357C4FEB337F700B3
:1037300093F7F70F3E8713065014E167938507DE72
:103740003A85EF10B03BB707002093870704DC47AA
:103750004147D8CB8356C4FE0356E4FE0357C4FE4C
:103760008357E4FEBA853E85EFF03FC08357A4FE41
:10377000BE850545EFD09FFEB7070020938707045D
:10378000DC47414798CB0100F240624405618280EA
:10379000797106D622D40018AA87231FF4FCAE87BD
:1037A000231EF4FCB287231DF4FCB687231CF4FC13
:1037B000BA87231BF4FC83C70181C207C183035767
:1037C000E4FDB337F70093F7F70F3E871306C015F4
:1037D000E167938507DE3A85EF10503283C7118188
:1037E000C207C1830357C4FDB337F70093F7F70F40
:1037F0003E871306D015E167938507DE3A85EF1003
:10380000F02F83C70181C207C1830357A4FDB337DB
:10381000F70093F7F70F3E871306E015E1679385EE
:1038200007DE3A85EF10902D83C71181C207C1834F
:10383000035784FDB337F70093F7F70F3E8713065E
:10384000F015E167938507DE3A85EF10302B0357BB
:10385000E4FD8357A4FD6374F700854711A0FD576D
:103860002317F4FE0357C4FD835784FD6374F700E8
:10387000854711A0FD572316F4FE232404FE2322BE
:1038800004FE0357E4FD8357A4FD630EF7080357B6
:10389000C4FD835784FDB307F74053F707D00357A0
:1038A000E4FD8357A4FDB307F740D3F707D0D377E0
:1038B000F7182724F4FE8357C4FD53F717D0835716
:1038C000E4FDD3F617D0872784FED3F7F610D3771D
:1038D000F7082722F4FE0357C4FD835784FD1D8F8C
:1038E0009357F7413D8F1D8F8356E4FD8357A4FD09
:1038F000B387F64093D6F741B58F958F63DBE70C1E
:10390000B5A8835664FD0357C4FD8357E4FD36868E
:10391000BA853E85EFF09FDC0357C4FE8357C4FD94
:10392000BA97231EF4FC0357C4FD835784FDE31AA2
:10393000F7FC7DA0835664FD0357C4FD8357E4FD67
:103940003686BA853E85EFF07FD90357C4FE83578C
:10395000C4FDBA97231EF4FC8357C4FD53F717D058
:10396000872744FE5377F708872784FED377F71815
:10397000D39707C0C207C187231FF4FC0357C4FDB8
:10398000835784FDE318F7FAA1A8835664FD035713
:10399000C4FD8357E4FD3686BA853E85EFF01FD41B
:1039A0000357E4FE8357E4FDBA97231FF4FC8357C3
:1039B000E4FD53F717D0872784FE5377F710872746
:1039C00044FED377F700D39707C0C207C187231EF1
:1039D000F4FC0357E4FD8357A4FDE318F7FA09A0AC
:1039E0000100B250225445618280797106D622D4FA
:1039F0000018AA87AE863287231FF4FCB687231EE1
:103A0000F4FCBA87A30DF4FC83C70181C207C1830C
:103A10000357E4FDB337F70093F7F70F3E8713061C
:103A20009019E167938507DE3A85EF10300D83C763
:103A30001181C207C1830357C4FDB337F70093F761
:103A4000F70F3E871306A019E167938507DE3A85D5
:103A5000EF10D00AA30704FE230704FEB7070020D7
:103A600093870704DC474147D8CB83A7C18005472C
:103A7000638AE70C639F071EA30704FE75A88347AC
:103A8000F4FE1397070141838357E4FDBA9713951A
:103A9000070141818347F4FE139707014183835750
:103AA000E4FDBA971397070141838357C4FDA1072B
:103AB00093960701C1828357C4FD3A86BE85EFF015
:103AC000DF8A8307B4FD138707FE8346F4FE65662D
:103AD000BA878607BA9786071307868FBA97B6976D
:103AE00083C70700A306F4FE230704FE25A8834727
:103AF000D4FE858B81CB83D78180BE850545EFD0F1
:103B0000FFC539A083D7A180BE850545EFD01FC56D
:103B10008347D4FE8583A306F4FE8347E4FE85072E
:103B20002307F4FE0347E4FE9D47E3F2E7FC8347E7
:103B3000F4FE8507A307F4FE0347F4FE9547E3F080
:103B4000E7F40DAAA30704FE39AA8347F4FE1397EE
:103B5000070141838357E4FDBA971395070141811B
:103B60008347F4FE1397070141838357E4FDBA9717
:103B70001397070141838357C4FDBD07939607013F
:103B8000C1828357C4FD3A86BE85EFF00FFE8307DE
:103B9000B4FD938607FE8347F4FE61679206130720
:103BA00087303697BA9783C707002306F4FE83074A
:103BB000B4FD938607FE8347F4FEA1076167920672
:103BC000130787303697BA9783C70700A305F4FE1B
:103BD000230704FE25A88347C4FE858B81CB83D7AA
:103BE0008180BE850545EFD07FB739A083D7A180FE
:103BF000BE850545EFD09FB68347C4FE8583230667
:103C0000F4FE8347E4FE85072307F4FE0347E4FE42
:103C10009D47E3F2E7FC230704FE25A88347B4FE93
:103C2000858B81CB83D78180BE850545EFD01FB3BF
:103C300039A083D7A180BE850545EFD03FB2834729
:103C4000B4FE8583A305F4FE8347E4FE85072307BE
:103C5000F4FE0347E4FE9D47E3F2E7FC8347F4FEEE
:103C60008507A307F4FE0347F4FE9D47E3FFE7EC57
:103C700011A00100B707002093870704DC474147E4
:103C800098CB0100B250225445618280797106D6EA
:103C900022D40018AA872E87232CC4FC231FF4FCEF
:103CA000BA87231EF4FC83C70181C207C18303576F
:103CB000E4FDB337F70093F7F70F3E871306D01EE6
:103CC000E167938507DE3A85EF10406383C7118172
:103CD000C207C1830357C4FDB337F70093F7F70F4B
:103CE0003E871306E01EE167938507DE3A85EF10F5
:103CF000E060231704FE71A083A7C180054763819C
:103D0000E704B5EB0357E4FEBA878607BA97860740
:103D10001397070141838357E4FDBA9793960701F0
:103D2000C1828357E4FE032784FDBA970387070007
:103D30008357C4FD3A86BE853685EFF01FCB2DA88C
:103D40008357E4FE8E071397070141838357E4FDF1
:103D5000BA9793960701C1828357E4FE032784FD37
:103D6000BA97038707008357C4FD3A86BE85368518
:103D7000EFF0BFC711A001008357E4FE85072317AA
:103D8000F4FE8357E4FE032784FDBA978387070078
:103D9000A5F70100B250225445618280397106DED8
:103DA00022DC8000AA872324C4FC36872317F4FC76
:103DB000AE872316F4FCBA87A303F4FC83C7018102
:103DC000C207C1830357E4FCB337F70093F7F70F3B
:103DD0003E8713062023E167938507DE3A85EF10BF
:103DE000E05183C71181C207C1830357C4FCB337B5
:103DF000F70093F7F70F3E8713063023E1679385AB
:103E000007DE3A85EF10804F834774FCB337F0002C
:103E100093F7F70F3E8713064023E167938507DE8C
:103E20003A85EF10A04D834774FC93B7B70093F722
:103E3000F70F3E8713065023E167938507DE3A8527
:103E4000EF10C04B832784FC2326F4FE85472324F0
:103E5000F4FE9307C4FD314681453E85EFC04FBA5D
:103E6000034774FC9307C4FD3A86930500023E8520
:103E7000EFC00FB9034774FCA54763EBE70231A815
:103E8000032784FEBA878A07BA9786072324F4FE9D
:103E9000834774FCFD17A303F4FC834774FCEDF324
:103EA000832784FE0327C4FEB377F7022326F4FE9C
:103EB0009307C4FD8325C4FE3E85EF2090469306FC
:103EC000C4FD0357C4FC8357E4FC3686BA853E859F
:103ED000EFF0DFDB0100F2506254216182805D71FE
:103EE00086C6A2C4A6C280082328C4FA232AD4FA0C
:103EF000BA863E87AA87231FF4FAAE87231EF4FAF8
:103F0000B687A30DF4FABA87230DF4FA83C70181AB
:103F1000C207C1830357E4FBB337F70093F7F70FEA
:103F20003E871306C025E167938507DE3A85EF10CB
:103F3000E03C83C71181C207C1830357C4FBB33779
:103F4000F70093F7F70F3E871306D025E1679385B7
:103F500007DE3A85EF10803A8347B4FBB337F000B1
:103F600093F7F70F3E871306E025E167938507DE99
:103F70003A85EF10A0388347B4FB93B7970093F7C7
:103F8000F70F3E871306F025E167938507DE3A8534
:103F9000EF10C0368347A4FBB337F00093F7F70F59
:103FA0003E8713060026E167938507DE3A85EF100A
:103FB000E0348347A4FB93B7770093F7F70F3E876E
:103FC00013061026E167938507DE3A85EF1000336C
:103FD000832704FB032844FB2320F4FE232204FF51
:103FE000E16703A8C7E783A787E72324F4FE232616
:103FF00004FF9307C4FC454681453E85EFC04FA0B2
:104000000347B4FB8347A4FBBA9789073E8793070E
:10401000C4FC3A86930500023E85EFC06F9E3DA02A
:10402000E16703A607E883A647E8032584FE832506
:10403000C4FEEFE03057AA872E882324F4FE2326FF
:1040400004FF8347B4FBFD17A30DF4FA8347B4FBC9
:10405000E1FB032504FE832544FEEFF0906AAA8469
:10406000032584FE8325C4FEEFF0B069AA87B3C799
:10407000F4023E85EF004100AA872E88032684FEC5
:104080008326C4FE3E85C285EFE0D051AA872E88E4
:104090003E86C286032504FE832544FEEFF0E0350C
:1040A000AA872E882320F4FE232204FF0347A4FBC3
:1040B0009307C4FCBA86832504FE032644FE3E858E
:1040C000EF20B0339306C4FC0357C4FB8357E4FBD3
:1040D0003686BA853E85EFF07FBB0100B6402644A8
:1040E0009644616182805D7186C6A2C480082A8E72
:1040F0002E832324C4FC3685BA853E86C286468735
:10410000F2872317F4FC9A872316F4FCAA8723135B
:10411000F4FCAE872312F4FCB2872311F4FCB687BB
:104120002310F4FCBA87A30FF4FA83C70181C207F6
:10413000C1830357E4FCB337F70093F7F70F3E87CB
:104140001306B02BE167938507DE3A85EF10001B5D
:1041500083C71181C207C1830357C4FCB337F7007B
:1041600093F7F70F3E871306C02BE167938507DEB1
:104170003A85EF10A018832784FCB337F00093F73B
:10418000F70F3E871306D02BE167938507DE3A854C
:10419000EF10C016232604FE232404FE231304FE7E
:1041A000231204FE232004FE232E04FCB707002064
:1041B00093870704DC474147D8CB0357E4FC835778
:1041C00024FCBA97C207C183FD17139607014182E9
:1041D0000357C4FC835704FCBA97C207C183FD1779
:1041E00093960701C1820357C4FC8357E4FCBA8548
:1041F0003E85EFF08F97232404FE19A2035744FC59
:10420000832784FE3307F702835704FCB357F70272
:10421000232EF4FC232604FEC9A8035764FC83273D
:10422000C4FE3307F702835724FCB357F702232059
:10423000F4FE035764FC8327C4FD3307F70283278A
:1042400004FEBA97032784FCBA9783C7070023129A
:10425000F4FE8347F4FBB5E3835744FE8D83C20726
:10426000C183AE072313F4FE835744FE8983C2073C
:10427000C1839607C207C18793F7077E139707018B
:104280004187831764FED98FC207C1872313F4FEC9
:10429000835744FE8D83C207C183FD8B13970701AB
:1042A0004183835764FED98F2313F4FE835764FE42
:1042B000BE850545EFD08FCA25A08347F4FBC20712
:1042C000C183035744FE6377F70081450545EFD06E
:1042D000EFC839A0C1679385F7FF0545EFD00FC838
:1042E0008327C4FE85072326F4FE835724FC032777
:1042F000C4FEE364F7F2832784FE85072324F4FEDB
:10430000835704FC032784FEE36AF7EEB707002017
:1043100093870704DC47414798CB0100B640264409
:1043200061618280397106DE22DC80002322D4FCA8
:10433000BA863E87AA872317F4FCAE872316F4FCBF
:10434000B287A305F4FCB6872305F4FCBA872314CF
:10435000F4FC83C70181C207C1830357E4FCB33770
:10436000F70093F7F70F3E871306D034E167938584
:1043700007DE3A85EF00907883C71181C207C183B9
:104380000357C4FCB337F70093F7F70F3E871306C4
:10439000E034E167938507DE3A85EF0030768327C6
:1043A00044FCB337F00093F7F70F3E871306F03461
:1043B000E167938507DE3A85EF005074232604FEFB
:1043C000232404FE232204FEA30D04FCA30104FE07
:1043D000230D04FC832744FC232EF4FC8347B4FC08
:1043E0008D83230DF4FCB707002093870704DC4777
:1043F0004147D8CB8347A4FC1397070141838347E8
:10440000B4FCC207C183B307F702139707014183C6
:104410008357E4FCBA97C207C183FD1713960701BF
:1044200041828347B4FC1397070141838357C4FC3F
:10443000BA97C207C183FD1793960701C18203573C
:10444000C4FC8357E4FCBA853E85EFE01FF22326C7
:1044500004FEE9A88347A4FCA301F4FE0347A4FDDE
:104460008327C4FEB307F7023E87832744FCBA972D
:10447000232EF4FC45A0232204FEBDA0A147232443
:10448000F4FEA9A08327C4FD83C707003E878327C6
:1044900084FEFD17B357F74093F7F70F858BA30DF5
:1044A000F4FC8347B4FD81CB835784FCBE8505456E
:1044B000EFD0CFAA39A083D7A180BE850545EFD024
:1044C000EFA9832784FEFD172324F4FE832784FEAF
:1044D000E34AF0FA8327C4FD8507232EF4FC8327E3
:1044E00044FE85072322F4FE8347A4FD032744FEF0
:1044F000E346F7F80347A4FD8347B4FCB307F7028C
:104500003E878347A4FDB307F7400327C4FDBA974E
:10451000232EF4FC834734FE1387F7FFA301E4FE48
:10452000B9FB8327C4FE85072326F4FE8347B4FC2A
:104530000327C4FEE340F7F2B70700209387070480
:10454000DC47414798CB0100F250625421618280E0
:10455000411106C622C400081308F00FC167F917FD
:1045600005671307F70285669386D60237A64A04C5
:104570001306062081450545EFD08FA8C1460146A8
:10458000854513057006EFC0CF80C14601468545BD
:1045900013057002EFB0FFFFC146054685451305C0
:1045A0004006EFB01FFFC1460546854513050006CE
:1045B000EFB03FFE83A781883E85EFF06F8A03D777
:1045C000818083D7A180BE853A85EFF06F8EB707D3
:1045D000002093870704DC4313070008D8CB294544
:1045E000EFB09FCCB707002093870704DC43130785
:1045F000000898CB13058007EFB01FCBB70700204A
:1046000093870704DC474147D8CB4545EFE0BFD14E
:1046100013058007EFB05FC91305100BEFE0BFD0A3
:1046200085450545EFD02F8E9305C0020545EFD097
:104630008F8D9305D0020545EFD0EF8C1305200B2D
:10464000EFE07FCE85450545EFD0EF8B9305C002A7
:104650000545EFD04F8B9305D0020545EFD0AF8ACB
:104660001305300BEFE03FCC85450545EFD0AF8912
:104670009305C0020545EFD00F899305D00205458B
:10468000EFD06F8885450545EFD0EF879305C002D1
:104690000545EFD04F879305D0020545EFD0AF8693
:1046A0001305400BEFE03FC89D450545EFD0AF85B2
:1046B0001305000CEFE03FC79305200A0545EFD036
:1046C0008F8489450545EFD00F8493054008054543
:1046D000EFD06F831305100CEFE0FFC49305500C6F
:1046E0000545EFD04F821305200CEFE0DFC3A9454D
:1046F0000545EFD04F8181450545EFD0CF801305AB
:10470000300CEFE05FC29305A0080545EFC0BFFF86
:104710009305A0020545EFC01FFF1305400CEFE015
:104720009FC09305A0080545EFC0FFFD9305E00E6F
:104730000545EFC05FFD1305500CEFE0DFBEB94546
:104740000545EFC05FFC13056003EFE0DFBD83A705
:10475000818805476380E70281CB09476381E702CF
:104760000D476384E70205A89305000C0545EFC0DB
:104770009FF915A081450545EFC0FFF829A89305CD
:10478000000A0545EFC03FF839A09305000605452E
:10479000EFC07FF701001305000EEFE0DFB8BD4565
:1047A0000545EFC05FF6E9450545EFC0DFF5BD45BE
:1047B0000545EFC05FF5E1450545EFC0DFF4930522
:1047C000F0020545EFC03FF4930580020545EFC0B8
:1047D0009FF3930500020545EFC0FFF29305200209
:1047E0000545EFC05FF2FD450545EFC0DFF1ED4542
:1047F0000545EFC05FF1930530020545EFC0BFF0FE
:10480000930570030545EFC01FF081450545EFC0D6
:104810009FEF9D450545EFC01FEF89450545EFC05A
:104820009FEEC1450545EFC01FEE1305100EEFE0EA
:104830009FAFBD450545EFC01FEDED450545EFC0F8
:104840009FECBD450545EFC01FECDD450545EFC0BC
:104850009FEB930530030545EFC0FFEA9305C002C7
:104860000545EFC05FEA930590020545EFC0BFE93B
:104870009305E0020545EFC01FE9930500030545D8
:10488000EFC07FE8930500030545EFC0DFE7930520
:1048900090030545EFC03FE79305F0030545EFC0E2
:1048A0009FE681450545EFC01FE69D450545EFC0E4
:1048B0009FE58D450545EFC01FE5C1450545EFC0A6
:1048C0009FE41305A002EFE01FA681450545EFC058
:1048D0009FE389450545EFC01FE381450545EFC0CE
:1048E0009FE2930520080545EFC0FFE11305B002E4
:1048F000EFE07FA381450545EFC0FFE08D4505450D
:10490000EFC07FE081450545EFC0FFDF930530082C
:104910000545EFC05FDF1305000FEFE0DFA0854521
:104920000545EFC05FDE1305600FEFE0DF9F8145B7
:104930000545EFC05FDD1305A003EFE0DF9E954561
:104940000545EFC05FDC13059002EFE0DF9DB70780
:10495000002093870704DC47414798CBEFE0DFC78F
:10496000EFE03FBF0100B24022444101828041118B
:1049700022C600080100324441018280011122CE8A
:1049800000102326A4FE2324B4FE2322C4FE032702
:10499000C4FE23A6E188832744FE81C7832744FE03
:1049A00029A0B75700009387E79623ACF1808327AF
:1049B00084FE81C7832784FE29A0B7570000938710
:1049C000E79623AAF18001007244056182804111BB
:1049D00022C60008B71702409843B7170240136772
:1049E000170098C3B7170240D443B71702403707E0
:1049F000FFF8758FD8C3B71702409443B71702402A
:104A00003707F7FE7D17758F98C3B7170240944399
:104A1000B71702403707FCFF7D17758F98C3B7178C
:104A20000240D443B7170240370781FF7D17758FC7
:104A3000D8C3B717024037079F0098C70100324418
:104A400041018280797106D622D40018232EA4FC5D
:104A5000EFF0FFF7232604FE232404FEB7170240DD
:104A60009443B71702404167558F98C3B717024068
:104A70009843B7070200F98F2324F4FE8327C4FE6E
:104A800085072326F4FE832784FE91E70327C4FECF
:104A90008567E31DF7FCB71702409843B70702008C
:104AA000F98F89C785472324F4FE19A0232404FE27
:104AB000032784FE85476312F71637170240B7179E
:104AC00002405843D8C337170240B7170240584333
:104AD000D8C337170240B71702405843D8C3B71797
:104AE0000240D443B71702403707C1FF7D17758FC7
:104AF000D8C30327C4FDB747950893870740631BB6
:104B0000F700B7170240D443B71702404167558FEB
:104B1000D8C355A80327C4FDB7172707938707E015
:104B2000631CF700B7170240D443B717024037079A
:104B30003900558FD8C341A80327C4FDB7E7B8058E
:104B400093870780631CF700B7170240D443B71759
:104B5000024037072900558FD8C3B5A00327C4FDED
:104B6000B7A74A0493870720631CF700B7170240D2
:104B7000D443B717024037071D00558FD8C3A1A0F3
:104B80000327C4FDB777DC02938707C0631CF700D7
:104B9000B7170240D443B717024037071100558FAB
:104BA000D8C315A00327C4FDB7376E0193870760EC
:104BB000631BF700B7170240D443B717024037070B
:104BC0000500558FD8C3B71702409443B71702406A
:104BD00037070001558F98C30100B717024098436B
:104BE000B7070002F98FF5DBB7170240D843B717B4
:104BF0000240719BD8C3B7170240D843B717024091
:104C000013672700D8C30100B7170240DC4313F72E
:104C1000C700A147E31AF7FE11A001A0B250225429
:104C200045618280011106CE22CC00102326A4FE0D
:104C30000327C4FE23A2E182EFF07FD90325C4FE3F
:104C4000EFF05FE0EF20603D0100F240624405615B
:104C50008280411122C60008010001003244410156
:104C60008280011106CE22CC0010232604FE2324CC
:104C700004FE232604FE2DA0232404FE01A8EFF049
:104C80005FFD832784FE85072324F4FE032784FE2B
:104C9000C167E366F7FE8327C4FE85072326F4FE7B
:104CA0000327C4FE9307F00FE3F8E7FC0100F2408E
:104CB000624405618280411122C60008010032442D
:104CC00041018280011106CE22CC00102326A4FED1
:104CD0008325C4FE0945EFD0CFC20100F2406244F3
:104CE00005618280130101D9232611262324812600
:104CF00023229126801C232EA4D8232CB4D8232A27
:104D0000C4D82328D4D8231504FE231404FE231367
:104D100004FE231204FE231104FE032584D9EF00B0
:104D2000A128AA87C207C1872313F4FEB767002012
:104D300083D7C7EC99C7B76700209387C7EC9C4B14
:104D4000829783C7118993F7F70F6385074EB7677B
:104D5000002083D7C7EC63890746B7670020938795
:104D6000C7ECD447835724FE139707014187931755
:104D70000701C1838507C207C183C207C187231109
:104D8000F4FE93170701C1830326C4D9BE850145EC
:104D90008296832784D92326F4FE032584D9EF0045
:104DA000A120AA87C207C1872313F4FEB76700209A
:104DB0009387C7EC83D727003E87B7670020938788
:104DC000C7EC83C76700B347F702C207C187231246
:104DD000F4FE01008327C4FE138717002326E4FE98
:104DE00083870700E5FB231404FEA1A88327C4FEE4
:104DF000FD172326F4FE8327C4FE038707009307CD
:104E0000F002630AF7008327C4FE038707009307B5
:104E1000C005631BF700835784FEC207C183850763
:104E2000C207C1832314F4FE835764FEC207C187FF
:104E3000C207C183FD17C207C183C207C1872313FD
:104E4000F4FE835784FE139707014183854763E887
:104E5000E700835764FEC207C187E3D907F8835789
:104E600064FEC207C18763C207028327C4FE8507A9
:104E70002326F4FE130704EE0326C4FEE1679385A0
:104E800087E83A85EF00E10D1DA8835784FEC2072D
:104E9000C18381EF130704EE0326C4FEE167938507
:104EA00047E93A85EF00E10B19A8130704EE032642
:104EB000C4FEE167938587E83A85EF00810A2315F0
:104EC00004FE05A2231404FE59A0930704EE3E85B8
:104ED000EF00810D2A87835784FEC207C183BE86F7
:104EE0008357A4FEC207C1833E86835744FEC20790
:104EF000C187B307F602B6976367F706835784FE48
:104F0000C207C1833E878357A4FEC207C183BE8602
:104F1000835744FEC207C187B387F602BA97035787
:104F200084FE42074183BA86130704FFBA970387BA
:104F300007EF930704FFB6972388E7EA835784FEB9
:104F4000C207C1838507C207C1832314F4FE8357B8
:104F500084FEC207C1833E87835744FEC207C187D0
:104F6000E345F7F611A00100835784FEC207C18311
:104F7000130704FFBA97238807EAB76700209387CF
:104F8000C7EC03A8C700B76700209387C7EC83C7A7
:104F90007700139707014183835724FE93960701F7
:104FA000C18693970601C1838507C207C183C207E3
:104FB000C1872311F4FE93970601C183B307F7025B
:104FC000C207C183130704EA3A86BE8501450298E9
:104FD0008357A4FEC207C1838507C207C183231577
:104FE000F4FE8357A4FEC207C183BE84930704EE78
:104FF0003E85EFF0707B2A87835744FEC207C18746
:10500000B357F7028507E3EFF4EA130704EE03262C
:1050100044D9E167938547EA3A85EFF09074B76722
:1050200000209387C7EC03A8C700B76700209387C9
:10503000C7EC83C77700139707014183835724FE8A
:1050400093960701C18693970601C1838507C2071E
:10505000C183C207C1872311F4FE93970601C18360
:10506000B307F702C207C183130704EE3A86BE8571
:1050700001450298832704D9638E071A231504FE7D
:1050800005A2231404FE59A0032504D9EFF0D07122
:105090002A87835784FEC207C183BE868357A4FE36
:1050A000C207C1833E86835744FEC207C187B30748
:1050B000F602B6976368F706835784FEC207C1837A
:1050C0003E878357A4FEC207C183BE86835744FE32
:1050D000C207C187B387F602BA973E87832704D9F0
:1050E000BA97035784FE42074183BA8603870700B5
:1050F000930704FFB6972388E7EA835784FEC20725
:10510000C1838507C207C1832314F4FE835784FE3D
:10511000C207C1833E87835744FEC207C187E34568
:10512000F7F611A00100835784FEC207C18313075D
:1051300004FFBA97238807EAB76700209387C7EC74
:1051400003A8C700B76700209387C7EC83C7770021
:10515000139707014183835724FE93960701C18665
:1051600093970601C1838507C207C183C207C18720
:105170002311F4FE93970601C183B307F702C20718
:10518000C183130704EA3A86BE8501450298835716
:10519000A4FEC207C1838507C207C1832315F4FE9D
:1051A0008357A4FEC207C183BE84032504D9EFF050
:1051B000B05F2A87835744FEC207C187B357F702FF
:1051C0008507E3E0F4ECBDA0930704DA13060010B2
:1051D00081453E85EFB0CF82B76700209387C7EC4B
:1051E0009C470325C4D98297832704D999CF1305F7
:1051F00004DA032704D9832644D9032684D9E16736
:10520000938507EBEFF0F05529A8130704DA8326FE
:1052100044D9032684D9E1679385C7EC3A85EFF03A
:105220005054B76700209387C7EC9847930704DA78
:105230003E85029701008320C12603248126832412
:105240004126130101278280411106C622C40008AD
:1052500083C7118993F7F70F99CF93850189094582
:10526000EFC07FF8054693850189B7670020138555
:1052700007EBEF00B02D0100B240224441018280D3
:10528000797106D622D40018232EA4FC232CB4FC5A
:10529000232AC4FC232604FEA9A00100E16793870A
:1052A000872E9C47930500043E85EF40705FAA87D8
:1052B000F5D7E1679387872E9C47BE86832784FDB9
:1052C00013871700232CE4FC83870700C207C183E0
:1052D000BE853685EF40F0598327C4FE8507232617
:1052E000F4FE0327C4FE832744FDE348F7FA83272F
:1052F00044FD3E85B250225445618280011106CEA4
:1053000022CC0010AA872324B4FE2322C4FEA307C4
:10531000F4FE8347F4FEB1E383C7818293F7F70F6E
:105320008DCF83C7218991C301A083C721898507B8
:1053300013F7F70F2389E188EF10704BEFF0BF9759
:105340008146032644FE832584FEE167138547EEEC
:10535000EFF05F99EFF0FF90E5B70100F240624493
:1053600005618280011106CE22CC0010AA87232479
:10537000B4FE2322C4FE2320D4FEA307F4FE8347F9
:10538000F4FE95E383C7118993F7F70F91CF832636
:1053900084FE032604FE832544FEE167138547EF60
:1053A000EFF05F9411A001000100F240624405613A
:1053B0008280011122CE00102326A4FE8327C4FE82
:1053C000239007008327C4FE7D572391E70083279E
:1053D000C4FE7D572392E7008327C4FE7D572383B5
:1053E000E7008327C4FE7D57A383E7008327C4FE1D
:1053F00023A407008327C4FE23A607008327C4FE37
:1054000023A807000100724405618280011122CEA9
:1054100000102326A4FE8327C4FE03D70700B76726
:1054200000202396E7EC8327C4FE03D72700B76745
:1054300000209387C7EC2391E7008327C4FE03D79E
:105440004700B76700209387C7EC2392E7008327C4
:10545000C4FE03C76700B76700209387C7EC2383A8
:10546000E7008327C4FE03C77700B7670020938750
:10547000C7ECA383E7008327C4FE9847B7670020E3
:105480009387C7EC98C78327C4FED847B767002027
:105490009387C7ECD8C78327C4FE984BB767002013
:1054A0009387C7EC98CB0547A388E1880100724435
:1054B00005618280797106D622D400189307C4FD55
:1054C0003E85EFF01FEFB7570000938747CC2322AC
:1054D000F4FE9307C4FD3E85EFF05FF38967938682
:1054E000B70289671386A702F167938507200945EC
:1054F000EFC05FD593060004B7670020138607E767
:105500008145B7670020138507EBEF10003D854507
:105510000945EFC01FC50100B25022544561828089
:10552000011122CE00102326A4FE2324B4FE8327DB
:10553000C4FE03C7970083C6A700A206558F83C683
:10554000B700C206558F83C7C700E207D98F3E87D1
:10555000832784FE3E978327C4FE9375F70F83C687
:105560009700818A3686AE86D18EA384D700935663
:10557000870093F5F60F83C6A700818A3686AE862C
:10558000D18E2385D7009356070193F5F60F83C676
:10559000B700818A3686AE86D18EA385D700135692
:1055A000870103C7C700018BBA863287558F2386D0
:1055B000E70055A08327C4FE03C7970083C6A70052
:1055C000A206558F83C6B700C206558F83C7C70092
:1055D000E207D98F3E868327C4FE03C7570183C6DF
:1055E0006701A206558F83C67701C206558F83C710
:1055F0008701E207D98F3307F6408327C4FE9375EE
:10560000F70F83C69700818A3686AE86D18EA38433
:10561000D7009356870093F5F60F83C6A700818ABB
:105620003686AE86D18E2385D7009356070193F533
:10563000F60F83C6B700818A3686AE86D18EA385E3
:10564000D7001356870103C7C700018BBA8632877C
:10565000558F2386E7008327C4FE03C7570183C6FF
:105660006701A206558F83C67701C206558F83C78F
:105670008701E207D98F3E868327C4FE03C79700C0
:1056800083C6A700A206558F83C6B700C206558FF2
:1056900083C7C700E207D98FE3FEC7F00100724459
:1056A00005618280011122CE00102326A4FE23244E
:1056B000B4FE8327C4FE03C7D70083C6E700A20653
:1056C000558F83C6F700C206558F83C70701E207CF
:1056D000D98F3E87832784FE3E978327C4FE937528
:1056E000F70F83C6D700818A3686AE86D18EA38611
:1056F000D7009356870093F5F60F83C6E700818A9B
:105700003686AE86D18E2387D7009356070193F550
:10571000F60F83C6F700818A3686AE86D18EA387C0
:10572000D7001356870103C70701018BBA8632875A
:10573000558F2388E70055A08327C4FE03C7D700F1
:1057400083C6E700A206558F83C6F700C206558FB1
:1057500083C70701E207D98F3E868327C4FE03C7AC
:10576000570183C66701A206558F83C67701C2061B
:10577000558F83C78701E207D98F3307F640832708
:10578000C4FE9375F70F83C6D700818A3686AE862E
:10579000D18EA386D7009356870093F5F60F83C664
:1057A000E700818A3686AE86D18E2387D70093564E
:1057B000070193F5F60F83C6F700818A3686AE8619
:1057C000D18EA387D7001356870103C70701018B2A
:1057D000BA863287558F2388E7008327C4FE03C724
:1057E000570183C66701A206558F83C67701C2069B
:1057F000558F83C78701E207D98F3E868327C4FE72
:1058000003C7D70083C6E700A206558F83C6F700FB
:10581000C206558F83C70701E207D98FE3FEC7F0A1
:105820000100724405618280797106D622D4001885
:10583000232EA4FC8327C4FDB337F00093F7F70FA2
:105840003E8713065005E167938507F03A85EFF030
:10585000FFAA232604FE8327C4FD83C7070093E71E
:10586000170013F7F70F8327C4FD2380E700832772
:10587000C4FD03C79700018BA384E70003C7A700FB
:10588000018B2385E70003C7B700018BA385E700E1
:1058900003C7C700018B2386E7008327C4FD03C726
:1058A000D700018BA386E70003C7E700018B23879E
:1058B000E70003C7F700018BA387E70003C70701D1
:1058C000018B2388E7008327C4FD03C7570183C6E4
:1058D0006701A206558F83C67701C206558F83C71D
:1058E0008701E207D98F3E878327C4FD9375F70FA1
:1058F00083C61701818A3686AE86D18EA388D700EB
:105900009356870093F5F60F83C62701818A368662
:10591000AE86D18E2389D7009356070193F5F60FF3
:1059200083C63701818A3686AE86D18EA389D70099
:105930001356870103C74701018BBA863287558FFB
:10594000238AE7008327C4FD03C7170083C6270007
:10595000A206558F83C63700C206558F83C74700FE
:10596000E207D98F0547638DE70489C7094763803C
:10597000E70AEDA08327C4FD03C7570083C667006D
:10598000A206558F83C67700C206558F83C787004E
:10599000E207D98F3E858327C4FD03C7570183C61D
:1059A0006701A206558F83C67701C206558F83C74C
:1059B0008701E207D98F3E868145EFA07F8479A8D1
:1059C0008327C4FD03C7570083C66700A206558F0F
:1059D00083C67700C206558F83C78700E207D98F39
:1059E0003E858327C4FD03C7570183C66701A2060E
:1059F000558F83C67701C206558F83C78701E2079B
:105A0000D98F86073E868145EFA08FFF81A8832727
:105A1000C4FD03C7570083C66700A206558F83C61F
:105A20007700C206558F83C78700E207D98F3E856E
:105A30008327C4FD03C7570183C66701A206558F9C
:105A400083C67701C206558F83C78701E207D98FC6
:105A50008A073E868145EFA0AFFA01008327C4FD87
:105A6000238007008327C4FE3E85B250225445613F
:105A70008280011106CE22CC00102326A4FE8327AB
:105A8000C4FEB337F00093F7F70F3E8713066007A5
:105A9000E167938507F03A85EFF05F868327C4FEC0
:105AA00003C7570183C66701A206558F83C67701D6
:105AB000C206558F83C78701E207D98F3E868327A9
:105AC000C4FE03C7170183C62701A206558F83C6EC
:105AD0003701C206558F83C74701E207D98FB30745
