:100000006F80F009130000001300000013000000CF
:100010001300000013000000130000001300000094
:100020001300000013000000130000001300000084
:08003000130000007300100032
:10003800000000000000000090870000A08700007A
:1000480000000000E487000000000000000000003D
:10005800E6870000E88700000000000000000000BC
:10006800EA87000000000000EC87000000000000A4
:10007800EE870000F0870000F2870000F487000098
:10008800F6870000F8870000587A00000C7B000013
:10009800C07B0000747C0000287D000004880000FC
:1000A80006880000088800000A8800000C88000004
:1000B8000E880000108800001288000014880000D4
:1000C80016880000188800001A880000DC7D0000EF
:1000D8001E88000026800000228800002488000076
:1000E800E6800000A0810000608200002C880000EB
:1000F8002E88000030880000328800003488000014
:10010800368800006473000028740000EC74000056
:10011800F47E000040880000428800004488000007
:1001280058850000488800004A8800004C88000074
:100138004E8800005088000020830000548800008A
:10014800B475000078760000E08300009884000011
:100158005E880000608800006288000064880000F3
:1001680066880000688800006A8800006C880000C3
:100178006E8800007088000072880000369F0000BA
:100188007688000078880000887900003A770000B7
:10019800FE770000C87800008288000018860000FA
:1001A80086880000888800008A880000D8860000B9
:1001B8008E880000908800009288000094880000D3
:1001C80096880000988800009A8800009C880000A3
:1001D8000000000000000000000000000000000017
:1001E8000000000000000000000000000000000007
:0801F8000000000000000000FF
:100200003D432A876373C3029377F700BDEFADE5E3
:10021000937606FF3D8ABA960CC34CC30CC74CC7F5
:100220004107E36BD7FE11E28280B306C3408A0622
:100230009702000096966780A6002307B700A306E2
:10024000B7002306B700A305B7002305B700A30432
:10025000B7002304B700A303B7002303B700A3022A
:10026000B7002302B700A301B7002301B700A30022
:10027000B7002300B700828093F5F50F93968500B1
:10028000D58D93960501D58D61B79396270097027A
:10029000000096968682E78086FA9680C1171D8FA9
:1002A0003E96E374C3F8A5B7011122CE00102326B1
:1002B000A4FE37F500E08328450037F500E093F809
:1002C000E8FF2322150183A8C1820965130505F4FF
:1002D00033D5A802AA8601470325C4FEAA87014890
:1002E00037F500E03303F702B308D8029A98338356
:1002F000F60233B6F6029A85B387C8003E860CC96B
:1003000050C9B7F700E09843B7F700E0136707015B
:1003100098C3B7F700E09843B7F700E013671702F8
:1003200098C30100B7F700E0DC4313F717008547D7
:10033000E31AF7FEB7F700E09843B7F700E0799BC0
:1003400098C30100724405618280011106CE22CC5F
:100350000010AA8E2E8E32833685BA853E86C286DE
:100360004687F687A307F4FEF2872307F4FE9A87F1
:10037000A306F4FEAA872306F4FEAE87A305F4FEC7
:10038000B2872305F4FEB687A304F4FEBA872304DC
:10039000F4FE8347F4FE93068004014681453E85C2
:1003A000912B8347E4FE93068004014681453E85F8
:1003B00091238347D4FE93068004014681453E8500
:1003C000152B8347C4FE93068004014681453E8574
:1003D00015238347B4FE93068004014681453E857C
:1003E000112B8347A4FE93068004014681453E8578
:1003F0001123834794FE93068004014681453E8580
:10040000D529834784FE93068004014681453E85B5
:10041000D5218347440093068004014681453E85EB
:10042000D1298347040093068004014681453E8517
:10043000D1218347840093068004014681453E858F
:1004400055290100F240624405618280011106CE07
:1004500022CC00102326A4FE2324B4FEB2873687C4
:100460002313F4FEBA872312F4FE85450965EF8055
:10047000B065B70705500D472380E700B707055063
:100480000547A380E700B7070550035744FE2392B2
:10049000E700B7070550035764FE2393E700B7074B
:1004A00005500327C4FE98C7B7070550032784FEED
:1004B000D8C7B707055011472381E70081451305C9
:1004C0006005EF60306013056005EF60F05B0100D0
:1004D000F240624405618280797106D622D4001808
:1004E000232EA4FC232CB4FC8327C4FD93B707045C
:1004F00093F7F70F3E8713068003E9679385C7EFED
:100500003A85EF506001832784FD93B7470093F746
:10051000F70F3E8713069003E9679385C7EF3A8587
:10052000EF40907FA30704FE0327C4FDA167BA979D
:1005300013972700832784FDBA97AA072324F4FE84
:10054000EF60105E2322A4FE231604FE35A003579D
:10055000C4FE832784FEBA979843B7E739E39387AD
:1005600097336306F7008547A307F4FE21A8835756
:10057000C4FE91072316F4FE0357C4FE9307F03F11
:10058000E3F7E7FC032544FEEF6070568347F4FE73
:100590003E85B250225445618280797106D622D4BC
:1005A0000018232EA4FC232CB4FC8327C4FD93B78E
:1005B000070493F7F70F3E871306F005E967938565
:1005C000C7EF3A85EF405075832784FD93B7470006
:1005D00093F7F70F3E8713060006E9679385C7EF89
:1005E0003A85EF407073A30704FE0327C4FDA1679B
:1005F000BA9713972700832784FDBA97AA07232465
:10060000F4FEEF60F0512322A4FEEF804039130581
:100610004003EF80804F032584FEEF80C03C2A8793
:10062000B707002023A8E72E13050002EF80E04D56
:10063000EF808039B707002003A7072F9147630594
:10064000F7008547A307F4FE032544FEEF60304A18
:100650008347F4FE3E85B250225445618280797111
:1006600006D622D40018232EA4FC232CB4FC832706
:10067000C4FD93B7070493F7F70F3E871306800D69
:10068000E9679385C7EF3A85EF401069832784FDBA
:1006900093B7470093F7F70F3E871306900DE9676E
:1006A0009385C7EF3A85EF4030670327C4FDA16704
:1006B000BA9713972700832784FDBA97AA072324A4
:1006C000F4FE231704FE3DA08357E4FE8A073E870D
:1006D000832784FEBA978356E4FE9843B707002029
:1006E0008A069387C747B69798C38357E4FE850762
:1006F0002317F4FE0357E4FE9307F00FE3F6E7FC3D
:100700000100B250225445618280797106D622D40C
:100710000018232EA4FC232CB4FC8327C4FD93B71C
:10072000070493F7F70F3E871306100FE9679385C9
:10073000C7EF3A85EF40505E832784FD93B74700AB
:1007400093F7F70F3E871306200FE9679385C7EFEE
:100750003A85EF40705CA30704FE232404FE2313B4
:1007600004FE0327C4FDA167BA97139727008327C8
:1007700084FDBA97AA072324F4FE832584FD03256C
:10078000C4FD993BAA8791C7832584FD0325C4FD39
:100790002935EF60F0382320A4FEEF80402089A89F
:1007A000035764FEB70700200A079387C747BA9725
:1007B0009C43BE85032584FEEF80402A2A87B70725
:1007C000002023AAE72EB707002003A7472F914751
:1007D0006306F7008547A307F4FE0DA0835764FE68
:1007E00085072313F4FE832784FE91072324F4FE58
:1007F000035764FE9307F00FE3F4E7FAEF80C01CA1
:10080000032504FEEF60B02E8347F4FE3E85B25010
:10081000225445618280411106C622C40008130695
:1008200000409305F00FB70700201385C747C93A6A
:100830000100B240224441018280011122CE001009
:100840002326A4FEAE87A305F4FE8347B4FE85CB22
:100850008327C4FEBD8B0547B317F70093960701A6
:10086000C1828327C4FE13D75700B70700200A07A9
:1008700093870704BA979C43368798CB3DA083277C
:10088000C4FEBD8B0547B317F70093960701C182DD
:100890008327C4FE13D75700B70700200A079387A2
:1008A0000704BA979C433687D8CB01007244056190
:1008B0008280011122CE00102326A4FE8327C4FECD
:1008C000958313F77700B70700200A07938707047B
:1008D000BA979C439C470327C4FE7D8B854633977C
:1008E000E600F98FB337F00093F7F70F3E857244B7
:1008F00005618280797106D622D40018232EA4FCCB
:10090000232CB4FCB2872328D4FCA30BF4FC2320B3
:1009100004FE232204FE232404FE8327C4FD9583C2
:1009200093F7F70F9D8BA307F4FE8327C4FD93F77E
:10093000F70FFD8B2307F4FE8347F4FE91E785450F
:100940001145EF80D01C91A80347F4FE854763173B
:10095000F70085452145EF80901B81A00347F4FEF9
:1009600089476317F70085454145EF80501A35A048
:100970000347F4FE8D476318F70085451305000211
:10098000EF80F01819A80347F4FE91476317F700AA
:10099000854513050004EF8090178347E4FE054763
:1009A000B317F700C207C1832310F4FE032784FDA9
:1009B00085476317F702832704FDC207C183A1831C
:1009C000C207C18389E78D472322F4FE11A883273C
:1009D00004FDC207C183A183C207C1832322F4FEA1
:1009E000832704FDC207C18393F7F70F2324F4FE86
:1009F0000347F4FEB70700200A0793870704BA9756
:100A00009C43130704FEBA853E85EF80E01C032754
:100A100084FD85476319F7020347F4FEB7070020FA
:100A20000A0793870704BA9794438347E4FE054770
:100A3000B317F700C207C183034774FD3A86BE852A
:100A40003685EF80003C0100B2502254456182801F
:100A50001D7186CEA2CC80102326A4FA2324B4FADA
:100A600085450325C4FAEF10C006AA873E87130602
:100A7000D006E967938587FB3A85EF40F029832705
:100A800084FAB337F00093F7F70F3E871306F006AA
:100A9000E967938587FB3A85EF401028832784FA1E
:100AA000BD832315F4FE8357A4FE85073E87832765
:100AB00084FAB3D7E7022314F4FE0325C4FAEF1037
:100AC000A007B7370140938707C02326F4FE03270A
:100AD000C4FAA54763ECE7088327C4FA13972700F5
:100AE000ED6793878793BA979C438287B737014016
:100AF000938707C02326F4FE95A8B7070040232656
:100B0000F4FEADA0B7070040938707402326F4FE0C
:100B1000B1A8B7170040938707802326F4FEB9A039
:100B2000B7170040938707C02326F4FE81A0B717AC
:100B300000402326F4FE1DA8B71700409387074006
:100B40002326F4FE25A0B7370140938707402326CC
:100B5000F4FE29A8B7570140938707C02326F4FE67
:100B600031A0B75701402326F4FE0100232E04FCD8
:100B7000232004FE231204FE835784FE2310F4FE78
:100B80008357A4FE231EF4FC231104FE231F04FC40
:100B9000230204FE9307C4FDBE850325C4FEEF8037
:100BA0001025054685450325C4FEEF80B0418545E7
:100BB0000325C4FEEF80104FE96703AE07F91387E2
:100BC00007F903234700138707F983288700138752
:100BD00007F90328C700138707F9084B138707F99C
:100BE0004C4B138707F9104F138707F9544F13879E
:100BF00007F91853938707F9DC53232AC4FB232CE6
:100C000064FA232E14FB232004FD2322A4FC2324B6
:100C1000B4FC2326C4FC2328D4FC232AE4FC232C84
:100C2000F4FC8327C4FA93F7F70F8A07130704FF2E
:100C3000BA9783A747FC8D453E85EF60A068832760
:100C4000C4FA8A07130704FFBA9783A747FC3E85B7
:100C5000EF60806385450325C4FEEF8030310100DD
:100C6000F640664425618280797106D622D4001848
:100C7000232EA4FC8327C4FDB337F00093F7F70FAE
:100C80003E8713061004E967938587043A85EF4091
:100C9000B0088327C4FD9C43BD8B0547B317F700FD
:100CA00093960701C1828327C4FD9C4313D7570045
:100CB000B70700200A0793870704BA979C43368733
:100CC00098CB8327C4FDDC43BD8B0547B317F700E2
:100CD00093960701C1828327C4FDDC4313D75700D5
:100CE000B70700200A0793870704BA979C43368703
:100CF00098CB8327C4FDDC472326F4FE010083271D
:100D0000C4FE1387F7FF2326E4FEF5FB8327C4FD0B
:100D1000DC43BD8B0547B317F70093960701C182EB
:100D20008327C4FDDC4313D75700B70700200A0709
:100D300093870704BA979C433687D8CB8327C4FD93
:100D4000DC472324F4FE0100832784FE1387F7FF8A
:100D50002324E4FEF5FB8327C4FD9C43BD8B05479C
:100D6000B317F70093960701C1828327C4FD9C4304
:100D700013D75700B70700200A0793870704BA97CD
:100D80009C433687D8CB0100B25022544561828003
:100D9000797106D622D40018232EA4FC8327C4FD23
:100DA000B337F00093F7F70F3E8713064005E96766
:100DB000938587043A85EF4020768327C4FDDC4382
:100DC000BD8B0547B317F70093960701C1828327B0
:100DD000C4FDDC4313D75700B70700200A079387E9
:100DE0000704BA979C433687D8CB8327C4FD9C431E
:100DF000BD8B0547B317F70093960701C182832780
:100E0000C4FD9C4313D75700B70700200A079387F8
:100E10000704BA979C433687D8CB8327C4FDDC47A9
:100E20002326F4FE01008327C4FE1387F7FF232641
:100E3000E4FEF5FB8327C4FD9C43BD8B0547B31738
:100E4000F70093960701C1828327C4FD9C4313D703
:100E50005700B70700200A0793870704BA979C43F7
:100E6000368798CB8327C4FDDC472324F4FE01009A
:100E7000832784FE1387F7FF2324E4FEF5FB8327F3
:100E8000C4FDDC43BD8B0547B317F70093960701FC
:100E9000C1828327C4FDDC4313D75700B707002066
:100EA0000A0793870704BA979C43368798CB832712
:100EB000C4FDDC472322F4FE0100832744FE138790
:100EC000F7FF2322E4FEF5FB0100B25022544561F6
:100ED0008280797106D622D40018232EA4FCAE8716
:100EE000A30DF4FC8327C4FDB337F00093F7F70F8D
:100EF0003E8713069006E967938587043A85EF409D
:100F0000A0618327C4FD9C43BD8B0547B317F70041
:100F100093960701C1828327C4FD9C4313D75700D2
:100F2000B70700200A0793870704BA979C433687C0
:100F3000D8CB8347B4FD95CB8327C4FDDC43BD8B61
:100F40000547B317F70093960701C1828327C4FDB5
:100F5000DC4313D75700B70700200A07938707041D
:100F6000BA979C43368798CB0DA88327C4FDDC43F2
:100F7000BD8B0547B317F70093960701C1828327FE
:100F8000C4FDDC4313D75700B70700200A07938737
:100F90000704BA979C433687D8CB8327C4FDDC4728
:100FA0002326F4FE01008327C4FE1387F7FF2326C0
:100FB000E4FEF5FB8327C4FD9C43BD8B0547B317B7
:100FC000F70093960701C1828327C4FD9C4313D782
:100FD0005700B70700200A0793870704BA979C4376
:100FE000368798CB8327C4FDDC472324F4FE010019
:100FF000832784FE1387F7FF2324E4FEF5FB832772
:10100000C4FD9C43BD8B0547B317F70093960701BA
:10101000C1828327C4FD9C4313D75700B707002024
:101020000A0793870704BA979C433687D8CB832750
:10103000C4FDDC43BD8B0547B317F700939607014A
:10104000C1828327C4FDDC4313D75700B7070020B4
:101050000A0793870704BA979C43368798CB010009
:10106000B250225445618280797106D622D400188C
:10107000232EA4FC8327C4FDB337F00093F7F70FAA
:101080003E8713065008E967938587043A85EF4049
:10109000A048A30704FE8327C4FD9C43BD8B0547DE
:1010A000B317F70093960701C1828327C4FD9C43C1
:1010B00013D75700B70700200A0793870704BA978A
:1010C0009C433687D8CB8327C4FDDC43BD8B0547C3
:1010D000B317F70093960701C1828327C4FDDC4351
:1010E00013D75700B70700200A0793870704BA975A
:1010F0009C43368798CB8327C4FDDC472324F4FE2A
:101100000100832784FE1387F7FF2324E4FEF5FB09
:101110008327C4FD9C43BD8B0547B317F700939607
:101120000701C1828327C4FD9C4313D75700B7072B
:1011300000200A0793870704BA979C43368798CB09
:101140008327C4FDDC472322F4FE0100832744FEED
:101150001387F7FF2322E4FEF5FB8327C4FDDC435E
:101160003E85EFF00FF5AA8781C78547A307F4FEF8
:101170008327C4FD9C43BD8B0547B317F7009396A7
:101180000701C1828327C4FD9C4313D75700B707CB
:1011900000200A0793870704BA979C433687D8CB69
:1011A0008327C4FDDC472320F4FE0100832704FECF
:1011B0001387F7FF2320E4FEF5FB8347F4FE3E850B
:1011C000B250225445618280797106D622D400182B
:1011D000232EA4FCAE87A30DF4FC8327C4FDB337F4
:1011E000F00093F7F70F3E871306700AE9679385BF
:1011F00087043A85EF404032930700F8A307F4FED6
:1012000009AA0347B4FD8347F4FEF98F93F7F70F5C
:1012100095CB8327C4FDDC43BD8B0547B317F7008F
:1012200093960701C1828327C4FDDC4313D757007F
:10123000B70700200A0793870704BA979C433687AD
:1012400098CB0DA88327C4FDDC43BD8B0547B3179E
:10125000F70093960701C1828327C4FDDC4313D7AF
:101260005700B70700200A0793870704BA979C43E3
:101270003687D8CB8347F4FE8583A307F4FE832704
:10128000C4FDDC472324F4FE0100832784FE13877A
:10129000F7FF2324E4FEF5FB8327C4FD9C43BD8BAD
:1012A0000547B317F70093960701C1828327C4FD52
:1012B0009C4313D75700B70700200A0793870704FA
:1012C000BA979C43368798CB8327C4FDDC472322FB
:1012D000F4FE0100832744FE1387F7FF2322E4FE78
:1012E000F5FB8327C4FD9C43BD8B0547B317F7006F
:1012F00093960701C1828327C4FD9C4313D75700EF
:10130000B70700200A0793870704BA979C433687DC
:10131000D8CB8347F4FEE39607EE0325C4FDA9333B
:10132000AA87FD17B337F00093F7F70F3E85B25049
:10133000225445618280397106DE22DC26DA800083
:101340002326A4FCAE87A305F4FC8327C4FCB33793
:10135000F00093F7F70F3E871306000CE9679385BB
:1013600087043A85EF40401BA30704FEA1472307EB
:10137000F4FE8327C4FC9C43BD8B0547B317F700DD
:1013800093960701C1828327C4FC9C4313D757005F
:10139000B70700200A0793870704BA979C4336874C
:1013A000D8CB8327C4FCDC472324F4FE0100832729
:1013B00084FE1387F7FF2324E4FEF5FB8327C4FC98
:1013C000DC43BD8B0547B317F70093960701C18235
:1013D0008327C4FCDC4313D75700B70700200A0754
:1013E00093870704BA979C43368798CB7DA88327B9
:1013F000C4FC9C43BD8B0547B317F70093960701C8
:10140000C1828327C4FC9C4313D75700B707002031
:101410000A0793870704BA979C433687D8CB83275C
:10142000C4FCDC472322F4FE0100832744FE13871B
:10143000F7FF2322E4FEF5FB8327C4FC9C43BD8B0E
:101440000547B317F70093960701C1828327C4FCB1
:101450009C4313D75700B70700200A079387070458
:10146000BA979C43368798CB8327C4FCDC4723205C
:10147000F4FE0100832704FE1387F7FF2320E4FE18
:10148000F5FB8347F4FE860793948701E184832765
:10149000C4FCDC433E85EFF0CFC1AA87E207E187B9
:1014A000C58FE207E187A307F4FE8347E4FE1387B5
:1014B000F7FF2307E4FE85FF8327C4FC9C43BD8B15
:1014C0000547B317F70093960701C1828327C4FC31
:1014D0009C4313D75700B70700200A0793870704D8
:1014E000BA979C433687D8CB8327C4FCDC47232E8E
:1014F000F4FC01008327C4FD1387F7FF232EE4FCCF
:10150000F5FB8347B4FCBE850325C4FCD932834771
:10151000F4FE3E85F2506254D25421618280011162
:1015200006CE22CC00102326A4FEAE873287A30568
:10153000F4FEBA872305F4FE8327C4FEB337F00018
:1015400093F7F70F3E8713062029E96793858704F1
:101550003A85EF30707C0325C4FEEFF0EFF083276F
:10156000C4FE83C78700860793F7F70FBE85032560
:10157000C4FE99398347B4FEBE850325C4FEA93154
:101580008347A4FEBE850325C4FE3D390325C4FE62
:10159000EFF01F800100F2406244056182807971A2
:1015A00006D622D40018232EA4FCAE87A30DF4FC8B
:1015B0008327C4FDB337F00093F7F70F3E87130678
:1015C000402AE967938587043A85EF30F074A307D2
:1015D00004FE0325C4FDEFF02FE98327C4FD83C774
:1015E0008700860793F7F70FBE850325C4FDE93E04
:1015F0008347B4FDBE850325C4FDF9360325C4FD2C
:10160000EFF00FF90325C4FDEFF00FE68327C4FDCB
:1016100083C787008607E207E18793E71700E207A1
:10162000E18793F7F70FBE850325C4FD713E85451D
:101630000325C4FD0933AA87A307F4FE0325C4FDCF
:10164000EFF00FF58347F4FE3E85B250225445611A
:101650008280797106D622D400182326A4FEAE8794
:101660002322C4FE2320D4FE232EE4FCA305F4FE93
:101670008327C4FEB337F00093F7F70F3E871306B6
:10168000F02BE967938587043A85EF30F0680327EC
:1016900004FE8327C4FDB307F740B337F00093F788
:1016A000F70F3E871306002CE967938587043A8578
:1016B000EF3090668327C4FE032704FE98C3832778
:1016C000C4FE0327C4FDD8C38327C4FE0347B4FE6A
:1016D0002384E7008327C4FE032744FED8C7C146FE
:1016E00005468545032504FEEFF0CFA0D14605460B
:1016F00085450325C4FDEFF0EF9F0100B250225451
:1017000045618280011122CE00102326A4FEAE87FF
:10171000A305F4FEED670327C4FE0A079387079627
:10172000BA979C433E878347B4FEC207C183231602
:10173000F7000100ED670327C4FE0A0793870796A9
:10174000BA979C4383D78700C207C18393F70708E2
:10175000F5F30100724405618280011122CE001070
:101760002326A4FEAE872315F4FE8357A4FEA1838F
:10177000C207C18393F6F70FED670327C4FE0A077C
:1017800093870796BA979C433E8793970601C18338
:101790002316F7000100ED670327C4FE0A079387AD
:1017A0000796BA979C4383D78700C207C183898B6A
:1017B000FDD38357A4FE93F6F70FED670327C4FE0E
:1017C0000A0793870796BA979C433E87939706012B
:1017D000C1832316F7000100ED670327C4FE0A0743
:1017E00093870796BA979C4383D78700C207C18324
:1017F00093F70708F5F301007244056182805D717B
:1018000086C6A2C480082326A4FC2324B4FC232279
:10181000C4FC2320D4FC232EE4FA232CF4FA232A3C
:1018200004FBED670327C4FC0A0793870796BA9762
:101830009C433E85EF70303F85450545EF70302D68
:10184000032704FC93073012631DF7000327C4FB32
:10185000930750126317F70085450545EF70E05D6B
:1018600025A0032704FC89679387A714631EF7004C
:101870000327C4FB89679387C7146317F70085455F
:1018800037152000EF70605B8327C4FC91E7854526
:101890000565EF70D02725A00327C4FC8547631793
:1018A000F70085451165EF70F02A11A80327C4FCE5
:1018B00089476316F70085452165EF70B0298327B6
:1018C00004FC93F7F70F93068031054685453E8566
:1018D000EFF04F828327C4FB93F7F70F9306803115
:1018E000054685453E85EFF0EF80032784FBC16701
:1018F000F917630DF700832784FB93F7F70F93061F
:101900008034054681453E85EFE0DFFE032744FB3A
:101910009307F00F630DF700832744FB93F7F70F4E
:1019200093060031014685453E85EFE0BFFC232E3E
:1019300004FC232004FE232204FE232404FE231699
:1019400004FE231E04FC93074010231FF4FC231005
:1019500004FE032784FC85476305F702832784FC84
:1019600081CF032784FC89476303F702032784FCA4
:101970008D476304F7020DA8231104FE231204FE11
:1019800025A0231104FE85472312F4FE31A88947C0
:101990002311F4FE231204FE01A889472311F4FE4B
:1019A00085472312F4FE0100231704FE03A7C1821A
:1019B000832744FCB357F7022317F4FE03A7C18221
:1019C000832744FCB377F70291E78357E4FEFD17C2
:1019D0002317F4FE0357E4FE9307F00763F7E700CD
:1019E000930780032317F4FE49A80357E4FE9307E7
:1019F000F00363F7E700930700032317F4FEB5A88D
:101A00000357E4FEFD4763F7E700930780022317BF
:101A1000F4FEA5A00357E4FEBD4763F7E700930774
:101A200000022317F4FE91A80357E4FE9D4763F6D6
:101A3000E700E1472317F4FE89A00357E4FE8D4732
:101A400063F6E700C1472317F4FE05A80357E4FE39
:101A5000854763F6E700A1472317F4FE39A88357AB
:101A6000E4FE81C7231704FE09A813068022E96754
:101A70009385C70D0145EF30302A8357E4FE2314C8
:101A8000F4FE930700202313F4FE231504FE23160F
:101A900004FEED670327C4FC0A0793870796BA97ED
:101AA0009C433E879307C4FDBE853A85EF70101FA7
:101AB000ED670327C4FC0A0793870796BA979C43F0
:101AC00085453E85EF70102D0100B64026446161CA
:101AD0008280797122D60018232EA4FC232CB4FC1A
:101AE0008547A307F4FE0327C4FD0A079387C1D8DF
:101AF000BA979C4399EB0327C4FD0A079387C1D883
:101B0000BA97032784FD98C315A00327C4FD0A07CD
:101B10009387C1D8BA979C43032784FD6316F700C7
:101B20008547A307F4FE19A0A30704FE8347F4FE2C
:101B30003E85325445618280011106CE22CC0010D0
:101B40002326A4FE8327C4FE81EB85458567138584
:101B50000780EF70C07B6DA80327C4FE854763171D
:101B6000F70085450545EF70E07E5DA00327C4FEC4
:101B700089476317F70085450945EF70A07D49A89F
:101B80000327C4FE8D476317F70085451145EF70A5
:101B9000607CBDA80327C4FE91476317F700854505
:101BA0002145EF70207BADA00327C4FE9547631746
:101BB000F70085454145EF70E07999A80327C4FEF9
:101BC00099476318F700854513050002EF70807888
:101BD00081A00327C4FE9D476317F700854509656B
:101BE000EF70E07235A00327C4FEA1476318F70029
:101BF000854537050800EF70807119A80327C4FEDA
:101C0000A5476317F700854537051000EF70207072
:101C10000100F240624405618280797122D6001889
:101C2000232EA4FCB7370140938707C02326F4FE78
:101C3000231504FE0327C4FDA54763ECE7088327AB
:101C4000C4FD13972700ED679387C796BA979C4307
:101C50008287B7370140938707C02326F4FE95A8F3
:101C6000B70700402326F4FEADA0B70700409387D6
:101C700007402326F4FEB1A8B717004093870780DA
:101C80002326F4FEB9A0B7170040938707C0232688
:101C9000F4FE81A0B71700402326F4FE1DA8B71755
:101CA0000040938707402326F4FE25A0B737014064
:101CB000938707402326F4FE29A8B757014093874E
:101CC00007C02326F4FE31A0B75701402326F4FEB7
:101CD00001000327C4FD0A07938741DBBA979843A5
:101CE0008947631FF7008327C4FE83D747021397F2
:101CF000070141838D47B357F7022315F4FE39A03E
:101D00008327C4FE83D747022315F4FE8357A4FE1E
:101D10003E85325445618280797122D60018232E87
:101D2000A4FCB7370140938707C02326F4FE03279E
:101D3000C4FDA54763ECE7088327C4FD139727007C
:101D4000ED6793874799BA979C438287B7370140DD
:101D5000938707C02326F4FE95A8B70700402326E3
:101D6000F4FEADA0B7070040938707402326F4FE9A
:101D7000B1A8B7170040938707802326F4FEB9A0C7
:101D8000B7170040938707C02326F4FE81A0B7173A
:101D900000402326F4FE1DA8B71700409387074094
:101DA0002326F4FE25A0B73701409387074023265A
:101DB000F4FE29A8B7570140938707C02326F4FEF5
:101DC00031A0B75701402326F4FE01008327C4FE4B
:101DD000239207020100325445618280011122CE14
:101DE00000102326A4FEAE87A305F4FE0100ED67D4
:101DF0000327C4FE0A079387C79BBA979C4383D7E0
:101E00000700C207C18393F70708F5D3ED670327DF
:101E1000C4FE0A079387C79BBA979C433E878347B4
:101E2000B4FEC207C1832312F700010072440561AA
:101E30008280011106CE22CC00102326A4FE23248A
:101E4000B4FE2322C4FE832784FEB337F00093F749
:101E5000F70F3E8713061004E9679385C7163A8586
:101E6000EF30806B29A8832784FE13871700232473
:101E7000E4FE83C70700BE850325C4FE853783279C
:101E800044FE1387F7FF2322E4FEF1FF0100F24036
:101E9000624405618280011106CE22CC0010232607
:101EA000A4FE2324B4FE832784FEB337F00093F707
:101EB000F70F3E8713060005E9679385C7163A8535
:101EC000EF30806539A8832784FE13871700232409
:101ED000E4FE8387070093F7F70FBE850325C4FE52
:101EE000F53D832784FE83870700F1FF0100F24060
:101EF000624405618280011106CE22CC00102326A7
:101F0000A4FEAE87A305F4FEED670327C4FE0A070F
:101F10009387C79BBA979C433E878347B4FE3E8610
:101F2000930550523A85EF701044138781868327BA
:101F3000C4FEBA9783C7070081453E85EF508038BD
:101F40008347B4FE81CF138781868327C4FEBA9767
:101F500083C707003E85EF50203319A81387818679
:101F60008327C4FEBA9783C707003E85EF50A0338E
:101F70000100F240624405618280011122CE00100E
:101F80002326A4FE2324B4FEED670327C4FE0A071C
:101F90009387C79BBA979C4383D70700C207C18327
:101FA00093F707028DC7ED670327C4FE0A079387DF
:101FB000C79BBA979C4383D74700C207C18313F7D7
:101FC000F70F832784FE2380E700854711A0814710
:101FD0003E85724405618280797106D622D400184C
:101FE000232EA4FC232CB4FC232AC4FC2328D4FCD9
:101FF000032744FD832704FD3D8F8327C4FDB207DB
:10200000F98F93B7170093F7F70F3E871306A00ACF
:10201000E9679385C7163A85EF300050832744FD62
:1020200013D78700832704FDA183B307F74093B735
:10203000170093F7F70F3E871306B00AE9679385F9
:10204000C7163A85EF30404D832744FD93F7F70FCD
:10205000E146014685453E85EFE0DF89832704FDA3
:1020600093F7F70F93068004014681453E85EFE024
:102070007F8885450545EF708029032744FDC167AA
:10208000FD17F98F0D67130707386387E7200D6782
:10209000130707386369F704056713075716638149
:1020A000E716056713075716636FF7001307F0224B
:1020B000638AE70C130760306381E710130760122F
:1020C0006388E70865A6096713078736638BE716F9
:1020D0000D67130707126387E71809671307A7142B
:1020E0006380E71461A615671307A738638EE72698
:1020F00015671307A7386362F7021167130787385C
:102100006380E7201567130787126385E72211674D
:1021100013074712638CE71A91AE19671307C73884
:102120006388E72A19671307C7386368F7001967D8
:10213000130767106384E72615AE1D671307E710C2
:102140006382E72C1D671307E7386387E72E39AEF4
:10215000B7070140D44FB7070140370700FC7D1790
:10216000758FD8CFB7070140D843B70701406D9BA3
:10217000D8C3B7070140D843B707014013674700EA
:10218000D8C3EDA4B7070140D44FB70701403707C4
:1021900000FC7D17758FD8CFB7070140D44FB70724
:1021A000014037070004558FD8CFB7070140D84307
:1021B000B70701406D9BD8C355ACB7070140D44F5A
:1021C000B7070140370700FC7D17758FD8CFB707D9
:1021D0000140D44FB707014037070004558FD8CFCF
:1021E000B7070140D843B70701406D9BD8C3B70775
:1021F0000140D843B707014013674700D8C3BDA4C7
:10220000B7070140D843B70701405D9BD8C3B70764
:102210000140D843B707014013678700D8C3B9A46A
:10222000B7070140D843B70701401377F7FCD8C37D
:10223000B7070140D843B707014013670701D8C368
:1022400035A4B7070140D843B70701401377F7FC1F
:10225000D8C3B7070140D843B70701401367070346
:10226000D8C329A4B7070140D44FB70701403707A7
:10227000FDFF7D17758FD8CFB7070140D44F832757
:1022800044FDA18313970701B70703007D8FB707AC
:102290000140558FD8CFD9AAB7070140D44FB7070F
:1022A00001403707FDFF7D17758FD8CFB707014075
:1022B000D44F832744FDA18313970701B707030079
:1022C0007D8FB7070140558FD8CF4DA2B70701408A
:1022D000D44FB70701403707F4FF7D17758FD8CF6C
:1022E000B7070140D44F832744FDA18313972701EB
:1022F000B7070C007D8FB7070140558FD8CFBDA21F
:10230000B7070140D44FB70701403707F4FF7D17E7
:10231000758FD8CFB7070140D44F832744FDA183E1
:1023200013972701B7070C007D8FB7070140558F22
:10233000D8CF2DAAB7070140D44FB70701403707C0
:10234000D0FF7D17758FD8CFB7070140D44F8327B3
:1023500044FDA18313974701B70730007D8FB7076E
:102360000140558FD8CF19A2B7070140D44FB70706
:1023700001403707D0FF7D17758FD8CFB7070140D1
:10238000D44F832744FDA18313974701B70730003B
:102390007D8FB7070140558FD8CFC9A8B707014037
:1023A000D44FB7070140370740FF7D17758FD8CF4F
:1023B000B7070140D44F832744FDA18313976701DA
:1023C000B707C0007D8FB7070140558FD8CF79A8D8
:1023D000B7070140D44FB7070140370740FF7D17CB
:1023E000758FD8CFB7070140D44F832744FDA18311
:1023F00013976701B707C0007D8FB7070140558F5E
:10240000D8CFADA0B7070140D44FB7070140370779
:1024100000FD7D17758FD8CFB7070140D44F8327B4
:1024200044FDA18313978701B70700037D8FB7078A
:102430000140558FD8CF1DA8B7070140D44FB7072B
:102440000140370700FD7D17758FD8CFB7070140D2
:10245000D44F832744FDA18313978701B707000357
:102460007D8FB7070140558FD8CF01008327C4FD6A
:1024700091E785451165EF60906969A80327C4FD60
:1024800085476318F700854537050200EF60906CBB
:1024900051A00327C4FD89476318F7008545370518
:1024A0000400EF60306BBDA00327C4FD8D476318A7
:1024B000F700854537050800EF60D069A1A803271C
:1024C000C4FD91476318F700854537051000EF609C
:1024D000706889A00327C4FD95476318F7008545F8
:1024E00013050004EF60106735A00327C4FD99476A
:1024F0006318F700854513050008EF60B06519A85B
:102500000327C4FD9D476317F70085451305001099
:10251000EF605064232004FE232204FE232404FEE3
:10252000232604FE832784FD2320F4FE231204FEC9
:10253000231304FE231404FE231604FEB1472315BF
:10254000F4FEED670327C4FD0A079387C79BBA977C
:102550009C433E87930704FEBE853A85EF70603743
:10256000ED670327C4FD0A079387C79BBA979C436F
:1025700085453E85EF7020590100B25022544561D7
:102580008280411106C622C4000883A7C18705477F
:10259000638BE7006386070C0947638DE7000D47EF
:1025A000638FE702D9A083A781871387170023AC25
:1025B000E18665A883A781871387170023ACE1868E
:1025C00003A78187A54763FFE708B7070020938724
:1025D00007049C4B1167D8CB23AC018661A003A7ED
:1025E000018885476312F7081305F008EFE06FAC28
:1025F000AA87B9CF1945EFF04FE2AA873E8783A794
:1026000081871D8F9307600963F0E7061945EFF096
:10261000AFF083A78187D3F717D05385F720EF302A
:10262000B164E96703A6072083A64720EF2031297C
:10263000AA872E883E85C285EF30D14BAA87139793
:10264000070141832394E180094723A0E18829A859
:102650001945EFF08FDCAA873E8723ACE18629A0DD
:10266000010021A0010011A001000100B24022449C
:1026700041018280411106C622C4000883A7C18798
:102680000947637CF7000D47639AE7001945EFF0AF
:10269000AFE8054723A0E18811A001000100B24086
:1026A000224441018280011106CE22CC0010232257
:1026B00004FE83C751886381071409A8930734FE79
:1026C0000546BE851385C1DDEF30100A930734FE41
:1026D000BE851D45EFF07F8AAA87EDF3034734FEE0
:1026E000A947631BF71099472322F4FE130744FE02
:1026F000930784FE85463A86BE851385C1DDEF309B
:102700005065930784FE138737000D46E96793856C
:1027100087203A85EF40716EAA879DEB03A7C18899
:1027200089476304F70C054723A6E1881385C1DDBB
:10273000EF30E055AA872322F4FE930744FE81463A
:102740003E86938581E71385C1DDEF30906071A8E7
:10275000930784FE138737000D46E9679385C720EA
:102760003A85EF409169AA879DEB03A78188894745
:10277000630DF706054723A4E1881385C1DDEF301B
:102780000051AA872322F4FE930744FE81463E8629
:10279000938581DF1385C1DDEF30B05BB9A093076E
:1027A00084FE138737000D46E967938507213A8534
:1027B000EF40B164AA8795EB03A7018989476306B7
:1027C000F702054723A8E1881385C1DDEF30204CCF
:1027D000AA872322F4FE930744FE81463E86938512
:1027E00081EF1385C1DDEF30D0561385C1DDEF30A9
:1027F000602505472382E1880100F24062440561BB
:102800008280011106CE22CC0010A30704FEA3078C
:1028100004FEF1A80347F4FEED670A079387C79DFE
:10282000BA979C433E85EFE0CF88AA873E878547CD
:102830006309F7048347F4FE93962700138781F713
:1028400036971843050793962700938781F7B69725
:1028500098C383A741891307803E3357F702834605
:10286000F4FE8A06938781F7B6979C4363ECE706EC
:102870000347F4FE0A07938781F8BA97094798C37C
:1028800095A00347F4FE0A07938781F8BA97984307
:1028900089476309F70283A7418929473357F7021C
:1028A0008346F4FE8A06938781F7B6979C4363EBD1
:1028B000E7000347F4FE0A07938781F8BA970547B4
:1028C00098C309A80347F4FE0A07938781F8BA97CB
:1028D00023A007000347F4FE0A07938781F7BA97FE
:1028E00023A007008347F4FE8507A307F4FE0347F0
:1028F000F4FE8D47E3F0E7F20100F2406244056127
:102900008280011122CE00102326A4FE0327C4FEDC
:102910000A07938781F8BA979C433E857244056104
:102920008280797106D622D40018232EA4FC832736
:10293000C4FDB337F00093F7F70F3E871306C008C6
:10294000E9679385872F3A85EF20103DA30704FEA2
:10295000A30704FE2DA80347F4FEED670A0793873B
:10296000C79DBA979C4393068004054681453E85E2
:10297000EFD05FF80347F4FE0A07938781F8BA9710
:1029800023A007008347F4FE8507A307F4FE03474F
:10299000F4FE8D47E3F1E7FC0327C4FD23AAE18899
:1029A0000100B250225445618280397106DE22DC7A
:1029B00080002326A4FC8547A307F4FE231304FE0E
:1029C000231604FE232404FE232E04FC83D7018A4D
:1029D0003E87930700236316F700A5472324F4FEE0
:1029E00029A0A1472324F4FE01008DA8930750FAE3
:1029F0002300F4FE832784FE8A070327C4FCBA97CA
:102A00008397070093F7F70FA300F4FE832784FE54
:102A10008A070327C4FCBA97839727002313F4FE81
:102A2000835764FEA183C207C18393F7F70F230185
:102A3000F4FE835764FE93F7F70FA301F4FE9307A8
:102A400004FE1146BE851145EFF0AFBE0945EFD03B
:102A5000BF85832784FEFD172324F4FE032784FE0D
:102A60009307E00FE3F4E7F883A7C1893E85EF30D1
:102A700000222A87894763FFE7028D47232EF4FC53
:102A800083A7C1891306C4FD130704FE8146BA85D6
:102A90003E85EF30102C034714FE9307F00F6308B8
:102AA000F700034724FE9307F00F6315F700A30711
:102AB00004FE31A80545EFD02FFF8357C4FE1387CE
:102AC00017002316E4FE1307700CE37FF7F8834723
:102AD000F4FE3E85F250625421618280797106D6FF
:102AE00022D40018232EA4FCA30704FE230704FE0F
:102AF000231504FE231604FE232004FE83D7018A37
:102B00003E87930700236316F700A547A307F4FE4B
:102B100029A0A147A307F4FE01008347F4FEFD1797
:102B200093F7F70FA307F4FE11AA03D7018A9307BF
:102B3000F02263EDE7008307F4FE8A070327C4FD54
:102B4000BA9703970700A5476300F70E930750FA5B
:102B50002302F4FEC557A302F4FE8307F4FE8A079E
:102B60000327C4FDBA97839707002315F4FE835704
:102B7000A4FEA183C207C18393F7F70F2303F4FEDA
:102B80008357A4FE93F7F70FA303F4FE930744FEC5
:102B90001146BE851145EFF0CFA9231604FE83A789
:102BA000C1893E85EF30A00E2A87894763F7E70485
:102BB0008D472320F4FE83A7C189130604FE130763
:102BC00044FE8146BA853E85EF30B018834754FEF7
:102BD000A20793960701C186834764FE13970701F6
:102BE00041878307F4FE8A070326C4FDB297558FF9
:102BF000420741872391E70031A80545EFD0CFEA8E
:102C00008357C4FE138717002316E4FE1307700CC6
:102C1000E377F7F80357C4FE9307800C63F7E700E8
:102C200085472307F4FE39A801008307F4FE93F7D4
:102C3000F70FFD1793F7F70FA307F4FE8307F4FED2
:102C4000E3D507EE8347E4FE3E85B250225445614A
:102C50008280011106CE22CC0010232404FE854779
:102C6000A307F4FE231604FE232204FE83A7C189D2
:102C70003E85EF30C001AA8791C783A7C1893E85F1
:102C8000EF20505C9305F00F1145EFF02F9593075F
:102C900050FA2304F4FEBD57A304F4FE230504FEFA
:102CA000A30504FE930784FE1146BE851145EFF08F
:102CB0004F98231604FE83A7C1893E85EF20307DFF
:102CC0002A87894763F0E7048D472322F4FE83A710
:102CD000C189130644FE130784FE8146BA853E85EA
:102CE000EF3030070347A4FE85476309F700034729
:102CF000A4FE89476304F700854711A08147A30715
:102D0000F4FE31A80545EFD02FDA8357C4FE1387B0
:102D100017002316E4FE1307700CE37EF7F88347D1
:102D2000F4FE3E85F240624405618280011106CEC8
:102D300022CC0010A30704FE9307F4FEBE851145C4
:102D4000EFF0AFA383A7C18985C70347F4FE9307BC
:102D5000500A6317F70083A7C1893E85EF20904E84
:102D600083A7C1890347F4FEBA853E85EF20D07959
:102D70000100F240624405618280411122C60008D0
:102D80000547238CE1880100324441018280011112
:102D900006CE22CC0010231704FE231604FE2322A5
:102DA00004FE930750FA2304F4FEC557A304F4FE6F
:102DB000230504FEC957A305F4FE930784FE1146BC
:102DC000BE851145EFF0EF8683A7C1893E85EF20D0
:102DD000106C2A87894763F0E7048D472322F4FEAD
:102DE00083A7C189130644FE130784FE8146BA8572
:102DF0003E85EF300076834794FEA20713970701C4
:102E000041878347A4FEC207C187D98FC207C18704
:102E10002316F4FE31A80545EFD00FC98357E4FE11
:102E2000138717002317E4FE1307700CE37EF7F8EF
:102E30008357C4FE3E85F240624405618280397149
:102E400006DE22DC8000AA872317F4FC232604FE7A
:102E5000A30504FE231404FE231304FE232E04FC06
:102E600083A7C1806393071413050004EF30112872
:102E7000AA872326F4FE8327C4FE85E39306A014C5
:102E8000E96713868738E967938507420145EF2094
:102E9000206F8547A305F4FE0DA26545EF3011258F
:102EA000AA873E8723AEE18883A7C18985E393067D
:102EB0001015E96713868738E9679385C74301458D
:102EC000EF20006C8547A305F4FEC5A883A7C18940
:102ED000930600040326C4FE81453E85EF30B041D1
:102EE000930750FA2300F4FEC157A300F4FE835762
:102EF000E4FC2314F4FE835784FEA183C207C1833C
:102F000093F7F70F2301F4FE835784FE93F7F70F2F
:102F1000A301F4FE930704FE1146BE851145EFE0C0
:102F20005FF183A7C1893E85EF2070562A878947C4
:102F300063F0E7048D47232EF4FC83A7C1891306B1
:102F4000C4FD130704FE8146BA853E85EF306060FC
:102F5000834714FEA207139707014187834724FE86
:102F6000C207C187D98FC207C1872314F4FE31A8D5
:102F70000545EFD06FB3835764FE13871700231303
:102F8000E4FE1307700CE37EF7F8035784FE8357C3
:102F9000E4FC6318F700035764FE9307700C63FEAC
:102FA000E7008547A305F4FE09A88357E4FC3E85A6
:102FB000EF00F14AAA87A305F4FE0325C4FEEF3013
:102FC000911383A7C1893E85EF30F11223AE0188AA
:102FD0008347B4FE3E85F2506254216182805D7168
:102FE00086C6A2C480088547A307F4FE054723A62A
:102FF000E1809307C4FD1307C0049306200613065F
:10300000401F81453E85EFE0CFE49307C4FD3E8538
:10301000EF00E164AA87B5EFE96703AE07451387C0
:103020000745032347001387074583288700138735
:1030300007450328C70013870745084B1387074533
:103040004C4B13870745104F13870745544F138781
:103050000745185393870745DC53232AC4FB232CC9
:1030600064FA232E14FB232004FD2322A4FC232432
:10307000B4FC2326C4FC2328D4FC232AE4FC232C00
:10308000F4FC930744FB3E85EF004163AA87A30746
:10309000F4FE8347F4FE3E85B6402644616182809B
:1030A000597186D6A2D480188547A307F4FE23075A
:1030B00004FE232404FE23A6018013050004EF3040
:1030C000F102AA872324F4FE832784FE85E3930676
:1030D0007020E96713868738E967938507420145C1
:1030E000EF20004A8947A307F4FE81A46545EF302D
:1030F000E17FAA873E8723AEE18883A7C18985E760
:103100009306E020E96713868738E9679385C7430C
:103110000145EF20E046032584FEEF30C17D89475D
:10312000A307F4FE19A483A7C1899306000403260C
:1031300084FE81453E85EF30101C916793862706FB
:1031400091671386C7048967938507581145EFE097
:10315000BFE885451145EFE01FDAEFF05FC3AA87AE
:103160003E872390E18A83D7018A89CFEFF07FAE33
:10317000AA8789CB81451145EFE0FFD78D47A3078B
:10318000F4FE65A2E96703AE0745138707450323ED
:1031900047001387074583288700138707450328BF
:1031A000C70013870745084B138707454C4B138708
:1031B0000745104F13870745544F1387074518538A
:1031C00093870745DC532320C4FD232264FC23247A
:1031D00014FD232604FD2328A4FC232AB4FC232C5D
:1031E000C4FC232ED4FC2320E4FE2322F4FEE96752
:1031F00003A3074B1387074B832847001387074B0D
:10320000032887001387074B48471387074B0C4B4E
:103210001387074B504B1387074B144F1387074BEC
:10322000584F9387074B9C53232E64F8232014FB9D
:10323000232204FB2324A4FA2326B4FA2328C4FA65
:10324000232AD4FA232CE4FA232EF4FA930704FC5D
:103250003E85EFF08FF5AA8785C79306B024E9670E
:1032600013868738E967938587470145EF2040310A
:1032700081451145EFE03FC88547A307F4FE75A0DF
:103280009307C4F93E85EFF07F85AA8785C793062B
:103290007025E96713868738E967938547490145B3
:1032A000EF20002E81451145EFE0FFC48547A307BD
:1032B000F4FEA5A8230704FEA1A88347E4FE850722
:1032C0008A07130704FFBA97039707FD8347E4FEB5
:1032D0008A07930604FFB6978397C7FA631FF7021E
:1032E0008347E4FE85078A07130704FFBA9703970D
:1032F00027FD8347E4FE8A07930604FFB69783976A
:10330000E7FA631CF7008347E4FE85072307F4FE12
:103310000347E4FEA147E3F2E7FA8347E4FE93B7ED
:10332000870093F7F70FA307F4FE032584FEEF3021
:10333000815C83A7C1893E85EF30E15B23AE0188C4
:103340008347F4FE3E85B6502654656182807971CC
:1033500006D622D40018A30704FEB7370000138650
:10336000A7D781450D45EF103003EFF05FC7AA875F
:103370008DC3B73700001386A7D7B73700009385F2
:10338000C7D20D45EF105001EFF09FD1AA87A307D8
:10339000F4FE8347F4FEB9E791473EC495473EC229
:1033A00099473EC093089002130880029307600279
:1033B0001307B0049306900413068004A94525451D
:1033C000EFC0BFF893068007956713860746B717C7
:1033D0000020938587A8B7170020138587A8EFD012
:1033E000EF8631A0014681450145EF10E07A834721
:1033F000F4FE3E85B250225445618280011106CE12
:1034000022CC0010AA87A307F4FEB70700209387F9
:103410000704DC4713070008D8CB8347F4FEBE85BA
:103420000545EFE02FAEB707002093870704DC4780
:103430001307000898CB0100F240624405618280C6
:10344000011106CE22CC0010AA8736872317F4FE7E
:10345000AE872316F4FEB2872315F4FEBA87231431
:10346000F4FE83C78181C207C1830357E4FEB337EB
:10347000F70093F7F70F3E871306A008E9679385D7
:10348000874D3A85EF20400983C79181C207C183E8
:103490000357C4FEB337F70093F7F70F3E871306C1
:1034A000B008E9679385874D3A85EF20E00683C72A
:1034B0008181C207C1830357A4FEB337F70093F796
:1034C000F70F3E871306C008E9679385874D3A8555
:1034D000EF20800483C79181C207C183035784FE14
:1034E000B337F70093F7F70F3E871306D008E96765
:1034F0009385874D3A85EF20200283A7418A0547AF
:103500006376F7000D476369F71061A01305A00209
:10351000F53581450545EFE0EF9E8357E4FE93F7CF
:10352000F70F890793F7F70FBE850545EFE08F9DED
:1035300081450545EFE00F9D8357A4FE93F7F70FF4
:10354000890793F7F70FBE850545EFE0AF9B13059D
:10355000B0026D3581450545EFE0CF9A8357C4FE33
:1035600093F7F70F850793F7F70FBE850545EFE053
:103570006F9981450545EFE0EF98835784FE93F7F7
:10358000F70F850793F7F70FBE850545EFE08F9797
:1035900061A01305A0029D3581450545EFE08F969A
:1035A0008357E4FE93F7F70F850793F7F70FBE8570
:1035B0000545EFE02F9581450545EFE0AF94835732
:1035C000A4FE93F7F70F850793F7F70FBE85054520
:1035D000EFE04F931305B002153581450545EFE047
:1035E0006F928357C4FE93F7F70F890793F7F70F8E
:1035F000BE850545EFE00F9181450545EFE08F90D1
:10360000835784FE93F7F70F890793F7F70FBE856B
:103610000545EFE02F8F01001305C002C5330100FF
:10362000F240624405618280797106D622D4001886
:103630009307C4FD3E85EF1090798547231EF4FC67
:1036400083C78181C207C183231FF4FC83C7918193
:10365000C207C1832310F4FE83A741810547638A13
:10366000E70099EF99472301F4FEA147A301F4FE77
:1036700009A8A1472301F4FEC147A301F4FE11A04C
:103680000100B7470000938727D62324F4FEB737FD
:1036900000009387E76A2326F4FE9307C4FD3E8566
:1036A000EF1090780100B2502254456182800111E0
:1036B00006CE22CC001083C781813E8783C79181CB
:1036C000B307F7022326F4FEB70700209387070409
:1036D000DC474147D8CB83C78181C207C183FD172F
:1036E00013970701418383C79181C207C183FD17E7
:1036F000C207C183BE863A8681450145EFF05FD49B
:1037000021A883D72181BE850545EFE00F8583275A
:10371000C4FEFD172326F4FE8327C4FEFDF3B7077E
:10372000002093870704DC47414798CB0100F24013
:10373000624405618280011122CE00102326A4FE7E
:103740000327C4FE23A2E18A83A7418A0547637643
:10375000F7000D476365F70211A8130700F8238CE3
:10376000E180130700FAA38CE18011A8130700FA87
:10377000238CE180130700F8A38CE1800100010095
:10378000724405618280011122CE0010AA872E8723
:103790002317F4FEBA872316F4FE0357E4FE23989A
:1037A000E1800357C4FE2399E18001007244056162
:1037B0008280011106CE22CC0010AA87AE86328705
:1037C0002317F4FEB6872316F4FEBA872315F4FEFA
:1037D00083C78181C207C1830357E4FEB337F70073
:1037E00093F7F70F3E8713064014E9679385874DDB
:1037F0003A85EF10705283C79181C207C183035786
:10380000C4FEB337F70093F7F70F3E871306501443
:10381000E9679385874D3A85EF101050B707002070
:1038200093870704DC474147D8CB8356C4FE035631
:10383000E4FE0357C4FE8357E4FEBA853E85EFF0ED
:103840003FC08357A4FEBE850545EFD01FF1B707E3
:10385000002093870704DC47414798CB0100F240E2
:10386000624405618280797106D622D40018AA8745
:10387000231FF4FCAE87231EF4FCB287231DF4FC47
:10388000B687231CF4FCBA87231BF4FC83C7818111
:10389000C207C1830357E4FDB337F70093F7F70F6F
:1038A0003E871306C015E9679385874D3A85EF106B
:1038B000B04683C79181C207C1830357C4FDB337A4
:1038C000F70093F7F70F3E871306D015E967938546
:1038D000874D3A85EF10504483C78181C207C18369
:1038E0000357A4FDB337F70093F7F70F3E8713068E
:1038F000E015E9679385874D3A85EF10F04183C75E
:103900009181C207C183035784FDB337F70093F752
:10391000F70F3E871306F015E9679385874D3A85C3
:10392000EF10903F0357E4FD8357A4FD6374F70045
:10393000854711A0FD572317F4FE0357C4FD835795
:1039400084FD6374F700854711A0FD572316F4FE2C
:10395000232404FE232204FE0357E4FD8357A4FD21
:10396000630EF7080357C4FD835784FDB307F74080
:1039700053F707D00357E4FD8357A4FDB307F7407F
:10398000D3F707D0D377F7182724F4FE8357C4FD65
:1039900053F717D08357E4FDD3F617D0872784FE5B
:1039A000D3F7F610D377F7082722F4FE0357C4FDA8
:1039B000835784FD1D8F9357F7413D8F1D8F83568D
:1039C000E4FD8357A4FDB387F64093D6F741B58F46
:1039D000958F63DBE70CB5A8835664FD0357C4FDE0
:1039E0008357E4FD3686BA853E85EFF09FDC0357AA
:1039F000C4FE8357C4FDBA97231EF4FC0357C4FDCD
:103A0000835784FDE31AF7FC7DA0835664FD0357BA
:103A1000C4FD8357E4FD3686BA853E85EFF07FD935
:103A20000357C4FE8357C4FDBA97231EF4FC835783
:103A3000C4FD53F717D0872744FE5377F70887272D
:103A400084FED377F718D39707C0C207C187231F17
:103A5000F4FC0357C4FD835784FDE318F7FAA1A8CB
:103A6000835664FD0357C4FD8357E4FD3686BA854B
:103A70003E85EFF01FD40357E4FE8357E4FDBA9769
:103A8000231FF4FC8357E4FD53F717D0872784FEE8
:103A90005377F710872744FED377F700D39707C0F3
:103AA000C207C187231EF4FC0357E4FD8357A4FD1E
:103AB000E318F7FA09A00100B25022544561828050
:103AC000797106D622D40018AA87AE863287231FC2
:103AD000F4FCB687231EF4FCBA87A30DF4FC83C75D
:103AE0008181C207C1830357E4FDB337F70093F721
:103AF000F70F3E8713069019E9679385874D3A853E
:103B0000EF10902183C79181C207C1830357C4FD81
:103B1000B337F70093F7F70F3E871306A019E9674D
:103B20009385874D3A85EF10301FA30704FE2307C6
:103B300004FEB707002093870704DC474147D8CB32
:103B400083A741810547638AE70C639F071EA3078C
:103B500004FE75A88347F4FE13970701418383573A
:103B6000E4FDBA971395070141818347F4FE13974B
:103B7000070141838357E4FDBA97139707014183F7
:103B80008357C4FDA10793960701C1828357C4FDE3
:103B90003A86BE85EFF0DF8A8307B4FD138707FE00
:103BA0008346F4FE6D66BA878607BA9786071307C1
:103BB000C6FDBA97B69783C70700A306F4FE23078E
:103BC00004FE25A88347D4FE858B81CB83D7018152
:103BD000BE850545EFD07FB839A083D72181BE854A
:103BE0000545EFD09FB78347D4FE8583A306F4FE37
:103BF0008347E4FE85072307F4FE0347E4FE9D4761
:103C0000E3F2E7FC8347F4FE8507A307F4FE0347CE
:103C1000F4FE9547E3F0E7F40DAAA30704FE39AAE2
:103C20008347F4FE1397070141838357E4FDBA9756
:103C30001395070141818347F4FE139707014183E0
:103C40008357E4FDBA971397070141838357C4FD57
:103C5000BD0793960701C1828357C4FD3A86BE858E
:103C6000EFF00FFE8307B4FD938607FE8347F4FE53
:103C70006D6792061307C79E3697BA9783C70700EA
:103C80002306F4FE8307B4FD938607FE8347F4FE04
:103C9000A1076D6792061307C79E3697BA9783C729
:103CA0000700A305F4FE230704FE25A88347C4FEEE
:103CB000858B81CB83D70181BE850545EFD0FFA9D8
:103CC00039A083D72181BE850545EFD01FA9834741
:103CD000C4FE85832306F4FE8347E4FE850723079D
:103CE000F4FE0347E4FE9D47E3F2E7FC230704FEEE
:103CF00025A88347B4FE858B81CB83D70181BE8500
:103D00000545EFD09FA539A083D72181BE85054504
:103D1000EFD0BFA48347B4FE8583A305F4FE834799
:103D2000E4FE85072307F4FE0347E4FE9D47E3F224
:103D3000E7FC8347F4FE8507A307F4FE0347F4FE80
:103D40009D47E3FFE7EC11A00100B7070020938730
:103D50000704DC47414798CB0100B250225445612B
:103D60008280797106D622D40018AA872E87232C48
:103D7000C4FC231FF4FCBA87231EF4FC83C7818193
:103D8000C207C1830357E4FDB337F70093F7F70F7A
:103D90003E871306D01EE9679385874D3A85EF105D
:103DA000A07783C79181C207C1830357C4FDB3378E
:103DB000F70093F7F70F3E871306E01EE967938538
:103DC000874D3A85EF104075231704FE71A083A735
:103DD000418105476381E704B5EB0357E4FEBA87E9
:103DE0008607BA9786071397070141838357E4FD37
:103DF000BA9793960701C1828357E4FE032784FD97
:103E0000BA97038707008357C4FD3A86BE85368577
:103E1000EFF01FCB2DA88357E4FE8E071397070101
:103E200041838357E4FDBA9793960701C182835774
:103E3000E4FE032784FDBA97038707008357C4FD78
:103E40003A86BE853685EFF0BFC711A001008357C3
:103E5000E4FE85072317F4FE8357E4FE032784FD61
:103E6000BA9783870700A5F70100B2502254456135
:103E70008280397106DE22DC8000AA872324C4FCFC
:103E800036872317F4FCAE872316F4FCBA87A30306
:103E9000F4FC83C78181C207C1830357E4FCB337B5
:103EA000F70093F7F70F3E871306B020E967938575
:103EB000874D3A85EF10406683C79181C207C18361
:103EC0000357C4FCB337F70093F7F70F3E87130689
:103ED000C020E9679385874D3A85EF10E0638347FB
:103EE00074FCB337F00093F7F70F3E871306D0202A
:103EF000E9679385874D3A85EF100062834774FC2C
:103F000093B7B70093F7F70F3E871306E020E967F2
:103F10009385874D3A85EF102060832784FC232604
:103F2000F4FE85472324F4FE9307C4FD3146814502
:103F30003E85EFC0EFAC834774FC85073E8793074F
:103F4000C4FD3A86930500023E85EFC06FAB034780
:103F500074FCA54763EBE70231A8032784FEBA8708
:103F60008A07BA9786072324F4FE834774FCFD175B
:103F7000A303F4FC834774FCEDF30327C4FE8327FB
:103F800084FEB367F7022326F4FE9307C4FD83255E
:103F9000C4FE3E85EF20B05A9306C4FD0357C4FC0F
:103FA0008357E4FC3686BA853E85EFF09FDB01003F
:103FB000F250625421618280397106DE22DC800079
:103FC000AA872324C4FC36872317F4FCAE87231664
:103FD000F4FCBA87A303F4FC83C78181C207C183C1
:103FE0000357E4FCB337F70093F7F70F3E87130648
:103FF0002023E9679385874D3A85EF10E05183C709
:104000009181C207C1830357C4FCB337F70093F70C
:10401000F70F3E8713063023E9679385874D3A856E
:10402000EF10804F834774FCB337F00093F7F70F1E
:104030003E8713064023E9679385874D3A85EF1045
:10404000A04D834774FC93B7B70093F7F70F3E87F3
:1040500013065023E9679385874D3A85EF10C04BCF
:10406000832784FC2326F4FE85472324F4FE93074C
:10407000C4FD314681453E85EFC08F98034774FCEF
:104080009307C4FD3A86930500023E85EFC04F9723
:10409000034774FCA54763EBE70231A8032784FEBE
:1040A000BA878A07BA9786072324F4FE834774FCED
:1040B000FD17A303F4FC834774FCEDF3832784FE10
:1040C0000327C4FEB377F7022326F4FE9307C4FD4B
:1040D0008325C4FE3E85EF20F0579306C4FD0357A9
:1040E000C4FC8357E4FC3686BA853E85EFF07FC773
:1040F0000100F2506254216182805D7186C6A2C4C3
:10410000A6C280082328C4FA232AD4FABA863E8796
:10411000AA87231FF4FAAE87231EF4FAB687A30DED
:10412000F4FABA87230DF4FA83C78181C207C183E9
:104130000357E4FBB337F70093F7F70F3E871306F7
:10414000C025E9679385874D3A85EF10E03C83C72A
:104150009181C207C1830357C4FBB337F70093F7BC
:10416000F70F3E871306D025E9679385874D3A857B
:10417000EF10803A8347B4FBB337F00093F7F70FA3
:104180003E871306E025E9679385874D3A85EF1052
:10419000A0388347B4FB93B7970093F7F70F3E8798
:1041A0001306F025E9679385874D3A85EF10C036F1
:1041B0008347A4FBB337F00093F7F70F3E8713064E
:1041C0000026E9679385874D3A85EF10E0348347F1
:1041D000A4FB93B7770093F7F70F3E8713061026DB
:1041E000E9679385874D3A85EF100033832704FBF9
:1041F000032844FB2320F4FE232204FFE96703A8DD
:10420000475783A707572324F4FE232604FF930769
:10421000C4FC454681453E85EFB09FFE0347B4FB95
:104220008347A4FBBA9789073E879307C4FC3A8665
:10423000930500023E85EFB0BFFC3DA0E96703A6F1
:10424000875783A6C757032584FE8325C4FEEF0046
:104250001167AA872E882324F4FE232604FF8347B0
:10426000B4FBFD17A30DF4FA8347B4FBE1FB032570
:1042700004FE832544FEEF10717AAA84032584FE90
:104280008325C4FEEF109179AA87B3C7F4023E8557
:10429000EF202110AA872E88032684FE8326C4FEE1
:1042A0003E85C285EF00B161AA872E883E86C28610
:1042B000032504FE832544FEEF10C145AA872E88FE
:1042C0002320F4FE232204FF0347A4FB9307C4FC2E
:1042D000BA86832504FE032644FE3E85EF20104562
:1042E0009306C4FC0357C4FB8357E4FB3686BA85A8
:1042F0003E85EFF01FA70100B64026449644616159
:1043000082805D7186C6A2C480082A8E2E832324F3
:10431000C4FC3685BA853E86C2864687F287231757
:10432000F4FC9A872316F4FCAA872313F4FCAE87C7
:104330002312F4FCB2872311F4FCB6872310F4FC9B
:10434000BA87A30FF4FA83C78181C207C1830357D9
:10435000E4FCB337F70093F7F70F3E871306B02B53
:10436000E9679385874D3A85EF10001B83C79181DC
:10437000C207C1830357C4FCB337F70093F7F70FA5
:104380003E871306C02BE9679385874D3A85EF106A
:10439000A018832784FCB337F00093F7F70F3E870C
:1043A0001306D02BE9679385874D3A85EF10C01629
:1043B000232604FE232404FE231304FE231204FEFA
:1043C000232004FE232E04FCB70700209387070454
:1043D000DC474147D8CB0357E4FC835724FCBA970A
:1043E000C207C183FD171396070141820357C4FC1E
:1043F000835704FCBA97C207C183FD179396070140
:10440000C1820357C4FC8357E4FCBA853E85EFF0B4
:104410002F83232404FE19A2035744FC832784FE20
:104420003307F702835704FCB357F702232EF4FC3B
:10443000232604FEC9A8035764FC8327C4FE330760
:10444000F702835724FCB357F7022320F4FE0357E7
:1044500064FC8327C4FD3307F702832704FEBA9761
:10446000032784FCBA9783C707002312F4FE83470F
:10447000F4FBB5E3835744FE8D83C207C183AE07C7
:104480002313F4FE835744FE8983C207C183960732
:10449000C207C18793F7077E1397070141878317E8
:1044A00064FED98FC207C1872313F4FE835744FEED
:1044B0008D83C207C183FD8B139707014183835707
:1044C00064FED98F2313F4FE835764FEBE85054531
:1044D000EFD0AFA825A08347F4FBC207C1830357E1
:1044E00044FE6377F70081450545EFD00FA739A05B
:1044F000C1679385F7FF0545EFD02FA68327C4FE3C
:1045000085072326F4FE835724FC0327C4FEE364B7
:10451000F7F2832784FE85072324F4FE835704FCE7
:10452000032784FEE36AF7EEB707002093870704AA
:10453000DC47414798CB0100B64026446161828048
:10454000397106DE22DC80002322D4FCBA863E8745
:10455000AA872317F4FCAE872316F4FCB287A305C1
:10456000F4FCB6872305F4FCBA872314F4FC83C754
:104570008181C207C1830357E4FCB337F70093F787
:10458000F70F3E871306D034E9679385874D3A8548
:10459000EF00907883C79181C207C1830357C4FCA1
:1045A000B337F70093F7F70F3E871306E034E96758
:1045B0009385874D3A85EF003076832744FCB337E7
:1045C000F00093F7F70F3E871306F034E967938501
:1045D000874D3A85EF005074232604FE232404FE01
:1045E000232204FEA30D04FCA30104FE230D04FCFE
:1045F000832744FC232EF4FC8347B4FC8D83230DD6
:10460000F4FCB707002093870704DC474147D8CB69
:104610008347A4FC1397070141838347B4FCC20777
:10462000C183B307F7021397070141838357E4FC63
:10463000BA97C207C183FD171396070141828347CA
:10464000B4FC1397070141838357C4FCBA97C20790
:10465000C183FD1793960701C1820357C4FC83579A
:10466000E4FCBA853E85EFE0BFDD232604FEE9A821
:104670008347A4FCA301F4FE0347A4FD8327C4FEE3
:10468000B307F7023E87832744FCBA97232EF4FC36
:1046900045A0232204FEBDA0A1472324F4FEA9A027
:1046A0008327C4FD83C707003E87832784FEFD1749
:1046B000B357F74093F7F70F858BA30DF4FC8347AF
:1046C000B4FD81CB835784FCBE850545EFD0EF88D0
:1046D00039A083D72181BE850545EFD00F88832778
:1046E00084FEFD172324F4FE832784FEE34AF0FAB8
:1046F0008327C4FD8507232EF4FC832744FE85070A
:104700002322F4FE8347A4FD032744FEE346F7F883
:104710000347A4FD8347B4FCB307F7023E878347F2
:10472000A4FDB307F7400327C4FDBA97232EF4FC7A
:10473000834734FE1387F7FFA301E4FEB9FB832709
:10474000C4FE85072326F4FE8347B4FC0327C4FE7A
:10475000E340F7F2B707002093870704DC4741479F
:1047600098CB0100F250625421618280411106C64B
:1047700022C400081308F00FC167F9170567130773
:10478000F70285669386D60237A64A0413060620EA
:1047900081450545EFD0AF86C146014685451305E5
:1047A0007006EFC02F95C14601468545130570027E
:1047B000EFC04F94C1460546854513054006EFC03E
:1047C0006F93C1460546854513050006EFC08F92DD
:1047D00083A7418A3E85EFE01FF603D7018183D787
:1047E0002181BE853A85EFE01FFAB7070020938745
:1047F0000704DC4313070008D8CB2945EFB0DFAA34
:10480000B707002093870704DC431307000898CB01
:1048100013058007EFB05FA9B7070020938707044F
:10482000DC474147D8CB4545EFE05FBD1305800726
:10483000EFB09FA71305100BEFE05FBC8545054562
:10484000EFC05FEC9305C0020545EFC0BFEB9305D9
:10485000D0020545EFC01FEB1305200BEFE01FBA98
:1048600085450545EFC01FEA9305C0020545EFC029
:104870007FE99305D0020545EFC0DFE81305300B53
:10488000EFE0DFB785450545EFC0DFE79305C002E0
:104890000545EFC03FE79305D0020545EFC09FE611
:1048A00085450545EFC01FE69305C0020545EFC0ED
:1048B0007FE59305D0020545EFC0DFE41305400B0B
:1048C000EFE0DFB39D450545EFC0DFE31305000CC6
:1048D000EFE0DFB29305200A0545EFC0BFE289454E
:1048E0000545EFC03FE2930540080545EFC09FE155
:1048F0001305100CEFE09FB09305500C0545EFC079
:104900007FE01305200CEFE07FAFA9450545EFC020
:104910007FDF81450545EFC0FFDE1305300CEFE07A
:10492000FFAD9305A0080545EFC0DFDD9305A002AC
:104930000545EFC03FDD1305400CEFE03FAC9305AC
:10494000A0080545EFC01FDC9305E00E0545EFC04C
:104950007FDB1305500CEFE07FAAB9450545EFC09A
:104960007FDA13056003EFE07FA983A7418A05473B
:104970006380E70281CB09476381E7020D476384C7
:10498000E70205A89305000C0545EFC0BFD715A0A9
:1049900081450545EFC01FD729A89305000A0545A5
:1049A000EFC05FD639A0930500060545EFC09FD53F
:1049B00001001305000EEFE07FA4BD450545EFC0E3
:1049C0007FD4E9450545EFC0FFD3BD450545EFC0A0
:1049D0007FD3E1450545EFC0FFD29305F0020545C1
:1049E000EFC05FD2930580020545EFC0BFD19305AC
:1049F00000020545EFC01FD1930520020545EFC019
:104A00007FD0FD450545EFC0FFCFED450545EFC023
:104A10007FCF930530020545EFC0DFCE93057003CD
:104A20000545EFC03FCE81450545EFC0BFCD9D4553
:104A30000545EFC03FCD89450545EFC0BFCCC14519
:104A40000545EFC03FCC1305100EEFE03F9BBD4581
:104A50000545EFC03FCBED450545EFC0BFCABD459D
:104A60000545EFC03FCADD450545EFC0BFC9930509
:104A700030030545EFC01FC99305C0020545EFC0CF
:104A80007FC8930590020545EFC0DFC79305E0029C
:104A90000545EFC03FC7930500030545EFC09FC61E
:104AA000930500030545EFC0FFC593059003054539
:104AB000EFC05FC59305F0030545EFC0BFC4814556
:104AC0000545EFC03FC49D450545EFC0BFC38D45BB
:104AD0000545EFC03FC3C1450545EFC0BFC2130543
:104AE000A002EFE0BF9181450545EFC0BFC18945F8
:104AF0000545EFC03FC181450545EFC0BFC09305E7
:104B000020080545EFC01FC01305B002EFE01F8F5E
:104B100081450545EFC01FBF8D450545EFC09FBED0
:104B200081450545EFC01FBE930530080545EFC020
:104B30007FBD1305000FEFE07F8C85450545EFC075
:104B40007FBC1305600FEFE07F8B81450545EFC00B
:104B50007FBB1305A003EFE07F8A95450545EFC0B5
:104B60007FBA13059002EFE07F89B7070020938793
:104B70000704DC47414798CBEFE07FB3EFE0DFAAC3
:104B80000100B240224441018280411122C6000846
:104B90000100324441018280011122CE00102326FF
:104BA000A4FE2324B4FE2322C4FE0327C4FE23A4B0
:104BB000E18A832744FE81C7832744FE29A0B75793
:104BC00000009387A7B823A0F182832784FE81C7C2
:104BD000832784FE29A0B75700009387A7B823AE88
:104BE000F1800100724405618280411122C60008F3
:104BF000B71702409843B71702401367170098C3CE
:104C0000B7170240D443B71702403707FFF8758F34
:104C1000D8C3B71702409443B71702403707F7FECF
:104C20007D17758F98C3B71702409443B71702409A
:104C30003707FCFF7D17758F98C3B7170240D44321
:104C4000B7170240370781FF7D17758FD8C3B71795
:104C5000024037079F0098C701003244410182801B
:104C6000797106D622D40018232EA4FCEFF0FFF7AA
:104C7000232604FE232404FEB71702409443B717EB
:104C800002404167558F98C3B71702409843B70752
:104C90000200F98F2324F4FE8327C4FE8507232610
:104CA000F4FE832784FE91E70327C4FE8567E31D96
:104CB000F7FCB71702409843B7070200F98F89C77E
:104CC00085472324F4FE19A0232404FE032784FE31
:104CD00085476312F71637170240B717024058434B
:104CE000D8C337170240B71702405843D8C3371705
:104CF0000240B71702405843D8C3B7170240D44305
:104D0000B71702403707C1FF7D17758FD8C3032738
:104D1000C4FDB747950893870740631BF700B71793
:104D20000240D443B71702404167558FD8C355A8F6
:104D30000327C4FDB7172707938707E0631CF70015
:104D4000B7170240D443B717024037073900558FD1
:104D5000D8C341A80327C4FDB7E7B80593870780E8
:104D6000631CF700B7170240D443B7170240370758
:104D70002900558FD8C3B5A00327C4FDB7A74A049F
:104D800093870720631CF700B7170240D443B71777
:104D9000024037071D00558FD8C3A1A00327C4FDCB
:104DA000B777DC02938707C0631CF700B717024090
:104DB000D443B717024037071100558FD8C315A049
:104DC0000327C4FDB7376E0193870760631BF700A5
:104DD000B7170240D443B717024037070500558F75
:104DE000D8C3B71702409443B717024037070001F2
:104DF000558F98C30100B71702409843B7070002C8
:104E0000F98FF5DBB7170240D843B7170240719B03
:104E1000D8C3B7170240D843B7170240136727001B
:104E2000D8C30100B7170240DC4313F7C700A147FE
:104E3000E31AF7FE11A001A0B2502254456182800E
:104E4000011106CE22CC00102326A4FE0327C4FEA7
:104E500023A6E182EFF07FD90325C4FEEFF05FE0E7
:104E6000EF20C04E0100F240624405618280411192
:104E700022C6000801000100324441018280011174
:104E800006CE22CC0010232604FE232404FE232673
:104E900004FE2DA0232404FE01A8EFF05FFD83276C
:104EA00084FE85072324F4FE032784FEC167E3669E
:104EB000F7FE8327C4FE85072326F4FE0327C4FEDE
:104EC0009307F00FE3F8E7FC0100F240624405614C
:104ED0008280411122C600080100324441018280D3
:104EE000011106CE22CC00102326A4FE8325C4FE89
:104EF0000945EFC05FFA0100F2406244056182801B
:104F0000130101D923261126232481262322912649
:104F1000801C232EA4D8232CB4D8232AC4D8232819
:104F2000D4D8231504FE231404FE231304FE2312F5
:104F300004FE231104FE032584D9EF20E16AAA8729
:104F4000C207C1872313F4FEB767002083D747F455
:104F500099C7B7670020938747F49C4B829783C714
:104F6000D18A93F7F70F6385074EB767002083D781
:104F700047F463890746B7670020938747F4D4470F
:104F8000835724FE13970701418793170701C183B5
:104F90008507C207C183C207C1872311F4FE931797
:104FA0000701C1830326C4D9BE85014582968327A4
:104FB00084D92326F4FE032584D9EF20E162AA8751
:104FC000C207C1872313F4FEB7670020938747F415
:104FD00083D727003E87B7670020938747F483C7AE
:104FE0006700B347F702C207C1872312F4FE01002E
:104FF0008327C4FE138717002326E4FE8387070058
:10500000E5FB231404FEA1A88327C4FEFD17232675
:10501000F4FE8327C4FE038707009307F002630AA8
:10502000F7008327C4FE038707009307C005631BAF
:10503000F700835784FEC207C1838507C207C18377
:105040002314F4FE835764FEC207C187C207C183DD
:10505000FD17C207C183C207C1872313F4FE83571C
:1050600084FE139707014183854763E8E700835770
:1050700064FEC207C187E3D907F8835764FEC207FD
:10508000C18763C207028327C4FE85072326F4FE77
:10509000130704EE0326C4FEE967938507583A8593
:1050A000EF2021501DA8835784FEC207C18381EFE2
:1050B000130704EE0326C4FEE9679385C7583A85B3
:1050C000EF20214E19A8130704EE0326C4FEE9675A
:1050D000938507583A85EF20C14C231504FE05A29D
:1050E000231404FE59A0930704EE3E85EF20C14F20
:1050F0002A87835784FEC207C183BE868357A4FED6
:10510000C207C1833E86835744FEC207C187B307E7
:10511000F602B6976367F706835784FEC207C1831A
:105120003E878357A4FEC207C183BE86835744FED1
:10513000C207C187B387F602BA97035784FE4207B6
:105140004183BA86130704FFBA97038707EF9307D3
:1051500004FFB6972388E7EA835784FEC207C1831A
:105160008507C207C1832314F4FE835784FEC20758
:10517000C1833E87835744FEC207C187E345F7F6E4
:1051800011A00100835784FEC207C183130704FFE7
:10519000BA97238807EAB7670020938747F403A8E4
:1051A000C700B7670020938747F483C7770013973A
:1051B00007014183835724FE93960701C186939785
:1051C0000601C1838507C207C183C207C1872311B6
:1051D000F4FE93970601C183B307F702C207C183A8
:1051E000130704EA3A86BE85014502988357A4FE58
:1051F000C207C1838507C207C1832315F4FE835705
:10520000A4FEC207C183BE84930704EE3E85EF204F
:10521000A13D2A87835744FEC207C187B357F702CF
:105220008507E3EFF4EA130704EE032644D9E967A0
:105230009385C7593A85EF20C136B7670020938719
:1052400047F403A8C700B7670020938747F483C7D4
:105250007700139707014183835724FE9396070134
:10526000C18693970601C1838507C207C183C20720
:10527000C1872311F4FE93970601C183B307F70298
:10528000C207C183130704EE3A86BE850145029822
:10529000832704D9638E071A231504FE05A223145D
:1052A00004FE59A0032504D9EF2001342A8783572F
:1052B00084FEC207C183BE868357A4FEC207C18392
:1052C0003E86835744FEC207C187B307F602B697EE
:1052D0006368F706835784FEC207C1833E878357FE
:1052E000A4FEC207C183BE86835744FEC207C1879E
:1052F000B387F602BA973E87832704D9BA97035734
:1053000084FE42074183BA8603870700930704FFA0
:10531000B6972388E7EA835784FEC207C1838507CF
:10532000C207C1832314F4FE835784FEC207C183DE
:105330003E87835744FEC207C187E345F7F611A0B5
:105340000100835784FEC207C183130704FFBA9785
:10535000238807EAB7670020938747F403A8C700AC
:10536000B7670020938747F483C777001397070137
:105370004183835724FE93960701C18693970601C4
:10538000C1838507C207C183C207C1872311F4FE09
:1053900093970601C183B307F702C207C1831307BE
:1053A00004EA3A86BE85014502988357A4FEC207E7
:1053B000C1838507C207C1832315F4FE8357A4FE6A
:1053C000C207C183BE84032504D9EF20E1212A87C7
:1053D000835744FEC207C187B357F7028507E3E04E
:1053E000F4ECBDA0930704DA1306001081453E8556
:1053F000EFA01FE1B7670020938747F49C47032580
:10540000C4D98297832704D999CF130504DA0327D7
:1054100004D9832644D9032684D9E9679385875A1A
:10542000EF20211829A8130704DA832644D903267C
:1054300084D9E9679385475C3A85EF208116B76781
:105440000020938747F49847930704DA3E85029734
:1054500001008320C12603248126832441261301D1
:1054600001278280411106C622C4000883C7D18A61
:1054700093F7F70F99CF9385C18A0945EFC0FFAF26
:1054800005469385C18AB7670020138587F2EF0030
:10549000B02D0100B240224441018280797106D6CC
:1054A00022D40018232EA4FC232CB4FC232AC4FCF1
:1054B000232604FEA9A00100ED679387C79B9C47A4
:1054C000930500043E85EF402079AA87F5D7ED6764
:1054D0009387C79B9C47BE86832784FD138717004D
:1054E000232CE4FC83870700C207C183BE85368571
:1054F000EF40A0738327C4FE85072326F4FE03270D
:10550000C4FE832744FDE348F7FA832744FD3E8524
:10551000B250225445618280011106CE22CC001087
:10552000AA872324B4FE2322C4FEA307F4FE8347E4
:10553000F4FEB1E383C7018393F7F70F8DCF83C7E1
:10554000E18A91C301A083C7E18A850713F7F70FAA
:105550002387E18AEF10D05CEFF0BF9781460326E6
:1055600044FE832584FEE9671385C75DEFF05F99EC
:10557000EFF0FF90E5B70100F240624405618280E0
:10558000011106CE22CC0010AA872324B4FE2322C8
:10559000C4FE2320D4FEA307F4FE8347F4FE95E364
:1055A00083C7D18A93F7F70F91CF832684FE032612
:1055B00004FE832544FEE9671385C75EEFF05F9420
:1055C00011A001000100F2406244056182800111D6
:1055D00022CE00102326A4FE8327C4FE23900700BA
:1055E0008327C4FE7D572391E7008327C4FE7D57A0
:1055F0002392E7008327C4FE7D572383E700832798
:10560000C4FE7D57A383E7008327C4FE23A40700BD
:105610008327C4FE23A607008327C4FE23A8070010
:105620000100724405618280011122CE0010232600
:10563000A4FE8327C4FE03D70700B7670020239288
:10564000E7F48327C4FE03D72700B76700209387BA
:1056500047F42391E7008327C4FE03D74700B767C9
:105660000020938747F42392E7008327C4FE03C7F3
:105670006700B7670020938747F42383E7008327F9
:10568000C4FE03C77700B7670020938747F4A3835E
:10569000E7008327C4FE9847B7670020938747F445
:1056A00098C78327C4FED847B7670020938747F47D
:1056B000D8C78327C4FE984BB7670020938747F469
:1056C00098CB0547A386E18A010072440561828078
:1056D000797106D622D400189307C4FD3E85EFF0F9
:1056E0001FEFB7570000938707EE2322F4FE9307BE
:1056F000C4FD3E85EFF05FF389679386B702896743
:105700001386A702F167938507200945EFC0DF8C58
:1057100093060004B7670020138687EE8145B767BC
:105720000020138587F2EF10003D85450945EFC045
:105730008FFC0100B250225445618280011122CEBB
:1057400000102326A4FE2324B4FE8327C4FE03C72F
:10575000970083C6A700A206558F83C6B700C2066E
:10576000558F83C7C700E207D98F3E87832784FE02
:105770003E978327C4FE9375F70F83C69700818AEF
:105780003686AE86D18EA384D7009356870093F5D4
:10579000F60F83C6A700818A3686AE86D18E238512
:1057A000D7009356070193F5F60F83C6B700818A99
:1057B0003686AE86D18EA385D7001356870103C7E0
:1057C000C700018BBA863287558F2386E70055A024
:1057D0008327C4FE03C7970083C6A700A206558F80
:1057E00083C6B700C206558F83C7C700E207D98FAB
:1057F0003E868327C4FE03C7570183C66701A206FE
:10580000558F83C67701C206558F83C78701E2078C
:10581000D98F3307F6408327C4FE9375F70F83C6ED
:105820009700818A3686AE86D18EA384D7009356A0
:10583000870093F5F60F83C6A700818A3686AE8669
:10584000D18E2385D7009356070193F5F60F83C6B3
:10585000B700818A3686AE86D18EA385D7001356CF
:10586000870103C7C700018BBA863287558F23860D
:10587000E7008327C4FE03C7570183C66701A2065A
:10588000558F83C67701C206558F83C78701E2070C
:10589000D98F3E868327C4FE03C7970083C6A7001F
:1058A000A206558F83C6B700C206558F83C7C700AF
:1058B000E207D98FE3FEC7F00100724405618280E0
:1058C000011122CE00102326A4FE2324B4FE832738
:1058D000C4FE03C7D70083C6E700A206558F83C660
:1058E000F700C206558F83C70701E207D98F3E87AD
:1058F000832784FE3E978327C4FE9375F70F83C6E4
:10590000D700818A3686AE86D18EA386D70093567D
:10591000870093F5F60F83C6E700818A3686AE8648
:10592000D18E2387D7009356070193F5F60F83C6D0
:10593000F700818A3686AE86D18EA387D7001356AC
:10594000870103C70701018BBA863287558F2388E9
:10595000E70055A08327C4FE03C7D70083C6E7002E
:10596000A206558F83C6F700C206558F83C707016D
:10597000E207D98F3E868327C4FE03C7570183C63B
:105980006701A206558F83C67701C206558F83C76C
:105990008701E207D98F3307F6408327C4FE93754A
:1059A000F70F83C6D700818A3686AE86D18EA3864E
:1059B000D7009356870093F5F60F83C6E700818AD8
:1059C0003686AE86D18E2387D7009356070193F58E
:1059D000F60F83C6F700818A3686AE86D18EA387FE
:1059E000D7001356870103C70701018BBA86328798
:1059F000558F2388E7008327C4FE03C7570183C65A
:105A00006701A206558F83C67701C206558F83C7EB
:105A10008701E207D98F3E868327C4FE03C7D700DC
:105A200083C6E700A206558F83C6F700C206558FCE
:105A300083C70701E207D98FE3FEC7F00100724474
:105A400005618280797106D622D40018232EA4FC29
:105A50008327C4FDB337F00093F7F70F3E87130693
:105A60005005E9679385875F3A85EFF0FFAA232603
:105A700004FE8327C4FD83C7070093E7170013F7CD
:105A8000F70F8327C4FD2380E7008327C4FD03C7E6
:105A90009700018BA384E70003C7A700018B238530
:105AA000E70003C7B700018BA385E70003C7C70062
:105AB000018B2386E7008327C4FD03C7D700018B32
:105AC000A386E70003C7E700018B2387E70003C72E
:105AD000F700018BA387E70003C70701018B238829
