:100000006F80501A1300000013000000130000005E
:100010001300000013000000130000001300000094
:100020001300000013000000130000001300000084
:08003000130000007300100032
:100038000000000000000000228800003288000054
:1000480000000000EA880000000000000000000036
:10005800EC880000EE8800000000000000000000AE
:10006800F088000000000000F28800000000000096
:10007800F4880000F6880000F8880000FA8800007C
:10008800FC880000FE880000EA7A00009E7B0000E1
:10009800527C0000067D0000BA7D00000A8900003D
:1000A8000C8900000E8900001089000012890000E8
:1000B8001489000016890000188900001A890000B8
:1000C8001C8900001E890000208900006E7E000047
:1000D80024890000B8800000288900002A890000CF
:1000E8007881000032820000F2820000328900002C
:1000F8003489000036890000388900003A890000F8
:100108003C890000F6730000BA7400007E75000098
:10011800867F000046890000488900004A8900005F
:10012800EA8500004E8900005089000052890000CD
:100138005489000056890000B28300005A890000E3
:10014800467600000A770000728400002A850000C5
:100158006489000066890000688900006A890000D7
:100168006C8900006E8900007089000072890000A7
:10017800748900007689000078890000C2A7000011
:100188007C8900007E8900001A7A0000CC77000084
:10019800907800005A79000088890000AA8600003B
:1001A8008C8900008E890000908900006A87000011
:1001B8009489000096890000988900009A890000B7
:1001C8009C8900009E890000A0890000A289000087
:1001D8000000000000000000000000000000000017
:1001E8000000000000000000000000000000000007
:0801F8000000000000000000FF
:100200003D432A876373C3029377F700BDEFADE5E3
:10021000937606FF3D8ABA960CC34CC30CC74CC7F5
:100220004107E36BD7FE11E28280B306C3408A0622
:100230009702000096966780A6002307B700A306E2
:10024000B7002306B700A305B7002305B700A30432
:10025000B7002304B700A303B7002303B700A3022A
:10026000B7002302B700A301B7002301B700A30022
:10027000B7002300B700828093F5F50F93968500B1
:10028000D58D93960501D58D61B79396270097027A
:10029000000096968682E78086FA9680C1171D8FA9
:1002A0003E96E374C3F8A5B7011122CE00102326B1
:1002B000A4FE37F500E08328450037F500E093F809
:1002C000E8FF2322150183A841820965130505F47F
:1002D00033D5A802AA8601470325C4FEAA87014890
:1002E00037F500E03303F702B308D8029A98338356
:1002F000F60233B6F6029A85B387C8003E860CC96B
:1003000050C9B7F700E09843B7F700E0136707015B
:1003100098C3B7F700E09843B7F700E013671702F8
:1003200098C30100B7F700E0DC4313F717008547D7
:10033000E31AF7FEB7F700E09843B7F700E0799BC0
:1003400098C30100724405618280011106CE22CC5F
:100350000010AA8E2E8E32833685BA853E86C286DE
:100360004687F687A307F4FEF2872307F4FE9A87F1
:10037000A306F4FEAA872306F4FEAE87A305F4FEC7
:10038000B2872305F4FEB687A304F4FEBA872304DC
:10039000F4FE8347F4FE93068004014681453E85C2
:1003A000CD2A8347E4FE93068004014681453E85BD
:1003B000CD228347D4FE93068004014681453E85C5
:1003C000C92A8347C4FE93068004014681453E85C1
:1003D000C9228347B4FE93068004014681453E85C9
:1003E0004D2A8347A4FE93068004014681453E853D
:1003F0004D22834794FE93068004014681453E8545
:10040000492A834784FE93068004014681453E8540
:1004100049228347440093068004014681453E8576
:100420008D2A8347040093068004014681453E855A
:100430008D228347840093068004014681453E85D2
:10044000892A0100F240624405618280011106CED2
:1004500022CC00102326A4FE2324B4FEB2873687C4
:100460002313F4FEBA872312F4FE85450965EF8055
:100470007052B70705500D472380E700B7070550B6
:100480000547A380E700B7070550035744FE2392B2
:10049000E700B7070550035764FE2393E700B7074B
:1004A00005500327C4FE98C7B7070550032784FEED
:1004B000D8C7B707055011472381E70081451305C9
:1004C0006005EF60506913056005EF60106501007D
:1004D000F240624405618280011122CE0010232681
:1004E000A4FEAE87A305F4FE8347B4FE85CB832725
:1004F000C4FEBD8B0547B317F70093960701C18271
:100500008327C4FE13D75700B70700200A07938735
:100510000704BA979C43368798CB3DA08327C4FE37
:10052000BD8B0547B317F70093960701C182832758
:10053000C4FE13D75700B70700200A0793870704A4
:10054000BA979C433687D8CB0100724405618280FC
:10055000011122CE00102326A4FE8327C4FE95831A
:1005600013F77700B70700200A0793870704BA97A5
:100570009C439C470327C4FE7D8B85463397E6004A
:10058000F98FB337F00093F7F70F3E85724405619A
:100590008280797106D622D40018232EA4FC232C45
:1005A000B4FCB2872328D4FCA30BF4FC232004FE64
:1005B000232204FE232404FE8327C4FD958393F79E
:1005C000F70F9D8BA307F4FE8327C4FD93F7F70F66
:1005D000FD8B2307F4FE8347F4FE91E78545114523
:1005E000EF80B03F91A80347F4FE85476317F700FB
:1005F00085452145EF80703E81A00347F4FE894781
:100600006317F70085454145EF80303D35A003472E
:10061000F4FE8D476318F700854513050002EF804F
:10062000D03B19A80347F4FE91476317F7008545AF
:1006300013050004EF80703A8347E4FE0547B317C3
:10064000F700C207C1832310F4FE032784FD85470A
:100650006317F702832704FDC207C183A183C20782
:10066000C18389E78D472322F4FE11A8832704FD67
:10067000C207C183A183C207C1832322F4FE83275B
:1006800004FDC207C18393F7F70F2324F4FE034749
:10069000F4FEB70700200A0793870704BA979C4324
:1006A000130704FEBA853E85EF80C03F032784FD13
:1006B00085476319F7020347F4FEB70700200A07CE
:1006C00093870704BA9794438347E4FE0547B3171B
:1006D000F700C207C183034774FD3A86BE8536859D
:1006E000EF80E05E0100B2502254456182801D71AE
:1006F00086CEA2CC80102326A4FA2324B4FA854502
:100700000325C4FAEF10805EAA873E871306D00641
:10071000E167938507213A85EF40907A832784FA31
:10072000B337F00093F7F70F3E871306F006E16743
:10073000938507213A85EF40B078832784FABD83FB
:100740002315F4FE8357A4FE85073E87832784FA8A
:10075000B3D7E7022314F4FE0325C4FAEF10605F59
:10076000B7370140938707C02326F4FE0327C4FA56
:10077000A54763ECE7088327C4FA13972700E567CA
:10078000938747C5BA979C438287B73701409387C1
:1007900007C02326F4FE95A8B70700402326F4FEE1
:1007A000ADA0B7070040938707402326F4FEB1A809
:1007B000B7170040938707802326F4FEB9A0B71728
:1007C0000040938707C02326F4FE81A0B71700409E
:1007D0002326F4FE1DA8B717004093870740232661
:1007E000F4FE25A0B7370140938707402326F4FE87
:1007F00029A8B7570140938707C02326F4FE31A0EC
:10080000B75701402326F4FE0100232E04FC2320C9
:1008100004FE231204FE835784FE2310F4FE835744
:10082000A4FE231EF4FC231104FE231F04FC230258
:1008300004FE9307C4FDBE850325C4FEEF80F04788
:10084000054685450325C4FEEF9080578545032561
:10085000C4FEEF90F00DE16703AE871E1387871E7D
:10086000032347001387871E832887001387871E6B
:100870000328C7001387871E084B1387871E4C4B1E
:100880001387871E104F1387871E544F1387871EA9
:1008900018539387871EDC53232AC4FB232C64FA46
:1008A000232E14FB232004FD2322A4FC2324B4FCC8
:1008B0002326C4FC2328D4FC232AE4FC232CF4FCA8
:1008C0008327C4FA93F7F70F8A07130704FFBA9731
:1008D00083A747FC8D453E85EF60F0278327C4FA48
:1008E0008A07130704FFBA9783A747FC3E85EF608A
:1008F000D02285450325C4FEEF9000410100F6405B
:10090000664425618280797106D622D40018232E90
:10091000A4FC232CB4FC032784FD896793871771FB
:10092000B337F70093F7F70F3E8713065003E167DD
:100930009385072A3A85EF40B058B737014093872F
:1009400007C02326F4FE8327C4FDC183BD8B254742
:10095000636EF70613972700E5679387C7C7BA97B3
:100960009C438287B7370140938707C02326F4FE54
:10097000B1A8B70700402326F4FE89A8B7070040B6
:10098000938707402326F4FE91A0B7170040938772
:1009900007802326F4FE1DA8B7170040938707C0E1
:1009A0002326F4FE25A0B73701409387074023266E
:1009B000F4FE29A8B7570140938707C02326F4FE09
:1009C00031A0B75701402326F4FE01008327C4FE5F
:1009D00083D7C7022315F4FE0357A4FE832784FDA3
:1009E0003307F702896793870771B357F702231418
:1009F000F4FE8327C4FDA1838D8B81EB8327C4FE86
:100A0000035784FE239AE702A9A88327C4FDA18384
:100A100013F7370085476319F7008327C4FE035790
:100A200084FE239CE70235A88327C4FDA18313F726
:100A3000370089476319F7008327C4FE035784FEF4
:100A4000239EE70239A88327C4FDA18313F737004B
:100A50008D476318F7008327C4FE035784FE239055
:100A6000E7040100B2502254456182805D7186C660
:100A7000A2C48008232EA4FA232CB4FA232AC4FA91
:100A80008327C4FBC1838D453E85EF102026AA87AE
:100A90003E871306D00AE1679385072A3A85EF401F
:100AA0003042032744FB896793871771B337F700F8
:100AB00093F7F70F3E871306F00AE1679385072A3D
:100AC0003A85EF40F03F232E04FC232004FE23123E
:100AD00004FE232604FC232804FC232A04FC232CE4
:100AE00004FC231504FE8327C4FBC183BD8B3E8514
:100AF000EF1020268327C4FB93F7F70F930680316E
:100B0000014685453E85713485450545EF80E06C9D
:100B1000B7370140938707C02326F4FE8327C4FB21
:100B2000C183BD8B2547636EF70613972700E567E2
:100B3000938747CABA979C438287B7370140938708
:100B400007C02326F4FEB1A8B70700402326F4FE11
:100B500089A8B7070040938707402326F4FE91A099
:100B6000B7170040938707802326F4FE1DA8B71708
:100B70000040938707C02326F4FE25A0B737014025
:100B8000938707402326F4FE29A8B757014093878F
:100B900007C02326F4FE31A0B75701402326F4FEF8
:100BA00001008327C4FB13D7C7008D47631AF700E2
:100BB0008545B70716001385070CEF80C01415AAEA
:100BC0008327C4FB13D7C700C547631AF7008545C1
:100BD000B707180013850710EF80E01219AA8327C2
:100BE000C4FB13D7C700C947631AF7008545B70789
:100BF000180013850720EF800011E5A88327C4FBA8
:100C000013D7C700CD47631AF7008545B70718000B
:100C100013850730EF80200FE9A88327C4FB13D783
:100C2000C70093072002631AF7008545B7171A001B
:100C300013850780EF80200D6DA88327C4FB13D791
:100C4000C70093073002631AF7008545B7171A00EB
:100C5000138507C0EF80200B69A88327C4FB13D737
:100C6000C700930710036317F70085450565EF80FC
:100C7000800941A08327C4FB13D7C700930710073F
:100C8000631AF7008545B707008013854700EF809A
:100C9000800785A08327C4FB13D7C70093073008BC
:100CA000631AF7008545B707138013850701EF80A6
:100CB000800581A08327C4FB13D7C70093071009C1
:100CC000631AF7008545B707158013850702EF8083
:100CD000800305A08327C4FB13D7C70093073009FF
:100CE0006319F7008545B707158013850704EF8062
:100CF000800103A74182832784FBB357F702C18396
:100D00002315F4FE03A741828357A4FE8507BE8600
:100D1000832784FBB387F602B357F7022314F4FE4C
:100D2000035784FE832744FB3307F70289679387C1
:100D30000771B357F7022313F4FE835784FEFD17A0
:100D4000C207C1832310F4FE8357A4FE231EF4FCC4
:100D5000231104FE231F04FC230204FE9307C4FD99
:100D6000BE850325C4FEEF80407593070007231658
:100D7000F4FC85472317F4FC231804FC835764FE16
:100D80002319F4FC8947231AF4FC8947231BF4FC3C
:100D9000231C04FC231D04FC8327C4FBA1838D8B2F
:100DA0009DE39307C4FCBE850325C4FEEF80D008F5
:100DB000A1450325C4FEEF90A00791450325C4FE7D
:100DC000EF90C01B45A08327C4FBA18313F7370016
:100DD00085476315F7029307C4FCBE850325C4FE4F
:100DE000EF80501FA1450325C4FEEF902009930515
:100DF00000400325C4FEEF90201DADA08327C4FB57
:100E0000A18313F7370089476314F7029307C4FCE3
:100E1000BE850325C4FEEF80103AA1450325C4FE1C
:100E2000EF90600B91450325C4FEEF90401F1DA875
:100E30008327C4FBA18313F737008D476314F702A0
:100E40009307C4FCBE850325C4FEEF809054A145E2
:100E50000325C4FEEF90E00C930500400325C4FE7B
:100E6000EF90A02085450325C4FEEF80706F854577
:100E70000325C4FEEF8050690100B640264461613D
:100E80008280797106D622D40018232EA4FC8327F1
:100E9000C4FDB337F00093F7F70F3E871306100435
:100EA000E167938507333A85EF4090018327C4FDBE
:100EB0009C43BD8B0547B317F70093960701C1828A
:100EC0008327C4FD9C4313D75700B70700200A07A8
:100ED00093870704BA979C43368798CB8327C4FD32
:100EE000DC43BD8B0547B317F70093960701C1821A
:100EF0008327C4FDDC4313D75700B70700200A0738
:100F000093870704BA979C43368798CB8327C4FD01
:100F1000DC472326F4FE01008327C4FE1387F7FF76
:100F20002326E4FEF5FB8327C4FDDC43BD8B054788
:100F3000B317F70093960701C1828327C4FDDC43F2
:100F400013D75700B70700200A0793870704BA97FB
:100F50009C433687D8CB8327C4FDDC472324F4FE8B
:100F60000100832784FE1387F7FF2324E4FEF5FBAB
:100F70008327C4FD9C43BD8B0547B317F7009396A9
:100F80000701C1828327C4FD9C4313D75700B707CD
:100F900000200A0793870704BA979C433687D8CB6B
:100FA0000100B250225445618280797106D622D464
:100FB0000018232EA4FC8327C4FDB337F00093F759
:100FC000F70F3E8713064005E167938507333A859F
:100FD000EF40006F8327C4FDDC43BD8B0547B3178B
:100FE000F70093960701C1828327C4FDDC4313D722
:100FF0005700B70700200A0793870704BA979C4356
:101000003687D8CB8327C4FD9C43BD8B0547B317D8
:10101000F70093960701C1828327C4FD9C4313D731
:101020005700B70700200A0793870704BA979C4325
:101030003687D8CB8327C4FDDC472326F4FE010086
:101040008327C4FE1387F7FF2326E4FEF5FB8327DF
:10105000C4FD9C43BD8B0547B317F700939607016A
:10106000C1828327C4FD9C4313D75700B7070020D4
:101070000A0793870704BA979C43368798CB832740
:10108000C4FDDC472324F4FE0100832784FE13877C
:10109000F7FF2324E4FEF5FB8327C4FDDC43BD8B6F
:1010A0000547B317F70093960701C1828327C4FD54
:1010B000DC4313D75700B70700200A0793870704BC
:1010C000BA979C43368798CB8327C4FDDC472322FD
:1010D000F4FE0100832744FE1387F7FF2322E4FE7A
:1010E000F5FB0100B250225445618280797106D629
:1010F00022D40018232EA4FCAE87A30DF4FC832772
:10110000C4FDB337F00093F7F70F3E871306900640
:10111000E167938507333A85EF40805A8327C4FD02
:101120009C43BD8B0547B317F70093960701C18217
:101130008327C4FD9C4313D75700B70700200A0735
:1011400093870704BA979C433687D8CB8347B4FD6F
:1011500095CB8327C4FDDC43BD8B0547B317F70050
:1011600093960701C1828327C4FDDC4313D7570040
:10117000B70700200A0793870704BA979C4336876E
:1011800098CB0DA88327C4FDDC43BD8B0547B3175F
:10119000F70093960701C1828327C4FDDC4313D770
:1011A0005700B70700200A0793870704BA979C43A4
:1011B0003687D8CB8327C4FDDC472326F4FE010005
:1011C0008327C4FE1387F7FF2326E4FEF5FB83275E
:1011D000C4FD9C43BD8B0547B317F70093960701E9
:1011E000C1828327C4FD9C4313D75700B707002053
:1011F0000A0793870704BA979C43368798CB8327BF
:10120000C4FDDC472324F4FE0100832784FE1387FA
:10121000F7FF2324E4FEF5FB8327C4FD9C43BD8B2D
:101220000547B317F70093960701C1828327C4FDD2
:101230009C4313D75700B70700200A07938707047A
:10124000BA979C433687D8CB8327C4FDDC43BD8B3C
:101250000547B317F70093960701C1828327C4FDA2
:10126000DC4313D75700B70700200A07938707040A
:10127000BA979C43368798CB0100B25022544561FF
:101280008280797106D622D40018232EA4FC8327ED
:10129000C4FDB337F00093F7F70F3E8713065008ED
:1012A000E167938507333A85EF408041A30704FE49
:1012B0008327C4FD9C43BD8B0547B317F700939666
:1012C0000701C1828327C4FD9C4313D75700B7078A
:1012D00000200A0793870704BA979C433687D8CB28
:1012E0008327C4FDDC43BD8B0547B317F7009396F6
:1012F0000701C1828327C4FDDC4313D75700B7071A
:1013000000200A0793870704BA979C43368798CB37
:101310008327C4FDDC472324F4FE0100832784FED9
:101320001387F7FF2324E4FEF5FB8327C4FD9C43CA
:10133000BD8B0547B317F70093960701C18283273A
:10134000C4FD9C4313D75700B70700200A079387B3
:101350000704BA979C43368798CB8327C4FDDC47A4
:101360002322F4FE0100832744FE1387F7FF232284
:10137000E4FEF5FB8327C4FDDC433E85EFF04F9D83
:10138000AA8781C78547A307F4FE8327C4FD9C4332
:10139000BD8B0547B317F70093960701C1828327DA
:1013A000C4FD9C4313D75700B70700200A07938753
:1013B0000704BA979C433687D8CB8327C4FDDC4704
:1013C0002320F4FE0100832704FE1387F7FF232068
:1013D000E4FEF5FB8347F4FE3E85B250225445619E
:1013E0008280797106D622D40018232EA4FCAE8701
:1013F000A30DF4FC8327C4FDB337F00093F7F70F78
:101400003E871306700AE167938507333A85EF40FC
:10141000202B930700F8A307F4FE09AA0347B4FDA5
:101420008347F4FEF98F93F7F70F95CB8327C4FD1D
:10143000DC43BD8B0547B317F70093960701C182C4
:101440008327C4FDDC4313D75700B70700200A07E2
:1014500093870704BA979C43368798CB0DA88327B8
:10146000C4FDDC43BD8B0547B317F7009396070116
:10147000C1828327C4FDDC4313D75700B707002080
:101480000A0793870704BA979C433687D8CB8347CC
:10149000F4FE8583A307F4FE8327C4FDDC472324E1
:1014A000F4FE0100832784FE1387F7FF2324E4FE64
:1014B000F5FB8327C4FD9C43BD8B0547B317F7009D
:1014C00093960701C1828327C4FD9C4313D757001D
:1014D000B70700200A0793870704BA979C4336870B
:1014E00098CB8327C4FDDC472322F4FE0100832729
:1014F00044FE1387F7FF2322E4FEF5FB8327C4FD98
:101500009C43BD8B0547B317F70093960701C18233
:101510008327C4FD9C4313D75700B70700200A0751
:1015200093870704BA979C433687D8CB8347F4FE4A
:10153000E39607EE0325C4FDA933AA87FD17B33749
:10154000F00093F7F70F3E85B25022544561828038
:10155000397106DE22DC26DA80002326A4FCAE8761
:10156000A305F4FC8327C4FCB337F00093F7F70F0F
:101570003E871306000CE167938507333A85EF40F9
:101580002014A30704FEA1472307F4FE8327C4FC0D
:101590009C43BD8B0547B317F70093960701C182A3
:1015A0008327C4FC9C4313D75700B70700200A07C2
:1015B00093870704BA979C433687D8CB8327C4FC0C
:1015C000DC472324F4FE0100832784FE1387F7FF02
:1015D0002324E4FEF5FB8327C4FCDC43BD8B0547D5
:1015E000B317F70093960701C1828327C4FCDC433D
:1015F00013D75700B70700200A0793870704BA9745
:101600009C43368798CB7DA88327C4FC9C43BD8B25
:101610000547B317F70093960701C1828327C4FCDF
:101620009C4313D75700B70700200A079387070486
:10163000BA979C433687D8CB8327C4FCDC47232248
:10164000F4FE0100832744FE1387F7FF2322E4FE04
:10165000F5FB8327C4FC9C43BD8B0547B317F700FC
:1016600093960701C1828327C4FC9C4313D757007C
:10167000B70700200A0793870704BA979C43368769
:1016800098CB8327C4FCDC472320F4FE010083278A
:1016900004FE1387F7FF2320E4FEF5FB8347F4FEE7
:1016A000860793948701E1848327C4FCDC433E854D
:1016B000EFE01FEAAA87E207E187C58FE207E1872B
:1016C000A307F4FE8347E4FE1387F7FF2307E4FE36
:1016D00085FF8327C4FC9C43BD8B0547B317F700E8
:1016E00093960701C1828327C4FC9C4313D75700FC
:1016F000B70700200A0793870704BA979C433687E9
:10170000D8CB8327C4FCDC47232EF4FC01008327BD
:10171000C4FD1387F7FF232EE4FCF5FB8347B4FCDD
:10172000BE850325C4FCD9328347F4FE3E85F250C2
:101730006254D25421618280011106CE22CC001065
:101740002326A4FEAE873287A305F4FEBA872305BD
:10175000F4FE8327C4FEB337F00093F7F70F3E87FC
:1017600013062029E167938507333A85EF305075DA
:101770000325C4FEEFF0EFF08327C4FE83C7870084
:10178000860793F7F70FBE850325C4FE9939834773
:10179000B4FEBE850325C4FEA9318347A4FEBE85E1
:1017A0000325C4FE3D390325C4FEEFF01F80010070
:1017B000F240624405618280797106D622D4001815
:1017C000232EA4FCAE87A30DF4FC8327C4FDB337FE
:1017D000F00093F7F70F3E871306402AE1679385E1
:1017E00007333A85EF30D06DA30704FE0325C4FD0F
:1017F000EFF02FE98327C4FD83C78700860793F79F
:10180000F70FBE850325C4FDE93E8347B4FDBE85C1
:101810000325C4FDF9360325C4FDEFF00FF90325B8
:10182000C4FDEFF00FE68327C4FD83C7870086075A
:10183000E207E18793E71700E207E18793F7F70FE5
:10184000BE850325C4FD713E85450325C4FD0933CE
:10185000AA87A307F4FE0325C4FDEFF00FF5834725
:10186000F4FE3E85B250225445618280797106D6DD
:1018700022D400182326A4FEAE872322C4FE2320F0
:10188000D4FE232EE4FCA305F4FE8327C4FEB33765
:10189000F00093F7F70F3E871306F02BE16793856F
:1018A00007333A85EF30D061032704FE8327C4FD58
:1018B000B307F740B337F00093F7F70F3E871306EF
:1018C000002CE167938507333A85EF30705F8327FB
:1018D000C4FE032704FE98C38327C4FE0327C4FD68
:1018E000D8C38327C4FE0347B4FE2384E7008327BD
:1018F000C4FE032744FED8C7C146054685450325D7
:1019000004FEEFE01FC9D146054685450325C4FD09
:10191000EFE03FC80100B2502254456182800111BE
:1019200022CE00102326A4FEAE87A305F4FEE567B1
:101930000327C4FE0A079387C7CCBA979C433E8708
:101940008347B4FEC207C1832316F7000100E56791
:101950000327C4FE0A079387C7CCBA979C4383D753
:101960008700C207C18393F70708F5F301007244AB
:1019700005618280011122CE00102326A4FEAE87CD
:101980002315F4FE8357A4FEA183C207C18393F6F7
:10199000F70FE5670327C4FE0A079387C7CCBA97FA
:1019A0009C433E8793970601C1832316F7000100ED
:1019B000E5670327C4FE0A079387C7CCBA979C4301
:1019C00083D78700C207C183898BFDD38357A4FEC9
:1019D00093F6F70FE5670327C4FE0A079387C7CC82
:1019E000BA979C433E8793970601C1832316F7005D
:1019F0000100E5670327C4FE0A079387C7CCBA979F
:101A00009C4383D78700C207C18393F70708F5F388
:101A100001007244056182805D7186C6A2C480089F
:101A20002326A4FC2324B4FC2322C4FC2320D4FCBE
:101A3000232EE4FA232CF4FA232A04FBE567032778
:101A4000C4FC0A079387C7CCBA979C433E85EF70C6
:101A5000500A85450545EF704078032704FC93073D
:101A60003012631DF7000327C4FB9307501263175E
:101A7000F70085450545EF70002925A0032704FCE4
:101A800089679387A714631EF7000327C4FB896740
:101A90009387C7146317F700854537152000EF704B
:101AA00080268327C4FC91E785450565EF70E072C9
:101AB00025A00327C4FC85476317F70085451165FA
:101AC000EF70007611A80327C4FC89476316F7005E
:101AD00085452165EF70C074832704FC93F7F70FE9
:101AE00093068031054685453E85EFE09FAA832712
:101AF000C4FB93F7F70F93068031054685453E8575
:101B0000EFE03FA9032784FBC167F917630DF700D6
:101B1000832784FB93F7F70F9306803405468145AE
:101B20003E85EFE01FA7032744FB9307F00F630DEB
:101B3000F700832744FB93F7F70F93060031014624
:101B400085453E85EFE0FFA4232E04FC232004FE00
:101B5000232204FE232404FE231604FE231E04FC79
:101B600093074010231FF4FC231004FE032784FC7A
:101B700085476305F702832784FC81CF032784FC14
:101B800089476303F702032784FC8D476304F70248
:101B90000DA8231104FE231204FE25A0231104FE28
:101BA00085472312F4FE31A889472311F4FE23123E
:101BB00004FE01A889472311F4FE85472312F4FE91
:101BC0000100231704FE03A74182832744FCB35777
:101BD000F7022317F4FE03A74182832744FCB3775F
:101BE000F70291E78357E4FEFD172317F4FE03572E
:101BF000E4FE9307F00763F7E700930780032317DA
:101C0000F4FE49A80357E4FE9307F00363F7E700E7
:101C1000930700032317F4FEB5A80357E4FEFD471E
:101C200063F7E700930780022317F4FEA5A003578C
:101C3000E4FEBD4763F7E700930700022317F4FEB5
:101C400091A80357E4FE9D4763F6E700E147231799
:101C5000F4FE89A00357E4FE8D4763F6E700C14711
:101C60002317F4FE05A80357E4FE854763F6E70053
:101C7000A1472317F4FE39A88357E4FE81C7231731
:101C800004FE09A813068022E1679385473C0145BD
:101C9000EF3010238357E4FE2314F4FE9307002053
:101CA0002313F4FE231504FE231604FEE567032721
:101CB000C4FC0A079387C7CCBA979C433E87930717
:101CC000C4FDBE853A85EF70206AE5670327C4FC32
:101CD0000A079387C7CCBA979C4385453E85EF702A
:101CE00020780100B640264461618280797122D655
:101CF0000018232EA4FC232CB4FC8547A307F4FE74
:101D00000327C4FD0A079387C197BA979C4399EBB1
:101D10000327C4FD0A079387C197BA97032784FD59
:101D200098C315A00327C4FD0A079387C197BA97E4
:101D30009C43032784FD6316F7008547A307F4FE41
:101D400019A0A30704FE8347F4FE3E853254456183
:101D50008280011106CE22CC00102326A4FE832708
:101D6000C4FE81EB8545856713850780EF70E046EB
:101D70006DA80327C4FE85476317F7008545054511
:101D8000EF70004A5DA00327C4FE89476317F70080
:101D900085450945EF70C04849A80327C4FE8D4713
:101DA0006317F70085451145EF708047BDA80327ED
:101DB000C4FE91476317F70085452145EF70404603
:101DC000ADA00327C4FE95476317F700854541453D
:101DD000EF70004599A80327C4FE99476318F700E0
:101DE000854513050002EF70A04381A00327C4FEC0
:101DF0009D476317F70085450965EF70003E35A0E4
:101E00000327C4FEA1476318F7008545370508007E
:101E1000EF70A03C19A80327C4FEA5476317F7007D
:101E2000854537051000EF70403B0100F2406244E9
:101E300005618280797106D622D40018232EA4FC75
:101E4000B7370140938707C02326F4FE0327C4FD5C
:101E5000A54763ECE7088327C4FD13972700E567D0
:101E6000938787CDBA979C438287B7370140938782
:101E700007C02326F4FE95A8B70700402326F4FEEA
:101E8000ADA0B7070040938707402326F4FEB1A812
:101E9000B7170040938707802326F4FEB9A0B71731
:101EA0000040938707C02326F4FE81A0B7170040A7
:101EB0002326F4FE1DA8B71700409387074023266A
:101EC000F4FE25A0B7370140938707402326F4FE90
:101ED00029A8B7570140938707C02326F4FE31A0F5
:101EE000B75701402326F4FE010085450325C4FEB3
:101EF000EF7090610100B250225445618280797187
:101F000022D60018232EA4FCB7370140938707C0C0
:101F10002326F4FE231504FE0327C4FDA54763EC26
:101F2000E7088327C4FD13972700E567938707D049
:101F3000BA979C438287B7370140938707C023260F
:101F4000F4FE95A8B70700402326F4FEADA0B7071E
:101F50000040938707402326F4FEB1A8B71700403E
:101F6000938707802326F4FEB9A0B7170040938714
:101F700007C02326F4FE81A0B71700402326F4FEF5
:101F80001DA8B7170040938707402326F4FE25A01D
:101F9000B7370140938707402326F4FE29A8B75797
:101FA0000140938707C02326F4FE31A0B7570140B4
:101FB0002326F4FE01000327C4FD0A079387419AF4
:101FC000BA9798438947631FF7008327C4FE83D7D6
:101FD00047021397070141838D47B357F702231533
:101FE000F4FE39A08327C4FE83D747022315F4FEED
:101FF0008357A4FE3E85325445618280797122D692
:102000000018232EA4FCB7370140938707C023266E
:10201000F4FE0327C4FDA54763ECE7088327C4FD4E
:1020200013972700E567938787D2BA979C438287E7
:10203000B7370140938707C02326F4FE95A8B7075A
:1020400000402326F4FEADA0B70700409387074069
:102050002326F4FEB1A8B7170040938707802326F4
:10206000F4FEB9A0B7170040938707C02326F4FEFB
:1020700081A0B71700402326F4FE1DA8B717004023
:10208000938707402326F4FE25A0B73701409387A6
:1020900007402326F4FE29A8B7570140938707C0BD
:1020A0002326F4FE31A0B75701402326F4FE010099
:1020B0008327C4FE239207020100325445618280C7
:1020C000797106D622D40018232EA4FC232CB4FC4C
:1020D00085450325C4FD1939AA873E871306200FBD
:1020E000E167938547453A85EF30805D0327C4FD5E
:1020F0000A079387C197BA97054798C3B737014036
:10210000938707C02326F4FE0327C4FDA54763EC8D
:10211000E7088327C4FD13972700E567938707D552
:10212000BA979C438287B7370140938707C023261D
:10213000F4FE95A8B70700402326F4FEADA0B7072C
:102140000040938707402326F4FEB1A8B71700404C
:10215000938707802326F4FEB9A0B7170040938722
:1021600007C02326F4FE81A0B71700402326F4FE03
:102170001DA8B7170040938707402326F4FE25A02B
:10218000B7370140938707402326F4FE29A8B757A5
:102190000140938707C02326F4FE31A0B7570140C2
:1021A0002326F4FE01000325C4FD65360327C4FD84
:1021B0000A079387419ABA97032784FD98C323207F
:1021C00004FE232204FE231404FE032784FD854716
:1021D0006315F702FD572312F4FE03A74182B747A8
:1021E0000F0093870724B357F702C207C183FD1777
:1021F000C207C1832310F4FE2DA8032784FD89475D
:102200006314F702FD572312F4FE03A7418285678A
:10221000938787BBB357F702C207C183FD17C20775
:10222000C1832310F4FE31A0FD572312F4FE2310C6
:1022300004FE231304FE231104FE230404FE93076B
:1022400004FEBE850325C4FEEF70202785450325C7
:10225000C4FEEF70702B0100B250225445618280A1
:10226000011122CE00102326A4FEAE87A305F4FEA2
:102270000100E5670327C4FE0A07938787D7BA974B
:102280009C4383D70700C207C18393F70708F5D3A0
:10229000E5670327C4FE0A07938787D7BA979C434D
:1022A0003E878347B4FEC207C1832312F7000100B3
:1022B000724405618280011106CE22CC00102326D3
:1022C000A4FE2324B4FE2322C4FE832784FEB33756
:1022D000F00093F7F70F3E8713061004E16793852C
:1022E000874E3A85EF30C03D29A8832784FE1387A7
:1022F00017002324E4FE83C70700BE850325C4FE20
:102300008537832744FE1387F7FF2322E4FEF1FF7E
:102310000100F240624405618280011106CE22CCA8
:1023200000102326A4FE2324B4FE832784FEB337A3
:10233000F00093F7F70F3E8713060005E1679385DA
:10234000874E3A85EF30C03739A8832784FE13873C
:1023500017002324E4FE8387070093F7F70FBE8559
:102360000325C4FEF53D832784FE83870700F1FF24
:102370000100F240624405618280011106CE22CC48
:1023800000102326A4FEAE87A305F4FEE56703270D
:10239000C4FE0A07938787D7BA979C433E87834733
:1023A000B4FE3E86930550523A85EF808004138731
:1023B000C1848327C4FEBA9783C7070081453E8541
:1023C000EF4070798347B4FE81CF1387C1848327A0
:1023D000C4FEBA9783C707003E85EF40107419A862
:1023E0001387C1848327C4FEBA9783C707003E853D
:1023F000EF4090740100F240624405618280011157
:1024000022CE00102326A4FE2324B4FEE567032772
:10241000C4FE0A07938787D7BA979C4383D70700E0
:10242000C207C18393F707028DC7E5670327C4FE80
:102430000A07938787D7BA979C4383D74700C20779
:10244000C18313F7F70F832784FE2380E7008547B6
:1024500011A081473E85724405618280797106D65C
:1024600022D40018232EA4FC232CB4FC232AC4FC61
:102470002328D4FC032744FD832704FD3D8F8327B5
:10248000C4FDB207F98F93B7170093F7F70F3E8794
:102490001306A00AE1679385874E3A85EF30402204
:1024A000832744FD13D78700832704FDA183B30747
:1024B000F74093B7170093F7F70F3E871306B00A5C
:1024C000E1679385874E3A85EF30801F832744FD6F
:1024D00093F7F70FE146014685453E85EFE06F8BA8
:1024E000832704FD93F7F70F930680040146814587
:1024F0003E85EFE00F8A85450545EF60104E0327C6
:1025000044FDC167FD17F98F0D671307073863870F
:10251000E7200D67130707386369F704056713079A
:1025200057166381E716056713075716636FF700A1
:102530001307F022638AE70C130760306381E7100A
:10254000130760126388E70865A6096713078736D3
:10255000638BE7160D67130707126387E718096790
:102560001307A7146380E71461A615671307A7383C
:10257000638EE72615671307A7386362F7021167B2
:10258000130787386380E720156713078712638571
:10259000E722116713074712638CE71A91AE196798
:1025A0001307C7386388E72A19671307C7386368B2
:1025B000F7001967130767106384E72615AE1D67D8
:1025C0001307E7106382E72C1D671307E73863875B
:1025D000E72E39AEB7070140D44FB70701403707A0
:1025E00000FC7D17758FD8CFB7070140D843B707D8
:1025F00001406D9BD8C3B7070140D843B7070140DE
:1026000013674700D8C3EDA4B7070140D44FB707FD
:102610000140370700FC7D17758FD8CFB707014001
:10262000D44FB707014037070004558FD8CFB707FD
:102630000140D843B70701406D9BD8C355ACB707DD
:102640000140D44FB7070140370700FC7D17758F55
:10265000D8CFB7070140D44FB70701403707000470
:10266000558FD8CFB7070140D843B70701406D9BBE
:10267000D8C3B7070140D843B707014013674700E5
:10268000D8C3BDA4B7070140D843B70701405D9B3D
:10269000D8C3B7070140D843B70701401367870085
:1026A000D8C3B9A4B7070140D843B707014013778F
:1026B000F7FCD8C3B7070140D843B70701401367F9
:1026C0000701D8C335A4B7070140D843B707014075
:1026D0001377F7FCD8C3B7070140D843B7070140C9
:1026E00013670703D8C329A4B7070140D44FB7071E
:1026F00001403707FDFF7D17758FD8CFB707014021
:10270000D44F832744FDA18313970701B707030024
:102710007D8FB7070140558FD8CFD9AAB7070140A1
:10272000D44FB70701403707FDFF7D17758FD8CF0E
:10273000B7070140D44F832744FDA18313970701B6
:10274000B70703007D8FB7070140558FD8CF4DA243
:10275000B7070140D44FB70701403707F4FF7D1793
:10276000758FD8CFB7070140D44F832744FDA1838D
:1027700013972701B7070C007D8FB7070140558FCE
:10278000D8CFBDA2B7070140D44FB70701403707E4
:10279000F4FF7D17758FD8CFB7070140D44F83273B
:1027A00044FDA18313972701B7070C007D8FB7075E
:1027B0000140558FD8CF2DAAB7070140D44FB70796
:1027C00001403707D0FF7D17758FD8CFB70701407D
:1027D000D44F832744FDA18313974701B7073000E7
:1027E0007D8FB7070140558FD8CF19A2B707014099
:1027F000D44FB70701403707D0FF7D17758FD8CF6B
:10280000B7070140D44F832744FDA18313974701A5
:10281000B70730007D8FB7070140558FD8CFC9A8C3
:10282000B7070140D44FB7070140370740FF7D1776
:10283000758FD8CFB7070140D44F832744FDA183BC
:1028400013976701B707C0007D8FB7070140558F09
:10285000D8CF79A8B7070140D44FB7070140370751
:1028600040FF7D17758FD8CFB7070140D44F83271E
:1028700044FDA18313976701B707C0007D8FB70799
:102880000140558FD8CFADA0B7070140D44FB7074F
:102890000140370700FD7D17758FD8CFB70701407E
:1028A000D44F832744FDA18313978701B707000303
:1028B0007D8FB7070140558FD8CF1DA8B7070140BE
:1028C000D44FB7070140370700FD7D17758FD8CF6C
:1028D000B7070140D44F832744FDA1831397870195
:1028E000B70700037D8FB7070140558FD8CF010090
:1028F0008327C4FD91E785451165EF60100E69A837
:102900000327C4FD85476318F70085453705020096
:10291000EF60101151A00327C4FD89476318F70029
:10292000854537050400EF60B00FBDA00327C4FD47
:102930008D476318F700854537050800EF60500E96
:10294000A1A80327C4FD91476318F7008545370503
:102950001000EF60F00C89A00327C4FD95476318B1
:10296000F700854513050004EF60900B35A00327A1
:10297000C4FD99476318F700854513050008EF600B
:10298000300A19A80327C4FD9D476317F700854542
:1029900013050010EF60D008232004FE232204FE5C
:1029A000232404FE232604FE832784FD2320F4FE33
:1029B000231204FE231304FE231404FE231604FE34
:1029C000B1472315F4FEE5670327C4FD0A07938783
:1029D00087D7BA979C433E87930704FEBE853A8506
:1029E000EF70E077E5670327C4FD0A07938787D771
:1029F000BA979C4385453E85EF70B0190100B250EF
:102A0000225445618280411106C622C4000883A772
:102A100041860547638BE7006388070C0947638D90
:102A2000E7000D47638FE702E9A083A701861387BC
:102A3000170023A0E18675A883A7018613871700D6
:102A400023A0E18603A70186A54763F1E70AB7073C
:102A50000020938707049C4B1167D8CB23A00186E5
:102A600071A003A7818685476314F7081305F00852
:102A7000EFD01FAEAA87ADC31945EFF04FC8AA87A4
:102A80003E8783A701861D8F9307600963F2E706DF
:102A90001945EFF0AFD683A70186D3F717D053853A
:102AA000F720EF10914BE16703A6875783A6C7571E
:102AB000EF001110AA872E883E85C285EF10B13233
:102AC000AA87139707014183B70700202398E72EB1
:102AD000094723A4E18629A81945EFF04FC2AA8728
:102AE0003E8723A0E18629A0010021A0010011A0BA
:102AF00001000100B240224441018280411106C61A
:102B000022C4000883A741860947637CF7000D476C
:102B1000639AE7001945EFF06FCE054723A4E186DD
:102B200011A001000100B240224441018280011144
:102B300006CE22CC0010232204FE83C7D1866381F7
:102B4000071409A8930734FE0546BE851385C19C6A
:102B5000EF30005C930734FEBE851D45EFF03F8AE1
:102B6000AA87EDF3034734FEA947631BF710994783
:102B70002322F4FE130744FE930784FE85463A861B
:102B8000BE851385C19CEF305037930784FE1387B1
:102B900037000D46E167938507583A85EF20915439
:102BA000AA879DEB03A7418789476304F70C054774
:102BB00023AAE1861385C19CEF30E027AA87232250
:102BC000F4FE930744FE81463E86938581A61385D5
:102BD000C19CEF30903271A8930784FE13873700B1
:102BE0000D46E167938547583A85EF20B14FAA8794
:102BF0009DEB03A701878947630DF706054723A8C7
:102C0000E1861385C19CEF300023AA872322F4FEBE
:102C1000930744FE81463E869385819E1385C19C21
:102C2000EF30B02DB9A0930784FE138737000D460F
:102C3000E167938587583A85EF20D14AAA8795EBBB
:102C400003A7818789476306F702054723ACE1861E
:102C50001385C19CEF30201EAA872322F4FE930720
:102C600044FE81463E86938581AE1385C19CEF303C
:102C7000D0281385C19CEF20707705472386E18615
:102C80000100F240624405618280011106CE22CC2F
:102C90000010A30704FEA30704FEF1A80347F4FEF7
:102CA000E5670A07938787D9BA979C433E85EFD09B
:102CB0003F8AAA873E8785476309F7048347F4FE66
:102CC00093962700138781B6369718430507939686
:102CD0002700938781B6B69798C383A7C187130748
:102CE000803E3357F7028346F4FE8A06938781B607
:102CF000B6979C4363ECE7060347F4FE0A07938705
:102D000081B7BA97094798C395A00347F4FE0A070D
:102D1000938781B7BA97984389476309F70283A7D6
:102D2000C18729473357F7028346F4FE8A06938703
:102D300081B6B6979C4363EBE7000347F4FE0A07AE
:102D4000938781B7BA97054798C309A80347F4FE4C
:102D50000A07938781B7BA9723A007000347F4FEB9
:102D60000A07938781B6BA9723A007008347F4FE2A
:102D70008507A307F4FE0347F4FE8D47E3F0E7F26F
:102D80000100F240624405618280011122CE0010F0
:102D90002326A4FE0327C4FE0A07938781B7BA97A8
:102DA0009C433E85724405618280797106D622D4A7
:102DB0000018232EA4FC8327C4FDB337F00093F73B
:102DC000F70F3E871306C008E167938507673A85CA
:102DD000EF20100FA30704FEA30704FE2DA803474E
:102DE000F4FEE5670A07938787D9BA979C43930651
:102DF0008004054681453E85EFD0AFF90347F4FED8
:102E00000A07938781B7BA9723A007008347F4FE88
:102E10008507A307F4FE0347F4FE8D47E3F1E7FCC3
:102E20000327C4FD23AEE1860100B2502254456160
:102E30008280397106DE22DC80002326A4FC8547CF
:102E4000A307F4FE231304FE231604FE232404FE2A
:102E5000232E04FC83D781883E87930700236316C3
:102E6000F700A5472324F4FE29A0A1472324F4FE5C
:102E700001008DA8930750FA2300F4FE832784FEF7
:102E80008A070327C4FCBA978397070093F7F70FC5
:102E9000A300F4FE832784FE8A070327C4FCBA97A5
:102EA000839727002313F4FE835764FEA183C20790
:102EB000C18393F7F70F2301F4FE835764FE93F762
:102EC000F70FA301F4FE930704FE1146BE851145DA
:102ED000EFF06FBE0945EFD02FBD832784FEFD17AD
:102EE0002324F4FE032784FE9307E00FE3F4E7F8BE
:102EF00083A741883E85EF2010742A87894763FFA6
:102F0000E7028D47232EF4FC83A741881306C4FDF6
:102F1000130704FE8146BA853E85EF30007E0347E5
:102F200014FE9307F00F6308F700034724FE93078E
:102F3000F00F6315F700A30704FE31A80545EFD095
:102F4000AFB68357C4FE138717002316E4FE13079A
:102F5000700CE37FF7F88347F4FE3E85F25062542D
:102F600021618280797106D622D40018232EA4FC18
:102F7000A30704FE230704FE231504FE231604FE04
:102F8000232004FE83D781883E879307002363169E
:102F9000F700A547A307F4FE29A0A147A307F4FE65
:102FA00001008347F4FEFD1793F7F70FA307F4FE24
:102FB00011AA03D781889307F02263EDE700830706
:102FC000F4FE8A070327C4FDBA9703970700A547B5
:102FD0006300F70E930750FA2302F4FEC557A302CD
:102FE000F4FE8307F4FE8A070327C4FDBA9783978C
:102FF00007002315F4FE8357A4FEA183C207C183F3
:1030000093F7F70F2303F4FE8357A4FE93F7F70F0C
:10301000A303F4FE930744FE1146BE851145EFF06D
:103020008FA9231604FE83A741883E85EF20B06058
:103030002A87894763F7E7048D472320F4FE83A797
:103040004188130604FE130744FE8146BA853E8577
:10305000EF30A06A834754FEA20793960701C1860A
:10306000834764FE1397070141878307F4FE8A07AD
:103070000326C4FDB297558F420741872391E7008D
:1030800031A80545EFD04FA28357C4FE1387170020
:103090002316E4FE1307700CE377F7F80357C4FE1A
:1030A0009307800C63F7E70085472307F4FE39A8F0
:1030B00001008307F4FE93F7F70FFD1793F7F70F5F
:1030C000A307F4FE8307F4FEE3D507EE8347E4FE8F
:1030D0003E85B250225445618280011106CE22CC39
:1030E0000010232404FE8547A307F4FE231604FEE4
:1030F000232204FE83A741883E85EF20D053AA8770
:1031000091C783A741883E85EF20502E9305F00F8D
:103110001145EFF0EF94930750FA2304F4FEBD57E6
:10312000A304F4FE230504FEA30504FE930784FE16
:103130001146BE851145EFF00F98231604FE83A7B4
:1031400041883E85EF20304F2A87894763F0E704A6
:103150008D472322F4FE83A74188130644FE1307FC
:1031600084FE8146BA853E85EF3020590347A4FE90
:1031700085476309F7000347A4FE89476304F70006
:10318000854711A08147A307F4FE31A80545EFD07C
:10319000AF918357C4FE138717002316E4FE13076D
:1031A000700CE37EF7F88347F4FE3E85F2406244FC
:1031B00005618280011106CE22CC0010A30704FE17
:1031C0009307F4FEBE851145EFF06FA383A74188F6
:1031D00085C70347F4FE9307500A6317F70083A7D8
:1031E00041883E85EF20902083A741880347F4FE65
:1031F000BA853E85EF20D04B0100F2406244056164
:103200008280411122C6000805472380E188010021
:10321000324441018280011106CE22CC00102317D6
:1032200004FE231604FE232204FE930750FA23040F
:10323000F4FEC557A304F4FE230504FEC957A305F5
:10324000F4FE930784FE1146BE851145EFF0AF866C
:1032500083A741883E85EF20103E2A87894763F087
:10326000E7048D472322F4FE83A74188130644FE1A
:10327000130784FE8146BA853E85EF3000488347B8
:1032800094FEA2071397070141878347A4FEC20754
:10329000C187D98FC207C1872316F4FE31A805451F
:1032A000EFD08F808357E4FE138717002317E4FEC7
:1032B0001307700CE37EF7F88357C4FE3E85F24097
:1032C0006244056182805D7186C6A2C4800885471C
:1032D000A307F4FEB7070020054723AAE72E9307AC
:1032E000C4FD1307C004930620061306401F814542
:1032F0003E85EFE0AFD79307C4FD3E85EFE0806BDE
:10330000AA87B5EFE16703AE877C1387877C032329
:1033100047001387877C832887001387877C0328CF
:10332000C7001387877C084B1387877C4C4B138718
:10333000877C104F1387877C544F1387877C1853E3
:103340009387877CDC53232AC4FB232C64FA232E27
:1033500014FB232004FD2322A4FC2324B4FC2326F5
:10336000C4FC2328D4FC232AE4FC232CF4FC93077C
:1033700044FB3E85EFE0E069AA87A307F4FE83479C
:10338000F4FE3E85B640264461618280597186D63E
:10339000A2D480188547A307F4FE230704FE232444
:1033A00004FEB707002023AA072E13050004EF1020
:1033B0009102AA872324F4FE832784FE85E39306E3
:1033C0007020E16713860770E1679385877901456F
:1033D000EF2080358947A307F4FE3DAC6545EF102B
:1033E000817FAA873E8723A2E18883A7418885E75A
:1033F0009306E020E16713860770E1679385477BBA
:103400000145EF206032032584FEEF10617D89477E
:10341000A307F4FE11A483A74188930600040326A2
:1034200084FE81453E85EF3090079167938627069D
:1034300091671386C7048967938507581145EFF094
:10344000EF8185451145EFE05FF3F133AA873E87B1
:103450002394E18883D7818889CFEFF01FC8AA879A
:1034600089CB81451145EFE05FF18D47A307F4FE5D
:1034700065A2E16703AE877C1387877C032347003F
:103480001387877C832887001387877C0328C700DE
:103490001387877C084B1387877C4C4B1387877C6B
:1034A000104F1387877C544F1387877C185393875B
:1034B000877CDC532320C4FD232264FC232414FDD9
:1034C000232604FD2328A4FC232AB4FC232CC4FCBB
:1034D000232ED4FC2320E4FE2322F4FEE56703A37D
:1034E0008782138787828328470013878782032870
:1034F0008700138787824847138787820C4B13877F
:103500008782504B13878782144F13878782584FC7
:10351000938787829C53232E64F8232014FB232255
:1035200004FB2324A4FA2326B4FA2328C4FA232A6A
:10353000D4FA232CE4FA232EF4FA930704FC3E85F4
:10354000EFF03F8FAA8785C79306B024E167138603
:103550000770E1679385077F0145EF20E01C8145F7
:103560001145EFE09FE18547A307F4FE75A093079F
:10357000C4F93E85EFF01F9FAA8785C79306702583
:10358000E16713860770E5679385C7800145EF20E3
:10359000A01981451145EFE05FDE8547A307F4FEE2
:1035A000A5A8230704FEA1A88347E4FE85078A0790
:1035B000130704FFBA97039707FD8347E4FE8A07C2
:1035C000930604FFB6978397C7FA631FF7028347F2
:1035D000E4FE85078A07130704FFBA97039727FDC0
:1035E0008347E4FE8A07930604FFB6978397E7FABA
:1035F000631CF7008347E4FE85072307F4FE0347B7
:10360000E4FEA147E3F2E7FA8347E4FE93B78700BD
:1036100093F7F70FA307F4FE032584FEEF10415C38
:1036200083A741883E85EF10A15B23A201888347D1
:10363000F4FE3E85B650265465618280797106D6C7
:1036400022D40018A30704FEB737000013862720F2
:1036500081450D45EF10C06EEFF0FFC6AA878DC300
:10366000B737000013862720B73700009385471B24
:103670000D45EF10E06CEFF07FD1AA87A307F4FEB1
:103680008347F4FEB9E791473EC495473EC2994748
:103690003EC093089002130880029307600213074C
:1036A000B0049306900413068004A9452545EFC095
:1036B000DFC993068007996713860782B707002042
:1036C00093858767B707002013858767EFC01FD8EA
:1036D00031A0014681450145EF1080668347F4FE25
:1036E0003E85B250225445618280011106CE22CC23
:1036F0000010AA87A307F4FEB707002093870704EA
:10370000DC4713070008D8CB8347F4FEBE85054588
:10371000EFE0EFA0B707002093870704DC4713070B
:10372000000898CB0100F2406244056182800111DB
:1037300006CE22CC0010AA8736872317F4FEAE8768
:103740002316F4FEB2872315F4FEBA872314F4FE81
:1037500083C70181C207C1830357E4FEB337F70073
:1037600093F7F70F3E871306A008E5679385078553
:103770003A85EF10F07483C71181C207C1830357E4
:10378000C4FEB337F70093F7F70F3E871306B00870
:10379000E567938507853A85EF10907283C70181AD
:1037A000C207C1830357A4FEB337F70093F7F70F9F
:1037B0003E871306C008E567938507853A85EF10B5
:1037C000307083C71181C207C183035784FEB337AA
:1037D000F70093F7F70F3E871306D008E567938548
:1037E00007853A85EF10D06D83A7C18805476376BA
:1037F000F7000D476369F71061A01305A002F535C6
:1038000081450545EFE0AF918357E4FE93F7F70F4D
:10381000890793F7F70FBE850545EFE04F90814587
:103820000545EFE0CF8F8357A4FE93F7F70F890785
:1038300093F7F70FBE850545EFE06F8E1305B002D5
:103840006D3581450545EFE08F8D8357C4FE93F7B5
:10385000F70F850793F7F70FBE850545EFE02F8C2F
:1038600081450545EFE0AF8B835784FE93F7F70F53
:10387000850793F7F70FBE850545EFE04F8A61A0F6
:103880001305A0029D3581450545EFE04F8983571B
:10389000E4FE93F7F70F850793F7F70FBE8505450D
:1038A000EFE0EF8781450545EFE06F878357A4FE82
:1038B00093F7F70F850793F7F70FBE850545EFE000
:1038C0000F861305B002153581450545EFE02F85BC
:1038D0008357C4FE93F7F70F890793F7F70FBE8559
:1038E0000545EFE0CF8381450545EFE04F838357E2
:1038F00084FE93F7F70F890793F7F70FBE85054509
:10390000EFE0EF8101001305C002C5330100F24072
:10391000624405618280797106D622D4001893072B
:10392000C4FD3E85EF1030658547231EF4FC83C738
:103930000181C207C183231FF4FC83C71181C20721
:10394000C1832310F4FE83A7C1800547638AE70083
:1039500099EF99472301F4FEA147A301F4FE09A8BA
:10396000A1472301F4FEC147A301F4FE11A0010009
:10397000B7470000938707052324F4FEB7470000EC
:103980009387C7992326F4FE9307C4FD3E85EF1065
:1039900030640100B250225445618280011106CE8C
:1039A00022CC001083C701813E8783C71181B307F2
:1039B000F7022326F4FEB707002093870704DC47AD
:1039C0004147D8CB83C70181C207C183FD17139735
:1039D0000701418383C71181C207C183FD17C20755
:1039E000C183BE863A8681450145EFF05FD421A8A8
:1039F00083D7A180BE850545EFD0DFF78327C4FEBE
:103A0000FD172326F4FE8327C4FEFDF3B70700202D
:103A100093870704DC47414798CB0100F24062449A
:103A200005618280011122CE00102326A4FE032707
:103A3000C4FE23A6E18883A7C18805476376F70003
:103A40000D476365F70211A8130700F82388E1808A
:103A5000130700FAA388E18011A8130700FA23884E
:103A6000E180130700F8A388E1800100010072449F
:103A700005618280011122CE0010AA872E872317AC
:103A8000F4FEBA872316F4FE0357E4FE2394E18084
:103A90000357C4FE2395E1800100724405618280D2
:103AA000011106CE22CC0010AA87AE8632872317DA
:103AB000F4FEB6872316F4FEBA872315F4FE83C7F7
:103AC0000181C207C1830357E4FEB337F70093F7C0
:103AD000F70F3E8713064014E567938507853A85FF
:103AE000EF10103E83C71181C207C1830357C4FE84
:103AF000B337F70093F7F70F3E8713065014E567C7
:103B0000938507853A85EF10B03BB7070020938770
:103B10000704DC474147D8CB8356C4FE0356E4FE76
:103B20000357C4FE8357E4FEBA853E85EFF03FC0DD
:103B30008357A4FEBE850545EFD0DFE3B70700201D
:103B400093870704DC47414798CB0100F240624469
:103B500005618280797106D622D40018AA87231FB6
:103B6000F4FCAE87231EF4FCB287231DF4FCB68759
:103B7000231CF4FCBA87231BF4FC83C70181C20712
:103B8000C1830357E4FDB337F70093F7F70F3E8780
:103B90001306C015E567938507853A85EF10503207
:103BA00083C71181C207C1830357C4FDB337F70030
:103BB00093F7F70F3E871306D015E56793850785C2
:103BC0003A85EF10F02F83C70181C207C1830357E5
:103BD000A4FDB337F70093F7F70F3E871306E01500
:103BE000E567938507853A85EF10902D83C711818E
:103BF000C207C183035784FDB337F70093F7F70F6C
:103C00003E871306F015E567938507853A85EF1023
:103C1000302B0357E4FD8357A4FD6374F7008547F9
:103C200011A0FD572317F4FE0357C4FD835784FDED
:103C30006374F700854711A0FD572316F4FE232473
:103C400004FE232204FE0357E4FD8357A4FD630E04
:103C5000F7080357C4FD835784FDB307F74053F7B4
:103C600007D00357E4FD8357A4FDB307F740D3F70C
:103C700007D0D377F7182724F4FE8357C4FD53F7F2
:103C800017D08357E4FDD3F617D0872784FED3F7E8
:103C9000F610D377F7082722F4FE0357C4FD8357A5
:103CA00084FD1D8F9357F7413D8F1D8F8356E4FD93
:103CB0008357A4FDB387F64093D6F741B58F958F10
:103CC00063DBE70CB5A8835664FD0357C4FD835737
:103CD000E4FD3686BA853E85EFF09FDC0357C4FECF
:103CE0008357C4FDBA97231EF4FC0357C4FD8357C2
:103CF00084FDE31AF7FC7DA0835664FD0357C4FDE1
:103D00008357E4FD3686BA853E85EFF07FD90357A9
:103D1000C4FE8357C4FDBA97231EF4FC8357C4FD29
:103D200053F717D0872744FE5377F708872784FE79
:103D3000D377F718D39707C0C207C187231FF4FCB6
:103D40000357C4FD835784FDE318F7FAA1A88356EF
:103D500064FD0357C4FD8357E4FD3686BA853E856E
:103D6000EFF01FD40357E4FE8357E4FDBA97231FF7
:103D7000F4FC8357E4FD53F717D0872784FE53776D
:103D8000F710872744FED377F700D39707C0C20701
:103D9000C187231EF4FC0357E4FD8357A4FDE318F9
:103DA000F7FA09A00100B25022544561828079716E
:103DB00006D622D40018AA87AE863287231FF4FCC9
:103DC000B687231EF4FCBA87A30DF4FC83C70181D8
:103DD000C207C1830357E4FDB337F70093F7F70F2A
:103DE0003E8713069019E567938507853A85EF109E
:103DF000300D83C71181C207C1830357C4FDB33798
:103E0000F70093F7F70F3E871306A019E567938530
:103E100007853A85EF10D00AA30704FE230704FEA6
:103E2000B707002093870704DC474147D8CB83A717
:103E3000C1800547638AE70C639F071EA30704FE42
:103E400075A88347F4FE1397070141838357E4FD68
:103E5000BA971395070141818347F4FE1397070131
:103E600041838357E4FDBA97139707014183835732
:103E7000C4FDA10793960701C1828357C4FD3A860A
:103E8000BE85EFF0DF8A8307B4FD138707FE834604
:103E9000F4FE6566BA878607BA97860713078639E0
:103EA000BA97B69783C70700A306F4FE230704FE5C
:103EB00025A88347D4FE858B81CB83D78180BE859F
:103EC0000545EFD03FAB39A083D7A180BE8505451E
:103ED000EFD05FAA8347D4FE8583A306F4FE834711
:103EE000E4FE85072307F4FE0347E4FE9D47E3F263
:103EF000E7FC8347F4FE8507A307F4FE0347F4FEBF
:103F00009547E3F0E7F40DAAA30704FE39AA834717
:103F1000F4FE1397070141838357E4FDBA97139585
:103F2000070141818347F4FE1397070141838357BB
:103F3000E4FDBA971397070141838357C4FDBD077A
:103F400093960701C1828357C4FD3A86BE85EFF080
:103F50000FFE8307B4FD938607FE8347F4FE656773
:103F60009206130787DA3697BA9783C707002306A6
:103F7000F4FE8307B4FD938607FE8347F4FEA10792
:103F800065679206130787DA3697BA9783C70700E3
:103F9000A305F4FE230704FE25A88347C4FE858BF2
:103FA00081CB83D78180BE850545EFD0BF9C39A0EA
:103FB00083D7A180BE850545EFD0DF9B8347C4FE34
:103FC00085832306F4FE8347E4FE85072307F4FE7A
:103FD0000347E4FE9D47E3F2E7FC230704FE25A820
:103FE0008347B4FE858B81CB83D78180BE85054511
:103FF000EFD05F9839A083D7A180BE850545EFD06B
:104000007F978347B4FE8583A305F4FE8347E4FED0
:1040100085072307F4FE0347E4FE9D47E3F2E7FC30
:104020008347F4FE8507A307F4FE0347F4FE9D478C
:10403000E3FFE7EC11A00100B70700209387070416
:10404000DC47414798CB0100B25022544561828041
:10405000797106D622D40018AA872E87232CC4FC97
:10406000231FF4FCBA87231EF4FC83C70181C20717
:10407000C1830357E4FDB337F70093F7F70F3E878B
:104080001306D01EE567938507853A85EF104063D8
:1040900083C71181C207C1830357C4FDB337F7003B
:1040A00093F7F70F3E871306E01EE56793850785B4
:1040B0003A85EF10E060231704FE71A083A7C1804A
:1040C00005476381E704B5EB0357E4FEBA8786072B
:1040D000BA9786071397070141838357E4FDBA9780
:1040E00093960701C1828357E4FE032784FDBA97A4
:1040F000038707008357C4FD3A86BE853685EFF0F7
:104100001FCB2DA88357E4FE8E0713970701418329
:104110008357E4FDBA9793960701C1828357E4FE63
:10412000032784FDBA97038707008357C4FD3A86A7
:10413000BE853685EFF0BFC711A001008357E4FEAE
:1041400085072317F4FE8357E4FE032784FDBA97FF
:1041500083870700A5F70100B25022544561828091
:10416000397106DE22DC8000AA872324C4FC36874E
:104170002317F4FCAE872316F4FCBA87A303F4FCE0
:1041800083C70181C207C1830357E4FCB337F7003B
:1041900093F7F70F3E8713062023E567938507857E
:1041A0003A85EF10E05183C71181C207C1830357DD
:1041B000C4FCB337F70093F7F70F3E87130630239D
:1041C000E567938507853A85EF10804F834774FC38
:1041D000B337F00093F7F70F3E8713064023E567E8
:1041E000938507853A85EF10A04D834774FC93B7FC
:1041F000B70093F7F70F3E8713065023E5679385C3
:1042000007853A85EF10C04B832784FC2326F4FEF4
:1042100085472324F4FE9307C4FD314681453E853E
:10422000EFB01FFE034774FC9307C4FD3A86930565
:1042300000023E85EFB0DFFC034774FCA54763EB4B
:10424000E70231A8032784FEBA878A07BA97860750
:104250002324F4FE834774FCFD17A303F4FC834777
:1042600074FCEDF3832784FE0327C4FEB377F702C3
:104270002326F4FE9307C4FD8325C4FE3E85EF206C
:1042800090469306C4FD0357C4FC8357E4FC36866E
:10429000BA853E85EFF0DFDB0100F2506254216108
:1042A00082805D7186C6A2C4A6C280082328C4FA93
:1042B000232AD4FABA863E87AA87231FF4FAAE8748
:1042C000231EF4FAB687A30DF4FABA87230DF4FA85
:1042D00083C70181C207C1830357E4FBB337F700EB
:1042E00093F7F70F3E871306C025E567938507858B
:1042F0003A85EF10E03C83C71181C207C1830357A1
:10430000C4FBB337F70093F7F70F3E871306D025AA
:10431000E567938507853A85EF10803A8347B4FBBC
:10432000B337F00093F7F70F3E871306E025E567F4
:10433000938507853A85EF10A0388347B4FB93B780
:10434000970093F7F70F3E871306F025E5679385EF
:1043500007853A85EF10C0368347A4FBB337F000DA
:1043600093F7F70F3E8713060026E56793850785C9
:104370003A85EF10E0348347A4FB93B7770093F7B7
:10438000F70F3E8713061026E567938507853A8564
:10439000EF100033832704FB032844FB2320F4FEA3
:1043A000232204FFE56703A8C78E83A7878E2324F3
:1043B000F4FE232604FF9307C4FC454681453E8551
:1043C000EFB01FE40347B4FB8347A4FBBA97890708
:1043D0003E879307C4FC3A86930500023E85EFB002
:1043E0003FE23DA0E56703A6078F83A6478F03251D
:1043F00084FE8325C4FEEFE0B07BAA872E882324A9
:10440000F4FE232604FF8347B4FBFD17A30DF4FA43
:104410008347B4FBE1FB032504FE832544FEEF0044
:10442000010FAA84032584FE8325C4FEEF00210E1C
:10443000AA87B3C7F4023E85EF00C124AA872E885D
:10444000032684FE8326C4FE3E85C285EFE05076B7
:10445000AA872E883E86C286032504FE832544FE55
:10446000EFF0605AAA872E882320F4FE232204FF4F
:104470000347A4FB9307C4FCBA86832504FE0326E6
:1044800044FE3E85EF20B0339306C4FC0357C4FBC3
:104490008357E4FB3686BA853E85EFF07FBB01008B
:1044A000B64026449644616182805D7186C6A2C48E
:1044B00080082A8E2E832324C4FC3685BA853E8646
:1044C000C2864687F2872317F4FC9A872316F4FCEA
:1044D000AA872313F4FCAE872312F4FCB2872311BE
:1044E000F4FCB6872310F4FCBA87A30FF4FA83C751
:1044F0000181C207C1830357E4FCB337F70093F788
:10450000F70F3E871306B02BE567938507853A853D
:10451000EF10001B83C71181C207C1830357C4FC7E
:10452000B337F70093F7F70F3E871306C02BE56705
:10453000938507853A85EF10A018832784FCB3374D
:10454000F00093F7F70F3E871306D02BE5679385AE
:1045500007853A85EF10C016232604FE232404FEA7
:10456000231304FE231204FE232004FE232E04FC46
:10457000B707002093870704DC474147D8CB035790
:10458000E4FC835724FCBA97C207C183FD17139636
:10459000070141820357C4FC835704FCBA97C20742
:1045A000C183FD1793960701C1820357C4FC83574B
:1045B000E4FCBA853E85EFF08F97232404FE19A210
:1045C000035744FC832784FE3307F702835704FC18
:1045D000B357F702232EF4FC232604FEC9A8035781
:1045E00064FC8327C4FE3307F702835724FCB357C8
:1045F000F7022320F4FE035764FC8327C4FD33072E
:10460000F702832704FEBA97032784FCBA9783C76F
:1046100007002312F4FE8347F4FBB5E3835744FEFF
:104620008D83C207C183AE072313F4FE835744FE74
:104630008983C207C1839607C207C18793F7077EA4
:10464000139707014187831764FED98FC207C1877B
:104650002313F4FE835744FE8D83C207C183FD8B71
:10466000139707014183835764FED98F2313F4FE08
:10467000835764FEBE850545EFD0CFAF25A08347A5
:10468000F4FBC207C183035744FE6377F7008145FB
:104690000545EFD02FAE39A0C1679385F7FF0545DB
:1046A000EFD04FAD8327C4FE85072326F4FE835742
:1046B00024FC0327C4FEE364F7F2832784FE850706
:1046C0002324F4FE835704FC032784FEE36AF7EEF9
:1046D000B707002093870704DC47414798CB0100C8
:1046E000B640264461618280397106DE22DC80009A
:1046F0002322D4FCBA863E87AA872317F4FCAE8710
:104700002316F4FCB287A305F4FCB6872305F4FC5A
:10471000BA872314F4FC83C70181C207C1830357FE
:10472000E4FCB337F70093F7F70F3E871306D03456
:10473000E567938507853A85EF00907883C71181F7
:10474000C207C1830357C4FCB337F70093F7F70FD1
:104750003E871306E034E567938507853A85EF00C9
:104760003076832744FCB337F00093F7F70F3E878A
:104770001306F034E567938507853A85EF0050749A
:10478000232604FE232404FE232204FEA30D04FC9E
:10479000A30104FE230D04FC832744FC232EF4FC18
:1047A0008347B4FC8D83230DF4FCB7070020938767
:1047B0000704DC474147D8CB8347A4FC1397070184
:1047C00041838347B4FCC207C183B307F702139741
:1047D000070141838357E4FCBA97C207C183FD17E1
:1047E0001396070141828347B4FC13970701418365
:1047F0008357C4FCBA97C207C183FD17939607017C
:10480000C1820357C4FC8357E4FCBA853E85EFE0C0
:104810001FF2232604FEE9A88347A4FCA301F4FEAB
:104820000347A4FD8327C4FEB307F7023E8783270F
:1048300044FCBA97232EF4FC45A0232204FEBDA01D
:10484000A1472324F4FEA9A08327C4FD83C7070042
:104850003E87832784FEFD17B357F74093F7F70F82
:10486000858BA30DF4FC8347B4FD81CB835784FC77
:10487000BE850545EFD00F9039A083D7A180BE85B6
:104880000545EFD02F8F832784FEFD172324F4FEE8
:10489000832784FEE34AF0FA8327C4FD8507232E8D
:1048A000F4FC832744FE85072322F4FE8347A4FDFE
:1048B000032744FEE346F7F80347A4FD8347B4FC0F
:1048C000B307F7023E878347A4FDB307F7400327EA
:1048D000C4FDBA97232EF4FC834734FE1387F7FFF9
:1048E000A301E4FEB9FB8327C4FE85072326F4FE5B
:1048F0008347B4FC0327C4FEE340F7F2B707002068
:1049000093870704DC47414798CB0100F25062547B
:1049100021618280411106C622C400081308F00FED
:10492000C167F91705671307F70285669386D602F4
:1049300037A64A041306062081450545EFD0CF8DE2
:10494000C1460146854513057006EFB09FC4C146B8
:104950000146854513057002EFB0BFC3C146054649
:10496000854513054006EFB0DFC2C14605468545C3
:1049700013050006EFB0FFC183A7C1883E85EFF0A5
:104980006F8A03D7818083D7A180BE853A85EFF0F7
:104990006F8EB707002093870704DC4313070008D6
:1049A000D8CB2945EFB05F90B70700209387070465
:1049B000DC431307000898CB13058007EFB0DF8EA8
:1049C000B707002093870704DC474147D8CB45450C
:1049D000EFE0BFD113058007EFB01F8D1305100B5B
:1049E000EFE0BFD085450545EFC07FF39305C002DA
:1049F0000545EFC0DFF29305D0020545EFC03FF259
:104A00001305200BEFE07FCE85450545EFC03FF154
:104A10009305C0020545EFC09FF09305D002054500
:104A2000EFC0FFEF1305300BEFE03FCC85450545A8
:104A3000EFC0FFEE9305C0020545EFC05FEE9305A2
:104A4000D0020545EFC0BFED85450545EFC03FED00
:104A50009305C0020545EFC09FEC9305D0020545C4
:104A6000EFC0FFEB1305400BEFE03FC89D45054548
:104A7000EFC0FFEA1305000CEFE03FC79305200AE3
:104A80000545EFC0DFE989450545EFC05FE99305BE
:104A900040080545EFC0BFE81305100CEFE0FFC468
:104AA0009305500C0545EFC09FE71305200CEFE080
:104AB000DFC3A9450545EFC09FE681450545EFC029
:104AC0001FE61305300CEFE05FC29305A008054513
:104AD000EFC0FFE49305A0020545EFC05FE41305B6
:104AE000400CEFE09FC09305A0080545EFC03FE3F1
:104AF0009305E00E0545EFC09FE21305500CEFE073
:104B0000DFBEB9450545EFC09FE113056003EFE047
:104B1000DFBD83A7C18805476380E70281CB0947D2
:104B20006381E7020D476384E70205A89305000C43
:104B30000545EFC0DFDE15A081450545EFC03FDE2E
:104B400029A89305000A0545EFC07FDD39A093052C
:104B500000060545EFC0BFDC01001305000EEFE0C5
:104B6000DFB8BD450545EFC09FDBE9450545EFC012
:104B70001FDBBD450545EFC09FDAE1450545EFC0A8
:104B80001FDA9305F0020545EFC07FD99305800237
:104B90000545EFC0DFD8930500020545EFC03FD8BB
:104BA000930520020545EFC09FD7FD450545EFC0A1
:104BB0001FD7ED450545EFC09FD69305300205454B
:104BC000EFC0FFD5930570030545EFC05FD5814564
:104BD0000545EFC0DFD49D450545EFC05FD489454D
:104BE0000545EFC0DFD3C1450545EFC05FD31305D1
:104BF000100EEFE09FAFBD450545EFC05FD2ED451C
:104C00000545EFC0DFD1BD450545EFC05FD1DD45AE
:104C10000545EFC0DFD0930530030545EFC03FD019
:104C20009305C0020545EFC09FCF9305900205454F
:104C3000EFC0FFCE9305E0020545EFC05FCE9305C0
:104C400000030545EFC0BFCD930500030545EFC048
:104C50001FCD930590030545EFC07FCC9305F0036E
:104C60000545EFC0DFCB81450545EFC05FCB9D45D6
:104C70000545EFC0DFCA8D450545EFC05FCAC14598
:104C80000545EFC0DFC91305A002EFE01FA681456F
:104C90000545EFC0DFC889450545EFC05FC88145C0
:104CA0000545EFC0DFC7930520080545EFC03FC7A6
:104CB0001305B002EFE07FA381450545EFC03FC675
:104CC0008D450545EFC0BFC581450545EFC03FC5D2
:104CD000930530080545EFC09FC41305000FEFE0B2
:104CE000DFA085450545EFC09FC31305600FEFE0CA
:104CF000DF9F81450545EFC09FC21305A003EFE08C
:104D0000DF9E95450545EFC09FC113059002EFE07A
:104D1000DF9DB707002093870704DC47414798CB06
:104D2000EFE0DFC7EFE03FBF0100B24022444101A6
:104D30008280411122C60008010032444101828074
:104D4000011122CE00102326A4FE2324B4FE232228
:104D5000C4FE0327C4FE23A8E188832744FE81C73D
:104D6000832744FE29A0B7570000938727D323AC9D
:104D7000F180832784FE81C7832784FE29A0B7574B
:104D80000000938727D323AAF180010072440561B4
:104D90008280411122C60008B71702409843B71716
:104DA00002401367170098C3B7170240D443B717E0
:104DB00002403707FFF8758FD8C3B71702409443F6
:104DC000B71702403707F7FE7D17758F98C3B717DF
:104DD00002409443B71702403707FCFF7D17758FD9
:104DE00098C3B7170240D443B7170240370781FF73
:104DF0007D17758FD8C3B717024037079F0098C734
:104E00000100324441018280797106D622D4001813
:104E1000232EA4FCEFF0FFF7232604FE232404FE38
:104E2000B71702409443B71702404167558F98C3A4
:104E3000B71702409843B7070200F98F2324F4FE06
:104E40008327C4FE85072326F4FE832784FE91E78B
:104E50000327C4FE8567E31DF7FCB717024098439C
:104E6000B7070200F98F89C785472324F4FE19A0EC
:104E7000232404FE032784FE85476312F7163717A1
:104E80000240B71702405843D8C337170240B7173C
:104E900002405843D8C337170240B717024058435F
:104EA000D8C3B7170240D443B71702403707C1FF32
:104EB0007D17758FD8C30327C4FDB747950893871F
:104EC0000740631BF700B7170240D443B7170240EF
:104ED0004167558FD8C355A80327C4FDB7172707C7
:104EE000938707E0631CF700B7170240D443B71756
:104EF000024037073900558FD8C341A80327C4FDA6
:104F0000B7E7B80593870780631CF700B71702401F
:104F1000D443B717024037072900558FD8C3B5A02F
:104F20000327C4FDB7A74A0493870720631CF70033
:104F3000B7170240D443B717024037071D00558FFB
:104F4000D8C3A1A00327C4FDB777DC02938707C0AD
:104F5000631CF700B7170240D443B7170240370766
:104F60001100558FD8C315A00327C4FDB7376E01B4
:104F700093870760631BF700B7170240D443B71746
:104F8000024037070500558FD8C3B7170240944336
:104F9000B717024037070001558F98C30100B717B4
:104FA00002409843B7070002F98FF5DBB7170240BC
:104FB000D843B7170240719BD8C3B7170240D843F4
:104FC000B717024013672700D8C30100B717024084
:104FD000DC4313F7C700A147E31AF7FE11A001A0B5
:104FE000B250225445618280011106CE22CC0010BD
:104FF0002326A4FE0327C4FE23A2E182EFF07FD97B
:105000000325C4FEEFF05FE0EF20603D0100F240B9
:10501000624405618280411122C60008010001003E
:10502000324441018280011106CE22CC0010232699
:1050300004FE232404FE232604FE2DA0232404FEC4
:1050400001A8EFF05FFD832784FE85072324F4FE8B
:10505000032784FEC167E366F7FE8327C4FE850746
:105060002326F4FE0327C4FE9307F00FE3F8E7FCC2
:105070000100F240624405618280411122C60008AD
:105080000100324441018280011106CE22CC001081
:105090002326A4FE8325C4FE0945EFD00FA80100F6
:1050A000F240624405618280130101D92326112652
:1050B0002324812623229126801C232EA4D8232C4E
:1050C000B4D8232AC4D82328D4D8231504FE231403
:1050D00004FE231304FE231204FE231104FE032501
:1050E00084D9EF00017FAA87C207C1872313F4FE8A
:1050F000B767002083D747EF99C7B767002093872A
:1051000047EF9C4B829783C7518993F7F70F6385CD
:10511000074EB767002083D747EF63890746B76715
:105120000020938747EFD447835724FE1397070146
:10513000418793170701C1838507C207C183C2074F
:10514000C1872311F4FE93170701C1830326C4D935
:10515000BE8501458296832784D92326F4FE032544
:1051600084D9EF000177AA87C207C1872313F4FE11
:10517000B7670020938747EF83D727003E87B7673D
:105180000020938747EF83C76700B347F702C20742
:10519000C1872312F4FE01008327C4FE1387170082
:1051A0002326E4FE83870700E5FB231404FEA1A861
:1051B0008327C4FEFD172326F4FE8327C4FE03873E
:1051C00007009307F002630AF7008327C4FE0387F2
:1051D00007009307C005631BF700835784FEC207CF
:1051E000C1838507C207C1832314F4FE835764FE7D
:1051F000C207C187C207C183FD17C207C183C207A7
:10520000C1872313F4FE835784FE1397070141835C
:10521000854763E8E700835764FEC207C187E3D987
:1052200007F8835764FEC207C18763C2070283275A
:10523000C4FE85072326F4FE130704EE0326C4FEEE
:10524000E5679385878F3A85EF0041641DA88357F2
:1052500084FEC207C18381EF130704EE0326C4FE58
:10526000E567938547903A85EF00416219A81307D7
:1052700004EE0326C4FEE5679385878F3A85EF0029
:10528000E160231504FE05A2231404FE59A0930730
:1052900004EE3E85EF00E1632A87835784FEC20750
:1052A000C183BE868357A4FEC207C1833E8683574F
:1052B00044FEC207C187B307F602B6976367F706D5
:1052C000835784FEC207C1833E878357A4FEC2076B
:1052D000C183BE86835744FEC207C187B387F602E7
:1052E000BA97035784FE42074183BA86130704FF27
:1052F000BA97038707EF930704FFB6972388E7EA77
:10530000835784FEC207C1838507C207C183231464
:10531000F4FE835784FEC207C1833E87835744FE51
:10532000C207C187E345F7F611A00100835784FE49
:10533000C207C183130704FFBA97238807EAB76738
:105340000020938747EF03A8C700B7670020938723
:1053500047EF83C77700139707014183835724FEE4
:1053600093960701C18693970601C1838507C207FB
:10537000C183C207C1872311F4FE93970601C1833D
:10538000B307F702C207C183130704EA3A86BE8552
:10539000014502988357A4FEC207C1838507C2074F
:1053A000C1832315F4FE8357A4FEC207C183BE84C4
:1053B000930704EE3E85EF00C1512A87835744FED0
:1053C000C207C187B357F7028507E3EFF4EA130773
:1053D00004EE032644D9E567938547913A85EF00AB
:1053E000E14AB7670020938747EF03A8C700B76774
:1053F0000020938747EF83C7770013970701418306
:10540000835724FE93960701C18693970601C183B3
:105410008507C207C183C207C1872311F4FE939792
:105420000601C183B307F702C207C183130704EE65
:105430003A86BE8501450298832704D9638E071AF0
:10544000231504FE05A2231404FE59A0032504D944
:10545000EF0021482A87835784FEC207C183BE8696
:105460008357A4FEC207C1833E86835744FEC2070A
:10547000C187B307F602B6976368F706835784FEC1
:10548000C207C1833E878357A4FEC207C183BE867D
:10549000835744FEC207C187B387F602BA973E8797
:1054A000832704D9BA97035784FE42074183BA86FB
:1054B00003870700930704FFB6972388E7EA83571B
:1054C00084FEC207C1838507C207C1832314F4FE8B
:1054D000835784FEC207C1833E87835744FEC207B9
:1054E000C187E345F7F611A00100835784FEC20788
:1054F000C183130704FFBA97238807EAB767002020
:10550000938747EF03A8C700B7670020938747EF4B
:1055100083C77700139707014183835724FE93962F
:105520000701C18693970601C1838507C207C1831E
:10553000C207C1872311F4FE93970601C183B30705
:10554000F702C207C183130704EA3A86BE85014504
:1055500002988357A4FEC207C1838507C207C1838F
:105560002315F4FE8357A4FEC207C183BE8403251E
:1055700004D9EF0001362A87835744FEC207C1874A
:10558000B357F7028507E3E0F4ECBDA0930704DA14
:105590001306001081453E85EFA09FC6B767002027
:1055A000938747EF9C470325C4D98297832704D963
:1055B00099CF130504DA032704D9832644D9032697
:1055C00084D9E56793850792EF00412C29A813073A
:1055D00004DA832644D9032684D9E5679385C793E3
:1055E0003A85EF00A12AB7670020938747EF9847D5
:1055F000930704DA3E85029701008320C126032425
:10560000812683244126130101278280411106C689
:1056100022C4000883C7518993F7F70F99CF938568
:1056200041890945EFC0BFDD054693854189B767CC
:105630000020138587EDEF00B02D0100B240224419
:1056400041018280797106D622D40018232EA4FC51
:10565000232CB4FC232AC4FC232604FEA9A00100A9
:10566000E567938787D79C47930500043E85EF4005
:105670007067AA87F5D7E567938787D79C47BE866B
:10568000832784FD13871700232CE4FC83870700FE
:10569000C207C183BE853685EF40F0618327C4FE13
:1056A00085072326F4FE0327C4FE832744FDE34831
:1056B000F7FA832744FD3E85B2502254456182802B
:1056C000011106CE22CC0010AA872324B4FE232287
:1056D000C4FEA307F4FE8347F4FEB1E383C78182CF
:1056E00093F7F70F8DCF83C7618991C301A083C75B
:1056F0006189850713F7F70F238BE188EF10704B53
:10570000EFF0BF978146032644FE832584FEE567BC
:1057100013854795EFF05F99EFF0FF90E5B7010033
:10572000F240624405618280011106CE22CC001055
:10573000AA872324B4FE2322C4FE2320D4FEA30779
:10574000F4FE8347F4FE95E383C7518993F7F70F7F
:1057500091CF832684FE032604FE832544FEE5675D
:1057600013854796EFF05F9411A001000100F2400D
:10577000624405618280011122CE00102326A4FE1E
:105780008327C4FE239007008327C4FE7D572391FF
:10579000E7008327C4FE7D572392E7008327C4FEDA
:1057A0007D572383E7008327C4FE7D57A383E7004B
:1057B0008327C4FE23A407008327C4FE23A6070073
:1057C0008327C4FE23A8070001007244056182807C
:1057D000011122CE00102326A4FE8327C4FE03D786
:1057E0000700B7670020239AE7EE8327C4FE03D79C
:1057F0002700B7670020938747EF2391E7008327AF
:10580000C4FE03D74700B7670020938747EF239272
:10581000E7008327C4FE03C76700B76700209387AC
:1058200047EF2383E7008327C4FE03C77700B767EA
:105830000020938747EFA383E7008327C4FE9847A0
:10584000B7670020938747EF98C78327C4FED847E0
:10585000B7670020938747EFD8C78327C4FE984BCC
:10586000B7670020938747EF98CB0547A38AE18865
:105870000100724405618280797106D622D4001835
:105880009307C4FD3E85EFF01FEFB75700009387E5
:1058900087082322F4FE9307C4FD3E85EFF05FF3F3
:1058A00089679386B70289671386A702F167938594
:1058B00007200945EFC09FBA93060004B767002090
:1058C000138687E98145B7670020138587EDEF10C0
:1058D000003D85450945EFC05FAA0100B250225442
:1058E00045618280011122CE00102326A4FE2324CC
:1058F000B4FE8327C4FE03C7970083C6A700A20691
:10590000558F83C6B700C206558F83C7C700E2070D
:10591000D98F3E87832784FE3E978327C4FE9375E5
:10592000F70F83C69700818A3686AE86D18EA38410
:10593000D7009356870093F5F60F83C6A700818A98
:105940003686AE86D18E2385D7009356070193F510
:10595000F60F83C6B700818A3686AE86D18EA385C0
:10596000D7001356870103C7C700018BBA86328759
:10597000558F2386E70055A08327C4FE03C79700F1
:1059800083C6A700A206558F83C6B700C206558FEF
:1059900083C7C700E207D98F3E868327C4FE03C7AB
:1059A000570183C66701A206558F83C67701C206D9
:1059B000558F83C78701E207D98F3307F6408327C6
:1059C000C4FE9375F70F83C69700818A3686AE862C
:1059D000D18EA384D7009356870093F5F60F83C624
:1059E000A700818A3686AE86D18E2385D70093564E
:1059F000070193F5F60F83C6B700818A3686AE8617
:105A0000D18EA385D7001356870103C7C700018B2A
:105A1000BA863287558F2386E7008327C4FE03C7E3
:105A2000570183C66701A206558F83C67701C20658
:105A3000558F83C78701E207D98F3E868327C4FE2F
:105A400003C7970083C6A700A206558F83C6B70079
:105A5000C206558F83C7C700E207D98FE3FEC7F0A0
:105A60000100724405618280011122CE00102326BC
:105A7000A4FE2324B4FE8327C4FE03C7D70083C635
:105A8000E700A206558F83C6F700C206558F83C76D
:105A90000701E207D98F3E87832784FE3E9783273D
:105AA000C4FE9375F70F83C6D700818A3686AE860B
:105AB000D18EA386D7009356870093F5F60F83C641
:105AC000E700818A3686AE86D18E2387D70093562B
:105AD000070193F5F60F83C6F700818A3686AE86F6
