:100000006F60F07D1300000013000000130000007B
:100010001300000013000000130000001300000094
:100020001300000013000000130000001300000084
:08003000130000007300100032
:100038000000000000000000AE6E0000BE6E000070
:1000480000000000246F0000000000000000000015
:10005800266F0000286F000000000000000000006C
:100068002A6F0000000000002C6F00000000000054
:100078002E6F0000306F0000326F0000346F0000F8
:10008800366F0000386F0000766100002A620000B9
:10009800DE6200009263000046640000446F0000C6
:1000A800466F0000486F00004A6F00004C6F000068
:1000B8004E6F0000506F0000526F0000546F000038
:1000C800566F0000586F00005A6F0000FA64000075
:1000D8005E6F000044670000626F0000646F0000FC
:1000E80004680000BE6800007E6900006C6F0000B4
:1000F8006E6F0000706F0000726F0000746F000078
:10010800766F0000825A0000465B00000A5C00001F
:1001180012660000806F0000826F0000846F00008C
:10012800766C0000886F00008A6F00008C6F0000FA
:100138008E6F0000906F00003E6A0000946F000010
:10014800D25C0000965D0000FE6A0000B66B0000FD
:100158009E6F0000A06F0000A26F0000A46F000057
:10016800A66F0000A86F0000AA6F0000AC6F000027
:10017800AE6F0000B06F0000B26F0000F6810000A3
:10018800B66F0000B86F0000A6600000585E00005F
:100198001C5F0000E65F0000C26F0000366D0000C3
:1001A800C66F0000C86F0000CA6F0000F66D00003F
:1001B800CE6F0000D06F0000D26F0000D46F000037
:1001C800D66F0000D86F0000DA6F0000DC6F000007
:1001D8000000000000000000000000000000000017
:1001E8000000000000000000000000000000000007
:0801F8000000000000000000FF
:100200003D432A876373C3029377F700BDEFADE5E3
:10021000937606FF3D8ABA960CC34CC30CC74CC7F5
:100220004107E36BD7FE11E28280B306C3408A0622
:100230009702000096966780A6002307B700A306E2
:10024000B7002306B700A305B7002305B700A30432
:10025000B7002304B700A303B7002303B700A3022A
:10026000B7002302B700A301B7002301B700A30022
:10027000B7002300B700828093F5F50F93968500B1
:10028000D58D93960501D58D61B79396270097027A
:10029000000096968682E78086FA9680C1171D8FA9
:1002A0003E96E374C3F8A5B7011122CE00102326B1
:1002B000A4FE37F500E08328450037F500E093F809
:1002C000E8FF2322150183A841820965130505F47F
:1002D00033D5A802AA8601470325C4FEAA87014890
:1002E00037F500E03303F702B308D8029A98338356
:1002F000F60233B6F6029A85B387C8003E860CC96B
:1003000050C9B7F700E09843B7F700E0136707015B
:1003100098C3B7F700E09843B7F700E013671702F8
:1003200098C30100B7F700E0DC4313F717008547D7
:10033000E31AF7FEB7F700E09843B7F700E0799BC0
:1003400098C30100724405618280011106CE22CC5F
:100350000010AA8E2E8E32833685BA853E86C286DE
:100360004687F687A307F4FEF2872307F4FE9A87F1
:10037000A306F4FEAA872306F4FEAE87A305F4FEC7
:10038000B2872305F4FEB687A304F4FEBA872304DC
:10039000F4FE8347F4FE93068004014681453E85C2
:1003A000AD2A8347E4FE93068004014681453E85DD
:1003B000AD228347D4FE93068004014681453E85E5
:1003C000A92A8347C4FE93068004014681453E85E1
:1003D000A9228347B4FE93068004014681453E85E9
:1003E0002D2A8347A4FE93068004014681453E855D
:1003F0002D22834794FE93068004014681453E8565
:10040000292A834784FE93068004014681453E8560
:1004100029228347440093068004014681453E8596
:10042000ED288347040093068004014681453E85FC
:10043000ED208347840093068004014681453E8574
:10044000E9280100F240624405618280011106CE74
:1004500022CC00102326A4FE2324B4FEB2873687C4
:100460002313F4FEBA872312F4FE85450965EF7065
:100470000036B70705500D472380E700B707055042
:100480000547A380E700B7070550035744FE2392B2
:10049000E700B7070550035764FE2393E700B7074B
:1004A00005500327C4FE98C7B7070550032784FEED
:1004B000D8C7B707055011472381E70081451305C9
:1004C0006005EF50005213056005EF50C04D01006C
:1004D000F240624405618280011122CE0010232681
:1004E000A4FE8327C4FE958313F77700B707002087
:1004F0000A0793870704BA979C439C470327C4FEC7
:100500007D8B85463397E600F98FB337F00093F77C
:10051000F70F3E85724405618280797106D622D438
:100520000018232EA4FC232CB4FCB2872328D4FC6F
:10053000A30BF4FC232004FE232204FE232404FE48
:100540008327C4FD958393F7F70F9D8BA307F4FED4
:100550008327C4FD93F7F70FFD8B2307F4FE834732
:10056000F4FE91E785451145EF70C02A91A8034735
:10057000F4FE85476317F70085452145EF70802914
:1005800081A00347F4FE89476317F700854541457D
:10059000EF70402835A00347F4FE8D476318F7003D
:1005A000854513050002EF70E02619A80347F4FE05
:1005B00091476317F700854513050004EF70802508
:1005C0008347E4FE0547B317F700C207C183231032
:1005D000F4FE032784FD85476317F702832704FD94
:1005E000C207C183A183C207C18389E78D47232244
:1005F000F4FE11A8832704FDC207C183A183C207AB
:10060000C1832322F4FE832704FDC207C18393F72D
:10061000F70F2324F4FE0347F4FEB70700200A0770
:1006200093870704BA979C43130704FEBA853E8557
:10063000EF60F02A032784FD85476319F70203471B
:10064000F4FEB70700200A0793870704BA9794437C
:100650008347E4FE0547B317F700C207C18303478A
:1006600074FD3A86BE853685EF60104A0100B250AF
:10067000225445618280797106D622D40018232E37
:10068000A4FC8327C4FDB337F00093F7F70F3E8730
:1006900013061004E567938587D13A85EF30D022A1
:1006A0008327C4FD9C43BD8B0547B317F700939682
:1006B0000701C1828327C4FD9C4313D75700B707A6
:1006C00000200A0793870704BA979C43368798CB84
:1006D0008327C4FDDC43BD8B0547B317F700939612
:1006E0000701C1828327C4FDDC4313D75700B70736
:1006F00000200A0793870704BA979C43368798CB54
:100700008327C4FDDC472326F4FE01008327C4FEB3
:100710001387F7FF2326E4FEF5FB8327C4FDDC43A4
:10072000BD8B0547B317F70093960701C182832756
:10073000C4FDDC4313D75700B70700200A0793878F
:100740000704BA979C433687D8CB8327C4FDDC4780
:100750002324F4FE0100832784FE1387F7FF23245C
:10076000E4FEF5FB8327C4FD9C43BD8B0547B3170F
:10077000F70093960701C1828327C4FD9C4313D7DA
:100780005700B70700200A0793870704BA979C43CE
:100790003687D8CB0100B2502254456182807971EE
:1007A00006D622D40018232EA4FC8327C4FDB33719
:1007B000F00093F7F70F3E8713064005E567938532
:1007C00087D13A85EF3050108327C4FDDC43BD8BC1
:1007D0000547B317F70093960701C1828327C4FD2D
:1007E000DC4313D75700B70700200A079387070495
:1007F000BA979C433687D8CB8327C4FD9C43BD8BD7
:100800000547B317F70093960701C1828327C4FDFC
:100810009C4313D75700B70700200A0793870704A4
:10082000BA979C433687D8CB8327C4FDDC47232661
:10083000F4FE01008327C4FE1387F7FF2326E4FE9E
:10084000F5FB8327C4FD9C43BD8B0547B317F70019
:1008500093960701C1828327C4FD9C4313D7570099
:10086000B70700200A0793870704BA979C43368787
:1008700098CB8327C4FDDC472324F4FE01008327A3
:1008800084FE1387F7FF2324E4FEF5FB8327C4FDD2
:10089000DC43BD8B0547B317F70093960701C18270
:1008A0008327C4FDDC4313D75700B70700200A078E
:1008B00093870704BA979C43368798CB8327C4FD58
:1008C000DC472322F4FE0100832744FE1387F7FF51
:1008D0002322E4FEF5FB0100B250225445618280E0
:1008E000797106D622D40018232EA4FCAE87A30D5E
:1008F000F4FC8327C4FDB337F00093F7F70F3E876E
:1009000013069006E567938587D13A85EF30C07B63
:100910008327C4FD9C43BD8B0547B317F70093960F
:100920000701C1828327C4FD9C4313D75700B70733
:1009300000200A0793870704BA979C433687D8CBD1
:100940008347B4FD95CB8327C4FDDC43BD8B0547AE
:10095000B317F70093960701C1828327C4FDDC43D8
:1009600013D75700B70700200A0793870704BA97E1
:100970009C43368798CB0DA88327C4FDDC43BD8BF1
:100980000547B317F70093960701C1828327C4FD7B
:10099000DC4313D75700B70700200A0793870704E3
:1009A000BA979C433687D8CB8327C4FDDC472326E0
:1009B000F4FE01008327C4FE1387F7FF2326E4FE1D
:1009C000F5FB8327C4FD9C43BD8B0547B317F70098
:1009D00093960701C1828327C4FD9C4313D7570018
:1009E000B70700200A0793870704BA979C43368706
:1009F00098CB8327C4FDDC472324F4FE0100832722
:100A000084FE1387F7FF2324E4FEF5FB8327C4FD50
:100A10009C43BD8B0547B317F70093960701C1822E
:100A20008327C4FD9C4313D75700B70700200A074C
:100A300093870704BA979C433687D8CB8327C4FD96
:100A4000DC43BD8B0547B317F70093960701C182BE
:100A50008327C4FDDC4313D75700B70700200A07DC
:100A600093870704BA979C43368798CB0100B2500E
:100A7000225445618280797106D622D40018232E33
:100A8000A4FC8327C4FDB337F00093F7F70F3E872C
:100A900013065008E567938587D13A85EF30C06229
:100AA000A30704FE8327C4FD9C43BD8B0547B317F2
:100AB000F70093960701C1828327C4FD9C4313D797
:100AC0005700B70700200A0793870704BA979C438B
:100AD0003687D8CB8327C4FDDC43BD8B0547B317CE
:100AE000F70093960701C1828327C4FDDC4313D727
:100AF0005700B70700200A0793870704BA979C435B
:100B0000368798CB8327C4FDDC472324F4FE0100FD
:100B1000832784FE1387F7FF2324E4FEF5FB832756
:100B2000C4FD9C43BD8B0547B317F700939607019F
:100B3000C1828327C4FD9C4313D75700B707002009
:100B40000A0793870704BA979C43368798CB832775
:100B5000C4FDDC472322F4FE0100832744FE1387F3
:100B6000F7FF2322E4FEF5FB8327C4FDDC433E852B
:100B7000A532AA8781C78547A307F4FE8327C4FD52
:100B80009C43BD8B0547B317F70093960701C182BD
:100B90008327C4FD9C4313D75700B70700200A07DB
:100BA00093870704BA979C433687D8CB8327C4FD25
:100BB000DC472320F4FE0100832704FE1387F7FFA0
:100BC0002320E4FEF5FB8347F4FE3E85B250225419
:100BD00045618280797106D622D40018232EA4FCA8
:100BE000AE87A30DF4FC8327C4FDB337F00093F761
:100BF000F70F3E871306700AE567938587D13A851C
:100C0000EF30804C930700F8A307F4FE09AA0347CE
:100C1000B4FD8347F4FEF98F93F7F70F95CB832745
:100C2000C4FDDC43BD8B0547B317F700939607015E
:100C3000C1828327C4FDDC4313D75700B7070020C8
:100C40000A0793870704BA979C43368798CB0DA869
:100C50008327C4FDDC43BD8B0547B317F70093968C
:100C60000701C1828327C4FDDC4313D75700B707B0
:100C700000200A0793870704BA979C433687D8CB8E
:100C80008347F4FE8583A307F4FE8327C4FDDC4776
:100C90002324F4FE0100832784FE1387F7FF232417
:100CA000E4FEF5FB8327C4FD9C43BD8B0547B317CA
:100CB000F70093960701C1828327C4FD9C4313D795
:100CC0005700B70700200A0793870704BA979C4389
:100CD000368798CB8327C4FDDC472322F4FE01002E
:100CE000832744FE1387F7FF2322E4FEF5FB8327C7
:100CF000C4FD9C43BD8B0547B317F70093960701CE
:100D0000C1828327C4FD9C4313D75700B707002037
:100D10000A0793870704BA979C433687D8CB834743
:100D2000F4FEE39607EE0325C4FDB133AA87FD1751
:100D3000B337F00093F7F70F3E85B2502254456168
:100D40008280397106DE22DC26DA80002326A4FCAC
:100D5000AE87A305F4FC8327C4FCB337F00093F7F8
:100D6000F70F3E871306000CE567938587D13A8518
:100D7000EF308035A30704FEA1472307F4FE832745
:100D8000C4FC9C43BD8B0547B317F700939607013E
:100D9000C1828327C4FC9C4313D75700B7070020A8
:100DA0000A0793870704BA979C433687D8CB8327D3
:100DB000C4FCDC472324F4FE0100832784FE138750
:100DC000F7FF2324E4FEF5FB8327C4FCDC43BD8B43
:100DD0000547B317F70093960701C1828327C4FC28
:100DE000DC4313D75700B70700200A07938707048F
:100DF000BA979C43368798CB7DA88327C4FC9C4335
:100E0000BD8B0547B317F70093960701C18283276F
:100E1000C4FC9C4313D75700B70700200A079387E9
:100E20000704BA979C433687D8CB8327C4FCDC479A
:100E30002322F4FE0100832744FE1387F7FF2322B9
:100E4000E4FEF5FB8327C4FC9C43BD8B0547B31729
:100E5000F70093960701C1828327C4FC9C4313D7F4
:100E60005700B70700200A0793870704BA979C43E7
:100E7000368798CB8327C4FCDC472320F4FE01008F
:100E8000832704FE1387F7FF2320E4FEF5FB834747
:100E9000F4FE860793948701E1848327C4FCDC4336
:100EA0003E85EFF06FE3AA87E207E187C58FE2078F
:100EB000E187A307F4FE8347E4FE1387F7FF2307C8
:100EC000E4FE85FF8327C4FC9C43BD8B0547B31715
:100ED000F70093960701C1828327C4FC9C4313D774
:100EE0005700B70700200A0793870704BA979C4367
:100EF0003687D8CB8327C4FCDC47232EF4FC0100C3
:100F00008327C4FD1387F7FF232EE4FCF5FB8347FB
:100F1000B4FCBE850325C4FCE1328347F4FE3E8564
:100F2000F2506254D25421618280011106CE22CC4B
:100F300000102326A4FEAE873287A305F4FEBA87ED
:100F40002305F4FE8327C4FEB337F00093F7F70FB1
:100F50003E8713062029E567938587D13A85EF30D0
:100F6000A0160325C4FEEFF00FF18327C4FE83C74C
:100F70008700860793F7F70FBE850325C4FE9939CE
:100F80008347B4FEBE850325C4FEA9318347A4FE72
:100F9000BE850325C4FE3D390325C4FEEFF03F8026
:100FA0000100F240624405618280797106D622D444
:100FB0000018232EA4FCAE87A30DF4FC8327C4FDE8
:100FC000B337F00093F7F70F3E871306402AE56723
:100FD000938587D13A85EF30200FA30704FE0325C0
:100FE000C4FDEFF04FE98327C4FD83C78700860760
:100FF00093F7F70FBE850325C4FDE93E8347B4FD93
:10100000BE850325C4FDF9360325C4FDEFF02FF995
:101010000325C4FDEFF02FE68327C4FD83C78700B7
:101020008607E207E18793E71700E207E18793F776
:10103000F70FBE850325C4FD713E85450325C4FD1C
:101040000933AA87A307F4FE0325C4FDEFF02FF5AB
:101050008347F4FE3E85B250225445618280797107
:1010600006D622D400182326A4FEAE872322C4FE6F
:101070002320D4FE232EE4FCA305F4FE8327C4FE24
:10108000B337F00093F7F70F3E871306F02BE567B1
:10109000938587D13A85EF302003032704FE832709
:1010A000C4FDB307F740B337F00093F7F70F3E875F
:1010B0001306002CE567938587D13A85EF30C00091
:1010C0008327C4FE032704FE98C38327C4FE032797
:1010D000C4FDD8C38327C4FE0347B4FE2384E700BE
:1010E0008327C4FE032744FED8C7C146054685456D
:1010F000032504FEEFF06FC2D14605468545032562
:10110000C4FDEFF08FC10100B250225445618280CE
:10111000011122CE00102326A4FEAE87A305F4FE03
:10112000E5670327C4FE0A0793878740BA979C4365
:101130003E878347B4FEC207C1832316F700010030
:10114000E5670327C4FE0A0793878740BA979C4345
:1011500083D78700C207C18393F70708F5F301001F
:10116000724405618280011122CE00102326A4FE64
:10117000AE872315F4FE8357A4FEA183C207C18363
:1011800093F6F70FE5670327C4FE0A0793878740A6
:10119000BA979C433E8793970601C1832316F700B5
:1011A0000100E5670327C4FE0A0793878740BA97C3
:1011B0009C4383D78700C207C183898BFDD38357A4
:1011C000A4FE93F6F70FE5670327C4FE0A0793878B
:1011D0008740BA979C433E8793970601C1832316A5
:1011E000F7000100E5670327C4FE0A0793878740DD
:1011F000BA979C4383D78700C207C18393F7070838
:10120000F5F301007244056182805D7186C6A2C457
:1012100080082326A4FC2324B4FC2322C4FC23201E
:10122000D4FC232EE4FA232CF4FA232A04FBE567EA
:101230000327C4FC0A0793878740BA979C433E85DF
:10124000EF60C06E85450545EF60C05C032704FC78
:1012500093073012631DF7000327C4FB9307501256
:101260006317F70085450545EF60800D25A003272E
:1012700004FC89679387A714631EF7000327C4FB48
:1012800089679387C7146317F700854537152000D2
:10129000EF60000B8327C4FC91E785450565EF608F
:1012A000605725A00327C4FC85476317F7008545D1
:1012B0001165EF60805A11A80327C4FC89476316A3
:1012C000F70085452165EF604059832704FC93F7BB
:1012D000F70F93068031054685453E85EFF0EFA375
:1012E0008327C4FB93F7F70F9306803105468545A6
:1012F0003E85EFF08FA2032784FBC167F917630DCA
:10130000F700832784FB93F7F70F93068034054695
:1013100081453E85EFF06FA0032744FB9307F00F54
:10132000630DF700832744FB93F7F70F9306003113
:10133000014685453E85EFF04F9E232E04FC232079
:1013400004FE232204FE232404FE231604FE231E8F
:1013500004FC93074010231FF4FC231004FE032712
:1013600084FC85476305F702832784FC81CF03272C
:1013700084FC89476303F702032784FC8D476304D9
:10138000F7020DA8231104FE231204FE25A0231149
:1013900004FE85472312F4FE31A889472311F4FE89
:1013A000231204FE01A889472311F4FE8547231266
:1013B000F4FE0100231704FE03A74182832744FCA7
:1013C000B357F7022317F4FE03A74182832744FC97
:1013D000B377F70291E78357E4FEFD172317F4FE76
:1013E0000357E4FE9307F00763F7E70093078003D2
:1013F0002317F4FE49A80357E4FE9307F00363F7AD
:10140000E700930700032317F4FEB5A80357E4FE93
:10141000FD4763F7E700930780022317F4FEA5A0BA
:101420000357E4FEBD4763F7E70093070002231765
:10143000F4FE91A80357E4FE9D4763F6E700E147F9
:101440002317F4FE89A00357E4FE8D4763F6E700F7
:10145000C1472317F4FE05A80357E4FE854763F64A
:10146000E700A1472317F4FE39A88357E4FE81C79C
:10147000231704FE09A813068022E5679385C7DABF
:101480000145EF2070448357E4FE2314F4FE9307D4
:1014900000202313F4FE231504FE231604FEE56743
:1014A0000327C4FC0A0793878740BA979C433E876B
:1014B0009307C4FDBE853A85EF60A04EE56703271C
:1014C000C4FC0A0793878740BA979C4385453E85AD
:1014D000EF60A05C0100B6402644616182807971B2
:1014E00022D60018232EA4FCB7370140938707C0EB
:1014F0002326F4FE231504FE0327C4FDA54763EC51
:10150000E7088327C4FD13972700E56793874741C2
:10151000BA979C438287B7370140938707C0232639
:10152000F4FE95A8B70700402326F4FEADA0B70748
:101530000040938707402326F4FEB1A8B717004068
:10154000938707802326F4FEB9A0B717004093873E
:1015500007C02326F4FE81A0B71700402326F4FE1F
:101560001DA8B7170040938707402326F4FE25A047
:10157000B7370140938707402326F4FE29A8B757C1
:101580000140938707C02326F4FE31A0B7570140DE
:101590002326F4FE01000327C4FD0A079387C193A5
:1015A000BA9798438947631FF7008327C4FE83D700
:1015B00047021397070141838D47B357F70223155D
:1015C000F4FE39A08327C4FE83D747022315F4FE17
:1015D0008357A4FE3E85325445618280797122D6BC
:1015E0000018232EA4FCB7370140938707C0232699
:1015F000F4FE0327C4FDA54763ECE7088327C4FD79
:1016000013972700E5679387C743BA979C43828760
:10161000B7370140938707C02326F4FE95A8B70784
:1016200000402326F4FEADA0B70700409387074093
:101630002326F4FEB1A8B71700409387078023261E
:10164000F4FEB9A0B7170040938707C02326F4FE25
:1016500081A0B71700402326F4FE1DA8B71700404D
:10166000938707402326F4FE25A0B73701409387D0
:1016700007402326F4FE29A8B7570140938707C0E7
:101680002326F4FE31A0B75701402326F4FE0100C3
:101690008327C4FE239207020100325445618280F1
:1016A000011122CE00102326A4FEAE87A305F4FE6E
:1016B0000100E5670327C4FE0A0793874746BA97E8
:1016C0009C4383D70700C207C18393F70708F5D36C
:1016D000E5670327C4FE0A0793874746BA979C43EA
:1016E0003E878347B4FEC207C1832312F70001007F
:1016F000724405618280011106CE22CC001023269F
:10170000A4FE2324B4FE2322C4FE832784FEB33721
:10171000F00093F7F70F3E8713061004E5679385F3
:10172000C7E33A85EF20501A29A8832784FE138740
:1017300017002324E4FE83C70700BE850325C4FEEB
:101740008537832744FE1387F7FF2322E4FEF1FF4A
:101750000100F240624405618280011106CE22CC74
:1017600000102326A4FE2324B4FE832784FEB3376F
:10177000F00093F7F70F3E8713060005E5679385A2
:10178000C7E33A85EF20501439A8832784FE1387D6
:1017900017002324E4FE8387070093F7F70FBE8525
:1017A0000325C4FEF53D832784FE83870700F1FFF0
:1017B0000100F240624405618280011106CE22CC14
:1017C00000102326A4FEAE87A305F4FEE5670327D9
:1017D000C4FE0A0793874746BA979C433E878347D0
:1017E000B4FE3E86930550523A85EF60C06313877E
:1017F000C1848327C4FEBA9783C7070081453E850D
:10180000EF40201E8347B4FE81CF1387C184832716
:10181000C4FEBA9783C707003E85EF40C01819A8D9
:101820001387C1848327C4FEBA9783C707003E8508
:10183000EF4040190100F2406244056182800111CD
:1018400022CE00102326A4FE2324B4FEE56703273E
:10185000C4FE0A0793874746BA979C4383D707007D
:10186000C207C18393F707028DC7E5670327C4FE4C
:101870000A0793874746BA979C4383D74700C20716
:10188000C18313F7F70F832784FE2380E700854782
:1018900011A081473E85724405618280797106D628
:1018A00022D40018232EA4FC232CB4FC232AC4FC2D
:1018B0002328D4FC032744FD832704FD3D8F832781
:1018C000C4FDB207F98F93B7170093F7F70F3E8760
:1018D0001306A00AE5679385C7E33A85EF20C07E2B
:1018E000832744FD13D78700832704FDA183B30713
:1018F000F74093B7170093F7F70F3E871306B00A28
:10190000E5679385C7E33A85EF20007C832744FD94
:1019100093F7F70FE146014685453E85EFE0FFBFAF
:10192000832704FD93F7F70F930680040146814552
:101930003E85EFE09FBE85450545EF50B06D03271E
:1019400044FDC167FD17F98F0D67130707386387DB
:10195000E7200D67130707386369F7040567130766
:1019600057166381E716056713075716636FF7006D
:101970001307F022638AE70C130760306381E710D6
:10198000130760126388E70865A60967130787369F
:10199000638BE7160D67130707126387E71809675C
:1019A0001307A7146380E71461A615671307A73808
:1019B000638EE72615671307A7386362F70211677E
:1019C000130787386380E72015671307871263853D
:1019D000E722116713074712638CE71A91AE196764
:1019E0001307C7386388E72A19671307C73863687E
:1019F000F7001967130767106384E72615AE1D67A4
:101A00001307E7106382E72C1D671307E738638726
:101A1000E72E39AEB7070140D44FB707014037076B
:101A200000FC7D17758FD8CFB7070140D843B707A3
:101A300001406D9BD8C3B7070140D843B7070140A9
:101A400013674700D8C3EDA4B7070140D44FB707C9
:101A50000140370700FC7D17758FD8CFB7070140CD
:101A6000D44FB707014037070004558FD8CFB707C9
:101A70000140D843B70701406D9BD8C355ACB707A9
:101A80000140D44FB7070140370700FC7D17758F21
:101A9000D8CFB7070140D44FB7070140370700043C
:101AA000558FD8CFB7070140D843B70701406D9B8A
:101AB000D8C3B7070140D843B707014013674700B1
:101AC000D8C3BDA4B7070140D843B70701405D9B09
:101AD000D8C3B7070140D843B70701401367870051
:101AE000D8C3B9A4B7070140D843B707014013775B
:101AF000F7FCD8C3B7070140D843B70701401367C5
:101B00000701D8C335A4B7070140D843B707014040
:101B10001377F7FCD8C3B7070140D843B707014094
:101B200013670703D8C329A4B7070140D44FB707E9
:101B300001403707FDFF7D17758FD8CFB7070140EC
:101B4000D44F832744FDA18313970701B7070300F0
:101B50007D8FB7070140558FD8CFD9AAB70701406D
:101B6000D44FB70701403707FDFF7D17758FD8CFDA
:101B7000B7070140D44F832744FDA1831397070182
:101B8000B70703007D8FB7070140558FD8CF4DA20F
:101B9000B7070140D44FB70701403707F4FF7D175F
:101BA000758FD8CFB7070140D44F832744FDA18359
:101BB00013972701B7070C007D8FB7070140558F9A
:101BC000D8CFBDA2B7070140D44FB70701403707B0
:101BD000F4FF7D17758FD8CFB7070140D44F832707
:101BE00044FDA18313972701B7070C007D8FB7072A
:101BF0000140558FD8CF2DAAB7070140D44FB70762
:101C000001403707D0FF7D17758FD8CFB707014048
:101C1000D44F832744FDA18313974701B7073000B2
:101C20007D8FB7070140558FD8CF19A2B707014064
:101C3000D44FB70701403707D0FF7D17758FD8CF36
:101C4000B7070140D44F832744FDA1831397470171
:101C5000B70730007D8FB7070140558FD8CFC9A88F
:101C6000B7070140D44FB7070140370740FF7D1742
:101C7000758FD8CFB7070140D44F832744FDA18388
:101C800013976701B707C0007D8FB7070140558FD5
:101C9000D8CF79A8B7070140D44FB707014037071D
:101CA00040FF7D17758FD8CFB7070140D44F8327EA
:101CB00044FDA18313976701B707C0007D8FB70765
:101CC0000140558FD8CFADA0B7070140D44FB7071B
:101CD0000140370700FD7D17758FD8CFB70701404A
:101CE000D44F832744FDA18313978701B7070003CF
:101CF0007D8FB7070140558FD8CF1DA8B70701408A
:101D0000D44FB7070140370700FD7D17758FD8CF37
:101D1000B7070140D44F832744FDA1831397870160
:101D2000B70700037D8FB7070140558FD8CF01005B
:101D30008327C4FD91E785451165EF50B02D69A853
:101D40000327C4FD85476318F70085453705020062
:101D5000EF50B03051A00327C4FD89476318F70046
:101D6000854537050400EF50502FBDA00327C4FD63
:101D70008D476318F700854537050800EF50F02DB3
:101D8000A1A80327C4FD91476318F70085453705CF
:101D90001000EF50902C89A00327C4FD95476318CD
:101DA000F700854513050004EF50302B35A00327BD
:101DB000C4FD99476318F700854513050008EF50E7
:101DC000D02919A80327C4FD9D476317F70085454F
:101DD00013050010EF507028232004FE232204FE78
:101DE000232404FE232604FE832784FD2320F4FEFF
:101DF000231204FE231304FE231404FE231604FE00
:101E0000B1472315F4FEE5670327C4FD0A0793874E
:101E10004746BA979C433E87930704FEBE853A85A2
:101E2000EF503057E5670327C4FD0A0793874746FD
:101E3000BA979C4385453E85EF50F0780100B2503B
:101E4000225445618280411106C622C4000883A73E
:101E500041860547638BE7006388070C0947638D5C
:101E6000E7000D47638FE702E9A083A70186138788
:101E7000170023A0E18675A883A7018613871700A2
:101E800023A0E18603A70186A54763F1E70AB70708
:101E90000020938707049C4B1167D8CB23A00186B1
:101EA00071A003A7818685476314F7081305F0081E
:101EB000EFE08FE2AA87ADC31945EFF04FE2AA87A2
:101EC0003E8783A701861D8F9307600963F2E706AB
:101ED0001945EFF0AFF083A70186D3F717D05385EC
:101EE000F720EF30213AE56703A607ED83A647ED1B
:101EF000EF10B17EAA872E883E85C285EF30412142
:101F0000AA87139707014183B7070020239CE7287E
:101F1000094723A4E18629A81945EFF04FDCAA87D9
:101F20003E8723A0E18629A0010021A0010011A085
:101F300001000100B240224441018280411106C6E5
:101F400022C4000883A741860947637CF7000D4738
:101F5000639AE7001945EFF06FE8054723A4E1868F
:101F600011A001000100B240224441018280011110
:101F700006CE22CC0010232204FE83C7D1866381C3
:101F8000071409A8930734FE0546BE8513854196BC
:101F9000EF207038930734FEBE851D45EFF03F8A71
:101FA000AA87EDF3034734FEA947631BF71099474F
:101FB0002322F4FE130744FE930784FE85463A86E7
:101FC000BE8513854196EF30A013930784FE1387D7
:101FD00037000D46E567938587ED3A85EF40A143CD
:101FE000AA879DEB03A7418789476304F70C054740
:101FF00023AAE18613854196EF205004AA87232265
:10200000F4FE930744FE81463E86938501A0138526
:102010004196EF30E00E71A8930784FE13873700D6
:102020000D46E5679385C7ED3A85EF40C13EAA8727
:102030009DEB03A701878947630DF706054723A892
:10204000E18613854196EF20607FAA872322F4FE64
:10205000930744FE81463E869385019813854196F9
:10206000EF30000AB9A0930784FE138737000D46AE
:10207000E567938507EE3A85EF40E139AA8795EB4E
:1020800003A7818789476306F702054723ACE186EA
:1020900013854196EF20807AAA872322F4FE9307C6
:1020A00044FE81463E86938501A813854196EF3014
:1020B000200513854196EF20C05305472386E1860E
:1020C0000100F240624405618280397106DE22DC43
:1020D00080002326A4FC8547A307F4FE231304FEF7
:1020E000231604FE232404FE232E04FC83D74188F8
:1020F0003E87930700236316F700A5472324F4FEC9
:1021000029A0A1472324F4FE01008DA8930750FACB
:102110002300F4FE832784FE8A070327C4FCBA97B2
:102120008397070093F7F70FA300F4FE832784FE3D
:102130008A070327C4FCBA97839727002313F4FE6A
:10214000835764FEA183C207C18393F7F70F23016E
:10215000F4FE835764FE93F7F70FA301F4FE930791
:1021600004FE1146BE851145EFF0EFD80945EFE0BA
:10217000AF93832784FEFD172324F4FE032784FEF8
:102180009307E00FE3F4E7F883A701883E85EF208B
:10219000E06A2A87894763FFE7028D47232EF4FC14
:1021A00083A701881306C4FD130704FE8146BA8580
:1021B0003E85EF20F074034714FE9307F00F630889
:1021C000F700034724FE9307F00F6315F700A307FA
:1021D00004FE31A80545EFE02F8D8357C4FE138719
:1021E00017002316E4FE1307700CE37FF7F883470C
:1021F000F4FE3E85F250625421618280797106D6E8
:1022000022D40018232EA4FCA30704FE230704FEF7
:10221000231504FE231604FE232004FE83D74188E1
:102220003E87930700236316F700A547A307F4FE34
:1022300029A0A147A307F4FE01008347F4FEFD1780
:1022400093F7F70FA307F4FE11AA03D7418893076A
:10225000F02263EDE7008307F4FE8A070327C4FD3D
:10226000BA9703970700A5476300F70E930750FA44
:102270002302F4FEC557A302F4FE8307F4FE8A0787
:102280000327C4FDBA97839707002315F4FE8357ED
:10229000A4FEA183C207C18393F7F70F2303F4FEC3
:1022A0008357A4FE93F7F70FA303F4FE930744FEAE
:1022B0001146BE851145EFF00FC4231604FE83A717
:1022C00001883E85EF2080572A87894763F7E70416
:1022D0008D472320F4FE83A70188130604FE13070D
:1022E00044FE8146BA853E85EF209061834754FEC7
:1022F000A20793960701C186834764FE13970701DF
:1023000041878307F4FE8A070326C4FDB297558FE1
:10231000420741872391E70031A80545EFD0DFF858
:102320008357C4FE138717002316E4FE1307700CAF
:10233000E377F7F80357C4FE9307800C63F7E700D1
:1023400085472307F4FE39A801008307F4FE93F7BD
:10235000F70FFD1793F7F70FA307F4FE8307F4FEBB
:10236000E3D507EE8347E4FE3E85B2502254456133
:102370008280011106CE22CC0010232404FE854762
:10238000A307F4FE231604FE232204FE83A701887C
:102390003E85EF20A04AAA8791C783A701883E8582
:1023A000EF2020259305F00F1145EFF06FAF930755
:1023B00050FA2304F4FEBD57A304F4FE230504FEE3
:1023C000A30504FE930784FE1146BE851145EFF078
:1023D0008FB2231604FE83A701883E85EF200046B6
:1023E0002A87894763F0E7048D472322F4FE83A7F9
:1023F0000188130644FE130784FE8146BA853E8594
:10240000EF2010500347A4FE85476309F7000347F8
:10241000A4FE89476304F700854711A08147A307FD
:10242000F4FE31A80545EFD03FE88357C4FE13877B
:1024300017002316E4FE1307700CE37EF7F88347BA
:10244000F4FE3E85F240624405618280011106CEB1
:1024500022CC0010A30704FE9307F4FEBE851145AD
:10246000EFF0EFBD83A7018885C70347F4FE93070C
:10247000500A6317F70083A701883E85EF20601795
:1024800083A701880347F4FEBA853E85EF20A0426A
:102490000100F240624405618280411122C60008B9
:1024A0000547238EE18601003244410182800111FB
:1024B00006CE22CC0010231704FE231604FE23228E
:1024C00004FE930750FA2304F4FEC557A304F4FE58
:1024D000230504FEC957A305F4FE930784FE1146A5
:1024E000BE851145EFF02FA183A701883E85EF201F
:1024F000E0342A87894763F0E7048D472322F4FEFE
:1025000083A70188130644FE130784FE8146BA851B
:102510003E85EF20F03E834794FEA2071397070104
:1025200041878347A4FEC207C187D98FC207C187ED
:102530002316F4FE31A80545EFD01FD78357E4FEDC
:10254000138717002317E4FE1307700CE37EF7F8D8
:102550008357C4FE3E85F2406244056182805D710E
:1025600086C6A2C480088547A307F4FEB7070020EB
:10257000054723AEE7289307C4FD1307C00493065D
:1025800020061306401F81453E85EFE05FAD9307AF
:10259000C4FD3E85EFF0B074AA87B5EFE56703AEE2
:1025A00007091387070903234700138707098328AF
:1025B0008700138707090328C70013870709084BFB
:1025C000138707094C4B13870709104F1387070917
:1025D000544F13870709185393870709DC53232A9D
:1025E000C4FB232C64FA232E14FB232004FD232296
:1025F000A4FC2324B4FC2326C4FC2328D4FC232AD3
:10260000E4FC232CF4FC930744FB3E85EFF01073AD
:10261000AA87A307F4FE8347F4FE3E85B64026440E
:1026200061618280597186D6A2D480188547A3073C
:10263000F4FE230704FE232404FEB707002023AE84
:10264000072813050004EF30210CAA872324F4FE89
:10265000832784FE85E393067020E567138687FC55
:10266000E567938507060145EF10902C8947A3077E
:10267000F4FE35AC6545EF302109AA873E8723A0DB
:10268000E18883A7018885E79306E020E567138644
:1026900087FCE5679385C7070145EF10702903257F
:1026A00084FEEF3001078947A307F4FE09A483A73E
:1026B000018893060004032684FE81453E85EF20B1
:1026C000707E91679386270691671386C704896792
:1026D000938507581145EFF06F9C85451145EFF044
:1026E000CF8DF133AA873E872392E18883D7418833
:1026F00081CF4131AA8789CB81451145EFF0EF8B1E
:102700008D47A307F4FE65A2E56703AE07091387AB
:1027100007090323470013870709832887001387C6
:1027200007090328C70013870709084B1387070900
:102730004C4B13870709104F13870709544F138712
:102740000709185393870709DC532320C4FD23226C
:1027500064FC232414FD232604FD2328A4FC232A3F
:10276000B4FC232CC4FC232ED4FC2320E4FE23221F
:10277000F4FEE56703A3070F1387070F83284700BD
:102780001387070F032887001387070F484713870E
:10279000070F0C4B1387070F504B1387070F144F6E
:1027A0001387070F584F9387070F9C53232E64F806
:1027B000232014FB232204FB2324A4FA2326B4FAA7
:1027C0002328C4FA232AD4FA232CE4FA232EF4FA79
:1027D000930704FC3E85EFF05F8FAA8785C79306B9
:1027E000B024E567138687FCE5679385870B014571
:1027F000EF10101481451145EFE03FFC8547A3071A
:10280000F4FE75A09307C4F93E85EFF03F9FAA87B9
:1028100085C793067025E567138687FCE567938572
:10282000470D0145EF10D01081451145EFE0FFF84D
:102830008547A307F4FEA5A8230704FEA1A88347A4
:10284000E4FE85078A07130704FFBA97039707FD7D
:102850008347E4FE8A07930604FFB6978397C7FA77
:10286000631FF7028347E4FE85078A07130704FF07
:10287000BA97039727FD8347E4FE8A07930604FF70
:10288000B6978397E7FA631CF7008347E4FE850752
:102890002307F4FE0347E4FEA147E3F2E7FA834788
:1028A000E4FE93B7870093F7F70FA307F4FE032521
:1028B00084FEEF20116683A701883E85EF207165B5
:1028C00023A001888347F4FE3E85B65026546561F7
:1028D0008280797106D622D40018A30704FEB72798
:1028E00000001386A74981450D45EF003066853904
:1028F000AA8785C3B72700001386A749B72700001A
:102900009385C7440D45EF007064293BAA87A30750
:10291000F4FE8347F4FEB9E791473EC495473EC2B3
:1029200099473EC093089002130880029307600203
:102930001307B0049306900413068004A9452545A7
:10294000EFD0BFA093068007996713860782B70769
:10295000002093858759B707002013858759EFD04A
:10296000FFAE31A0014681450145EF00305E83474F
:10297000F4FE3E85B250225445618280011106CE9C
:1029800022CC0010AA87A307F4FEB7070020938784
:102990000704DC4713070008D8CB8347F4FEBE8545
:1029A0000545EFE0EFF6B707002093870704DC4703
:1029B0001307000898CB0100F24062440561828051
:1029C000011106CE22CC0010AA8736872317F4FE09
:1029D000AE872316F4FEB2872315F4FEBA872314BC
:1029E000F4FE83C70181C207C1830357E4FEB337F6
:1029F000F70093F7F70F3E871306A008E567938566
:102A000087113A85EF10406C83C71181C207C183DB
:102A10000357C4FEB337F70093F7F70F3E8713064B
:102A2000B008E567938587113A85EF10E06983C7A1
:102A30000181C207C1830357A4FEB337F70093F7A0
:102A4000F70F3E871306C008E567938587113A851F
:102A5000EF10806783C71181C207C183035784FECB
:102A6000B337F70093F7F70F3E871306D008E567F3
:102A7000938587113A85EF10206583A781880547E4
:102A80006376F7000D476369F71061A01305A00294
:102A9000F53581450545EFE0AFE78357E4FE93F751
:102AA000F70F890793F7F70FBE850545EFE04FE66F
:102AB00081450545EFE0CFE58357A4FE93F7F70F77
:102AC000890793F7F70FBE850545EFE06FE413051F
:102AD000B0026D3581450545EFE08FE38357C4FEB5
:102AE00093F7F70F850793F7F70FBE850545EFE0DE
:102AF0002FE281450545EFE0AFE1835784FE93F770
:102B0000F70F850793F7F70FBE850545EFE04FE018
:102B100061A01305A0029D3581450545EFE04FDF1B
:102B20008357E4FE93F7F70F850793F7F70FBE85FA
:102B30000545EFE0EFDD81450545EFE06FDD8357AB
:102B4000A4FE93F7F70F850793F7F70FBE850545AA
:102B5000EFE00FDC1305B002153581450545EFE0C8
:102B60002FDB8357C4FE93F7F70F890793F7F70F0F
:102B7000BE850545EFE0CFD981450545EFE04FD94A
:102B8000835784FE93F7F70F890793F7F70FBE85F6
:102B90000545EFE0EFD701001305C002C533010082
:102BA000F240624405618280797106D622D4001811
:102BB0009307C4FD3E85EF10805C8547231EF4FC1F
:102BC00083C70181C207C183231FF4FC83C711811E
:102BD000C207C1832310F4FE83A7C1800547638A1F
:102BE000E70099EF99472301F4FEA147A301F4FE02
:102BF00009A8A1472301F4FEC147A301F4FE11A0D7
:102C00000100B7370000938727FD2324F4FEB73770
:102C100000009387E7C22326F4FE9307C4FD3E8598
:102C2000EF10805B0100B250225445618280011197
:102C300006CE22CC001083C701813E8783C7118155
:102C4000B307F7022326F4FEB70700209387070493
:102C5000DC474147D8CB83C70181C207C183FD1739
:102C600013970701418383C71181C207C183FD17F1
:102C7000C207C183BE863A8681450145913321A8AA
:102C800083D7A180BE850545EFE0EFCD8327C4FE45
:102C9000FD172326F4FE8327C4FEFDF3B7070020AB
:102CA00093870704DC47414798CB0100F240624418
:102CB00005618280011122CE00102326A4FE032785
:102CC000C4FE23A4E18883A7818805476376F700C3
:102CD0000D476365F70211A8130700F82388E18008
:102CE000130700FAA388E18011A8130700FA2388CC
:102CF000E180130700F8A388E1800100010072441D
:102D000005618280011122CE0010AA872E87231729
:102D1000F4FEBA872316F4FE0357E4FE2394E18001
:102D20000357C4FE2395E18001007244056182804F
:102D3000797106D622D40018AA87AE863287231F5F
:102D4000F4FCB687231EF4FCBA87A30DF4FC83C7FA
:102D50000181C207C1830357E4FDB337F70093F73E
:102D6000F70F3E8713069019E567938587113A851B
:102D7000EF10803583C71181C207C1830357C4FD9B
:102D8000B337F70093F7F70F3E871306A019E567EF
:102D9000938587113A85EF102033A30704FE23079C
:102DA00004FEB707002093870704DC474147D8CBD0
:102DB00083A7C1800547638AE70C639F071EA307AB
:102DC00004FE75A88347F4FE1397070141838357D8
:102DD000E4FDBA971395070141818347F4FE1397E9
:102DE000070141838357E4FDBA9713970701418395
:102DF0008357C4FDA10793960701C1828357C4FD81
:102E00003A86BE85EFF0DFBB8307B4FD138707FE6C
:102E10008346F4FE6966BA878607BA978607130762
:102E200046A7BA97B69783C70700A306F4FE230701
:102E300004FE25A88347D4FE858B81CB83D7818070
:102E4000BE850545EFE02FB239A083D7A180BE85AE
:102E50000545EFE04FB18347D4FE8583A306F4FE1A
:102E60008347E4FE85072307F4FE0347E4FE9D47FE
:102E7000E3F2E7FC8347F4FE8507A307F4FE03476C
:102E8000F4FE9547E3F0E7F40DAAA30704FE39AA80
:102E90008347F4FE1397070141838357E4FDBA97F4
:102EA0001395070141818347F4FE1397070141837E
:102EB0008357E4FDBA971397070141838357C4FDF5
:102EC000BD0793960701C1828357C4FD3A86BE852C
:102ED000EFF01FAF8307B4FD938607FE8347F4FE30
:102EE00065679206130747483697BA9783C7070066
:102EF0002306F4FE8307B4FD938607FE8347F4FEA2
:102F0000A10765679206130747483697BA9783C7A4
:102F10000700A305F4FE230704FE25A88347C4FE8B
:102F2000858B81CB83D78180BE850545EFE0AFA33C
:102F300039A083D7A180BE850545EFE0CFA28347A6
:102F4000C4FE85832306F4FE8347E4FE850723073A
:102F5000F4FE0347E4FE9D47E3F2E7FC230704FE8B
:102F600025A88347B4FE858B81CB83D78180BE851E
:102F70000545EFE04F9F39A083D7A180BE85054569
:102F8000EFE06F9E8347B4FE8583A305F4FE83477D
:102F9000E4FE85072307F4FE0347E4FE9D47E3F2C2
:102FA000E7FC8347F4FE8507A307F4FE0347F4FE1E
:102FB0009D47E3FFE7EC11A00100B70700209387CE
:102FC0000704DC47414798CB0100B25022544561C9
:102FD0008280797106D622D40018AA872E87232CE6
:102FE000C4FC231FF4FCBA87231EF4FC83C70181B1
:102FF000C207C1830357E4FDB337F70093F7F70F18
:103000003E871306D01EE567938587113A85EF103A
:10301000A00B83C71181C207C1830357C4FDB33717
:10302000F70093F7F70F3E871306E01EE5679385D9
:1030300087113A85EF104009231704FE71A083A77A
:10304000C18005476381E704B5EB0357E4FEBA8707
:103050008607BA9786071397070141838357E4FDD4
:10306000BA9793960701C1828357E4FE032784FD34
:10307000BA97038707008357C4FD3A86BE85368515
:10308000EFF01FCB2DA88357E4FE8E07139707019F
:1030900041838357E4FDBA9793960701C182835712
:1030A000E4FE032784FDBA97038707008357C4FD16
:1030B0003A86BE853685EFF0BFC711A00100835761
:1030C000E4FE85072317F4FE8357E4FE032784FDFF
:1030D000BA9783870700A5F70100B25022544561D3
:1030E00082805D7186C6A2C480082A8E2E83232426
:1030F000C4FC3685BA853E86C2864687F28723178A
:10310000F4FC9A872316F4FCAA872313F4FCAE87F9
:103110002312F4FCB2872311F4FCB6872310F4FCCD
:10312000BA87A30FF4FA83C70181C207C18303578B
:10313000E4FCB337F70093F7F70F3E871306B02B85
:10314000E567938587113A85EF00107883C7118171
:10315000C207C1830357C4FCB337F70093F7F70FD7
:103160003E871306C02BE567938587113A85EF00EC
:10317000B075832784FCB337F00093F7F70F3E87D1
:103180001306D02BE567938587113A85EF00D0733E
:10319000232604FE232404FE231304FE231204FE2C
:1031A000232004FE232E04FCB70700209387070486
:1031B000DC474147D8CB0357E4FC835724FCBA973C
:1031C000C207C183FD171396070141820357C4FC50
:1031D000835704FCBA97C207C183FD179396070172
:1031E000C1820357C4FC8357E4FCBA853E85EFF0E7
:1031F0002FFD232404FE19A2035744FC832784FED9
:103200003307F702835704FCB357F702232EF4FC6D
:10321000232604FEC9A8035764FC8327C4FE330792
:10322000F702835724FCB357F7022320F4FE035719
:1032300064FC8327C4FD3307F702832704FEBA9793
:10324000032784FCBA9783C707002312F4FE834741
:10325000F4FBB5E3835744FE8D83C207C183AE07F9
:103260002313F4FE835744FE8983C207C183960764
:10327000C207C18793F7077E13970701418783171A
:1032800064FED98FC207C1872313F4FE835744FE1F
:103290008D83C207C183FD8B139707014183835739
:1032A00064FED98F2313F4FE835764FEBE85054563
:1032B000EFD07FEB25A08347F4FBC207C183035700
:1032C00044FE6377F70081450545EFD0DFE939A07B
:1032D000C1679385F7FF0545EFD0FFE88327C4FE5C
:1032E00085072326F4FE835724FC0327C4FEE364EA
:1032F000F7F2832784FE85072324F4FE835704FC1A
:10330000032784FEE36AF7EEB707002093870704DC
:10331000DC47414798CB0100B6402644616182807A
:10332000411106C622C400081308F00FC167F9173F
:1033300005671307F70285669386D60237A64A0407
:103340001306062081450545EFD03FECC1460146F6
:10335000854513057006EFD04F9CC1460146854553
:1033600013057002EFD06F9BC146054685451305D6
:103370004006EFD08F9AC1460546854513050006E5
:10338000EFD0AF9983A781883E85EFF0BF9203D736
:10339000818083D7A180BE853A85EFF0BF96B707BD
:1033A000002093870704DC4313070008D8CB294586
:1033B000EFC09FEFB707002093870704DC43130794
:1033C000000898CB13058007EFC01FEEB707002059
:1033D00093870704DC474147D8CB4545EFF00FDA28
:1033E00013058007EFC05FEC1305100BEFF00FD94A
:1033F00085450545EFD0DFD19305C0020545EFD0E7
:103400003FD19305D0020545EFD09FD01305200B87
:10341000EFF0CFD685450545EFD09FCF9305C0028D
:103420000545EFD0FFCE9305D0020545EFD05FCE26
:103430001305300BEFF08FD485450545EFD05FCDF8
:103440009305C0020545EFD0BFCC9305D0020545DA
:10345000EFD01FCC85450545EFD09FCB9305C0022B
:103460000545EFD0FFCA9305D0020545EFD05FCAEE
:103470001305400BEFF08FD09D450545EFD05FC998
:103480001305000CEFF08FCF9305200A0545EFD010
:103490003FC889450545EFD0BFC79305400805459E
:1034A000EFD01FC71305100CEFF04FCD9305500C54
:1034B0000545EFD0FFC51305200CEFF02FCCA94533
:1034C0000545EFD0FFC481450545EFD07FC4130506
:1034D000300CEFF0AFCA9305A0080545EFD05FC3ED
:1034E0009305A0020545EFD0BFC21305400CEFF0D5
:1034F000EFC89305A0080545EFD09FC19305E00EE6
:103500000545EFD0FFC01305500CEFF02FC7B945AC
:103510000545EFD0FFBF13056003EFF02FC683A76B
:10352000818805476380E70281CB09476381E70211
:103530000D476384E70205A89305000C0545EFD00D
:103540003FBD15A081450545EFD09FBC29A8930537
:10355000000A0545EFD0DFBB39A0930500060545FD
:10356000EFD01FBB01001305000EEFF02FC1BD45CA
:103570000545EFD0FFB9E9450545EFD07FB9BD4519
:103580000545EFD0FFB8E1450545EFD07FB893057D
:10359000F0020545EFD0DFB7930580020545EFD077
:1035A0003FB7930500020545EFD09FB69305200273
:1035B0000545EFD0FFB5FD450545EFD07FB5ED459D
:1035C0000545EFD0FFB4930530020545EFD05FB459
:1035D000930570030545EFD0BFB381450545EFD096
:1035E0003FB39D450545EFD0BFB289450545EFD0B6
:1035F0003FB2C1450545EFD0BFB11305100EEFF046
:10360000EFB7BD450545EFD0BFB0ED450545EFD05F
:103610003FB0BD450545EFD0BFAFDD450545EFD017
:103620003FAF930530030545EFD09FAE9305C00231
:103630000545EFD0FFAD930590020545EFD05FAD96
:103640009305E0020545EFD0BFAC930500030545A7
:10365000EFD01FAC930500030545EFD07FAB93057A
:1036600090030545EFD0DFAA9305F0030545EFD0A1
:103670003FAA81450545EFD0BFA99D450545EFD03F
:103680003FA98D450545EFD0BFA8C1450545EFD001
:103690003FA81305A002EFF06FAE81450545EFD0BE
:1036A0003FA789450545EFD0BFA681450545EFD029
:1036B0003FA6930520080545EFD09FA51305B0024E
:1036C000EFF0CFAB81450545EFD09FA48D45054573
:1036D000EFD01FA481450545EFD09FA39305300887
:1036E0000545EFD0FFA21305000FEFF02FA9854588
:1036F0000545EFD0FFA11305600FEFF02FA881451E
:103700000545EFD0FFA01305A003EFF02FA79545C7
:103710000545EFD0FF9F13059002EFF02FA6B707E6
:10372000002093870704DC47414798CBEFF02FD068
:10373000EFF08FC70100B240224441018280411165
:1037400022C600080100324441018280011122CECC
:1037500000102326A4FE2324B4FE2322C4FE032744
:10376000C4FE23A6E188832744FE81C7832744FE45
:1037700029A0B73700009387E77323ACF180832734
:1037800084FE81C7832784FE29A0B7370000938772
:10379000E77323AAF1800100724405618280411120
:1037A00022C60008B71702409843B71702401367B4
:1037B000170098C3B7170240D443B7170240370722
:1037C000FFF8758FD8C3B71702409443B71702406C
:1037D0003707F7FE7D17758F98C3B71702409443DC
:1037E000B71702403707FCFF7D17758F98C3B717CF
:1037F0000240D443B7170240370781FF7D17758F0A
:10380000D8C3B717024037079F0098C7010032445A
:1038100041018280797106D622D40018232EA4FC9F
:10382000BD3F232604FE232404FEB7170240944321
:10383000B71702404167558F98C3B71702409843A6
:10384000B7070200F98F2324F4FE8327C4FE8507FF
:103850002326F4FE832784FE91E70327C4FE8567B1
:10386000E31DF7FCB71702409843B7070200F98F32
:1038700089C785472324F4FE19A0232404FE0327C7
:1038800084FE85476312F71637170240B7170240C8
:103890005843D8C337170240B71702405843D8C31C
:1038A00037170240B71702405843D8C3B717024032
:1038B000D443B71702403707C1FF7D17758FD8C3B0
:1038C0000327C4FDB747950893870740631BF7009C
:1038D000B7170240D443B71702404167558FD8C38A
:1038E00055A80327C4FDB7172707938707E0631C74
:1038F000F700B7170240D443B71702403707390023
:10390000558FD8C341A80327C4FDB7E7B8059387EF
:103910000780631CF700B7170240D443B717024073
:1039200037072900558FD8C3B5A00327C4FDB7A713
:103930004A0493870720631CF700B7170240D4435B
:10394000B717024037071D00558FD8C3A1A0032722
:10395000C4FDB777DC02938707C0631CF700B71775
:103960000240D443B717024037071100558FD8C320
:1039700015A00327C4FDB7376E0193870760631B4B
:10398000F700B7170240D443B717024037070500C6
:10399000558FD8C3B71702409443B7170240370773
:1039A0000001558F98C30100B71702409843B7072D
:1039B0000002F98FF5DBB7170240D843B717024072
:1039C000719BD8C3B7170240D843B717024013679B
:1039D0002700D8C30100B7170240DC4313F7C70024
:1039E000A147E31AF7FE11A001A0B250225445618D
:1039F0008280011106CE22CC00102326A4FE0327CC
:103A0000C4FE23A2E182EFF09FD90325C4FEEFF0AC
:103A10007FE0EF2080050100F24062440561828072
:103A2000411122C600080100010032444101828098
:103A3000011106CE22CC0010232604FE232404FE0E
:103A4000232604FE25A0232404FE39A0D13F83278A
:103A500084FE85072324F4FE032784FEC167E36701
:103A6000F7FE8327C4FE85072326F4FE0327C4FE42
:103A70009307F00FE3F9E7FC0100F24062440561AF
:103A80008280411122C60008010032444101828037
:103A9000011106CE22CC00102326A4FE8325C4FEED
:103AA0000945EFD09FCB0100F2406244056182805E
:103AB000130101D9232611262324812623229126AE
:103AC000801C232EA4D8232CB4D8232AC4D823287E
:103AD000D4D8231504FE231404FE231304FE23125A
:103AE00004FE231104FE032584D9EF20B111AA8717
:103AF000C207C1872313F4FEB767002083D747E1CD
:103B000099C7B7670020938747E19C4B829783C78B
:103B1000118993F7F70F6385074EB767002083D7A6
:103B200047E163890746B7670020938747E1D44799
:103B3000835724FE13970701418793170701C18319
:103B40008507C207C183C207C1872311F4FE9317FB
:103B50000701C1830326C4D9BE8501458296832708
:103B600084D92326F4FE032584D9EF20B109AA873E
:103B7000C207C1872313F4FEB7670020938747E18C
:103B800083D727003E87B7670020938747E183C725
:103B90006700B347F702C207C1872312F4FE010092
:103BA0008327C4FE138717002326E4FE83870700BC
:103BB000E5FB231404FEA1A88327C4FEFD172326DA
:103BC000F4FE8327C4FE038707009307F002630A0D
:103BD000F7008327C4FE038707009307C005631B14
:103BE000F700835784FEC207C1838507C207C183DC
:103BF0002314F4FE835764FEC207C187C207C18342
:103C0000FD17C207C183C207C1872313F4FE835780
:103C100084FE139707014183854763E8E7008357D4
:103C200064FEC207C187E3D907F8835764FEC20761
:103C3000C18763C207028327C4FE85072326F4FEDB
:103C4000130704EE0326C4FEE5679385071C3A8537
:103C5000EF20E1761DA8835784FEC207C18381EF60
:103C6000130704EE0326C4FEE5679385C71C3A8557
:103C7000EF20E17419A8130704EE0326C4FEE567DC
:103C80009385071C3A85EF208173231504FE05A256
:103C9000231404FE59A0930704EE3E85EF2081769D
:103CA0002A87835784FEC207C183BE868357A4FE3A
:103CB000C207C1833E86835744FEC207C187B3074C
:103CC000F602B6976367F706835784FEC207C1837F
:103CD0003E878357A4FEC207C183BE86835744FE36
:103CE000C207C187B387F602BA97035784FE42071B
:103CF0004183BA86130704FFBA97038707EF930738
:103D000004FFB6972388E7EA835784FEC207C1837E
:103D10008507C207C1832314F4FE835784FEC207BC
:103D2000C1833E87835744FEC207C187E345F7F648
:103D300011A00100835784FEC207C183130704FF4B
:103D4000BA97238807EAB7670020938747E103A85B
:103D5000C700B7670020938747E183C777001397B1
:103D600007014183835724FE93960701C1869397E9
:103D70000601C1838507C207C183C207C18723111A
:103D8000F4FE93970601C183B307F702C207C1830C
:103D9000130704EA3A86BE85014502988357A4FEBC
:103DA000C207C1838507C207C1832315F4FE835769
:103DB000A4FEC207C183BE84930704EE3E85EF20B4
:103DC00061642A87835744FEC207C187B357F7024D
:103DD0008507E3EFF4EA130704EE032644D9E56709
:103DE0009385C71D3A85EF20815DB76700209387D3
:103DF00047E103A8C700B7670020938747E183C75F
:103E00007700139707014183835724FE9396070198
:103E1000C18693970601C1838507C207C183C20784
:103E2000C1872311F4FE93970601C183B307F702FC
:103E3000C207C183130704EE3A86BE850145029886
:103E4000832704D9638E071A231504FE05A22314C1
:103E500004FE59A0032504D9EF20C15A2A878357AD
:103E600084FEC207C183BE868357A4FEC207C183F6
:103E70003E86835744FEC207C187B307F602B69752
:103E80006368F706835784FEC207C1833E87835762
:103E9000A4FEC207C183BE86835744FEC207C18702
:103EA000B387F602BA973E87832704D9BA97035798
:103EB00084FE42074183BA8603870700930704FF05
:103EC000B6972388E7EA835784FEC207C183850734
:103ED000C207C1832314F4FE835784FEC207C18343
:103EE0003E87835744FEC207C187E345F7F611A01A
:103EF0000100835784FEC207C183130704FFBA97EA
:103F0000238807EAB7670020938747E103A8C70023
:103F1000B7670020938747E183C7770013970701AE
:103F20004183835724FE93960701C1869397060128
:103F3000C1838507C207C183C207C1872311F4FE6D
:103F400093970601C183B307F702C207C183130722
:103F500004EA3A86BE85014502988357A4FEC2074B
:103F6000C1838507C207C1832315F4FE8357A4FECE
:103F7000C207C183BE84032504D9EF20A1482A8744
:103F8000835744FEC207C187B357F7028507E3E0B2
:103F9000F4ECBDA0930704DA1306001081453E85BA
:103FA000EFC00FA6B7670020938747E19C47032522
:103FB000C4D98297832704D999CF130504DA03273C
:103FC00004D9832644D9032684D9E5679385871EBF
:103FD000EF20E13E29A8130704DA832644D90326FB
:103FE00084D9E567938547203A85EF20413DB7673F
:103FF0000020938747E19847930704DA3E850297AC
:1040000001008320C1260324812683244126130135
:1040100001278280411106C622C4000883C7118986
:1040200093F7F70F99CF938501890945EFD03F8129
:10403000054693850189B7670020138587DFEF0068
:10404000902D0100B240224441018280797106D650
:1040500022D40018232EA4FC232CB4FC232AC4FC55
:10406000232604FEA9A00100E567938747469C47E5
:10407000930500043E85EF30306AAA87F5D7E567DF
:10408000938747469C47BE86832784FD1387170086
:10409000232CE4FC83870700C207C183BE853685D5
:1040A000EF30B0648327C4FE85072326F4FE032780
:1040B000C4FE832744FDE348F7FA832744FD3E8589
:1040C000B250225445618280011106CE22CC0010EC
:1040D000AA872324B4FE2322C4FEA307F4FE834749
:1040E000F4FEB1E383C7818293F7F70F8DCF83C7C7
:1040F000218991C301A083C72189850713F7F70F91
:104100002389E188EF10B013EFF0BF9781460326B3
:1041100044FE832584FEE5671385C721EFF05F9990
:10412000EFF01F91E5B70100F24062440561828023
:10413000011106CE22CC0010AA872324B4FE23222C
:10414000C4FE2320D4FEA307F4FE8347F4FE95E3C8
:1041500083C7118993F7F70F91CF832684FE032637
:1041600004FE832544FEE5671385C722EFF05F94C4
:1041700011A001000100F24062440561828001113A
:1041800022CE00102326A4FE8327C4FE239007001E
:104190008327C4FE7D572391E7008327C4FE7D5704
:1041A0002392E7008327C4FE7D572383E7008327FC
:1041B000C4FE7D57A383E7008327C4FE23A4070022
:1041C0008327C4FE23A607008327C4FE23A8070075
:1041D0000100724405618280011122CE0010232665
:1041E000A4FE8327C4FE03D70700B7670020239AE5
:1041F000E7E08327C4FE03D72700B7670020938733
:1042000047E12391E7008327C4FE03D74700B76740
:104210000020938747E12392E7008327C4FE03C76A
:104220006700B7670020938747E12383E700832770
:10423000C4FE03C77700B7670020938747E1A383D5
:10424000E7008327C4FE9847B7670020938747E1BC
:1042500098C78327C4FED847B7670020938747E1F4
:10426000D8C78327C4FE984BB7670020938747E1E0
:1042700098CB0547A388E1880100724405618280DC
:10428000797106D622D400189307C4FD3E85EFF05D
:104290001FEFB7470000938707A92322F4FE930777
:1042A000C4FD3E85EFF05FF389679386B7028967A7
:1042B0001386A702B7150E000945EFD02FDE93062F
:1042C0000004B7670020138687DB8145B7670020AD
:1042D000138587DFEF10003D85450945EFD0EFCD11
:1042E0000100B250225445618280011122CE00109B
:1042F0002326A4FE2324B4FE8327C4FE03C797000D
:1043000083C6A700A206558F83C6B700C206558F85
:1043100083C7C700E207D98F3E87832784FE3E9775
:104320008327C4FE9375F70F83C69700818A36866C
:10433000AE86D18EA384D7009356870093F5F60FEF
:1043400083C6A700818A3686AE86D18E2385D700A4
:104350009356070193F5F60F83C6B700818A368618
:10436000AE86D18EA385D7001356870103C7C70039
:10437000018BBA863287558F2386E70055A08327A5
:10438000C4FE03C7970083C6A700A206558F83C645
:10439000B700C206558F83C7C700E207D98F3E8694
:1043A0008327C4FE03C7570183C66701A206558F42
:1043B00083C67701C206558F83C78701E207D98F6D
:1043C0003307F6408327C4FE9375F70F83C6970023
:1043D000818A3686AE86D18EA384D7009356870015
:1043E00093F5F60F83C6A700818A3686AE86D18EF6
:1043F0002385D7009356070193F5F60F83C6B700C0
:10440000818A3686AE86D18EA385D7001356870162
:1044100003C7C700018BBA863287558F2386E70012
:104420008327C4FE03C7570183C66701A206558FC1
:1044300083C67701C206558F83C78701E207D98FEC
:104440003E868327C4FE03C7970083C6A700A20643
:10445000558F83C6B700C206558F83C7C700E207D2
:10446000D98FE3FEC7F0010072440561828001111B
:1044700022CE00102326A4FE2324B4FE8327C4FEEC
:1044800003C7D70083C6E700A206558F83C6F7008F
:10449000C206558F83C70701E207D98F3E8783275E
:1044A00084FE3E978327C4FE9375F70F83C6D7001B
:1044B000818A3686AE86D18EA386D7009356870032
:1044C00093F5F60F83C6E700818A3686AE86D18ED5
:1044D0002387D7009356070193F5F60F83C6F7009D
:1044E000818A3686AE86D18EA387D7001356870180
:1044F00003C70701018BBA863287558F2388E700EF
:1045000055A08327C4FE03C7D70083C6E700A206D1
:10451000558F83C6F700C206558F83C70701E20790
:10452000D98F3E868327C4FE03C7570183C6670120
:10453000A206558F83C67701C206558F83C78701B0
:10454000E207D98F3307F6408327C4FE9375F70F30
:1045500083C6D700818A3686AE86D18EA386D700E1
:104560009356870093F5F60F83C6E700818A368657
:10457000AE86D18E2387D7009356070193F5F60FA9
:1045800083C6F700818A3686AE86D18EA387D70090
:104590001356870103C70701018BBA863287558FEF
:1045A0002388E7008327C4FE03C7570183C667013A
:1045B000A206558F83C67701C206558F83C7870130
:1045C000E207D98F3E868327C4FE03C7D70083C680
:1045D000E700A206558F83C6F700C206558F83C732
:1045E0000701E207D98FE3FEC7F0010072440561BD
:1045F0008280797106D622D40018232EA4FC83274A
:10460000C4FDB337F00093F7F70F3E87130650054C
:10461000E567938587233A85EFF01FAB232604FED9
:104620008327C4FD83C7070093E7170013F7F70F2D
:104630008327C4FD2380E7008327C4FD03C79700B9
:10464000018BA384E70003C7A700018B2385E70044
:1046500003C7B700018BA385E70003C7C700018B21
:104660002386E7008327C4FD03C7D700018BA386F9
:10467000E70003C7E700018B2387E70003C7F700C4
:10468000018BA387E70003C70701018B2388E7009D
:104690008327C4FD03C7570183C66701A206558F50
:1046A00083C67701C206558F83C78701E207D98F7A
:1046B0003E878327C4FD9375F70F83C61701818A50
:1046C0003686AE86D18EA388D7009356870093F5A1
:1046D000F60F83C62701818A3686AE86D18E23895E
:1046E000D7009356070193F5F60F83C63701818AE9
:1046F0003686AE86D18EA389D7001356870103C7AD
:104700004701018BBA863287558F238AE7008327BA
:10471000C4FD03C7170083C62700A206558F83C6B2
:104720003700C206558F83C74700E207D98F054778
:10473000638DE70489C709476380E70AEDA08327F3
:10474000C4FD03C7570083C66700A206558F83C602
:104750007700C206558F83C78700E207D98F3E8551
:104760008327C4FD03C7570183C66701A206558F7F
:1047700083C67701C206558F83C78701E207D98FA9
:104780003E868145EFB0DFA779A88327C4FD03C724
:10479000570083C66700A206558F83C67700C206FE
:1047A000558F83C78700E207D98F3E858327C4FDD5
:1047B00003C7570183C66701A206558F83C67701D9
:1047C000C206558F83C78701E207D98F86073E86C9
:1047D0008145EFB0FFA281A88327C4FD03C757001E
:1047E00083C66700A206558F83C67700C206558F21
:1047F00083C78700E207D98F3E858327C4FD03C79F
:10480000570183C66701A206558F83C67701C2068A
:10481000558F83C78701E207D98F8A073E86814576
:10482000EFB01F9E01008327C4FD2380070083276C
:10483000C4FE3E85B250225445618280011106CEED
:1048400022CC00102326A4FE8327C4FEB337F00039
:1048500093F7F70F3E8713066007E5679385872375
:104860003A85EFF07F868327C4FE03C7570183C6CE
:104870006701A206558F83C67701C206558F83C78D
:104880008701E207D98F3E868327C4FE03C717013D
:1048900083C62701A206558F83C63701C206558FEE
:1048A00083C74701E207D98FB307F6403E85F24040
:1048B000624405618280797106D622D40018232EC5
:1048C000A4FC232CB4FC8327C4FDB337F00093F77A
:1048D000F70F3E8713064008E567938587233A85DF
:1048E000EFF08FFE232604FE8327C4FD83C7070055
:1048F000958B93F7F70F89C791472326F4FE29A4D8
:104900008327C4FD83C7070093E7470013F7F70F1A
:104910008327C4FD2380E7008327C4FD03C7170155
:1049200083C62701A206558F83C63701C206558F5D
:1049300083C74701E207D98F638A071A8327C4FD1B
:1049400003C7170083C62700A206558F83C637000A
:10495000C206558F83C74700E207D98F054763809A
:10496000E70689C709476386E70ADDA88327C4FDF0
:1049700003C7570083C66700A206558F83C677001A
:10498000C206558F83C78700E207D98F3E868327EB
:10499000C4FD03C7970083C6A700A206558F83C630
:1049A000B700C206558F83C7C700E207D98FB297F9
:1049B000032784FD1377F70F2380E70055A0832793
:1049C000C4FD03C7570083C66700A206558F83C680
:1049D0007700C206558F83C78700E207D98F3E86CE
:1049E0008327C4FD03C7970083C6A700A206558F7F
:1049F00083C6B700C206558F83C7C700E207D98FA9
:104A00008607B297032784FD420741832390E7007E
:104A100081A88327C4FD03C7570083C66700A20689
:104A2000558F83C67700C206558F83C78700E2077C
:104A3000D98F3E868327C4FD03C7970083C6A7008E
:104A4000A206558F83C6B700C206558F83C7C7001D
:104A5000E207D98F8A07B297032784FD98C3010024
:104A600085450325C4FDEFF05F888327C4FD03C798
:104A7000170183C62701A206558F83C63701C206D8
:104A8000558F83C74701E207D98F1387F7FF832725
:104A9000C4FD9375F70F83C61701818A3686AE86EB
:104AA000D18EA388D7009356870093F5F60F83C65F
:104AB0002701818A3686AE86D18E2389D700935608
:104AC000070193F5F60F83C63701818A3686AE86D5
:104AD000D18EA389D7001356870103C74701018BE5
:104AE000BA863287558F238AE70021A0954723266F
:104AF000F4FE8327C4FD83C70700ED9B13F7F70F70
:104B00008327C4FD2380E7008327C4FE3E85B2507F
:104B1000225445618280797106D622D40018232E52
:104B2000A4FC232CB4FC232AC4FC8327C4FDB33784
:104B3000F00093F7F70F3E871306000BE5679385A8
:104B400087233A85EFF04FD8232604FE232404FE62
:104B5000832784FD89E78D472326F4FE59AB8327FD
:104B6000C4FD83C70700958B93F7F70F89C791475B
:104B70002326F4FEBDAB8327C4FD83C7070093E75C
:104B8000470013F7F70F8327C4FD2380E70083272F
:104B9000C4FD03C7170183C62701A206558F83C62C
:104BA0003701C206558F83C74701E207D98F3E8779
:104BB000832744FD6361F7528327C4FD03C7570170
:104BC00083C66701A206558F83C67701C206558F3B
:104BD00083C78701E207D98F3E868327C4FD03C7B9
:104BE000970083C6A700A206558F83C6B700C206EA
:104BF000558F83C7C700E207D98FB307F640232438
:104C0000F4FE032744FD832784FE63F3E72E832706
:104C1000C4FD03C7170083C62700A206558F83C6AD
:104C20003700C206558F83C74700E207D98F054773
:104C30006385E70E89C709476386E71C11A98327A7
:104C4000C4FD03C7570083C66700A206558F83C6FD
:104C50007700C206558F83C78700E207D98F3E864B
:104C60008327C4FD03C7970083C6A700A206558FFC
:104C700083C6B700C206558F83C7C700E207D98F26
:104C8000B297032684FE832584FD3E85EF0011291B
:104C9000832584FE0325C4FDEFF02FE58327C4FDA3
:104CA00003C7570083C66700A206558F83C67700E7
:104CB000C206558F83C78700E207D98F3E868327B8
:104CC000C4FD03C7970083C6A700A206558F83C6FD
:104CD000B700C206558F83C7C700E207D98FB30656
:104CE000F600032784FD832784FEB305F70003271E
:104CF00044FD832784FEB307F7403E863685EF00E8
:104D0000F121032744FD832784FEB307F740BE85C6
:104D10000325C4FDEFF06FDD25AE8327C4FD03C777
:104D2000570083C66700A206558F83C67700C20668
:104D3000558F83C78700E207D98F3E868327C4FD3E
:104D400003C7970083C6A700A206558F83C6B70086
:104D5000C206558F83C7C700E207D98F860733077E
:104D6000F600832784FE86073E86832584FD3A85E8
:104D7000EF00D11A832584FE0325C4FDEFF0EFD6A2
:104D80008327C4FD03C7570083C66700A206558F5B
:104D900083C67700C206558F83C78700E207D98F85
:104DA0003E868327C4FD03C7970083C6A700A206DB
:104DB000558F83C6B700C206558F83C7C700E20769
:104DC000D98F8607B306F600832784FE860703275C
:104DD00084FDB305F700032744FD832784FEB30752
:104DE000F74086073E863685EF005113032744FDC2
:104DF000832784FEB307F740BE850325C4FDEFF08B
:104E0000CFCEB9A48327C4FD03C7570083C667006C
:104E1000A206558F83C67700C206558F83C78700C9
:104E2000E207D98F3E868327C4FD03C7970083C658
:104E3000A700A206558F83C6B700C206558F83C749
:104E4000C700E207D98F8A073307F600832784FE5D
:104E50008A073E86832584FD3A85EF00310C832541
:104E600084FE0325C4FDEFF04FC88327C4FD03C7AC
:104E7000570083C66700A206558F83C67700C20617
:104E8000558F83C78700E207D98F3E868327C4FDED
:104E900003C7970083C6A700A206558F83C6B70035
:104EA000C206558F83C7C700E207D98F8A07B306AA
:104EB000F600832784FE8A07032784FDB305F700E5
:104EC000032744FD832784FEB307F7408A073E8605
:104ED0003685EF00B104032744FD832784FEB30722
:104EE000F740BE850325C4FDEFF02FC001008DA261
:104EF0008327C4FD03C7170083C62700A206558F6A
:104F000083C63700C206558F83C74700E207D98F93
:104F100005476387E70689C709476387E70C0DAA3A
:104F20008327C4FD03C7570083C66700A206558FB9
:104F300083C67700C206558F83C78700E207D98FE3
:104F40003E868327C4FD03C7970083C6A700A20639
:104F5000558F83C6B700C206558F83C7C700E207C7
:104F6000D98FB297032644FD832584FD3E85EF004B
:104F7000E17A832544FD0325C4FDEFF00FB7C9A8EE
:104F80008327C4FD03C7570083C66700A206558F59
:104F900083C67700C206558F83C78700E207D98F83
:104FA0003E868327C4FD03C7970083C6A700A206D9
:104FB000558F83C6B700C206558F83C7C700E20767
:104FC000D98F86073307F600832744FD86073E8680
:104FD000832584FD3A85EF006174832544FD032514
:104FE000C4FDEFF08FB0ADA08327C4FD03C7570009
:104FF00083C66700A206558F83C67700C206558F09
:1050000083C78700E207D98F3E868327C4FD03C785
:10501000970083C6A700A206558F83C6B700C206B5
:10502000558F83C7C700E207D98F8A073307F60079
:10503000832744FD8A073E86832584FD3A85EF0059
:10504000E16D832544FD0325C4FDEFF00FAA0100A7
:105050008327C4FD03C7170183C62701A206558F06
:1050600083C63701C206558F83C74701E207D98F30
:105070003E87832744FD1D8F8327C4FD9375F70F5B
:1050800083C61701818A3686AE86D18EA388D70063
:105090009356870093F5F60F83C62701818A3686DB
:1050A000AE86D18E2389D7009356070193F5F60F6C
:1050B00083C63701818A3686AE86D18EA389D70012
:1050C0001356870103C74701018BBA863287558F74
:1050D000238AE70021A095472326F4FE8327C4FDF9
:1050E00083C70700ED9B13F7F70F8327C4FD2380C9
:1050F000E7008327C4FE3E85B2502254456182807A
:10510000797106D622D40018232EA4FC232CB4FCDB
:10511000232AC4FC2328D4FC8327C4FDB337F00022
:1051200093F7F70F3E8713061016E56793858723DD
:105130003A85EFE07FF9832744FDB337F00093F71A
:10514000F70F3E8713062016E567938587233A8578
:10515000EFE09FF7232604FE232404FE232204FE0F
:10516000832784FD89E78D472326F4FEA9A18327A1
:10517000C4FD83C707008D8B93F7F70F91CB83276F
:1051800044FD032744FE98C399472326F4FE21A338
:105190000325C4FDEFF08FEA2322A4FE832744FDFC
:1051A0009C43032744FE6379F702832744FD0327CA
:1051B00044FE98C39D472326F4FE832744FE89EFCF
:1051C0008327C4FD83C70700DD9B13F7F70F8327F1
:1051D000C4FD2380E700C1A18327C4FD83C7070066
:1051E00093E7870013F7F70F8327C4FD2380E700B9
:1051F0008327C4FD03C7570183C66701A206558FE5
:1052000083C67701C206558F83C78701E207D98F0E
:105210003E868327C4FD03C7D70083C6E700A206E6
:10522000558F83C6F700C206558F83C70701E20773
:10523000D98FB307F6402324F4FE832744FD9C4313
:10524000032784FE6366F7148327C4FD03C7170092
:1052500083C62700A206558F83C63700C206558F26
:1052600083C74700E207D98F05476384E70689C7EC
:105270000947638FE70A2DA68327C4FD03C757009C
:1052800083C66700A206558F83C67700C206558F76
:1052900083C78700E207D98F3E868327C4FD03C7F3
:1052A000D70083C6E700A206558F83C6F700C20663
:1052B000558F83C70701E207D98F3307F60083278D
:1052C00044FD9C433E86BA85032584FDEF000145DD
:1052D000C1AC8327C4FD03C7570083C66700A2067D
:1052E000558F83C67700C206558F83C78700E207B4
:1052F000D98F3E868327C4FD03C7D70083C6E70046
:10530000A206558F83C6F700C206558F83C70701D3
:10531000E207D98F86073307F600832744FD9C43B5
:1053200086073E86BA85032584FDEF00213F8DACBC
:105330008327C4FD03C7570083C66700A206558FA5
:1053400083C67700C206558F83C78700E207D98FCF
:105350003E868327C4FD03C7D70083C6E700A206A5
:10536000558F83C6F700C206558F83C70701E20732
:10537000D98F8A073307F600832744FD9C438A07A9
:105380003E86BA85032584FDEF004139010009AC52
:105390008327C4FD03C7170083C62700A206558FC5
:1053A00083C63700C206558F83C74700E207D98FEF
:1053B00005476383E70A89C709476381E714CDA2DC
:1053C0008327C4FD03C7570083C66700A206558F15
:1053D00083C67700C206558F83C78700E207D98F3F
:1053E0003E868327C4FD03C7D70083C6E700A20615
:1053F000558F83C6F700C206558F83C70701E207A2
:10540000D98FB297032684FEBE85032584FDEF0065
:10541000E130032784FD832784FE3305F7008327CB
:10542000C4FD03C7570083C66700A206558F83C615
:105430007700C206558F83C78700E207D98FBE86E3
:10544000832744FD9843832784FEB307F7403E86B5
:10545000B685EF00A12CA9A28327C4FD03C757007E
:1054600083C66700A206558F83C67700C206558F94
:1054700083C78700E207D98F3E868327C4FD03C711
:10548000D70083C6E700A206558F83C6F700C20681
:10549000558F83C70701E207D98F86073307F600C8
:1054A000832784FE86073E86BA85032584FDEF00A8
:1054B000E126832784FE8607032784FD3305F70052
:1054C0008327C4FD03C7570083C66700A206558F14
:1054D00083C67700C206558F83C78700E207D98F3E
:1054E000BE86832744FD9843832784FEB307F74095
:1054F00086073E86B685EF0061225DA08327C4FD46
:1055000003C7570083C66700A206558F83C677007E
:10551000C206558F83C78700E207D98F3E8683274F
:10552000C4FD03C7D70083C6E700A206558F83C614
:10553000F700C206558F83C70701E207D98F8A0794
:105540003307F600832784FE8A073E86BA85032543
:1055500084FDEF00A11C832784FE8A07032784FDB6
:105560003305F7008327C4FD03C7570083C66700D0
:10557000A206558F83C67700C206558F83C7870062
:10558000E207D98FBE86832744FD9843832784FE94
:10559000B307F7408A073E86B685EF002118010061
:1055A0008327C4FD83C70700DD9B13F7F70F83270D
:1055B000C4FD2380E700832704FDF1EF8327C4FDAA
:1055C00003C70700AD476316F70089472326F4FE9B
:1055D000D9A08327C4FD83C7070093E7270013F7EB
:1055E000F70F8327C4FD2380E700832744FD9C43F6
:1055F000BE850325C4FDEFE09FE78327C4FD03C7F5
:10560000170183C62701A206558F83C63701C2063C
:10561000558F83C74701E207D98F3E87832744FD13
:105620009C433E978327C4FD9375F70F83C61701EC
:10563000818A3686AE86D18EA388D700935687009E
:1056400093F5F60F83C62701818A3686AE86D18E02
:105650002389D7009356070193F5F60F83C63701C8
:10566000818A3686AE86D18EA389D70013568701EC
:1056700003C74701018BBA863287558F238AE7001B
:105680008327C4FD83C70700F59B13F7F70F832714
:10569000C4FD2380E7008327C4FE3E85B250225418
:1056A00045618280797106D622D40018232EA4FC8D
:1056B000232CB4FC232AC4FC2328D4FC8327C4FD58
:1056C000B337F00093F7F70F3E8713062022E56704
:1056D000938587233A85EFE03F9F232604FE8327A7
:1056E000C4FD032744FD1376F70F03C75700018B52
:1056F000BA863287558FA382E700032744FD2183B2
:105700001376F70F03C76700018BBA863287558F70
:105710002383E700032744FD41831376F70F03C774
:105720007700018BBA863287558FA383E700032762
:1057300044FD1356870103C78700018BBA86328761
:10574000558F2384E7008327C4FD23800700832728
:10575000C4FD032784FD1376F70F03C71700018BE1
:10576000BA863287558FA380E700032784FD218303
:105770001376F70F03C72700018BBA863287558F40
:105780002381E700032784FD41831376F70F03C7C6
:105790003700018BBA863287558FA381E700032734
:1057A00084FD1356870103C74700018BBA863287F1
:1057B000558F2382E7008327C4FD03C79700018B21
:1057C000A384E70003C7A700018B2385E70003C775
:1057D000B700018BA385E70003C7C700018B2386B1
:1057E000E7008327C4FD03C7D700018BA386E7002A
:1057F00003C7E700018B2387E70003C7F700018B8E
:10580000A387E70003C70701018B2388E7008327ED
:10581000C4FD032704FD1376F70F03C71701018B9F
:10582000BA863287558FA388E700032704FD2183BA
:105830001376F70F03C72701018BBA863287558F7E
:105840002389E700032704FD41831376F70F03C77D
:105850003701018BBA863287558FA389E70003276A
:1058600004FD1356870103C74701018BBA863287AF
:10587000558F238AE7008327C4FD032704FD137691
:10588000F70F03C75701018BBA863287558FA38A5A
:10589000E700032704FD21831376F70F03C7670191
:1058A000018BBA863287558F238BE700032704FDCF
:1058B00041831376F70F03C77701018BBA863287CE
:1058C000558FA38BE700032704FD1356870103C7F9
:1058D0008701018BBA863287558F238CE700832797
:1058E000C4FE3E85B250225445618280411122C6D9
:1058F00000089967938787087390078001003244F6
:1059000041018280411122C6000899677390078087
:105910000100324441018280011122CE0010232671
:10592000A4FE8327C4FEFD8B0547B316F70037E7B7
:1059300000E08327C4FE9583938707048A07BA97FC
:1059400094C30100724405618280011122CE0010CF
:105950002326A4FE8327C4FEFD8B0547B316F7005C
:1059600037E700E08327C4FE9583938707068A07FD
:10597000BA9794C30100724405618280011122CE5E
:1059800000102326A4FEAE87A305F4FE37E700E04F
:105990008327C4FEBA970347B4FE2380E740010083
:1059A000724405618280011106CE22CC00102326AC
:1059B000A4FE0325C4FEEFF03FF60100F24062446E
:1059C00005618280011106CE22CC00102326A4FEA0
:1059D0000325C4FEEFF07FF70100F2406244056149
:1059E0008280011106CE22CC00102326A4FEAE87B1
:1059F000A305F4FE8347B4FEBE850325C4FEEFF085
:105A0000FFF70100F240624405618280011106CE79
:105A100022CC00102326A4FE8327C4FE99C783A7A7
:105A200041891387F7FF23AAE18883A7418999E376
:105A3000EFF0DFEB0100F24062440561828041112A
:105A400006C622C4000883A7418999E3EFF09FEBC3
:105A500083A741891387170023AAE18883A7418977
:105A60003E85B240224441018280411106C622C4D3
:105A700000080145EFF09FF90100B24022444101C6
:105A80008280357106CF16CD1ACB1EC922C72AC512
:105A90002EC332C1B6DEBADCBEDAC2D8C6D6F2D464
:105AA000F6D2FAD0FECE82E686E48AE28EE012FEDC
:105AB00016FC1AFA1EF82AF62EF432F236F03AEEF6
:105AC0003EEC42EA46E872E676E47AE27EE00011D5
:105AD00093055052B747014013850780EF202048B7
