:100000006F90600613000000130000001300000052
:100010001300000013000000130000001300000094
:100020001300000013000000130000001300000084
:08003000130000007300100032
:100038000000000000000000068F0000168F00007E
:1000480000000000AC8F000000000000000000006D
:10005800AE8F0000B08F000000000000000000001C
:10006800B28F000000000000B48F00000000000004
:10007800B68F0000B88F0000BA8F0000BC8F000058
:10008800BE8F0000C08F0000CE8100008282000079
:1000980036830000EA8300009E840000CC8F0000B5
:1000A800CE8F0000D08F0000D28F0000D48F0000C8
:1000B800D68F0000D88F0000DA8F0000DC8F000098
:1000C800DE8F0000E08F0000E28F00005285000004
:1000D800E68F00009C870000EA8F0000EC8F00008C
:1000E8005C88000016890000D6890000F48F0000A3
:1000F800F68F0000F88F0000FA8F0000FC8F0000D8
:10010800FE8F0000DA7A00009E7B0000627C00000F
:100118006A860000089000000A9000000C90000019
:10012800CE8C000010900000129000001490000087
:100138001690000018900000968A00001C9000009D
:100148002A7D0000EE7D0000568B00000E8C00001A
:1001580026900000289000002A9000002C900000B3
:100168002E90000030900000329000003490000083
:1001780036900000389000003A900000BEB00000B1
:100188003E90000040900000FE800000B07E00001D
:10019800747F00003E8000004A9000008E8D0000B1
:1001A8004E90000050900000529000004E8E0000CB
:1001B80056900000589000005A9000005C90000093
:1001C8005E90000060900000629000006490000063
:1001D8000000000000000000000000000000000017
:1001E8000000000000000000000000000000000007
:0801F8000000000000000000FF
:100200003D432A876373C3029377F700BDEFADE5E3
:10021000937606FF3D8ABA960CC34CC30CC74CC7F5
:100220004107E36BD7FE11E28280B306C3408A0622
:100230009702000096966780A6002307B700A306E2
:10024000B7002306B700A305B7002305B700A30432
:10025000B7002304B700A303B7002303B700A3022A
:10026000B7002302B700A301B7002301B700A30022
:10027000B7002300B700828093F5F50F93968500B1
:10028000D58D93960501D58D61B79396270097027A
:10029000000096968682E78086FA9680C1171D8FA9
:1002A0003E96E374C3F8A5B7011122CE00102326B1
:1002B000A4FE37F500E08328450037F500E093F809
:1002C000E8FF2322150183A8C1820965130505F4FF
:1002D00033D5A802AA8601470325C4FEAA87014890
:1002E00037F500E03303F702B308D8029A98338356
:1002F000F60233B6F6029A85B387C8003E860CC96B
:1003000050C9B7F700E09843B7F700E0136707015B
:1003100098C3B7F700E09843B7F700E013671702F8
:1003200098C30100B7F700E0DC4313F717008547D7
:10033000E31AF7FEB7F700E09843B7F700E0799BC0
:1003400098C30100724405618280011106CE22CC5F
:100350000010AA8E2E8E32833685BA853E86C286DE
:100360004687F687A307F4FEF2872307F4FE9A87F1
:10037000A306F4FEAA872306F4FEAE87A305F4FEC7
:10038000B2872305F4FEB687A304F4FEBA872304DC
:10039000F4FE8347F4FE93068004014681453E85C2
:1003A000F1298347E4FE93068004014681453E859A
:1003B000F1218347D4FE93068004014681453E85A2
:1003C00075298347C4FE93068004014681453E8516
:1003D00075218347B4FE93068004014681453E851E
:1003E00071298347A4FE93068004014681453E851A
:1003F0007121834794FE93068004014681453E8522
:10040000B529834784FE93068004014681453E85D5
:10041000B5218347440093068004014681453E850B
:10042000B1298347040093068004014681453E8537
:10043000B1218347840093068004014681453E85AF
:1004400035290100F240624405618280011106CE27
:1004500022CC00102326A4FE2324B4FEB2873687C4
:100460002313F4FEBA872312F4FE85450965EF9045
:100470002062B70705500D472380E700B7070550F6
:100480000547A380E700B7070550035744FE2392B2
:10049000E700B7070550035764FE2393E700B7074B
:1004A00005500327C4FE98C7B7070550032784FEED
:1004B000D8C7B707055011472381E70081451305C9
:1004C0006005EF70805713056005EF704053010021
:1004D000F240624405618280797106D622D4001808
:1004E000232EA4FC232CB4FC8327C4FD93B707045C
:1004F00093F7F70F3E8713068003D167938587979D
:100500003A85EF50C078832784FD93B7470093F76F
:10051000F70F3E8713069003D167938587973A8537
:10052000EF50E076A30704FE0327C4FDA167BA9746
:1005300013972700832784FDBA97AA072324F4FE84
:10054000EF7060552322A4FE231604FE35A0035746
:10055000C4FE832784FEBA979843B7E739E39387AD
:1005600097336306F7008547A307F4FE21A8835756
:10057000C4FE91072316F4FE0357C4FE9307F03F11
:10058000E3F7E7FC032544FEEF70C04D8347F4FE1C
:100590003E85B250225445618280797106D622D4BC
:1005A0000018232EA4FC232CB4FC8327C4FD93B78E
:1005B000070493F7F70F3E871306F005D16793857D
:1005C00087973A85EF50A06C832784FD93B7470047
:1005D00093F7F70F3E8713060006D1679385879739
:1005E0003A85EF50C06AA30704FE0327C4FDA16744
:1005F000BA9713972700832784FDBA97AA07232465
:10060000F4FEEF7040492322A4FEEF80D03513059D
:100610004003EF80104C032584FEEF8050392A8779
:10062000B707002023ACE72613050002EF80704ACD
:10063000EF801036B707002003A78727914763058F
:10064000F7008547A307F4FE032544FEEF708041C1
:100650008347F4FE3E85B250225445618280797111
:1006600006D622D40018232EA4FC232CB4FC832706
:10067000C4FD93B7070493F7F70F3E871306800D69
:10068000D167938587973A85EF506060832784FD13
:1006900093B7470093F7F70F3E871306900DD16786
:1006A000938587973A85EF50805E0327C4FDA16745
:1006B000BA9713972700832784FDBA97AA072324A4
:1006C000F4FE231704FE3DA08357E4FE8A073E870D
:1006D000832784FEBA978356E4FE9843B707002029
:1006E0008A069387C738B69798C38357E4FE850771
:1006F0002317F4FE0357E4FE9307F00FE3F6E7FC3D
:100700000100B250225445618280797106D622D40C
:100710000018232EA4FC232CB4FC8327C4FD93B71C
:10072000070493F7F70F3E871306100FD1679385E1
:1007300087973A85EF50A055832784FD93B74700EC
:1007400093F7F70F3E871306200FD167938587979E
:100750003A85EF50C053A30704FE232404FE23135D
:1007600004FE0327C4FDA167BA97139727008327C8
:1007700084FDBA97AA072324F4FE832584FD03256C
:10078000C4FD993BAA8791C7832584FD0325C4FD39
:100790002935EF7040302320A4FEEF80D01C89A8BB
:1007A000035764FEB70700200A079387C738BA9734
:1007B0009C43BE85032584FEEF80D0262A87B70799
:1007C000002023AEE726B707002003A7C7279147DD
:1007D0006306F7008547A307F4FE0DA0835764FE68
:1007E00085072313F4FE832784FE91072324F4FE58
:1007F000035764FE9307F00FE3F4E7FAEF80501914
:10080000032504FEEF7000268347F4FE3E85B250B8
:10081000225445618280411106C622C40008130695
:1008200000409305F00FB70700201385C738C93A79
:100830000100B240224441018280011122CE001009
:100840002326A4FE8327C4FE958313F77700B707FA
:1008500000200A0793870704BA979C439C47032705
:10086000C4FE7D8B85463397E600F98FB337F000E1
:1008700093F7F70F3E85724405618280797106D641
:1008800022D40018232EA4FC232CB4FCB2872328E6
:10089000D4FCA30BF4FC232004FE232204FE232417
:1008A00004FE8327C4FD958393F7F70F9D8BA30761
:1008B000F4FE8327C4FD93F7F70FFD8B2307F4FEA7
:1008C0008347F4FE91E785451145EF90C02091A83C
:1008D0000347F4FE85476317F70085452145EF90F0
:1008E000801F81A00347F4FE89476317F700854501
:1008F0004145EF90401E35A00347F4FE8D47631835
:10090000F700854513050002EF90E01C19A8034786
:10091000F4FE91476317F700854513050004EF9037
:10092000801B8347E4FE0547B317F700C207C18366
:100930002310F4FE032784FD85476317F7028327FE
:1009400004FDC207C183A183C207C18389E78D4724
:100950002322F4FE11A8832704FDC207C183A183CB
:10096000C207C1832322F4FE832704FDC207C1838B
:1009700093F7F70F2324F4FE0347F4FEB707002094
:100980000A0793870704BA979C43130704FEBA85A6
:100990003E85EF80F020032784FD85476319F70229
:1009A0000347F4FEB70700200A0793870704BA97A6
:1009B00094438347E4FE0547B317F700C207C1839A
:1009C000034774FD3A86BE853685EF8010400100EE
:1009D000B2502254456182801D7186CEA2CC801017
:1009E0002326A4FA2324B4FA85450325C4FAEF107C
:1009F000A05EAA873E871306D006D167938547A3DA
:100A00003A85EF50C028832784FAB337F00093F774
:100A1000F70F3E871306F006D167938547A33A8503
:100A2000EF50E026832784FABD832315F4FE835715
:100A3000A4FE85073E87832784FAB3D7E7022314F1
:100A4000F4FE0325C4FAEF10805FB73701409387A7
:100A500007C02326F4FE0327C4FAA54763ECE70882
:100A60008327C4FA13972700D16793870746BA975D
:100A70009C438287B7370140938707C02326F4FE43
:100A800095A8B70700402326F4FEADA0B7070040A5
:100A9000938707402326F4FEB1A8B7170040938739
:100AA00007802326F4FEB9A0B7170040938707C03C
:100AB0002326F4FE81A0B71700402326F4FE1DA8CC
:100AC000B7170040938707402326F4FE25A0B737C9
:100AD0000140938707402326F4FE29A8B757014019
:100AE000938707C02326F4FE31A0B7570140232681
:100AF000F4FE0100232E04FC232004FE231204FE36
:100B0000835784FE2310F4FE8357A4FE231EF4FCB7
:100B1000231104FE231F04FC230204FE9307C4FDDB
:100B2000BE850325C4FEEF900029054685450325B3
:100B3000C4FEEF90B03885450325C4FEEF90106FDA
:100B4000D16703AEC7A01387C7A00323470013874D
:100B5000C7A0832887001387C7A00328C70013876F
:100B6000C7A0084B1387C7A04C4B1387C7A0104FD3
:100B70001387C7A0544F1387C7A018539387C7A0E4
:100B8000DC53232AC4FB232C64FA232E14FB2320DA
:100B900004FD2322A4FC2324B4FC2326C4FC232824
:100BA000D4FC232AE4FC232CF4FC8327C4FA93F717
:100BB000F70F8A07130704FFBA9783A747FC8D45F1
:100BC0003E85EF6090678327C4FA8A07130704FF06
:100BD000BA9783A747FC3E85EF6070628545032581
:100BE000C4FEEF9030220100F64066442561828009
:100BF000797106D622D40018232EA4FC232CB4FC31
:100C0000032784FD896793871771B337F70093F73C
:100C1000F70F3E8713065003D167938547AC3A859B
:100C2000EF50E006B7370140938707C02326F4FE54
:100C30008327C4FDC183BD8B2547636EF7061397D9
:100C40002700D16793878748BA979C438287B73735
:100C50000140938707C02326F4FEB1A8B7070040E0
:100C60002326F4FE89A8B707004093870740232670
:100C7000F4FE91A0B7170040938707802326F4FE67
:100C80001DA8B7170040938707C02326F4FE25A0B0
:100C9000B7370140938707402326F4FE29A8B757AA
:100CA0000140938707C02326F4FE31A0B7570140C7
:100CB0002326F4FE01008327C4FE83D7C702231531
:100CC000F4FE0357A4FE832784FD3307F7028967E8
:100CD00093870771B357F7022314F4FE8327C4FDEB
:100CE000A1838D8B81EB8327C4FE035784FE239A57
:100CF000E702A9A88327C4FDA18313F7370085471E
:100D00006319F7008327C4FE035784FE239CE70280
:100D100035A88327C4FDA18313F7370089476319DA
:100D2000F7008327C4FE035784FE239EE70239A8F9
:100D30008327C4FDA18313F737008D476318F7009D
:100D40008327C4FE035784FE2390E7040100B250BA
:100D50002254456182805D7186C6A2C48008232E1C
:100D6000A4FA232CB4FA232AC4FA8327C4FBC18330
:100D70008D453E85EF104026AA873E871306D00A90
:100D8000D167938547AC3A85EF407070032744FBE9
:100D9000896793871771B337F70093F7F70F3E878B
:100DA0001306F00AD167938547AC3A85EF40306E61
:100DB000232E04FC232004FE231204FE232604FC1D
:100DC000232804FC232A04FC232C04FC231504FE02
:100DD0008327C4FBC183BD8B3E85EF10402683274C
:100DE000C4FB93F7F70F93068031014685453E8596
:100DF000713485450545EF80104EB7370140938724
:100E000007C02326F4FE8327C4FBC183BD8B25477F
:100E1000636EF70613972700D1679387074BBA973E
:100E20009C438287B7370140938707C02326F4FE8F
:100E3000B1A8B70700402326F4FE89A8B7070040F1
:100E4000938707402326F4FE91A0B71700409387AD
:100E500007802326F4FE1DA8B7170040938707C01C
:100E60002326F4FE25A0B7370140938707402326A9
:100E7000F4FE29A8B7570140938707C02326F4FE44
:100E800031A0B75701402326F4FE01008327C4FB9D
:100E900013D7C7008D47631AF7008545B7071600BB
:100EA0001385070CEF80E07515AA8327C4FB13D7C1
:100EB000C700C547631AF7008545B70718001385B3
:100EC0000710EF80007419AA8327C4FB13D7C7004B
:100ED000C947631AF7008545B7071800138507202F
:100EE000EF802072E5A88327C4FB13D7C700CD4746
:100EF000631AF7008545B707180013850730EF80A0
:100F00004070E9A88327C4FB13D7C70093072002CA
:100F1000631AF7008545B7171A0013850780EF801D
:100F2000406E6DA88327C4FB13D7C7009307300218
:100F3000631AF7008545B7171A00138507C0EF80BD
:100F4000406C69A88327C4FB13D7C700930710031D
:100F50006317F70085450565EF80A06A41A08327E8
:100F6000C4FB13D7C70093071007631AF700854522
:100F7000B707008013854700EF80A06885A083270E
:100F8000C4FB13D7C70093073008631AF7008545E1
:100F9000B707138013850701EF80A06681A0832720
:100FA000C4FB13D7C70093071009631AF7008545E0
:100FB000B707158013850702EF80A06405A083277B
:100FC000C4FB13D7C700930730096319F7008545A1
:100FD000B707158013850704EF80A06203A7C182BD
:100FE000832784FBB357F702C1832315F4FE03A7BD
:100FF000C1828357A4FE8507BE86832784FBB387FF
:10100000F602B357F7022314F4FE035784FE832736
:1010100044FB3307F702896793870771B357F702D9
:101020002313F4FE835784FEFD17C207C1832310E8
:10103000F4FE8357A4FE231EF4FC231104FE231F99
:1010400004FC230204FE9307C4FDBE850325C4FEF1
:10105000EF807056930700072316F4FC854723178B
:10106000F4FC231804FC835764FE2319F4FC89471D
:10107000231AF4FC8947231BF4FC231C04FC231DC6
:1010800004FC8327C4FBA1838D8B9DE39307C4FCE1
:10109000BE850325C4FEEF80F069A1450325C4FE8B
:1010A000EF90C06891450325C4FEEF90E07C45A019
:1010B0008327C4FBA18313F7370085476315F70225
:1010C0009307C4FCBE850325C4FEEF906000A145D4
:1010D0000325C4FEEF90406A930500400325C4FE3B
:1010E000EF90407EADA08327C4FBA18313F73700A8
:1010F00089476314F7029307C4FCBE850325C4FE29
:10110000EF90201BA1450325C4FEEF90806C914514
:101110000325C4FEEF9070001DA88327C4FBA183A4
:1011200013F737008D476314F7029307C4FCBE859D
:101130000325C4FEEF90A035A1450325C4FEEF9022
:10114000006E930500400325C4FEEF90D001854555
:101150000325C4FEEF90805085450325C4FEEF9023
:10116000604A0100B640264461618280797106D6EA
:1011700022D40018232EA4FC8327C4FDB337F0002B
:1011800093F7F70F3E8713061004D167938547B591
:101190003A85EF40D02F8327C4FD9C43BD8B054784
:1011A000B317F70093960701C1828327C4FD9C43C0
:1011B00013D75700B70700200A0793870704BA9789
:1011C0009C43368798CB8327C4FDDC43BD8B054702
:1011D000B317F70093960701C1828327C4FDDC4350
:1011E00013D75700B70700200A0793870704BA9759
:1011F0009C43368798CB8327C4FDDC472326F4FE27
:1012000001008327C4FE1387F7FF2326E4FEF5FBC6
:101210008327C4FDDC43BD8B0547B317F7009396C6
:101220000701C1828327C4FDDC4313D75700B707EA
:1012300000200A0793870704BA979C433687D8CBC8
:101240008327C4FDDC472324F4FE0100832784FEAA
:101250001387F7FF2324E4FEF5FB8327C4FD9C439B
:10126000BD8B0547B317F70093960701C18283270B
:10127000C4FD9C4313D75700B70700200A07938784
:101280000704BA979C433687D8CB0100B25022544A
:1012900045618280797106D622D40018232EA4FCE1
:1012A0008327C4FDB337F00093F7F70F3E8713068B
:1012B0004005D167938547B53A85EF40501D832798
:1012C000C4FDDC43BD8B0547B317F70093960701B8
:1012D000C1828327C4FDDC4313D75700B707002022
:1012E0000A0793870704BA979C433687D8CB83278E
:1012F000C4FD9C43BD8B0547B317F70093960701C8
:10130000C1828327C4FD9C4313D75700B707002031
:101310000A0793870704BA979C433687D8CB83275D
:10132000C4FDDC472326F4FE01008327C4FE138797
:10133000F7FF2326E4FEF5FB8327C4FD9C43BD8B0A
:101340000547B317F70093960701C1828327C4FDB1
:101350009C4313D75700B70700200A079387070459
:10136000BA979C43368798CB8327C4FDDC47232458
:10137000F4FE0100832784FE1387F7FF2324E4FE95
:10138000F5FB8327C4FDDC43BD8B0547B317F7008E
:1013900093960701C1828327C4FDDC4313D757000E
:1013A000B70700200A0793870704BA979C4336873C
:1013B00098CB8327C4FDDC472322F4FE010083275A
:1013C00044FE1387F7FF2322E4FEF5FB0100B25031
:1013D000225445618280797106D622D40018232ECA
:1013E000A4FCAE87A30DF4FC8327C4FDB337F00043
:1013F00093F7F70F3E8713069006D167938547B59D
:101400003A85EF40D0088327C4FD9C43BD8B054738
:10141000B317F70093960701C1828327C4FD9C434D
:1014200013D75700B70700200A0793870704BA9716
:101430009C433687D8CB8347B4FD95CB8327C4FD27
:10144000DC43BD8B0547B317F70093960701C182B4
:101450008327C4FDDC4313D75700B70700200A07D2
:1014600093870704BA979C43368798CB0DA88327A8
:10147000C4FDDC43BD8B0547B317F7009396070106
:10148000C1828327C4FDDC4313D75700B707002070
:101490000A0793870704BA979C433687D8CB8327DC
:1014A000C4FDDC472326F4FE01008327C4FE138716
:1014B000F7FF2326E4FEF5FB8327C4FD9C43BD8B89
:1014C0000547B317F70093960701C1828327C4FD30
:1014D0009C4313D75700B70700200A0793870704D8
:1014E000BA979C43368798CB8327C4FDDC472324D7
:1014F000F4FE0100832784FE1387F7FF2324E4FE14
:10150000F5FB8327C4FD9C43BD8B0547B317F7004C
:1015100093960701C1828327C4FD9C4313D75700CC
:10152000B70700200A0793870704BA979C433687BA
:10153000D8CB8327C4FDDC43BD8B0547B317F70029
:1015400093960701C1828327C4FDDC4313D757005C
:10155000B70700200A0793870704BA979C4336878A
:1015600098CB0100B250225445618280797106D631
:1015700022D40018232EA4FC8327C4FDB337F00027
:1015800093F7F70F3E8713065008D167938547B549
:101590003A85EF40C06FA30704FE8327C4FD9C4338
:1015A000BD8B0547B317F70093960701C1828327C8
:1015B000C4FD9C4313D75700B70700200A07938741
:1015C0000704BA979C433687D8CB8327C4FDDC43F6
:1015D000BD8B0547B317F70093960701C182832798
:1015E000C4FDDC4313D75700B70700200A079387D1
:1015F0000704BA979C43368798CB8327C4FDDC4702
:101600002324F4FE0100832784FE1387F7FF23249D
:10161000E4FEF5FB8327C4FD9C43BD8B0547B31750
:10162000F70093960701C1828327C4FD9C4313D71B
:101630005700B70700200A0793870704BA979C430F
:10164000368798CB8327C4FDDC472322F4FE0100B4
:10165000832744FE1387F7FF2322E4FEF5FB83274D
:10166000C4FDDC433E85EFF04F9DAA8781C78547C7
:10167000A307F4FE8327C4FD9C43BD8B0547B31726
:10168000F70093960701C1828327C4FD9C4313D7BB
:101690005700B70700200A0793870704BA979C43AF
:1016A0003687D8CB8327C4FDDC472320F4FE010016
:1016B000832704FE1387F7FF2320E4FEF5FB83470F
:1016C000F4FE3E85B250225445618280797106D67F
:1016D00022D40018232EA4FCAE87A30DF4FC83278C
:1016E000C4FDB337F00093F7F70F3E871306700A77
:1016F000D167938547B53A85EF406059930700F865
:10170000A307F4FE09AA0347B4FD8347F4FEF98F4B
:1017100093F7F70F95CB8327C4FDDC43BD8B0547BB
:10172000B317F70093960701C1828327C4FDDC43FA
:1017300013D75700B70700200A0793870704BA9703
:101740009C43368798CB0DA88327C4FDDC43BD8B13
:101750000547B317F70093960701C1828327C4FD9D
:10176000DC4313D75700B70700200A079387070405
:10177000BA979C433687D8CB8347F4FE8583A3076B
:10178000F4FE8327C4FDDC472324F4FE01008327F5
:1017900084FE1387F7FF2324E4FEF5FB8327C4FDB3
:1017A0009C43BD8B0547B317F70093960701C18291
:1017B0008327C4FD9C4313D75700B70700200A07AF
:1017C00093870704BA979C43368798CB8327C4FD39
:1017D000DC472322F4FE0100832744FE1387F7FF32
:1017E0002322E4FEF5FB8327C4FD9C43BD8B054704
:1017F000B317F70093960701C1828327C4FD9C436A
:1018000013D75700B70700200A0793870704BA9732
:101810009C433687D8CB8347F4FEE39607EE032537
:10182000C4FDA933AA87FD17B337F00093F7F70F6C
:101830003E85B250225445618280397106DE22DC39
:1018400026DA80002326A4FCAE87A305F4FC8327B8
:10185000C4FCB337F00093F7F70F3E871306000C74
:10186000D167938547B53A85EF406042A30704FEF0
:10187000A1472307F4FE8327C4FC9C43BD8B054787
:10188000B317F70093960701C1828327C4FC9C43DA
:1018900013D75700B70700200A0793870704BA97A2
:1018A0009C433687D8CB8327C4FCDC472324F4FE33
:1018B0000100832784FE1387F7FF2324E4FEF5FB52
:1018C0008327C4FCDC43BD8B0547B317F700939611
:1018D0000701C1828327C4FCDC4313D75700B70735
:1018E00000200A0793870704BA979C43368798CB52
:1018F0007DA88327C4FC9C43BD8B0547B317F70025
:1019000093960701C1828327C4FC9C4313D75700D9
:10191000B70700200A0793870704BA979C433687C6
:10192000D8CB8327C4FCDC472322F4FE01008327A5
:1019300044FE1387F7FF2322E4FEF5FB8327C4FC54
:101940009C43BD8B0547B317F70093960701C182EF
:101950008327C4FC9C4313D75700B70700200A070E
:1019600093870704BA979C43368798CB8327C4FC98
:10197000DC472320F4FE0100832704FE1387F7FFD2
:101980002320E4FEF5FB8347F4FE8607939487014A
:10199000E1848327C4FCDC433E85EFE01FEAAA878D
:1019A000E207E187C58FE207E187A307F4FE8347DB
:1019B000E4FE1387F7FF2307E4FE85FF8327C4FCBB
:1019C0009C43BD8B0547B317F70093960701C1826F
:1019D0008327C4FC9C4313D75700B70700200A078E
:1019E00093870704BA979C433687D8CB8327C4FCD8
:1019F000DC47232EF4FC01008327C4FD1387F7FF87
:101A0000232EE4FCF5FB8347B4FCBE850325C4FC10
:101A1000EFF07F9C8347F4FE3E85F2506254D2542F
:101A200021618280011106CE22CC00102326A4FE63
:101A3000AE873287A305F4FEBA872305F4FE832719
:101A4000C4FEB337F00093F7F70F3E871306202943
:101A5000D167938547B53A85EF4060230325C4FEDF
:101A6000EFF0CFF08327C4FE83C78700860793F784
:101A7000F70FBE850325C4FE91398347B4FEBE85AA
:101A80000325C4FEA1318347A4FEBE850325C4FE01
:101A900035390325C4FEEFF0EFFF0100F240624448
:101AA00005618280797106D622D40018232EA4FC09
:101AB000AE87A30DF4FC8327C4FDB337F00093F782
:101AC000F70F3E871306402AD167938547B53A85BD
:101AD000EF40E01BA30704FE0325C4FDEFF00FE970
:101AE0008327C4FD83C78700860793F7F70FBE855A
:101AF0000325C4FDE13E8347B4FDBE850325C4FD37
:101B0000F1360325C4FDEFF0EFF80325C4FDEFF037
:101B1000EFE58327C4FD83C787008607E207E187D7
:101B200093E71700E207E18793F7F70FBE850325D8
:101B3000C4FD693E85450325C4FD0133AA87A3077B
:101B4000F4FE0325C4FDEFF0EFF48347F4FE3E8579
:101B5000B250225445618280797106D622D4001891
:101B60002326A4FEAE872322C4FE2320D4FE232EE8
:101B7000E4FCA305F4FE8327C4FEB337F00093F71B
:101B8000F70F3E871306F02BD167938547B53A854B
:101B9000EF40E00F032704FE8327C4FDB307F7409F
:101BA000B337F00093F7F70F3E871306002CD16789
:101BB000938547B53A85EF40800D8327C4FE032700
:101BC00004FE98C38327C4FE0327C4FDD8C383271C
:101BD000C4FE0347B4FE2384E7008327C4FE032723
:101BE00044FED8C7C14605468545032504FEEFE0FF
:101BF000FFC8D146054685450325C4FDEFE01FC853
:101C00000100B250225445618280011122CE0010A1
:101C10002326A4FEAE87A305F4FED1670327C4FEE6
:101C20000A079387874DBA979C433E878347B4FE44
:101C3000C207C1832316F7000100D1670327C4FE42
:101C40000A079387874DBA979C4383D78700C207BB
:101C5000C18393F70708F5F30100724405618280A0
:101C6000011122CE00102326A4FEAE872315F4FE18
:101C70008357A4FEA183C207C18393F6F70FD167F0
:101C80000327C4FE0A079387874DBA979C433E8774
:101C900093970601C1832316F7000100D16703273C
:101CA000C4FE0A079387874DBA979C4383D7870062
:101CB000C207C183898BFDD38357A4FE93F6F70F28
:101CC000D1670327C4FE0A079387874DBA979C43C1
:101CD0003E8793970601C1832316F7000100D16761
:101CE0000327C4FE0A079387874DBA979C4383D77F
:101CF0008700C207C18393F70708F5F30100724418
:101D0000056182805D7186C6A2C480082326A4FC7A
:101D10002324B4FC2322C4FC2320D4FC232EE4FA85
:101D2000232CF4FA232A04FBD1670327C4FC0A07F7
:101D30009387874DBA979C433E85EF70506B8545DE
:101D40000545EF705059032704FC93073012631DBB
:101D5000F7000327C4FB930750126317F70085456C
:101D60000545EF70100A25A0032704FC89679387B7
:101D7000A714631EF7000327C4FB89679387C71462
:101D80006317F700854537152000EF70900783270C
:101D9000C4FC91E785450565EF70F05325A0032746
:101DA000C4FC85476317F70085451165EF70105730
:101DB00011A80327C4FC89476316F70085452165F0
:101DC000EF70D055832704FC93F7F70F930680310B
:101DD000054685453E85EFE07FAA8327C4FB93F740
:101DE000F70F93068031054685453E85EFE01FA934
:101DF000032784FBC167F917630DF700832784FB72
:101E000093F7F70F93068034054681453E85EFE052
:101E1000FFA6032744FB9307F00F630DF70083270A
:101E200044FB93F7F70F93060031014685453E8545
:101E3000EFE0DFA4232E04FC232004FE232204FE73
:101E4000232404FE231604FE231E04FC93074010E3
:101E5000231FF4FC231004FE032784FC854763053D
:101E6000F702832784FC81CF032784FC894763031F
:101E7000F702032784FC8D476304F7020DA82311A2
:101E800004FE231204FE25A0231104FE854723121D
:101E9000F4FE31A889472311F4FE231204FE01A8A1
:101EA00089472311F4FE85472312F4FE010023170E
:101EB00004FE03A7C182832744FCB357F70223170C
:101EC000F4FE03A7C182832744FCB377F70291E7AE
:101ED0008357E4FEFD172317F4FE0357E4FE930730
:101EE000F00763F7E700930780032317F4FE49A880
:101EF0000357E4FE9307F00363F7E700930700033B
:101F00002317F4FEB5A80357E4FEFD4763F7E70087
:101F1000930780022317F4FEA5A00357E4FEBD47F4
:101F200063F7E700930700022317F4FE91A8035715
:101F3000E4FE9D4763F6E700E1472317F4FE89A01E
:101F40000357E4FE8D4763F6E700C1472317F4FE0D
:101F500005A80357E4FE854763F6E700A14723176A
:101F6000F4FE39A88357E4FE81C7231704FE09A8AD
:101F700013068022D167938587BE0145EF3030512B
:101F80008357E4FE2314F4FE930700202313F4FE8A
:101F9000231504FE231604FED1670327C4FC0A0799
:101FA0009387874DBA979C433E879307C4FDBE85B0
:101FB0003A85EF70304BD1670327C4FC0A0793873B
:101FC000874DBA979C4385453E85EF703059010097
:101FD000B640264461618280797122D60018232E92
:101FE000A4FC232CB4FC8547A307F4FE0327C4FDFF
:101FF0000A07938741D1BA979C4399EB0327C4FD05
:102000000A07938741D1BA97032784FD98C315A087
:102010000327C4FD0A07938741D1BA979C4303273E
:1020200084FD6316F7008547A307F4FE19A0A307F4
:1020300004FE8347F4FE3E853254456182800111DF
:1020400006CE22CC00102326A4FE8327C4FE81EBFB
:102050008545856713850780EF70F0276DA80327F6
:10206000C4FE85476317F70085450545EF70102BC3
:102070005DA00327C4FE89476317F700854509451E
:10208000EF70D02949A80327C4FE8D476317F700D6
:1020900085451145EF709028BDA80327C4FE9147E0
:1020A0006317F70085452145EF705027ADA0032742
:1020B000C4FE95476317F70085454145EF7010262C
:1020C00099A80327C4FE99476318F70085451305AF
:1020D0000002EF70B02481A00327C4FE9D47631760
:1020E000F70085450965EF70101F35A00327C4FE72
:1020F000A1476318F700854537050800EF70B01D4C
:1021000019A80327C4FEA5476317F70085453705BF
:102110001000EF70501C0100F240624405618280A3
:10212000797106D622D40018232EA4FCB7370140BB
:10213000938707C02326F4FE0327C4FDA54763EC5D
:10214000E7088327C4FD13972700D1679387474E7D
:10215000BA979C438287B7370140938707C02326ED
:10216000F4FE95A8B70700402326F4FEADA0B707FC
:102170000040938707402326F4FEB1A8B71700401C
:10218000938707802326F4FEB9A0B71700409387F2
:1021900007C02326F4FE81A0B71700402326F4FED3
:1021A0001DA8B7170040938707402326F4FE25A0FB
:1021B000B7370140938707402326F4FE29A8B75775
:1021C0000140938707C02326F4FE31A0B757014092
:1021D0002326F4FE010085450325C4FEEF808042DE
:1021E0000100B250225445618280797122D60018D4
:1021F000232EA4FCB7370140938707C02326F4FEA3
:10220000231504FE0327C4FDA54763ECE7088327D5
:10221000C4FD13972700D1679387C750BA979C4393
:102220008287B7370140938707C02326F4FE95A81D
:10223000B70700402326F4FEADA0B7070040938700
:1022400007402326F4FEB1A8B71700409387078004
:102250002326F4FEB9A0B7170040938707C02326B2
:10226000F4FE81A0B71700402326F4FE1DA8B7177F
:102270000040938707402326F4FE25A0B73701408E
:10228000938707402326F4FE29A8B7570140938778
:1022900007C02326F4FE31A0B75701402326F4FEE1
:1022A00001000327C4FD0A079387C1D3BA97984357
:1022B0008947631FF7008327C4FE83D7470213971C
:1022C000070141838D47B357F7022315F4FE39A068
:1022D0008327C4FE83D747022315F4FE8357A4FE49
:1022E0003E85325445618280797122D60018232EB2
:1022F000A4FCB7370140938707C02326F4FE0327C9
:10230000C4FDA54763ECE7088327C4FD13972700A6
:10231000D16793874753BA979C438287B737014069
:10232000938707C02326F4FE95A8B707004023260D
:10233000F4FEADA0B7070040938707402326F4FEC4
:10234000B1A8B7170040938707802326F4FEB9A0F1
:10235000B7170040938707C02326F4FE81A0B71764
:1023600000402326F4FE1DA8B717004093870740BE
:102370002326F4FE25A0B737014093870740232684
:10238000F4FE29A8B7570140938707C02326F4FE1F
:1023900031A0B75701402326F4FE01008327C4FE75
:1023A000239207020100325445618280797106D67A
:1023B00022D40018232EA4FC232CB4FC854503252D
:1023C000C4FD1939AA873E871306200FD16793856C
:1023D00087C73A85EF30B00B0327C4FD0A07938700
:1023E00041D1BA97054798C3B7370140938707C0D3
:1023F0002326F4FE0327C4FDA54763ECE7088327E3
:10240000C4FD13972700D1679387C755BA979C439C
:102410008287B7370140938707C02326F4FE95A82B
:10242000B70700402326F4FEADA0B707004093870E
:1024300007402326F4FEB1A8B71700409387078012
:102440002326F4FEB9A0B7170040938707C02326C0
:10245000F4FE81A0B71700402326F4FE1DA8B7178D
:102460000040938707402326F4FE25A0B73701409C
:10247000938707402326F4FE29A8B7570140938786
:1024800007C02326F4FE31A0B75701402326F4FEEF
:1024900001000325C4FD65360327C4FD0A079387A1
:1024A000C1D3BA97032784FD98C3232004FE2322B7
:1024B00004FE231404FE032784FD85476315F702F9
:1024C000FD572312F4FE03A7C182B7470F0093877D
:1024D0000724B357F702C207C183FD17C207C183A0
:1024E0002310F4FE2DA8032784FD89476314F70207
:1024F000FD572312F4FE03A7C1828567938787BB2C
:10250000B357F702C207C183FD17C207C183231067
:10251000F4FE31A0FD572312F4FE231004FE231312
:1025200004FE231104FE230404FE930704FEBE856B
:102530000325C4FEEF70300885450325C4FEEF80F7
:10254000600C0100B250225445618280011122CEFC
:1025500000102326A4FEAE87A305F4FE0100D16778
:102560000327C4FE0A0793874758BA979C4383D72B
:102570000700C207C18393F70708F5D3D167032784
:10258000C4FE0A0793874758BA979C433E87834700
:10259000B4FEC207C1832312F70001007244056133
:1025A0008280011106CE22CC00102326A4FE232413
:1025B000B4FE2322C4FE832784FEB337F00093F7D2
:1025C000F70F3E8713061004D1679385C7D03A856D
:1025D000EF30E06B29A8832784FE1387170023249C
:1025E000E4FE83C70700BE850325C4FE8537832725
:1025F00044FE1387F7FF2322E4FEF1FF0100F240BF
:10260000624405618280011106CE22CC001023268F
:10261000A4FE2324B4FE832784FEB337F00093F78F
:10262000F70F3E8713060005D1679385C7D03A851B
:10263000EF30E06539A8832784FE13871700232431
:10264000E4FE8387070093F7F70FBE850325C4FEDA
:10265000F53D832784FE83870700F1FF0100F240E8
:10266000624405618280011106CE22CC001023262F
:10267000A4FEAE87A305F4FED1670327C4FE0A07B4
:1026800093874758BA979C433E878347B4FE3E865C
:10269000930550523A85EF8080651387C184832764
:1026A000C4FEBA9783C7070081453E85EF50E038E6
:1026B0008347B4FE81CF1387C1848327C4FEBA97B2
:1026C00083C707003E85EF50803319A81387C18464
:1026D0008327C4FEBA9783C707003E85EF500034B6
:1026E0000100F240624405618280011122CE001097
:1026F0002326A4FE2324B4FED1670327C4FE0A07C1
:1027000093874758BA979C4383D70700C207C18372
:1027100093F707028DC7D1670327C4FE0A07938783
:102720004758BA979C4383D74700C207C18313F722
:10273000F70F832784FE2380E700854711A0814798
:102740003E85724405618280797106D622D40018D4
:10275000232EA4FC232CB4FC232AC4FC2328D4FC61
:10276000032744FD832704FD3D8F8327C4FDB20763
:10277000F98F93B7170093F7F70F3E871306A00A58
:10278000D1679385C7D03A85EF306050832744FDE9
:1027900013D78700832704FDA183B307F74093B7BE
:1027A000170093F7F70F3E871306B00AD16793859A
:1027B000C7D03A85EF30A04D832744FD93F7F70F3C
:1027C000E146014685453E85EFE04F8B832704FDBA
:1027D00093F7F70F93068004014681453E85EFE0AD
:1027E000EF8985450545EF70002F032744FDC1673C
:1027F000FD17F98F0D67130707386387E7200D670B
:10280000130707386369F7040567130757166381D1
:10281000E716056713075716636FF7001307F022D3
:10282000638AE70C130760306381E71013076012B7
:102830006388E70865A6096713078736638BE71681
:102840000D67130707126387E71809671307A714B3
:102850006380E71461A615671307A738638EE72620
:1028600015671307A7386362F702116713078738E4
:102870006380E7201567130787126385E7221167D6
:1028800013074712638CE71A91AE19671307C7380D
:102890006388E72A19671307C7386368F700196761
:1028A000130767106384E72615AE1D671307E7104B
:1028B0006382E72C1D671307E7386387E72E39AE7D
:1028C000B7070140D44FB7070140370700FC7D1719
:1028D000758FD8CFB7070140D843B70701406D9B2C
:1028E000D8C3B7070140D843B70701401367470073
:1028F000D8C3EDA4B7070140D44FB707014037074D
:1029000000FC7D17758FD8CFB7070140D44FB707AC
:10291000014037070004558FD8CFB7070140D8438F
:10292000B70701406D9BD8C355ACB7070140D44FE2
:10293000B7070140370700FC7D17758FD8CFB70761
:102940000140D44FB707014037070004558FD8CF57
:10295000B7070140D843B70701406D9BD8C3B707FD
:102960000140D843B707014013674700D8C3BDA44F
:10297000B7070140D843B70701405D9BD8C3B707ED
:102980000140D843B707014013678700D8C3B9A4F3
:10299000B7070140D843B70701401377F7FCD8C306
:1029A000B7070140D843B707014013670701D8C3F1
:1029B00035A4B7070140D843B70701401377F7FCA8
:1029C000D8C3B7070140D843B707014013670703CF
:1029D000D8C329A4B7070140D44FB7070140370730
:1029E000FDFF7D17758FD8CFB7070140D44F8327E0
:1029F00044FDA18313970701B70703007D8FB70735
:102A00000140558FD8CFD9AAB7070140D44FB70797
:102A100001403707FDFF7D17758FD8CFB7070140FD
:102A2000D44F832744FDA18313970701B707030001
:102A30007D8FB7070140558FD8CF4DA2B707014012
:102A4000D44FB70701403707F4FF7D17758FD8CFF4
:102A5000B7070140D44F832744FDA1831397270173
:102A6000B7070C007D8FB7070140558FD8CFBDA2A7
:102A7000B7070140D44FB70701403707F4FF7D1770
:102A8000758FD8CFB7070140D44F832744FDA1836A
:102A900013972701B7070C007D8FB7070140558FAB
:102AA000D8CF2DAAB7070140D44FB7070140370749
:102AB000D0FF7D17758FD8CFB7070140D44F83273C
:102AC00044FDA18313974701B70730007D8FB707F7
:102AD0000140558FD8CF19A2B7070140D44FB7078F
:102AE00001403707D0FF7D17758FD8CFB70701405A
:102AF000D44F832744FDA18313974701B7073000C4
:102B00007D8FB7070140558FD8CFC9A8B7070140BF
:102B1000D44FB7070140370740FF7D17758FD8CFD7
:102B2000B7070140D44F832744FDA1831397670162
:102B3000B707C0007D8FB7070140558FD8CF79A860
:102B4000B7070140D44FB7070140370740FF7D1753
:102B5000758FD8CFB7070140D44F832744FDA18399
:102B600013976701B707C0007D8FB7070140558FE6
:102B7000D8CFADA0B7070140D44FB7070140370702
:102B800000FD7D17758FD8CFB7070140D44F83273D
:102B900044FDA18313978701B70700037D8FB70713
:102BA0000140558FD8CF1DA8B7070140D44FB707B4
:102BB0000140370700FD7D17758FD8CFB70701405B
:102BC000D44F832744FDA18313978701B7070003E0
:102BD0007D8FB7070140558FD8CF01008327C4FDF3
:102BE00091E785451165EF60106F69A80327C4FD63
:102BF00085476318F700854537050200EF601072BE
:102C000051A00327C4FD89476318F70085453705A0
:102C10000400EF60B070BDA00327C4FD8D476318AA
:102C2000F700854537050800EF60506FA1A803271E
:102C3000C4FD91476318F700854537051000EF6024
:102C4000F06D89A00327C4FD95476318F7008545FB
:102C500013050004EF60906C35A00327C4FD99476D
:102C60006318F700854513050008EF60306B19A85D
:102C70000327C4FD9D476317F70085451305001022
:102C8000EF60D069232004FE232204FE232404FEE7
:102C9000232604FE832784FD2320F4FE231204FE52
:102CA000231304FE231404FE231604FEB147231548
:102CB000F4FED1670327C4FD0A0793874758BA97E4
:102CC0009C433E87930704FEBE853A85EF70F0581B
:102CD000D1670327C4FD0A0793874758BA979C43D7
:102CE00085453E85EF70B07A0100B25022544561AF
:102CF0008280411106C622C4000883A74186054789
:102D0000638BE7006386070C0947638DE7000D4777
:102D1000638FE702D9A083A701861387170023A03A
:102D2000E18665A883A701861387170023A0E186A3
:102D300003A70186A54763FFE708B707002093872D
:102D400007049C4B1167D8CB23A0018661A003A781
:102D5000818685476312F7081305F008EFD0FFADB1
:102D6000AA87B9CF1945EFF04FC8AA873E8783A736
:102D700001861D8F9307600963F0E7061945EFF0A0
:102D8000AFD683A70186D3F717D05385F720EFD0AE
:102D9000E015D16703A607DA83A647DAEFB0705AC9
:102DA000AA872E883E85C285EFC0107DAA8713971B
:102DB000070141832394E180094723A4E18629A8E0
:102DC0001945EFF08FC2AA873E8723A0E18629A08C
:102DD000010021A0010011A001000100B240224425
:102DE00041018280411106C622C4000883A74186A2
:102DF0000947637CF7000D47639AE7001945EFF038
:102E0000AFCE054723A4E18611A001000100B24026
:102E1000224441018280011106CE22CC00102322DF
:102E200004FE83C7D1866381071409A8930734FE83
:102E30000546BE85138541D6EF30700A930734FEF0
:102E4000BE851D45EFF07F8AAA87EDF3034734FE68
:102E5000A947631BF71099472322F4FE130744FE8A
:102E6000930784FE85463A86BE85138541D6EF30AA
:102E7000B065930784FE138737000D46D1679385AD
:102E800087DA3A85EFE0201FAA879DEB03A74187E9
:102E900089476304F70C054723AAE186138541D6C9
:102EA000EF304056AA872322F4FE930744FE814662
:102EB0003E86938501E0138541D6EF30F06071A81E
:102EC000930784FE138737000D46D1679385C7DAD1
:102ED0003A85EFE0401AAA879DEB03A7018789474F
:102EE000630DF706054723A8E186138541D6EF3029
:102EF0006051AA872322F4FE930744FE81463E8652
:102F0000938501D8138541D6EF30105CB9A09307A3
:102F100084FE138737000D46D167938507DB3A851A
:102F2000EFE06015AA8795EB03A7818789476306C1
:102F3000F702054723ACE186138541D6EF30804C7C
:102F4000AA872322F4FE930744FE81463E8693859A
:102F500001E8138541D6EF303057138541D6EF3065
:102F6000C02505472386E1860100F24062440561E1
:102F70008280011106CE22CC0010A30704FEA30715
:102F800004FEF1A80347F4FED1670A079387475A66
:102F9000BA979C433E85EFD05F8AAA873E878547D4
:102FA0006309F7048347F4FE93962700138701F023
:102FB00036971843050793962700938701F0B69735
:102FC00098C383A7C1871307803E3357F702834610
:102FD000F4FE8A06938701F0B6979C4363ECE706FC
:102FE0000347F4FE0A07938701F1BA97094798C38C
:102FF00095A00347F4FE0A07938701F1BA97984317
:1030000089476309F70283A7C18729473357F70226
:103010008346F4FE8A06938701F0B6979C4363EBE0
:10302000E7000347F4FE0A07938701F1BA970547C3
:1030300098C309A80347F4FE0A07938701F1BA97DA
:1030400023A007000347F4FE0A07938701F0BA970D
:1030500023A007008347F4FE8507A307F4FE034778
:10306000F4FE8D47E3F0E7F20100F24062440561AF
:103070008280011122CE00102326A4FE0327C4FE65
:103080000A07938701F1BA979C433E857244056114
:103090008280797106D622D40018232EA4FC8327BF
:1030A000C4FDB337F00093F7F70F3E871306C0084F
:1030B000D167938587E93A85EF20703DA30704FE29
:1030C000A30704FE2DA80347F4FED1670A079387E0
:1030D000475ABA979C4393068004054681453E852E
:1030E000EFD0CFF90347F4FE0A07938701F1BA97AF
:1030F00023A007008347F4FE8507A307F4FE0347D8
:10310000F4FE8D47E3F1E7FC0327C4FD23AEE1861F
:103110000100B250225445618280397106DE22DC02
:1031200080002326A4FC8547A307F4FE231304FE96
:10313000231604FE232404FE232E04FC83D7818857
:103140003E87930700236316F700A5472324F4FE68
:1031500029A0A1472324F4FE01008DA8930750FA6B
:103160002300F4FE832784FE8A070327C4FCBA9752
:103170008397070093F7F70FA300F4FE832784FEDD
:103180008A070327C4FCBA97839727002313F4FE0A
:10319000835764FEA183C207C18393F7F70F23010E
:1031A000F4FE835764FE93F7F70FA301F4FE930731
:1031B00004FE1146BE851145EFF0AFBE0945EFD0C4
:1031C000AF8E832784FEFD172324F4FE032784FE9D
:1031D0009307E00FE3F4E7F883A741883E85EF30DB
:1031E00060222A87894763FFE7028D47232EF4FC7C
:1031F00083A741881306C4FD130704FE8146BA85E0
:103200003E85EF30702C034714FE9307F00F6308E0
:10321000F700034724FE9307F00F6315F700A30799
:1032200004FE31A80545EFD02F888357C4FE1387CD
:1032300017002316E4FE1307700CE37FF7F88347AB
:10324000F4FE3E85F250625421618280797106D687
:1032500022D40018232EA4FCA30704FE230704FE97
:10326000231504FE231604FE232004FE83D7818841
:103270003E87930700236316F700A547A307F4FED4
:1032800029A0A147A307F4FE01008347F4FEFD1720
:1032900093F7F70FA307F4FE11AA03D781889307CA
:1032A000F02263EDE7008307F4FE8A070327C4FDDD
:1032B000BA9703970700A5476300F70E930750FAE4
:1032C0002302F4FEC557A302F4FE8307F4FE8A0727
:1032D0000327C4FDBA97839707002315F4FE83578D
:1032E000A4FEA183C207C18393F7F70F2303F4FE63
:1032F0008357A4FE93F7F70FA303F4FE930744FE4E
:103300001146BE851145EFF0CFA9231604FE83A711
:1033100041883E85EF30000F2A87894763F7E7042D
:103320008D472320F4FE83A74188130604FE13076C
:1033300044FE8146BA853E85EF301019834754FE1E
:10334000A20793960701C186834764FE139707017E
:1033500041878307F4FE8A070326C4FDB297558F81
:10336000420741872391E70031A80545EFC0DFF30D
:103370008357C4FE138717002316E4FE1307700C4F
:10338000E377F7F80357C4FE9307800C63F7E70071
:1033900085472307F4FE39A801008307F4FE93F75D
:1033A000F70FFD1793F7F70FA307F4FE8307F4FE5B
:1033B000E3D507EE8347E4FE3E85B25022544561D3
:1033C0008280011106CE22CC0010232404FE854702
:1033D000A307F4FE231604FE232204FE83A74188DC
:1033E0003E85EF302002AA8791C783A741883E859A
:1033F000EF20B05C9305F00F1145EFF02F95930788
:1034000050FA2304F4FEBD57A304F4FE230504FE82
:10341000A30504FE930784FE1146BE851145EFF017
:103420004F98231604FE83A741883E85EF20907DA8
:103430002A87894763F0E7048D472322F4FE83A798
:103440004188130644FE130784FE8146BA853E85F3
:10345000EF3090070347A4FE85476309F700034751
:10346000A4FE89476304F700854711A08147A3079D
:10347000F4FE31A80545EFC03FE38357C4FE138730
:1034800017002316E4FE1307700CE37EF7F883475A
:10349000F4FE3E85F240624405618280011106CE51
:1034A00022CC0010A30704FE9307F4FEBE8511454D
:1034B000EFF0AFA383A7418885C70347F4FE9307C6
:1034C000500A6317F70083A741883E85EF20F04E2E
:1034D00083A741880347F4FEBA853E85EF20307A02
:1034E0000100F240624405618280411122C6000859
:1034F00005472380E18801003244410182800111A7
:1035000006CE22CC0010231704FE231604FE23222D
:1035100004FE930750FA2304F4FEC557A304F4FEF7
:10352000230504FEC957A305F4FE930784FE114644
:10353000BE851145EFF0EF8683A741883E85EF20D9
:10354000706C2A87894763F0E7048D472322F4FED5
:1035500083A74188130644FE130784FE8146BA857B
:103560003E85EF306076834794FEA20713970701EC
:1035700041878347A4FEC207C187D98FC207C1878D
:103580002316F4FE31A80545EFC01FD28357E4FE91
:10359000138717002317E4FE1307700CE37EF7F878
:1035A0008357C4FE3E85F2406244056182803971D2
:1035B00006DE22DC8000AA872317F4FC232604FE03
:1035C000A30504FE231404FE231304FE232E04FC8F
:1035D00083A7C1806393071413050004EFC0D0587C
:1035E000AA872326F4FE8327C4FE85E39306A0144E
:1035F000D167138687F2D167938507FC0145EF20D9
:10360000806F8547A305F4FE0DA26545EFC0D05538
:10361000AA873E8723A2E18883A7418885E3930692
:103620001015D167138687F2D1679385C7FD0145D1
:10363000EF20606C8547A305F4FEC5A883A74188E9
:10364000930600040326C4FE81453E85EF301042F8
:10365000930750FA2300F4FEC157A300F4FE8357EA
:10366000E4FC2314F4FE835784FEA183C207C183C4
:1036700093F7F70F2301F4FE835784FE93F7F70FB8
:10368000A301F4FE930704FE1146BE851145EFE049
:103690005FF183A741883E85EF20D0562A8789476E
:1036A00063F0E7048D47232EF4FC83A741881306BB
:1036B000C4FD130704FE8146BA853E85EF30C06025
:1036C000834714FEA207139707014187834724FE0F
:1036D000C207C187D98FC207C1872314F4FE31A85E
:1036E0000545EFC07FBC835764FE13871700231383
:1036F000E4FE1307700CE37EF7F8035784FE83574C
:10370000E4FC6318F700035764FE9307700C63FE34
:10371000E7008547A305F4FE09A88357E4FC3E852E
:10372000EF90307CAA87A305F4FE0325C4FEEFC00A
:10373000504483A741883E85EFC0B04323A201884F
:103740008347B4FE3E85F2506254216182805D71F0
:1037500086C6A2C480088547A307F4FE054723A6B2
:10376000E1809307C4FD1307C004930620061306E7
:10377000401F81453E85EFE02FBE9307C4FD3E8587
:10378000EF903016AA87B5EFD16703AE07FF138716
:1037900007FF03234700138707FF8328870013874A
:1037A00007FF0328C700138707FF084B138707FF8E
:1037B0004C4B138707FF104F138707FF544F138796
:1037C00007FF1853938707FFDC53232AC4FB232CDE
:1037D00064FA232E14FB232004FD2322A4FC2324BB
:1037E000B4FC2326C4FC2328D4FC232AE4FC232C89
:1037F000F4FC930744FB3E85EF909014AA87A3073F
:10380000F4FE8347F4FE3E85B64026446161828023
:10381000597186D6A2D480188547A307F4FE2307E2
:1038200004FE232404FE23A6018013050004EFC038
:10383000B033AA872324F4FE832784FE85E393060E
:103840007020D167138687F2D167938507FC014505
:10385000EF20604A8947A307F4FE81A46545EFC0C5
:10386000B030AA873E8723A2E18883A7418885E7F5
:103870009306E020D167138687F2D1679385C7FD51
:103880000145EF204047032584FEEFC0902E894775
:10389000A307F4FE19A483A7418893060004032616
:1038A00084FE81453E85EF30701C91679386270624
:1038B00091671386C7048967938507581145EFE020
:1038C000BFE885451145EFE01FDAEFF05FC3AA8737
:1038D0003E872394E18883D7818889CFEFF07FAE3C
:1038E000AA8789CB81451145EFE0FFD78D47A30714
:1038F000F4FE65A2D16703AE07FF138707FF03231A
:103900004700138707FF83288700138707FF0328D3
:10391000C700138707FF084B138707FF4C4B13871C
:1039200007FF104F138707FF544F138707FF1853E4
:10393000938707FFDC532320C4FD232264FC232448
:1039400014FD232604FD2328A4FC232AB4FC232CE5
:10395000C4FC232ED4FC2320E4FE2322F4FED167F2
:1039600003A3070513870705832847001387070567
:1039700003288700138707054847138707050C4B63
:1039800013870705504B13870705144F1387070547
:10399000584F938707059C53232E64F8232014FB6C
:1039A000232204FB2324A4FA2326B4FA2328C4FAEE
:1039B000232AD4FA232CE4FA232EF4FA930704FCE6
:1039C0003E85EFF08FF5AA8785C79306B024D167AF
:1039D000138687F2D167938587010145EF20A031D7
:1039E00081451145EFE03FC88547A307F4FE75A068
:1039F0009307C4F93E85EFF07F85AA8785C79306B4
:103A00007025D167138687F2D167938547030145F7
:103A1000EF20602E81451145EFE0FFC48547A307E5
:103A2000F4FEA5A8230704FEA1A88347E4FE8507AA
:103A30008A07130704FFBA97039707FD8347E4FE3D
:103A40008A07930604FFB6978397C7FA631FF702A6
:103A50008347E4FE85078A07130704FFBA97039795
:103A600027FD8347E4FE8A07930604FFB6978397F2
:103A7000E7FA631CF7008347E4FE85072307F4FE9B
:103A80000347E4FEA147E3F2E7FA8347E4FE93B776
:103A9000870093F7F70FA307F4FE032584FEEFC01A
:103AA000500D83A741883E85EFC0B00C23A201884A
:103AB0008347F4FE3E85B650265465618280797155
:103AC00006D622D40018A30704FEB73700001386D9
:103AD000A74E81450D45EF109003EFF05FC7AA8711
:103AE0008DC3B73700001386A74EB7370000938504
:103AF000C7490D45EF10B001EFF09FD1AA87A3078A
:103B0000F4FE8347F4FEB9E791473EC495473EC2B1
:103B100099473EC093089002130880029307600201
:103B20001307B0049306900413068004A9452545A5
:103B3000EFC0BF8193068007996713860782B71786
:103B4000002093858799B717002013858799EFC0C8
:103B5000FF8F31A0014681450145EF10407B83472F
:103B6000F4FE3E85B250225445618280011106CE9A
:103B700022CC0010AA87A307F4FEB7070020938782
:103B80000704DC4713070008D8CB8347F4FEBE8543
:103B90000545EFE08F87B707002093870704DC47D0
:103BA0001307000898CB0100F2406244056182804F
:103BB000011106CE22CC0010AA8736872317F4FE07
:103BC000AE872316F4FEB2872315F4FEBA872314BA
:103BD000F4FE83C78181C207C1830357E4FEB33774
:103BE000F70093F7F70F3E871306A008D167938578
:103BF00087073A85EF20A00983C79181C207C18357
:103C00000357C4FEB337F70093F7F70F3E87130649
:103C1000B008D167938587073A85EF20400783C7AF
:103C20008181C207C1830357A4FEB337F70093F71E
:103C3000F70F3E871306C008D167938587073A853B
:103C4000EF20E00483C79181C207C183035784FE3C
:103C5000B337F70093F7F70F3E871306D008D16705
:103C6000938587073A85EF20800283A7C18805479F
:103C70006376F7000D47636BF71061A01305A00290
:103C8000F53581450545EFD05FF88357E4FE93F79E
:103C9000F70F890793F7F70FBE850545EFD0FFF6BD
:103CA00081450545EFD07FF68357A4FE93F7F70FC4
:103CB000890793F7F70FBE850545EFD01FF513056C
:103CC000B0026D3581450545EFD03FF48357C4FE02
:103CD00093F7F70F850793F7F70FBE850545EFD0EC
:103CE000DFF281450545EFD05FF2835784FE93F7FD
:103CF000F70F850793F7F70FBE850545EFD0FFF067
:103D000071A01305A002EFF07FE681450545EFD0D5
:103D1000DFEF8357E4FE93F7F70F850793F7F70F6D
:103D2000BE850545EFD07FEE81450545EFD0FFED1F
:103D30008357A4FE93F7F70F850793F7F70FBE8518
:103D40000545EFD09FEC1305B002EFF03FE281454F
:103D50000545EFD09FEB8357C4FE93F7F70F890714
:103D600093F7F70FBE850545EFD03FEA814505453E
:103D7000EFD0BFE9835784FE93F7F70F890793F7D6
:103D8000F70FBE850545EFD05FE801001305C002BF
:103D9000EFF0DFDD0100F24062440561828079715D
:103DA00006D622D400189307C4FD3E85EF10907903
:103DB0008547231EF4FC83C78181C207C183231F6B
:103DC000F4FC83C79181C207C1832310F4FE83A74B
:103DD00041810547638AE70099EF99472301F4FE83
:103DE000A147A301F4FE09A8A1472301F4FEC1479E
:103DF000A301F4FE11A00100B74700009387874D8F
:103E00002324F4FEB7470000938747E22326F4FEFD
:103E10009307C4FD3E85EF1090780100B250225404
:103E200045618280011106CE22CC001083C78181BA
:103E30003E8783C79181B307F7022326F4FEB707B5
:103E4000002093870704DC474147D8CB83C7818193
:103E5000C207C183FD1713970701418383C791816F
:103E6000C207C183FD17C207C183BE863A8681455A
:103E70000145EFF0FFD321A883D72181BE850545F9
:103E8000EFD01FDE8327C4FEFD172326F4FE832711
:103E9000C4FEFDF3B707002093870704DC474147C2
:103EA00098CB0100F240624405618280011122CE6C
:103EB00000102326A4FE0327C4FE23A6E18883A7BF
:103EC000C18805476376F7000D476365F70211A8BF
:103ED000130700F8238CE180130700FAA38CE1801C
:103EE00011A8130700FA238CE180130700F8A38CB4
:103EF000E18001000100724405618280011122CE3F
:103F00000010AA872E872317F4FEBA872316F4FE23
:103F10000357E4FE2398E1800357C4FE2399E18010
:103F20000100724405618280011106CE22CC00108E
:103F3000AA87AE8632872317F4FEB6872316F4FECF
:103F4000BA872315F4FE83C78181C207C183035753
:103F5000E4FEB337F70093F7F70F3E8713064014DC
:103F6000D167938587073A85EF10705283C7918197
:103F7000C207C1830357C4FEB337F70093F7F70FA7
:103F80003E8713065014D167938587073A85EF1053
:103F90001050B707002093870704DC474147D8CB70
:103FA0008356C4FE0356E4FE0357C4FE8357E4FE63
:103FB000BA853E85EFF0DFBF8357A4FEBE85054579
:103FC000EFD01FCAB707002093870704DC4741479B
:103FD00098CB0100F240624405618280797106D677
:103FE00022D40018AA87231FF4FCAE87231EF4FCFA
:103FF000B287231DF4FCB687231CF4FCBA87231B6D
:10400000F4FC83C78181C207C1830357E4FDB33742
:10401000F70093F7F70F3E871306C015D167938516
:1040200087073A85EF10B04683C79181C207C183E5
:104030000357C4FDB337F70093F7F70F3E87130616
:10404000D015D167938587073A85EF10504483C711
:104050008181C207C1830357A4FDB337F70093F7EB
:10406000F70F3E871306E015D167938587073A85DA
:10407000EF10F04183C79181C207C183035784FDCC
:10408000B337F70093F7F70F3E871306F015D167A4
:10409000938587073A85EF10903F0357E4FD8357D8
:1040A000A4FD6374F700854711A0FD572317F4FEA4
:1040B0000357C4FD835784FD6374F700854711A03F
:1040C000FD572316F4FE232404FE232204FE035787
:1040D000E4FD8357A4FD630EF7080357C4FD83571F
:1040E00084FDB307F74053F707D00357E4FD835728
:1040F000A4FDB307F740D3F707D0D377F7182724E9
:10410000F4FE8357C4FD53F717D08357E4FDD3F66D
:1041100017D0872784FED3F7F610D377F708272226
:10412000F4FE0357C4FD835784FD1D8F9357F74159
:104130003D8F1D8F8356E4FD8357A4FDB387F64062
:1041400093D6F741B58F958F63DBE70CB5A88356FF
:1041500064FD0357C4FD8357E4FD3686BA853E856A
:10416000EFF09FDC0357C4FE8357C4FDBA97231EAC
:10417000F4FC0357C4FD835784FDE31AF7FC7DA0CC
:10418000835664FD0357C4FD8357E4FD3686BA8524
:104190003E85EFF07FD90357C4FE8357C4FDBA971D
:1041A000231EF4FC8357C4FD53F717D0872744FE22
:1041B0005377F708872784FED377F718D39707C07C
:1041C000C207C187231FF4FC0357C4FD835784FD36
:1041D000E318F7FAA1A8835664FD0357C4FD83577B
:1041E000E4FD3686BA853E85EFF01FD40357E4FE22
:1041F0008357E4FDBA97231FF4FC8357E4FD53F77C
:1042000017D0872784FE5377F710872744FED3778C
:10421000F700D39707C0C207C187231EF4FC0357DA
:10422000E4FD8357A4FDE318F7FA09A00100B2509A
:10423000225445618280797106D622D40018AA875B
:10424000AE863287231FF4FCB687231EF4FCBA87A0
:10425000A30DF4FC83C78181C207C1830357E4FD2A
:10426000B337F70093F7F70F3E8713069019D1671E
:10427000938587073A85EF10902183C79181C20704
:10428000C1830357C4FDB337F70093F7F70F3E8799
:104290001306A019D167938587073A85EF10301F61
:1042A000A30704FE230704FEB70700209387070433
:1042B000DC474147D8CB83A741810547638AE70C98
:1042C000639F071EA30704FE75A88347F4FE139798
:1042D000070141838357E4FDBA9713950701418194
:1042E0008347F4FE1397070141838357E4FDBA9790
:1042F0001397070141838357C4FDA10793960701D4
:10430000C1828357C4FD3A86BE85EFF07F8A83075A
:10431000B4FD138707FE8346F4FE5566BA87860709
:10432000BA978607130746BABA97B69783C70700A6
:10433000A306F4FE230704FE25A88347D4FE858B3D
:1043400081CB83D70181BE850545EFD07F9139A010
:1043500083D72181BE850545EFD09F908347D4FE4A
:104360008583A306F4FE8347E4FE85072307F4FE56
:104370000347E4FE9D47E3F2E7FC8347F4FE85072D
:10438000A307F4FE0347F4FE9547E3F0E7F40DAA14
:10439000A30704FE39AA8347F4FE1397070141835C
:1043A0008357E4FDBA971395070141818347F4FED3
:1043B0001397070141838357E4FDBA9713970701C9
:1043C00041838357C4FDBD0793960701C18283577C
:1043D000C4FD3A86BE85EFF0AFFD8307B4FD93863A
:1043E00007FE8347F4FE516792061307475B369733
:1043F000BA9783C707002306F4FE8307B4FD9386AC
:1044000007FE8347F4FEA107516792061307475B37
:104410003697BA9783C70700A305F4FE230704FE67
:1044200025A88347C4FE858B81CB83D70181BE85B8
:104430000545EFD0FF8239A083D72181BE85054590
:10444000EFD01F828347C4FE85832306F4FE834793
:10445000E4FE85072307F4FE0347E4FE9D47E3F2ED
:10446000E7FC230704FE25A88347B4FE858B81CB98
:1044700083D70181BE850545EFD08FFE39A083D754
:104480002181BE850545EFD0AFFD8347B4FE85830E
:10449000A305F4FE8347E4FE85072307F4FE0347E4
:1044A000E4FE9D47E3F2E7FC8347F4FE8507A3079C
:1044B000F4FE0347F4FE9D47E3FFE7EC11A0010083
:1044C000B707002093870704DC47414798CB0100DA
:1044D000B250225445618280797106D622D40018E8
:1044E000AA872E87232CC4FC231FF4FCBA87231E23
:1044F000F4FC83C78181C207C1830357E4FDB3374E
:10450000F70093F7F70F3E871306D01ED167938508
:1045100087073A85EF10A07783C79181C207C183CF
:104520000357C4FDB337F70093F7F70F3E87130621
:10453000E01ED167938587073A85EF1040752317F2
:1045400004FE71A083A7418105476381E704B5EBB1
:104550000357E4FEBA878607BA97860713970701C1
:1045600041838357E4FDBA9793960701C18283572D
:10457000E4FE032784FDBA97038707008357C4FD31
:104580003A86BE853685EFF01FCB2DA88357E4FE13
:104590008E071397070141838357E4FDBA979396DB
:1045A0000701C1828357E4FE032784FDBA9703877E
:1045B00007008357C4FD3A86BE853685EFF0BFC736
:1045C00011A001008357E4FE85072317F4FE8357EB
:1045D000E4FE032784FDBA9783870700A5F701004F
:1045E000B250225445618280397106DE22DC80009F
:1045F000AA872324C4FC36872317F4FCAE8723162E
:10460000F4FCBA87A303F4FC83C78181C207C1838A
:104610000357E4FCB337F70093F7F70F3E87130611
:10462000B020D167938587073A85EF10406683C72E
:104630009181C207C1830357C4FCB337F70093F7D6
:10464000F70F3E871306C020D167938587073A8509
:10465000EF10E063834774FCB337F00093F7F70F74
:104660003E871306D020D167938587073A85EF10E0
:104670000062834774FC93B7B70093F7F70F3E8748
:104680001306E020D167938587073A85EF102060F5
:10469000832784FC2326F4FE85472324F4FE930716
:1046A000C4FD314681453E85EFB09FB5834774FC1C
:1046B00085073E879307C4FD3A86930500023E8531
:1046C000EFB01FB4034774FCA54763EBE70231A8C2
:1046D000032784FEBA878A07BA9786072324F4FE45
:1046E000834774FCFD17A303F4FC834774FCEDF3CC
:1046F0000327C4FE832784FEB367F7022326F4FE54
:104700009307C4FD8325C4FE3E85EF20B05A93066F
:10471000C4FD0357C4FC8357E4FC3686BA853E8546
:10472000EFF09FDB0100F250625421618280397109
:1047300006DE22DC8000AA872324C4FC36872317E8
:10474000F4FCAE872316F4FCBA87A303F4FC83C7FA
:104750008181C207C1830357E4FCB337F70093F7A5
:10476000F70F3E8713062023D167938587073A8585
:10477000EF10E05183C79181C207C1830357C4FC86
:10478000B337F70093F7F70F3E8713063023D1674F
:10479000938587073A85EF10804F834774FCB337C2
:1047A000F00093F7F70F3E8713064023D1679385F8
:1047B00087073A85EF10A04D834774FC93B7B70085
:1047C00093F7F70F3E8713065023D167938587072A
:1047D0003A85EF10C04B832784FC2326F4FE8547DF
:1047E0002324F4FE9307C4FD314681453E85EFB096
:1047F0003FA1034774FC9307C4FD3A86930500026A
:104800003E85EFB0FF9F034774FCA54763EBE702CB
:1048100031A8032784FEBA878A07BA97860723241C
:10482000F4FE834774FCFD17A303F4FC834774FC78
:10483000EDF3832784FE0327C4FEB377F702232614
:10484000F4FE9307C4FD8325C4FE3E85EF20F05798
:104850009306C4FD0357C4FC8357E4FC3686BA852F
:104860003E85EFF07FC70100F250625421618280E3
:104870005D7186C6A2C4A6C280082328C4FA232A72
:10488000D4FABA863E87AA87231FF4FAAE87231E7E
:10489000F4FAB687A30DF4FABA87230DF4FA83C7A6
:1048A0008181C207C1830357E4FBB337F70093F755
:1048B000F70F3E871306C025D167938587073A8592
:1048C000EF10E03C83C79181C207C1830357C4FB4B
:1048D000B337F70093F7F70F3E871306D025D1675C
:1048E000938587073A85EF10803A8347B4FBB33747
:1048F000F00093F7F70F3E871306E025D167938505
:1049000087073A85EF10A0388347B4FB93B7970029
:1049100093F7F70F3E871306F025D1679385870736
:104920003A85EF10C0368347A4FBB337F00093F706
:10493000F70F3E8713060026D167938587073A85D0
:10494000EF10E0348347A4FB93B7770093F7F70F9A
:104950003E8713061026D167938587073A85EF10A7
:104960000033832704FB032844FB2320F4FE232287
:1049700004FFD16703A8471183A707112324F4FE7E
:10498000232604FF9307C4FC454681453E85EFB0CE
:104990003F870347B4FB8347A4FBBA9789073E8749
:1049A0009307C4FC3A86930500023E85EFB05F850D
:1049B0003DA0D16703A6871183A6C711032584FEF6
:1049C0008325C4FEEFA0E017AA872E882324F4FED7
:1049D000232604FF8347B4FBFD17A30DF4FA834796
:1049E000B4FBE1FB032504FE832544FEEFB0402B1E
:1049F000AA84032584FE8325C4FEEFB0602AAA871B
:104A0000B3C7F4023E85EFB00041AA872E88032683
:104A100084FE8326C4FE3E85C285EFA08012AA874D
:104A20002E883E86C286032504FE832544FEEFA021
:104A3000A076AA872E882320F4FE232204FF0347B2
:104A4000A4FB9307C4FCBA86832504FE032644FE18
:104A50003E85EF2010459306C4FC0357C4FB8357E3
:104A6000E4FB3686BA853E85EFF01FA70100B6400D
:104A700026449644616182805D7186C6A2C4800826
:104A80002A8E2E832324C4FC3685BA853E86C286B0
:104A90004687F2872317F4FC9A872316F4FCAA872B
:104AA0002313F4FCAE872312F4FCB2872311F4FC29
:104AB000B6872310F4FCBA87A30FF4FA83C7818169
:104AC000C207C1830357E4FCB337F70093F7F70F2E
:104AD0003E871306B02BD167938587073A85EF1081
:104AE000001B83C79181C207C1830357C4FCB3373E
:104AF000F70093F7F70F3E871306C02BD167938516
:104B000087073A85EF10A018832784FCB337F0009D
:104B100093F7F70F3E871306D02BD167938587074E
:104B20003A85EF10C016232604FE232404FE231327
:104B300004FE231204FE232004FE232E04FCB707E8
:104B4000002093870704DC474147D8CB0357E4FC98
:104B5000835724FCBA97C207C183FD171396070138
:104B600041820357C4FC835704FCBA97C207C18330
:104B7000FD1793960701C1820357C4FC8357E4FCD9
:104B8000BA853E85EFF0CF82232404FE19A2035795
:104B900044FC832784FE3307F702835704FCB35792
:104BA000F702232EF4FC232604FEC9A8035764FC55
:104BB0008327C4FE3307F702835724FCB357F70259
:104BC0002320F4FE035764FC8327C4FD3307F70258
:104BD000832704FEBA97032784FCBA9783C707008C
:104BE0002312F4FE8347F4FBB5E3835744FE8D8321
:104BF000C207C183AE072313F4FE835744FE8983A3
:104C0000C207C1839607C207C18793F7077E139730
:104C100007014187831764FED98FC207C187231319
:104C2000F4FE835744FE8D83C207C183FD8B139727
:104C300007014183835764FED98F2313F4FE835702
:104C400064FEBE850545EFD0AF8125A08347F4FB08
:104C5000C207C183035744FE6377F70081450545CA
:104C6000EFD00F8039A0C1679385F7FF0545EFC0EE
:104C70003FFF8327C4FE85072326F4FE835724FCC9
:104C80000327C4FEE364F7F2832784FE8507232409
:104C9000F4FE835704FC032784FEE36AF7EEB707AC
:104CA000002093870704DC47414798CB0100B640BA
:104CB000264461618280397106DE22DC8000232275
:104CC000D4FCBA863E87AA872317F4FCAE87231646
:104CD000F4FCB287A305F4FCB6872305F4FCBA877D
:104CE0002314F4FC83C78181C207C1830357E4FC0A
:104CF000B337F70093F7F70F3E871306D034D16729
:104D0000938587073A85EF00907883C79181C20722
:104D1000C1830357C4FCB337F70093F7F70F3E87FF
:104D20001306E034D167938587073A85EF00307624
:104D3000832744FCB337F00093F7F70F3E87130641
:104D4000F034D167938587073A85EF0050742326A6
:104D500004FE232404FE232204FEA30D04FCA3016D
:104D600004FE230D04FC832744FC232EF4FC83471C
:104D7000B4FC8D83230DF4FCB70700209387070450
:104D8000DC474147D8CB8347A4FC139707014183F5
:104D90008347B4FCC207C183B307F7021397070127
:104DA00041838357E4FCBA97C207C183FD1713966A
:104DB000070141828347B4FC13970701418383575E
:104DC000C4FCBA97C207C183FD1793960701C1823D
:104DD0000357C4FC8357E4FCBA853E85EFE05FDDF2
:104DE000232604FEE9A88347A4FCA301F4FE03479D
:104DF000A4FD8327C4FEB307F7023E87832744FC44
:104E0000BA97232EF4FC45A0232204FEBDA0A1479F
:104E10002324F4FEA9A08327C4FD83C707003E878F
:104E2000832784FEFD17B357F74093F7F70F858B61
:104E3000A30DF4FC8347B4FD81CB835784FCBE856E
:104E40000545EFC0FFE139A083D72181BE85054527
:104E5000EFC01FE1832784FEFD172324F4FE832780
:104E600084FEE34AF0FA8327C4FD8507232EF4FC71
:104E7000832744FE85072322F4FE8347A4FD0327EE
:104E800044FEE346F7F80347A4FD8347B4FCB307A9
:104E9000F7023E878347A4FDB307F7400327C4FD0D
:104EA000BA97232EF4FC834734FE1387F7FFA30140
:104EB000E4FEB9FB8327C4FE85072326F4FE83475F
:104EC000B4FC0327C4FEE340F7F2B7070020938742
:104ED0000704DC47414798CB0100F250625421613E
:104EE0008280411106C622C400081308F00FC16772
:104EF000F91705671307F70285669386D60237A66A
:104F00004A041306062081450545EFC0BFDFC146B0
:104F10000146854513057006EFB05F96C146014610
:104F2000854513057002EFB07F95C146054685455E
:104F300013054006EFB09F94C1460546854513050D
:104F40000006EFB0BF9383A7C1883E85EFE01FF650
:104F500003D7018183D72181BE853A85EFE01FFA0F
:104F6000B707002093870704DC4313070008D8CB5A
:104F70002945EFB06FB3B707002093870704DC43E0
:104F80001307000898CB13058007EFB0EFB1B70700
:104F9000002093870704DC474147D8CB4545EFE025
:104FA000FFBC13058007EFB02FB01305100BEFE027
:104FB000FFBB85450545EFC05FC59305C0020545AC
:104FC000EFC0BFC49305D0020545EFC01FC4130551
:104FD000200BEFE0BFB985450545EFC01FC3930522
:104FE000C0020545EFC07FC29305D0020545EFC062
:104FF000DFC11305300BEFE07FB785450545EFC0F6
:10500000DFC09305C0020545EFC03FC09305D00245
:105010000545EFC09FBF85450545EFC01FBF930500
:10502000C0020545EFC07FBE9305D0020545EFC025
:10503000DFBD1305400BEFE07FB39D450545EFC095
:10504000DFBC1305000CEFE07FB29305200A054595
:10505000EFC0BFBB89450545EFC03FBB9305400886
:105060000545EFC09FBA1305100CEFE03FB0930564
:10507000500C0545EFC07FB91305200CEFE01FAFC2
:10508000A9450545EFC07FB881450545EFC0FFB78D
:105090001305300CEFE09FAD9305A0080545EFC068
:1050A000DFB69305A0020545EFC03FB61305400CDF
:1050B000EFE0DFAB9305A0080545EFC01FB59305F2
:1050C000E00E0545EFC07FB41305500CEFE01FAABA
:1050D000B9450545EFC07FB313056003EFE01FA995
:1050E00083A7C18805476380E70281CB09476381B5
:1050F000E7020D476384E70205A89305000C054508
:10510000EFC0BFB015A081450545EFC01FB029A86D
:105110009305000A0545EFC05FAF39A0930500066F
:105120000545EFC09FAE01001305000EEFE01FA480
:10513000BD450545EFC07FADE9450545EFC0FFAC76
:10514000BD450545EFC07FACE1450545EFC0FFAB70
:105150009305F0020545EFC05FAB9305800205455E
:10516000EFC0BFAA930500020545EFC01FAA930533
:1051700020020545EFC07FA9FD450545EFC0FFA80A
:10518000ED450545EFC07FA8930530020545EFC00A
:10519000DFA7930570030545EFC03FA7814505458F
:1051A000EFC0BFA69D450545EFC03FA68945054513
:1051B000EFC0BFA5C1450545EFC03FA51305100EC3
:1051C000EFE0DF9ABD450545EFC03FA4ED4505453D
:1051D000EFC0BFA3BD450545EFC03FA3DD45054575
:1051E000EFC0BFA2930530030545EFC01FA2930592
:1051F000C0020545EFC07FA1930590020545EFC0B1
:10520000DFA09305E0020545EFC03FA09305000332
:105210000545EFC09F9F930500030545EFC0FF9E26
:10522000930590030545EFC05F9E9305F003054588
:10523000EFC0BF9D81450545EFC03F9D9D4505459C
:10524000EFC0BF9C8D450545EFC03F9CC14505455E
:10525000EFC0BF9B1305A002EFE05F9181450545BC
:10526000EFC0BF9A89450545EFC03F9A8145054586
:10527000EFC0BF99930520080545EFC01F9913059E
:10528000B002EFE0BF8E81450545EFC01F988D4508
:105290000545EFC09F9781450545EFC01F979305D2
:1052A00030080545EFC07F961305000FEFE01F8C17
:1052B00085450545EFC07F951305600FEFE01F8B17
:1052C00081450545EFC07F941305A003EFE01F8AD9
:1052D00095450545EFC07F9313059002EFE01F89C8
:1052E000B707002093870704DC47414798CBEFE0DE
:1052F0007FB3EFE0DFAA0100B24022444101828087
:10530000411122C60008010032444101828001118E
:1053100022CE00102326A4FE2324B4FE2322C4FEA2
:105320000327C4FE23A8E188832744FE81C783277F
:1053300044FE29A0B75700009387073023A0F182CD
:10534000832784FE81C7832784FE29A0B7570000E6
:105350009387073023AEF18001007244056182809B
:10536000411122C60008B71702409843B717024000
:105370001367170098C3B7170240D443B71702400A
:105380003707FFF8758FD8C3B71702409443B71794
:1053900002403707F7FE7D17758F98C3B717024095
:1053A0009443B71702403707FCFF7D17758F98C3EA
:1053B000B7170240D443B7170240370781FF7D1764
:1053C000758FD8C3B717024037079F0098C70100F1
:1053D000324441018280797106D622D40018232EEE
:1053E000A4FCEFF0FFF7232604FE232404FEB717E6
:1053F00002409443B71702404167558F98C3B717CF
:1054000002409843B7070200F98F2324F4FE832754
:10541000C4FE85072326F4FE832784FE91E7032735
:10542000C4FE8567E31DF7FCB71702409843B70732
:105430000200F98F89C785472324F4FE19A023248D
:1054400004FE032784FE85476312F71637170240D0
:10545000B71702405843D8C337170240B717024066
:105460005843D8C337170240B71702405843D8C330
:10547000B7170240D443B71702403707C1FF7D1763
:10548000758FD8C30327C4FDB74795089387074096
:10549000631BF700B7170240D443B71702404167B8
:1054A000558FD8C355A80327C4FDB717270793877F
:1054B00007E0631CF700B7170240D443B717024058
:1054C00037073900558FD8C341A80327C4FDB7E774
:1054D000B80593870780631CF700B7170240D443D1
:1054E000B717024037072900558FD8C3B5A0032747
:1054F000C4FDB7A74A0493870720631CF700B717BA
:105500000240D443B717024037071D00558FD8C358
:10551000A1A00327C4FDB777DC02938707C0631CF3
:10552000F700B7170240D443B717024037071100FE
:10553000558FD8C315A00327C4FDB7376E019387D5
:105540000760631BF700B7170240D443B717024048
:1055500037070500558FD8C3B71702409443B717D4
:10556000024037070001558F98C30100B71702406A
:105570009843B7070002F98FF5DBB7170240D8430D
:10558000B7170240719BD8C3B7170240D843B7176B
:10559000024013672700D8C30100B7170240DC435D
:1055A00013F7C700A147E31AF7FE11A001A0B250FC
:1055B000225445618280011106CE22CC00102326A0
:1055C000A4FE0327C4FE23A6E182EFF07FD90325C2
:1055D000C4FEEFF05FE0EF20C04E0100F2406244F5
:1055E00005618280411122C6000801000100324499
:1055F00041018280011106CE22CC0010232604FE38
:10560000232404FE232604FE2DA0232404FE01A847
:10561000EFF05FFD832784FE85072324F4FE032734
:1056200084FEC167E366F7FE8327C4FE8507232651
:10563000F4FE0327C4FE9307F00FE3F8E7FC010034
:10564000F240624405618280411122C600080100D7
:10565000324441018280011106CE22CC0010232663
:10566000A4FE8325C4FE0945EFC0FFF90100F24006
:10567000624405618280130101D923261126232467
:10568000812623229126801C232EA4D8232CB4D833
:10569000232AC4D82328D4D8231504FE231404FEB7
:1056A000231304FE231204FE231104FE032584D9D0
:1056B000EFB0501BAA87C207C1872313F4FEB76758
:1056C000002083D7472199C7B767002093874721D8
:1056D0009C4B829783C7518993F7F70F6385074ED9
:1056E000B767002083D7472163890746B767002043
:1056F00093874721D447835724FE13970701418797
:1057000093170701C1838507C207C183C207C187F9
:105710002311F4FE93170701C1830326C4D9BE8564
:1057200001458296832784D92326F4FE032584D954
:10573000EFB05013AA87C207C1872313F4FEB767DF
:1057400000209387472183D727003E87B767002033
:105750009387472183C76700B347F702C207C18712
:105760002312F4FE01008327C4FE138717002326AB
:10577000E4FE83870700E5FB231404FEA1A883272A
:10578000C4FEFD172326F4FE8327C4FE038707000B
:105790009307F002630AF7008327C4FE038707001C
:1057A0009307C005631BF700835784FEC207C183BC
:1057B0008507C207C1832314F4FE835764FEC20722
:1057C000C187C207C183FD17C207C183C207C18752
:1057D0002313F4FE835784FE139707014183854703
:1057E00063E8E700835764FEC207C187E3D907F87F
:1057F000835764FEC207C18763C207028327C4FEC2
:1058000085072326F4FE130704EE0326C4FED167A2
:10581000938507123A85EFB090001DA8835784FE48
:10582000C207C18381EF130704EE0326C4FED167CC
:105830009385C7123A85EFB0807E19A8130704EE4E
:105840000326C4FED167938507123A85EFB0207D09
:10585000231504FE05A2231404FE59A0930704EEA9
:105860003E85EFB030002A87835784FEC207C1838C
:10587000BE868357A4FEC207C1833E86835744FE7B
:10588000C207C187B307F602B6976367F706835767
:1058900084FEC207C1833E878357A4FEC207C1832B
:1058A000BE86835744FEC207C187B387F602BA9704
:1058B000035784FE42074183BA86130704FFBA9751
:1058C000038707EF930704FFB6972388E7EA835718
:1058D00084FEC207C1838507C207C1832314F4FE77
:1058E000835784FEC207C1833E87835744FEC207A5
:1058F000C187E345F7F611A00100835784FEC20774
:10590000C183130704FFBA97238807EAB76700200B
:105910009387472103A8C700B767002093874721D3
:1059200083C77700139707014183835724FE93961B
:105930000701C18693970601C1838507C207C1830A
:10594000C207C1872311F4FE93970601C183B307F1
:10595000F702C207C183130704EA3A86BE850145F0
:1059600002988357A4FEC207C1838507C207C1837B
:105970002315F4FE8357A4FEC207C183BE84930798
:1059800004EE3E85EFB0006E2A87835744FEC207BF
:10599000C187B357F7028507E3EFF4EA130704EE74
:1059A000032644D9D1679385C7133A85EFB02067A2
:1059B000B76700209387472103A8C700B767002077
:1059C0009387472183C77700139707014183835744
:1059D00024FE93960701C18693970601C18385072C
:1059E000C207C183C207C1872311F4FE9397060142
:1059F000C183B307F702C207C183130704EE3A86D7
:105A0000BE8501450298832704D9638E071A2315A2
:105A100004FE05A2231404FE59A0032504D9EFB007
:105A200060642A87835784FEC207C183BE8683577A
:105A3000A4FEC207C1833E86835744FEC207C187C6
:105A4000B307F602B6976368F706835784FEC2076A
:105A5000C1833E878357A4FEC207C183BE86835796
:105A600044FEC207C187B387F602BA973E878327F1
:105A700004D9BA97035784FE42074183BA86038745
:105A80000700930704FFB6972388E7EA835784FE4D
:105A9000C207C1838507C207C1832314F4FE83575D
:105AA00084FEC207C1833E87835744FEC207C18775
:105AB000E345F7F611A00100835784FEC207C183B6
:105AC000130704FFBA97238807EAB7670020938774
:105AD000472103A8C700B76700209387472183C7E2
